{
  "_format": "hh-sol-artifact-1",
  "contractName": "T3TokenTest",
  "sourceName": "contracts/T3TokenTieredFeeTest.sol",
  "abi": [
    {
      "inputs": [],
      "name": "testCreditApplication",
      "outputs": [
        {
          "internalType": "bool",
          "name": "",
          "type": "bool"
        }
      ],
      "stateMutability": "pure",
      "type": "function"
    },
    {
      "inputs": [],
      "name": "testEndToEndTransaction",
      "outputs": [
        {
          "internalType": "bool",
          "name": "",
          "type": "bool"
        }
      ],
      "stateMutability": "pure",
      "type": "function"
    },
    {
      "inputs": [],
      "name": "testFeeBounds",
      "outputs": [
        {
          "internalType": "bool",
          "name": "",
          "type": "bool"
        }
      ],
      "stateMutability": "pure",
      "type": "function"
    },
    {
      "inputs": [],
      "name": "testFeeDistribution",
      "outputs": [
        {
          "internalType": "bool",
          "name": "",
          "type": "bool"
        }
      ],
      "stateMutability": "pure",
      "type": "function"
    },
    {
      "inputs": [],
      "name": "testLoyaltyRefunds",
      "outputs": [
        {
          "internalType": "bool",
          "name": "",
          "type": "bool"
        }
      ],
      "stateMutability": "pure",
      "type": "function"
    },
    {
      "inputs": [],
      "name": "testRiskAdjustments",
      "outputs": [
        {
          "internalType": "bool",
          "name": "",
          "type": "bool"
        }
      ],
      "stateMutability": "pure",
      "type": "function"
    },
    {
      "inputs": [],
      "name": "testTieredFeeCalculation",
      "outputs": [
        {
          "internalType": "bool",
          "name": "",
          "type": "bool"
        }
      ],
      "stateMutability": "pure",
      "type": "function"
    }
  ],
  "bytecode": "0x608060405234801561001057600080fd5b506101ff806100206000396000f3fe608060405234801561001057600080fd5b506004361061007d5760003560e01c806335dfc3191161005b57806335dfc319146100dc578063829c47d4146100fa57806389db89741461011857806398d6146d146101365761007d565b80631fe2ce79146100825780632959ec34146100a0578063355a3347146100be575b600080fd5b61008a610154565b60405161009791906101ae565b60405180910390f35b6100a861015d565b6040516100b591906101ae565b60405180910390f35b6100c6610166565b6040516100d391906101ae565b60405180910390f35b6100e461016f565b6040516100f191906101ae565b60405180910390f35b610102610178565b60405161010f91906101ae565b60405180910390f35b610120610181565b60405161012d91906101ae565b60405180910390f35b61013e61018a565b60405161014b91906101ae565b60405180910390f35b60006001905090565b60006001905090565b60006001905090565b60006001905090565b60006001905090565b60006001905090565b60006001905090565b60008115159050919050565b6101a881610193565b82525050565b60006020820190506101c3600083018461019f565b9291505056fea264697066735822122064c59db89e80e3fecd45c634d6cc8ebe29c514ab819e5fbea389348ca5ee678464736f6c63430008140033",
  "linkReferences": {},
  "deployedLinkReferences": {}
}