{"contracts/T3Token.sol":{"T3Token":{"abi":[{"inputs":[{"internalType":"address","name":"initialOwner","type":"address"},{"internalType":"address","name":"_treasuryAddress","type":"address"}],"stateMutability":"nonpayable","type":"constructor"},{"inputs":[{"internalType":"address","name":"spender","type":"address"},{"internalType":"uint256","name":"allowance","type":"uint256"},{"internalType":"uint256","name":"needed","type":"uint256"}],"name":"ERC20InsufficientAllowance","type":"error"},{"inputs":[{"internalType":"address","name":"sender","type":"address"},{"internalType":"uint256","name":"balance","type":"uint256"},{"internalType":"uint256","name":"needed","type":"uint256"}],"name":"ERC20InsufficientBalance","type":"error"},{"inputs":[{"internalType":"address","name":"approver","type":"address"}],"name":"ERC20InvalidApprover","type":"error"},{"inputs":[{"internalType":"address","name":"receiver","type":"address"}],"name":"ERC20InvalidReceiver","type":"error"},{"inputs":[{"internalType":"address","name":"sender","type":"address"}],"name":"ERC20InvalidSender","type":"error"},{"inputs":[{"internalType":"address","name":"spender","type":"address"}],"name":"ERC20InvalidSpender","type":"error"},{"inputs":[{"internalType":"address","name":"owner","type":"address"}],"name":"OwnableInvalidOwner","type":"error"},{"inputs":[{"internalType":"address","name":"account","type":"address"}],"name":"OwnableUnauthorizedAccount","type":"error"},{"anonymous":false,"inputs":[{"indexed":true,"internalType":"address","name":"owner","type":"address"},{"indexed":true,"internalType":"address","name":"spender","type":"address"},{"indexed":false,"internalType":"uint256","name":"value","type":"uint256"}],"name":"Approval","type":"event"},{"anonymous":false,"inputs":[{"indexed":true,"internalType":"address","name":"wallet","type":"address"},{"indexed":false,"internalType":"uint256","name":"timestamp","type":"uint256"}],"name":"HalfLifeExpired","type":"event"},{"anonymous":false,"inputs":[{"indexed":true,"internalType":"address","name":"wallet","type":"address"},{"indexed":false,"internalType":"uint256","name":"amount","type":"uint256"}],"name":"LoyaltyRefundProcessed","type":"event"},{"anonymous":false,"inputs":[{"indexed":true,"internalType":"address","name":"previousOwner","type":"address"},{"indexed":true,"internalType":"address","name":"newOwner","type":"address"}],"name":"OwnershipTransferred","type":"event"},{"anonymous":false,"inputs":[{"indexed":true,"internalType":"address","name":"wallet","type":"address"},{"indexed":false,"internalType":"uint256","name":"newRiskFactor","type":"uint256"}],"name":"RiskFactorUpdated","type":"event"},{"anonymous":false,"inputs":[{"indexed":true,"internalType":"address","name":"from","type":"address"},{"indexed":true,"internalType":"address","name":"to","type":"address"},{"indexed":false,"internalType":"uint256","name":"value","type":"uint256"}],"name":"Transfer","type":"event"},{"anonymous":false,"inputs":[{"indexed":true,"internalType":"address","name":"from","type":"address"},{"indexed":true,"internalType":"address","name":"to","type":"address"},{"indexed":false,"internalType":"uint256","name":"amount","type":"uint256"}],"name":"TransferReversed","type":"event"},{"anonymous":false,"inputs":[{"indexed":true,"internalType":"address","name":"from","type":"address"},{"indexed":true,"internalType":"address","name":"to","type":"address"},{"indexed":false,"internalType":"uint256","name":"amount","type":"uint256"},{"indexed":false,"internalType":"uint256","name":"fee","type":"uint256"}],"name":"TransferWithFee","type":"event"},{"inputs":[{"internalType":"address","name":"owner","type":"address"},{"internalType":"address","name":"spender","type":"address"}],"name":"allowance","outputs":[{"internalType":"uint256","name":"","type":"uint256"}],"stateMutability":"view","type":"function"},{"inputs":[{"internalType":"address","name":"wallet","type":"address"},{"internalType":"uint256","name":"fee","type":"uint256"}],"name":"applyCredits","outputs":[{"internalType":"uint256","name":"","type":"uint256"}],"stateMutability":"nonpayable","type":"function"},{"inputs":[{"internalType":"uint256","name":"baseFee","type":"uint256"},{"internalType":"address","name":"sender","type":"address"},{"internalType":"address","name":"recipient","type":"address"}],"name":"applyRiskAdjustments","outputs":[{"internalType":"uint256","name":"","type":"uint256"}],"stateMutability":"view","type":"function"},{"inputs":[{"internalType":"address","name":"spender","type":"address"},{"internalType":"uint256","name":"value","type":"uint256"}],"name":"approve","outputs":[{"internalType":"bool","name":"","type":"bool"}],"stateMutability":"nonpayable","type":"function"},{"inputs":[{"internalType":"address","name":"account","type":"address"}],"name":"balanceOf","outputs":[{"internalType":"uint256","name":"","type":"uint256"}],"stateMutability":"view","type":"function"},{"inputs":[{"internalType":"address","name":"wallet","type":"address"}],"name":"calculateRiskFactor","outputs":[{"internalType":"uint256","name":"","type":"uint256"}],"stateMutability":"view","type":"function"},{"inputs":[{"internalType":"uint256","name":"amount","type":"uint256"}],"name":"calculateTieredFee","outputs":[{"internalType":"uint256","name":"","type":"uint256"}],"stateMutability":"view","type":"function"},{"inputs":[{"internalType":"address","name":"wallet","type":"address"}],"name":"checkHalfLifeExpiry","outputs":[],"stateMutability":"nonpayable","type":"function"},{"inputs":[],"name":"decimals","outputs":[{"internalType":"uint8","name":"","type":"uint8"}],"stateMutability":"view","type":"function"},{"inputs":[{"internalType":"address","name":"wallet","type":"address"}],"name":"flagAbnormalTransaction","outputs":[],"stateMutability":"nonpayable","type":"function"},{"inputs":[{"internalType":"address","name":"wallet","type":"address"}],"name":"getAvailableCredits","outputs":[{"internalType":"uint256","name":"","type":"uint256"}],"stateMutability":"view","type":"function"},{"inputs":[],"name":"halfLifeDuration","outputs":[{"internalType":"uint256","name":"","type":"uint256"}],"stateMutability":"view","type":"function"},{"inputs":[],"name":"inactivityResetPeriod","outputs":[{"internalType":"uint256","name":"","type":"uint256"}],"stateMutability":"view","type":"function"},{"inputs":[{"internalType":"address","name":"","type":"address"}],"name":"incentiveCredits","outputs":[{"internalType":"uint256","name":"amount","type":"uint256"},{"internalType":"uint256","name":"lastUpdated","type":"uint256"}],"stateMutability":"view","type":"function"},{"inputs":[],"name":"maxHalfLifeDuration","outputs":[{"internalType":"uint256","name":"","type":"uint256"}],"stateMutability":"view","type":"function"},{"inputs":[],"name":"minHalfLifeDuration","outputs":[{"internalType":"uint256","name":"","type":"uint256"}],"stateMutability":"view","type":"function"},{"inputs":[],"name":"name","outputs":[{"internalType":"string","name":"","type":"string"}],"stateMutability":"view","type":"function"},{"inputs":[],"name":"owner","outputs":[{"internalType":"address","name":"","type":"address"}],"stateMutability":"view","type":"function"},{"inputs":[],"name":"renounceOwnership","outputs":[],"stateMutability":"nonpayable","type":"function"},{"inputs":[{"internalType":"address","name":"from","type":"address"},{"internalType":"address","name":"to","type":"address"},{"internalType":"uint256","name":"amount","type":"uint256"}],"name":"reverseTransfer","outputs":[],"stateMutability":"nonpayable","type":"function"},{"inputs":[{"internalType":"address","name":"","type":"address"}],"name":"rollingAverages","outputs":[{"internalType":"uint256","name":"totalAmount","type":"uint256"},{"internalType":"uint256","name":"count","type":"uint256"},{"internalType":"uint256","name":"lastUpdated","type":"uint256"}],"stateMutability":"view","type":"function"},{"inputs":[{"internalType":"uint256","name":"_halfLifeDuration","type":"uint256"}],"name":"setHalfLifeDuration","outputs":[],"stateMutability":"nonpayable","type":"function"},{"inputs":[{"internalType":"uint256","name":"_inactivityResetPeriod","type":"uint256"}],"name":"setInactivityResetPeriod","outputs":[],"stateMutability":"nonpayable","type":"function"},{"inputs":[{"internalType":"uint256","name":"_maxHalfLifeDuration","type":"uint256"}],"name":"setMaxHalfLifeDuration","outputs":[],"stateMutability":"nonpayable","type":"function"},{"inputs":[{"internalType":"uint256","name":"_minHalfLifeDuration","type":"uint256"}],"name":"setMinHalfLifeDuration","outputs":[],"stateMutability":"nonpayable","type":"function"},{"inputs":[{"internalType":"address","name":"_treasuryAddress","type":"address"}],"name":"setTreasuryAddress","outputs":[],"stateMutability":"nonpayable","type":"function"},{"inputs":[],"name":"symbol","outputs":[{"internalType":"string","name":"","type":"string"}],"stateMutability":"view","type":"function"},{"inputs":[],"name":"totalSupply","outputs":[{"internalType":"uint256","name":"","type":"uint256"}],"stateMutability":"view","type":"function"},{"inputs":[{"internalType":"address","name":"","type":"address"},{"internalType":"address","name":"","type":"address"}],"name":"transactionCountBetween","outputs":[{"internalType":"uint256","name":"","type":"uint256"}],"stateMutability":"view","type":"function"},{"inputs":[{"internalType":"address","name":"recipient","type":"address"},{"internalType":"uint256","name":"amount","type":"uint256"}],"name":"transfer","outputs":[{"internalType":"bool","name":"","type":"bool"}],"stateMutability":"nonpayable","type":"function"},{"inputs":[{"internalType":"address","name":"","type":"address"}],"name":"transferData","outputs":[{"internalType":"uint256","name":"commitWindowEnd","type":"uint256"},{"internalType":"uint256","name":"halfLifeDuration","type":"uint256"},{"internalType":"address","name":"originator","type":"address"},{"internalType":"uint256","name":"transferCount","type":"uint256"},{"internalType":"bytes32","name":"reversalHash","type":"bytes32"},{"internalType":"uint256","name":"feeAmount","type":"uint256"},{"internalType":"bool","name":"isReversed","type":"bool"}],"stateMutability":"view","type":"function"},{"inputs":[{"internalType":"address","name":"from","type":"address"},{"internalType":"address","name":"to","type":"address"},{"internalType":"uint256","name":"value","type":"uint256"}],"name":"transferFrom","outputs":[{"internalType":"bool","name":"","type":"bool"}],"stateMutability":"nonpayable","type":"function"},{"inputs":[{"internalType":"address","name":"newOwner","type":"address"}],"name":"transferOwnership","outputs":[],"stateMutability":"nonpayable","type":"function"},{"inputs":[],"name":"treasuryAddress","outputs":[{"internalType":"address","name":"","type":"address"}],"stateMutability":"view","type":"function"},{"inputs":[{"internalType":"address","name":"","type":"address"}],"name":"walletRiskProfiles","outputs":[{"internalType":"uint256","name":"reversalCount","type":"uint256"},{"internalType":"uint256","name":"lastReversal","type":"uint256"},{"internalType":"uint256","name":"creationTime","type":"uint256"},{"internalType":"uint256","name":"abnormalTxCount","type":"uint256"}],"stateMutability":"view","type":"function"}],"evm":{"bytecode":{"linkReferences":{},"object":"608034620005a1576001600160401b03906200594190601f19601f38849003818101831684019086821185831017620004a35780859160409788948552833981010312620005a1576200005283620005c2565b91620000626020809501620005c2565b908551966200007188620005a6565b600d88526c2a199029ba30b13632b1b7b4b760991b868901528651976200009889620005a6565b6002895261543360f01b878a0152805190828211620004a35760039182546001928382811c9216801562000596575b8b831014620005805781898493116200052a575b508a90898311600114620004c557600092620004b9575b505060001982851b1c191690821b1782555b8951928311620004a3576004998a548281811c9116801562000498575b8a821014620004835787811162000438575b508890878511600114620003cf5784955090849291600095620003c3575b50501b92600019911b1c19161786555b6001600160a01b03928316928315620003ac57600580546001600160a01b031980821687179092558751919391620001ec91879085167f8be0079c531659141344cd1fd0a4f28419497f9722a3daafe3b4186f6b6457e0600080a3610e106006556102586007556201518060085562278d0060095567872e4b2b9aea986988820152878152620005a6565b620002088751677c4813665181dedc88820152878152620005a6565b620002248751671bfbb13a4b7e75b888820152878152620005a6565b62000240875167150a0c569abcf7ae88820152878152620005a6565b169182156200036b57506200026685516772370d8ca6bfd9f286820152858152620005a6565b62000282855167db557d2e982521ed86820152858152620005a6565b600a541617600a55620002a683516746e0894b1893e2f084820152838152620005a6565b620002c28351675a4b23a104783c6684820152838152620005a6565b60025469d3c21bcecceda10000009485820180921162000356575060007fddf252ad1be2c89b69c2b068fc378daa952ba7f163c4a11628f55a4df523b3ef84600e969785946002558484528382528884208181540190558851908152a36200033b84516798f22d1e032fd0bb84820152838152620005a6565b60005252426002826000200155516153699081620005d88239f35b601190634e487b7160e01b6000525260246000fd5b866064918688519262461bcd60e51b845283015260248201527f547265617375727920616464726573732063616e6e6f74206265207a65726f006044820152fd5b8551631e4fbdf760e01b8152600081890152602490fd5b01519350388062000151565b9291948416928b600052848a6000209460005b8c8983831062000420575050501062000405575b50505050811b01865562000161565b01519060f884600019921b161c1916905538808080620003f6565b868601518955909701969485019488935001620003e2565b8b600052896000208880870160051c8201928c881062000479575b0160051c019083905b8281106200046c57505062000133565b600081550183906200045c565b9250819262000453565b60228c634e487b7160e01b6000525260246000fd5b90607f169062000121565b634e487b7160e01b600052604160045260246000fd5b015190503880620000f2565b908785941691866000528c600020928d6000905b828210620005125750508411620004f9575b505050811b01825562000104565b015160001983871b60f8161c19169055388080620004eb565b83850151865588979095019493840193018e620004d9565b909150846000528a6000208980850160051c8201928d861062000576575b918691869594930160051c01915b82811062000566575050620000db565b6000815585945086910162000556565b9250819262000548565b634e487b7160e01b600052602260045260246000fd5b91607f1691620000c7565b600080fd5b604081019081106001600160401b03821117620004a357604052565b51906001600160a01b0382168203620005a15756fe608080604052600436101561001357600080fd5b60003560e01c90816303833501146140d05750806306fdde031461401257806308d887d014613fc1578063095ea7b314613f3b5780630c27ab5a14613ef85780630f3f080314613d6757806318160ddd14613d4957806323b872dd14613c6d578063313ce56714613c515780633cbf934214613c155780633d8d1dce14613bb95780634c915d1814613b9b578063508c0634146130d557806357fe51d214612fce57806362d3f81414612f4b5780636605bfda14612e1a5780636b6ef95314612dfc5780636be14a3314612dd55780636cd9ca1414612cc55780636e2fae4714612a3b57806370a0823114612a01578063715018a6146129a457806376223a2714612809578063800753cf146127eb5780638da5cb5b146127c25780638ffa15d41461277157806395d89b411461266c578063a9059cbb14610d4e578063b065a8e514610cc6578063c5f956af14610c9d578063c750f20314610c7f578063dd62ed3e14610c2e578063e06a7a1014610c08578063f0e6ea8d1461022e5763f2fde38b146101a057600080fd5b34610229576020366003190112610229576101b9614134565b6101c1614195565b6001600160a01b0390811690811561021057600554826001600160601b0360a01b821617600555167f8be0079c531659141344cd1fd0a4f28419497f9722a3daafe3b4186f6b6457e0600080a3005b604051631e4fbdf760e01b815260006004820152602490fd5b600080fd5b346102295761023c36614160565b9061025a60405167959a7e59ff6219996020820152602081526141c1565b610277604051672a43cfe6b2a634106020820152602081526141c1565b61029460405167ee1c905e9c887ba96020820152602081526141c1565b6102b160405167ef27ac6466cb79876020820152602081526141c1565b6001600160a01b038381163303610bb7576102df6040516743cf5c08b2473d676020820152602081526141c1565b6102fc60405167cc5b6035195ea5736020820152602081526141c1565b6103196040516794adf9a95d4992116020820152602081526141c1565b808416600052600b602052604060002061034660405167e18876fd71183a476020820152602081526141c1565b610363604051674dba28e26972a3846020820152602081526141c1565b6103806040516733113d25ab4214d66020820152602081526141c1565b8054421015610b7f576103a660405167ebab3920e59021f56020820152602081526141c1565b6103c360405167ddc7e3ab884c02ff6020820152602081526141c1565b6103e060405167e2f2c1a118cc887d6020820152602081526141c1565b6103fd604051674ed5e76a20cfe3d06020820152602081526141c1565b8160028201541682841603610b2e57610429604051677f0d1230e3b5409b6020820152602081526141c1565b6104466040516715b6fb34a88e8b036020820152602081526141c1565b61046360405167611c418fdc42cf726020820152602081526141c1565b6104806040516714a5c920638d65ab6020820152602081526141c1565b81851660005260006020528360406000205410610ae9576006906104b760405167ff4efb30c1f3912d6020820152602081526141c1565b6104d460405167331c4595f4b238aa6020820152602081526141c1565b6104f1604051675da452f1a94e4f3e6020820152602081526141c1565b61050e604051678c8c80d8169893c96020820152602081526141c1565b0190815460ff8116610aa4577f55608e3380952b490f6dc0b1b0bcf7a16177fe10590cf1599b7a84f430b70e37936020936001849361055e60405167963f218a55a18eb3898201528881526141c1565b61057960405167870b9021026c53bb898201528881526141c1565b60ff191617905561059b604051676d8fecc0bc0d95a5868201528581526141c1565b6105b660405167aa1daa7762fcd4cd868201528581526141c1565b6105d160405167d5addc88854a894a868201528581526141c1565b6105ec60405167a10f2530e2834575868201528581526141c1565b61060760405167c5c1493f6e3ce697868201528581526141c1565b818716600052600e845260406000206106316040516782eb721f0500b511878201528681526141c1565b61064c60405167a109dc0763d3be09878201528681526141c1565b600281018054610a8357610671604051670d7b747caf0b2f84888201528781526141c1565b61068c60405167dece18d831396f73888201528781526141c1565b4290555b6106ab60405167760812f099bfabce878201528681526141c1565b6106c66040516784b97f48fd6a4378878201528681526141c1565b6106e160405167fbc30ee90b394731878201528681526141c1565b6106fc60405167f8fc063103d95a11878201528681526141c1565b61070681546142f1565b815561072360405167c37ac06bc3a5b308878201528681526141c1565b6001429101556107446040516743e93df93016c6c3868201528581526141c1565b61075f60405167cfad6c48f3a1f5d8868201528581526141c1565b61076887614be3565b60405190815260008051602061531483398151915285848a1692a261079e604051676e611014d411c941868201528581526141c1565b6107b960405167fc578be9b62df778868201528581526141c1565b6107d460405167d5addc88854a894a868201528581526141c1565b6107ef60405167a10f2530e2834575868201528581526141c1565b61080a60405167c5c1493f6e3ce697868201528581526141c1565b818116600052600e845260406000206108346040516782eb721f0500b511878201528681526141c1565b61084f60405167a109dc0763d3be09878201528681526141c1565b6002810154610a6357610873604051670d7b747caf0b2f84878201528681526141c1565b61088e60405167dece18d831396f73878201528681526141c1565b4260028201555b6108b060405167760812f099bfabce878201528681526141c1565b6108cb6040516784b97f48fd6a4378878201528681526141c1565b6108e660405167fbc30ee90b394731878201528681526141c1565b61090160405167f8fc063103d95a11878201528681526141c1565b61090b81546142f1565b815561092860405167c37ac06bc3a5b308878201528681526141c1565b6001429101556109496040516743e93df93016c6c3868201528581526141c1565b61096460405167cfad6c48f3a1f5d8868201528581526141c1565b61096d81614be3565b6040519081526000805160206153148339815191528584841692a26109a360405167fa1f8e5d61d4b42a868201528581526141c1565b6109be6040516706f28c013d5499fd868201528581526141c1565b6109c98682896141ff565b6109e460405167db9568627a60c91d868201528581526141c1565b818716600052600b8452610a20604060002060066000918281558260018201558260028201558260038201558260048201558260058201550155565b610a3b6040516720ffa0c3aa082123868201528581526141c1565b610a56604051676c1df6e0565aff67868201528581526141c1565b60405195865216941692a3005b610a7e6040516727630211ed80e7dd878201528681526141c1565b610895565b50610a9f6040516727630211ed80e7dd878201528681526141c1565b610690565b60405162461bcd60e51b815260206004820152601960248201527f5472616e7366657220616c7265616479207265766572736564000000000000006044820152606490fd5b60405162461bcd60e51b815260206004820152601f60248201527f496e73756666696369656e742062616c616e636520746f2072657665727365006044820152606490fd5b60405162461bcd60e51b815260206004820152602360248201527f526576657273616c206d75737420676f206261636b20746f206f726967696e616044820152623a37b960e91b6064820152608490fd5b60405162461bcd60e51b815260206004820152601060248201526f12185b19931a599948195e1c1a5c995960821b6044820152606490fd5b60405162461bcd60e51b815260206004820152602360248201527f4f6e6c792072656365697665722063616e20696e6974696174652072657665726044820152621cd85b60ea1b6064820152608490fd5b34610229576020366003190112610229576020610c26600435614300565b604051908152f35b3461022957604036600319011261022957610c47614134565b610c4f61414a565b9060018060a01b038091166000526001602052604060002091166000526020526020604060002054604051908152f35b34610229576000366003190112610229576020600854604051908152f35b3461022957600036600319011261022957600a546040516001600160a01b039091168152602090f35b346102295760208060031936011261022957610ce0614134565b610cfb60405167b613fe43419a48d3848201528381526141c1565b610d1660405167b02c50bf9b41933e848201528381526141c1565b610d3160405167c8aaaefaca050cc7848201528381526141c1565b60018060a01b0316600052600f8152604060002054604051908152f35b3461022957604036600319011261022957610d67614134565b610d8460405167e3b1812fac83af146020820152602081526141c1565b610da1604051673b53657df17ca1cd6020820152602081526141c1565b610dbe60405167908563eeaf1199936020820152602081526141c1565b610ddb604051673b98c14e84d27ce16020820152602081526141c1565b6001600160a01b0381161561262757610e0760405167f267173894dd5b9e6020820152602081526141c1565b610e246040516711ea53bb7cf86bd96020820152602081526141c1565b610e41604051673d80fc69d1ed2b936020820152602081526141c1565b610e5e60405167c674fb8fde945e8f6020820152602081526141c1565b602435156125d057610e8360405167e6563b1b8eb407986020820152602081526141c1565b610ea0604051670739e194fbf1cde56020820152602081526141c1565b610ebd6040516748d44b55a7fc063a6020820152602081526141c1565b610eda60405167487a193f1a3847266020820152602081526141c1565b610ef760405167f7a10e6e03c6fef86020820152602081526141c1565b610f1460405167d5addc88854a894a6020820152602081526141c1565b610f3160405167a10f2530e28345756020820152602081526141c1565b610f4e60405167c5c1493f6e3ce6976020820152602081526141c1565b33600052600e60205260026040600020610f7b6040516782eb721f0500b5116020820152602081526141c1565b610f9860405167a109dc0763d3be096020820152602081526141c1565b0180546125ad57610fbc604051670d7b747caf0b2f846020820152602081526141c1565b610fd960405167dece18d831396f736020820152602081526141c1565b4290555b610ffa60405167760812f099bfabce6020820152602081526141c1565b6110176040516784b97f48fd6a43786020820152602081526141c1565b61103460405167daace93ead4bd0ae6020820152602081526141c1565b6110516040516743e93df93016c6c36020820152602081526141c1565b61106e60405167cfad6c48f3a1f5d86020820152602081526141c1565b61107733614be3565b60405190815260008051602061531483398151915260203392a26110ae604051674ee3ce079208cdbd6020820152602081526141c1565b6110cb60405167cf53e2b0b759f0bd6020820152602081526141c1565b6110e860405167d5addc88854a894a6020820152602081526141c1565b61110560405167a10f2530e28345756020820152602081526141c1565b61112260405167c5c1493f6e3ce6976020820152602081526141c1565b60018060a01b038116600052600e602052600260406000206111576040516782eb721f0500b5116020820152602081526141c1565b61117460405167a109dc0763d3be096020820152602081526141c1565b01805461258a57611198604051670d7b747caf0b2f846020820152602081526141c1565b6111b560405167dece18d831396f736020820152602081526141c1565b4290555b6111d660405167760812f099bfabce6020820152602081526141c1565b6111f36040516784b97f48fd6a43786020820152602081526141c1565b61121060405167daace93ead4bd0ae6020820152602081526141c1565b61122d6040516743e93df93016c6c36020820152602081526141c1565b61124a60405167cfad6c48f3a1f5d86020820152602081526141c1565b61125381614be3565b6040519081526001600160a01b0382169060008051602061531483398151915290602090a26112956040516711b1e88929cd88e66020820152602081526141c1565b6112b260405167e05663502ad8e6966020820152602081526141c1565b33600052600b602052604060002080544210908161256f575b5015611392576112ee6040516763cddef929273df36020820152602081526141c1565b61130b60405167689e3408ceb7a8fa6020820152602081526141c1565b611328604051676eb7380220e698f86020820152602081526141c1565b608460405162461bcd60e51b815260206004820152604060248201527f43616e6e6f74207472616e7366657220647572696e672048616c664c6966652060448201527f706572696f6420657863657074206261636b20746f206f726967696e61746f726064820152fd5b6113af6040516791c54e7e14b7a7796020820152602081526141c1565b6113cc6040516778509701f1c064b56020820152602081526141c1565b6113e960405167c899cd4fc3429cdc6020820152602081526141c1565b61147c61143c826113fb602435614300565b611418604051674907e1ce09e685546020820152602081526141c1565b61143560405167fffab400c49815556020820152602081526141c1565b3390614a42565b611459604051670ff49a93f074dc416020820152602081526141c1565b6114766040516763422c7c896875866020820152602081526141c1565b33615035565b6114996040516767019452d609f9396020820152602081526141c1565b6114b66040516751a19ada6e49534d6020820152602081526141c1565b806114d460405167f227d51fec2bc37b6020820152602081526141c1565b6114f16040516786fee8b2c264bc756020820152602081526141c1565b6101f4806024350290602435820403612305576127109004809261152860405167175efe265c24a4566020820152602081526141c1565b61154560405167ba31c821700df4866020820152602081526141c1565b111561254b575061156960405167b733384594a80a346020820152602081526141c1565b6115866040516763e928cfdd29b8ee6020820152602081526141c1565b6115a3604051678ae8c5afa115a7506020820152602081526141c1565b6115c060405167538bc729853e805e6020820152602081526141c1565b6115dd60405167d52a8cc1e6a981176020820152602081526141c1565b6115fa60405167ea1f8811902f47916020820152602081526141c1565b600181108061253f575b1561251d5750611627604051673c3770425bf481e76020820152602081526141c1565b61164460405167e41acf310b4954696020820152602081526141c1565b60015b61166460405167d51be13b83b82b0b6020820152602081526141c1565b611681604051676f12c1384a67aef26020820152602081526141c1565b6024358111156124fa57506116a9604051674120dac8f69da3116020820152602081526141c1565b6116c6604051671deb614ba6d3b9766020820152602081526141c1565b602435905b6116e8604051677a9beca78e58693e6020820152602081526141c1565b611705604051679f41100959775aeb6020820152602081526141c1565b611711826024356142e4565b9161172f60405167dbc75bbeb7baf2336020820152602081526141c1565b61174c6040516772937c617501f32c6020820152602081526141c1565b6117578383336141ff565b61177460405167823df8bb018ba3056020820152602081526141c1565b611791604051679ee5ad823b89d2aa6020820152602081526141c1565b80156124d8576117b460405167d25e5e8b560fc4446020820152602081526141c1565b6117d16040516787d4fe7d9656739c6020820152602081526141c1565b6117ee60405167fd7e522419ca628a6020820152602081526141c1565b61180b604051673e8c91b9c62c80136020820152602081526141c1565b61182860405167976ae90cc8864d3a6020820152602081526141c1565b61184560405167cddb68207dc5c3e46020820152602081526141c1565b8060011c611866604051671d4479520b0249856020820152602081526141c1565b61188360405167815e880dd64153986020820152602081526141c1565b80156124b2576118a660405167731de1608fbc40646020820152602081526141c1565b6118c360405167f2e3495695dc523c6020820152602081526141c1565b6118e0604051672cc1e8375c87078e6020820152602081526141c1565b600a546001600160a01b031690811561249957611a3691611903826002546142c4565b600255806000526000602052604060002082815401905560007fddf252ad1be2c89b69c2b068fc378daa952ba7f163c4a11628f55a4df523b3ef6020604051858152a35b61196460405167e374157375437cce6020820152602081526141c1565b611981604051673f156c28f7d1e53b6020820152602081526141c1565b611a318360021c916119a660405167eefb543efb4ea8146020820152602081526141c1565b33600052600f60205260406000206119bf8482546142c4565b90556119de6040516731a0bacd179c66ae6020820152602081526141c1565b33600052600f60205242600160406000200155611a0e604051674baab5b62c4e3e226020820152602081526141c1565b611a2b60405167a87c65f9182a3d7e6020820152602081526141c1565b846142e4565b6142e4565b611a53604051679e1d9a052563c9276020820152602081526141c1565b60018060a01b038316600052600f602052611a7460406000209182546142c4565b9055611a9360405167931389147291891e6020820152602081526141c1565b60018060a01b038216600052600f602052426001604060002001555b611acc60405167ef8ba3719c1d4a526020820152602081526141c1565b33600052600d602052604060002060018060a01b0383166000526020526040600020611af881546142f1565b9055611b1760405167d94ffd960e5daa886020820152602081526141c1565b611b3460405167fb3ee0b1331f5e7c6020820152602081526141c1565b611b5160405167eb42c7021465f90c6020820152602081526141c1565b611b6e60405167c7ccf7653182d0946020820152602081526141c1565b611b8b60405167eae5d45c9708ae436020820152602081526141c1565b600654611bab60405167e47592b00a504c756020820152602081526141c1565b611bc8604051674a47c952c926f9b26020820152602081526141c1565b33600052600d602052604060002060018060a01b038416600052602052604060002054611c0860405167b0967a3931fed0336020820152602081526141c1565b611c2560405167bceb9cfe903c79686020820152602081526141c1565b80158061247557611c4960405167c2121d5acef1289c6020820152602081526141c1565b611c666040516765c757c5522f01806020820152602081526141c1565b611c836040516705ab89ecfb39c1c56020820152602081526141c1565b81600a810204600a14171561230557605a600a820211801561244d575b80612425575b1561241d5750605a5b611ccc604051674fd96e3fce133b296020820152602081526141c1565b606403906064821161230557606491611ce4916142d1565b045b611d0360405167dfe92852a44f84116020820152602081526141c1565b611d2060405167d1958a37b3ffce606020820152602081526141c1565b33600052600c6020526040600020611d4b604051675ef94af5ee2c84256020820152602081526141c1565b611d68604051674947b166bc32a4416020820152602081526141c1565b600181015490811590816123fd57611d93604051677c1cf24f6315d1c86020820152602081526141c1565b611db060405167ed96aae4c1ea001a6020820152602081526141c1565b611dcd604051675b16286902afcec56020820152602081526141c1565b549081156123dd57611df26040516794873d77dcc850426020820152602081526141c1565b611e0f6040516794b88b16a0d308d66020820152602081526141c1565b611e2c604051676f02c2eaba4d2ce56020820152602081526141c1565b6123c75704611e4e60405167469b1e74b43ee8fa6020820152602081526141c1565b611e6b6040516710f36bd42a9aa0726020820152602081526141c1565b600a810290808204600a14901517156123055760243511156123a557611ea46040516702ce534d50dd2d9e6020820152602081526141c1565b8060011b9080820460021490151715612305575b611ed5604051675482d927c8246d276020820152602081526141c1565b611ef26040516705b2ba6d4df24aa66020820152602081526141c1565b600754908181101561231b5750611f1c60405167578cb93d818313236020820152602081526141c1565b611f39604051675f9c278e70471f766020820152602081526141c1565b611f56604051673e780238272d7db36020820152602081526141c1565b611f7360405167a5e346c84ac247c36020820152602081526141c1565b611f7d81426142c4565b6001600160a01b0384166000908152600b602052604090206003015460018101811161230557604051903360601b60208301526001600160601b03198660601b16603483015260243560488301526048825281608081011067ffffffffffffffff6080840111176122ef5760808201604052815160208301206080830161016084011067ffffffffffffffff610160850111176122ef576006936101608401604052608084015260a0830194855260c0830191338352600160e085019101815261010084019182526101208401928784526101408501966000885260018060a01b038a16600052600b602052608060406000209601518655516001860155600285019060018060a01b039051166001600160601b0360a01b825416179055516003840155516004830155516005820155019051151560ff801983541691161790556120db60405167a1a6c8a805e12d5f6020820152602081526141c1565b6120f860405167cf6be718637262966020820152602081526141c1565b612115604051675602f8f30b8375b16020820152602081526141c1565b61213260405167ba9d57f6a7dcb3bb6020820152602081526141c1565b61214f604051679194e4b0be8c7a1f6020820152602081526141c1565b60018060a01b038216600052600c6020526040600020612182604051678c07352675864c1a6020820152602081526141c1565b61219f604051671f02fe911c772d7f6020820152602081526141c1565b60016002820191825480151590816122da575b50156122b8576121d560405167a89894e845a69db66020820152602081526141c1565b600081556000828201555b6121ed60243582546142c4565b8155016121fa81546142f1565b905542905561221c604051670d487d121c7265326020820152602081526141c1565b61223960405167556df496d88b322b6020820152602081526141c1565b604051928352602083015260018060a01b0316907f98bc3fe7d138931a49691b623c256b8812f2a3d7f9b25ba7098c82538977a5d060403392a36122906040516707d602c9934555e86020820152602081526141c1565b6122ad60405167c28bc3b1d763a64c6020820152602081526141c1565b602060405160018152f35b6122d560405167dfed1e1fe1338aaf6020820152602081526141c1565b6121e0565b6122e59150426142e4565b60095410876121b2565b634e487b7160e01b600052604160045260246000fd5b634e487b7160e01b600052601160045260246000fd5b905061233a604051679a893b8fb44b5f536020820152602081526141c1565b61235760405167e954b48192f36d436020820152602081526141c1565b6008549081811115612386575061238160405167a67ab7d3d90973406020820152602081526141c1565b611f1c565b905061238160405167e535ac6447162a5b6020820152602081526141c1565b6123c260405167a9e8fa354c8973a46020820152602081526141c1565b611eb8565b634e487b7160e01b600052601260045260246000fd5b5050506123c260405167dde50ab956edfc426020820152602081526141c1565b5050506123c260405167b8bae17b737befad6020820152602081526141c1565b600a02611caf565b50612446604051672b7db0ed5744c9a760c01b6020820152602081526141c1565b6001611ca6565b5061246e604051670153de598d6cc43360c61b6020820152602081526141c1565b6000611ca0565b50506124946040516735a23ce870a5d1d56020820152602081526141c1565b611ce6565b60405163ec442f0560e01b815260006004820152602490fd5b611a36906124d3604051670f84ef5719e151a26020820152602081526141c1565b611947565b6124f560405167f9b4cab5590ff9c06020820152602081526141c1565b611aaf565b90612518604051673412aea162dabe536020820152602081526141c1565b6116cb565b61253a6040516799b21578e33b93de6020820152602081526141c1565b611647565b50600160243511611604565b905061256a6040516715b2af2c3ace5c506020820152602081526141c1565b611586565b600201546001600160a01b03838116911614159050826112cb565b506125a86040516727630211ed80e7dd6020820152602081526141c1565b6111b9565b506125cb6040516727630211ed80e7dd6020820152602081526141c1565b610fdd565b60405162461bcd60e51b815260206004820152602960248201527f5472616e7366657220616d6f756e74206d7573742062652067726561746572206044820152687468616e207a65726f60b81b6064820152608490fd5b60405162461bcd60e51b815260206004820152601860248201527f5472616e7366657220746f207a65726f206164647265737300000000000000006044820152606490fd5b3461022957600036600319011261022957604051600090600454600181811c90808316928315612767575b60209384841081146127515783865290811561273157506001146126d6575b6126d2846126c6818803826141dd565b604051918291826140eb565b0390f35b600460009081529294507f8a35acfbc15ff81a39ae7d344fd709f28e8600b4aa8c65c6b64bfe7fe36bd19b5b82841061271e57505050816126d2936126c692820101936126b6565b8054858501870152928501928101612702565b60ff1916858501525050151560051b82010191506126c6816126d26126b6565b634e487b7160e01b600052602260045260246000fd5b91607f1691612697565b346102295760403660031901126102295761278a614134565b61279261414a565b9060018060a01b03809116600052600d602052604060002091166000526020526020604060002054604051908152f35b34610229576000366003190112610229576005546040516001600160a01b039091168152602090f35b34610229576000366003190112610229576020600754604051908152f35b3461022957602080600319360112610229576004359061283a60405167caf17000f263d712838201528281526141c1565b612842614195565b61285d60405167e09266bb0ef45b82838201528281526141c1565b612878604051679368493365f1cb71838201528281526141c1565b61289360405167f40fdec6121ad049838201528281526141c1565b6128ae6040516794e8e700ed64784a838201528281526141c1565b8115612969576128cf604051679841bcd657877d45838201528281526141c1565b6128ea604051675434cca35c1559c9838201528281526141c1565b61290560405167964b37f810426568838201528281526141c1565b600654821161292f5761292a906040519067a5a6d39480d445418183015281526141c1565b600755005b6064906040519062461bcd60e51b825260048201526013602482015272135a5b88195e18d959591cc8191959985d5b1d606a1b6044820152fd5b6064906040519062461bcd60e51b8252600482015260146024820152734d696e206d75737420626520706f73697469766560601b6044820152fd5b34610229576000366003190112610229576129bd614195565b600580546001600160a01b031981169091556000906001600160a01b03167f8be0079c531659141344cd1fd0a4f28419497f9722a3daafe3b4186f6b6457e08280a3005b34610229576020366003190112610229576001600160a01b03612a22614134565b1660005260006020526020604060002054604051908152f35b346102295760208060031936011261022957600e90612c68612a5b614134565b612a76604051674ece7e3b0a517ea9858201528481526141c1565b612a7e614195565b612a996040516724fe002ab653fd9d858201528481526141c1565b612ab460405167bb2761670420ccc5858201528481526141c1565b612acf604051672d90c910f830cb34858201528481526141c1565b612aea60405167a3a1f5ea7f5a7ccb858201528481526141c1565b612b0560405167d5addc88854a894a858201528481526141c1565b612b2060405167a10f2530e2834575858201528481526141c1565b612b3b60405167c5c1493f6e3ce697858201528481526141c1565b6000805160206153148339815191528360018060a01b0383169384938460005287835260026040600020612b806040516782eb721f0500b511878201528681526141c1565b612b9b60405167a109dc0763d3be09878201528681526141c1565b018054612ca457612bbd604051670d7b747caf0b2f84868201528581526141c1565b612bd860405167dece18d831396f73868201528581526141c1565b4290555b612bf760405167760812f099bfabce858201528481526141c1565b612c126040516784b97f48fd6a4378858201528481526141c1565b612c2d60405167daace93ead4bd0ae858201528481526141c1565b612c486040516743e93df93016c6c3858201528481526141c1565b612c6360405167cfad6c48f3a1f5d8858201528481526141c1565b614be3565b604051908152a2612c8a60405167b291ed991ac9572a848201528381526141c1565b600052526003604060002001612ca081546142f1565b9055005b50612cc06040516727630211ed80e7dd858201528481526141c1565b612bdc565b34610229576020806003193601126102295760043590612cf6604051672a2f9110869bc40b838201528281526141c1565b612cfe614195565b612d1960405167eb729c6b5a478185838201528281526141c1565b612d34604051679a9e3afbcd715fdf838201528281526141c1565b612d4f60405167308ddda9dd24cde0838201528281526141c1565b612d6a60405167eb2e5c77ddc7c809838201528281526141c1565b8115612d9157612d8c906040519067c2e386bde33438f08183015281526141c1565b600955005b6064906040519062461bcd60e51b82526004820152601760248201527f506572696f64206d75737420626520706f7369746976650000000000000000006044820152fd5b34610229576040366003190112610229576020610c26612df3614134565b60243590615035565b34610229576020366003190112610229576020610c26612c63614134565b346102295760208060031936011261022957612e34614134565b612e4f604051677bc796724a5d91ab848201528381526141c1565b612e57614195565b612e726040516732af8709a43db1a2848201528381526141c1565b612e8d60405167a15640bc1a0d4898848201528381526141c1565b612ea860405167d31789ad8931e34d848201528381526141c1565b612ec360405167e2fb91a51f2ce0fa848201528381526141c1565b6001600160a01b0316908115612f0757612eef9060405190674934b1871e9ec2348183015281526141c1565b6001600160601b0360a01b600a541617600a55600080f35b6064906040519062461bcd60e51b82526004820152601f60248201527f547265617375727920616464726573732063616e6e6f74206265207a65726f006044820152fd5b346102295760203660031901126102295760e06001600160a01b0380612f6f614134565b16600052600b602052604060002090815491600181015491600282015416600382015460048301549160ff600660058601549501541694604051968752602087015260408601526060850152608084015260a0830152151560c0820152f35b34610229576020806003193601126102295760043590612fff6040516732bea349531ec59a838201528281526141c1565b613007614195565b61302260405167d942f247555780ef838201528281526141c1565b61303d6040516782a52b4f1ae118a8838201528281526141c1565b6130586040516731d0b53fee2bb0b1838201528281526141c1565b61307360405167fb2e38beff51ade7838201528281526141c1565b600654821061309d57613098906040519067b25982417d75675d8183015281526141c1565b600855005b6064906040519062461bcd60e51b82526004820152601160248201527013585e0818995b1bddc8191959985d5b1d607a1b6044820152fd5b34610229576020366003190112610229576130ee614134565b61310b6040516702e8a0537c36802d6020820152602081526141c1565b613128604051676e4d33ad1e43e42d6020820152602081526141c1565b61314560405167bbc804128d1c08226020820152602081526141c1565b60018060a01b038116600052600b602052604060002061317860405167c41006b258ee2abe6020820152602081526141c1565b61319560405167325867b55bf1677e6020820152602081526141c1565b6131b2604051679f7fe60ec9d198016020820152602081526141c1565b80548015613b56576131d760405167278122371f0525a36020820152602081526141c1565b6131f46040516742af15302ac511576020820152602081526141c1565b61321160405167e7f269aeda2e94fd6020820152602081526141c1565b61322e6040516751c2299ed869cbce6020820152602081526141c1565b4210613b1157613251604051677ba4faa8061129046020820152602081526141c1565b61326e60405167bbf5aeba1e63046c6020820152602081526141c1565b61328b60405167e810589de6076c336020820152602081526141c1565b6132a8604051679d510105289babee6020820152602081526141c1565b60ff600682015416613ad4576132d16040516730a100d972047b946020820152602081526141c1565b6132ee60405167b352b52e1c3a0fa46020820152602081526141c1565b61330b60405167f40cb4744903fe9f6020820152602081526141c1565b600581015461332d60405167bbc8e5986b48838e6020820152602081526141c1565b61334a60405167442b8a20a8435f0c6020820152602081526141c1565b8015613ab65761336d60405167ff393930e6f6c0c76020820152602081526141c1565b61338a6040516762866f3aafd93a736020820152602081526141c1565b6133a760405167443a18c3da8eb9406020820152602081526141c1565b60031c6133c760405167905408f79704ec436020820152602081526141c1565b6133e4604051677ee4bde7bed2dd406020820152602081526141c1565b8015613a93576134076040516794a41dfd06db76206020820152602081526141c1565b613424604051672d5383b1dd8ca53b6020820152602081526141c1565b60206002830160018060a01b03815416600052600f8252604060002061344b8482546142c4565b9055613468604051678d93b5ac3e763b91848201528381526141c1565b60018060a01b03815416600052600f82524260016040600020015561349e604051676e0664d55c437d03848201528381526141c1565b60018060a01b038516600052600f825260406000206134be8482546142c4565b90556134db604051675c2d86db51d816c6848201528381526141c1565b60018060a01b038516600052600f825242600160406000200155613510604051674ac3b031ed1c7e4d848201528381526141c1565b61352b604051677bae3ac58ebaba55848201528381526141c1565b546040518381527ffdfa38dc30c58b0662200654ef296c1527abbf34b03b2f908af130d2a35db878926001600160a01b03909216918391a261358060405167184da28c83184a456020820152602081526141c1565b61359d6040516794d5ef299c86069a6020820152602081526141c1565b6040519182526001600160a01b03841691602090a25b6135d0604051674b2331900b32f9546020820152602081526141c1565b6135ed604051679acbef12ece4622a6020820152602081526141c1565b61360a60405167d5addc88854a894a6020820152602081526141c1565b61362760405167a10f2530e28345756020820152602081526141c1565b61364460405167c5c1493f6e3ce6976020820152602081526141c1565b60018060a01b038216600052600e602052600260406000206136796040516782eb721f0500b5116020820152602081526141c1565b61369660405167a109dc0763d3be096020820152602081526141c1565b018054613a70576136ba604051670d7b747caf0b2f846020820152602081526141c1565b6136d760405167dece18d831396f736020820152602081526141c1565b4290555b6136f860405167760812f099bfabce6020820152602081526141c1565b6137156040516784b97f48fd6a43786020820152602081526141c1565b61373260405167daace93ead4bd0ae6020820152602081526141c1565b61374f6040516743e93df93016c6c36020820152602081526141c1565b61376c60405167cfad6c48f3a1f5d86020820152602081526141c1565b61377582614be3565b6040519081526001600160a01b0383169060008051602061531483398151915290602090a26137b76040516760dea768a6f253fc6020820152602081526141c1565b6137d46040516773416037dd79fb2f6020820152602081526141c1565b600260018060a01b03910154166137fe60405167d5addc88854a894a6020820152602081526141c1565b61381b60405167a10f2530e28345756020820152602081526141c1565b61383860405167c5c1493f6e3ce6976020820152602081526141c1565b80600052600e602052600260406000206138656040516782eb721f0500b5116020820152602081526141c1565b61388260405167a109dc0763d3be096020820152602081526141c1565b018054613a4d576138a6604051670d7b747caf0b2f846020820152602081526141c1565b6138c360405167dece18d831396f736020820152602081526141c1565b4290555b6138e460405167760812f099bfabce6020820152602081526141c1565b6139016040516784b97f48fd6a43786020820152602081526141c1565b61391e60405167daace93ead4bd0ae6020820152602081526141c1565b61393b6040516743e93df93016c6c36020820152602081526141c1565b61395860405167cfad6c48f3a1f5d86020820152602081526141c1565b600080516020615314833981519152602061397283614be3565b604051908152a2613996604051672f9ff88c02d35a6d6020820152602081526141c1565b60018060a01b038116600052600b6020526139d9604060002060066000918281558260018201558260028201558260038201558260048201558260058201550155565b6139f660405167ccf3e6a1faa263286020820152602081526141c1565b613a13604051677d7e45270f34e1676020820152602081526141c1565b6040514281526001600160a01b03909116907f23bd7f8191a147e373def338d5a76dce96b4d2f7d15a43eca83e3ee6e750614390602090a2005b50613a6b6040516727630211ed80e7dd6020820152602081526141c1565b6138c7565b50613a8e6040516727630211ed80e7dd6020820152602081526141c1565b6136db565b50613ab1604051674be5dd573fc7e4646020820152602081526141c1565b6135b3565b50613ab1604051678c3cc096d9e938636020820152602081526141c1565b60405162461bcd60e51b8152602060048201526015602482015274151c985b9cd9995c881dd85cc81c995d995c9cd959605a1b6044820152606490fd5b60405162461bcd60e51b815260206004820152601860248201527f48616c664c696665206e6f7420657870697265642079657400000000000000006044820152606490fd5b60405162461bcd60e51b815260206004820152601760248201527f4e6f20616374697665207472616e7366657220646174610000000000000000006044820152606490fd5b34610229576000366003190112610229576020600654604051908152f35b34610229576020366003190112610229576001600160a01b03613bda614134565b16600052600e602052608060406000208054906001810154906003600282015491015491604051938452602084015260408301526060820152f35b3461022957606036600319011261022957613c2e61414a565b604435906001600160a01b038216820361022957602091610c2691600435614a42565b3461022957600036600319011261022957602060405160128152f35b3461022957613c7b36614160565b9060018060a01b03831692836000526001602052604060002033600052602052604060002054936000198510613cb7575b506122ad93506141ff565b838510613d23578015613d0a573315613cf1576122ad94849160005260016020526040600020336000526020520360406000205584613cac565b604051634a1406b160e11b815260006004820152602490fd5b60405163e602df0560e01b815260006004820152602490fd5b604051637dc7a0d960e11b81523360048201526024810186905260448101859052606490fd5b34610229576000366003190112610229576020600254604051908152f35b34610229576020806003193601126102295760043590613d9860405167c9d9d5274e1e8187838201528281526141c1565b613da0614195565b613dbb604051677f754825a5beafa0838201528281526141c1565b613dd660405167aec113238725ce15838201528281526141c1565b613df16040516750eb2d8e26ed63b7838201528281526141c1565b613e0c604051676a843e43d3d19269838201528281526141c1565b6007548210613ec457613e30604051672b46ab474944969d838201528281526141c1565b613e4b60405167fb8b43eab98cb2c7838201528281526141c1565b613e66604051672b26011cc4d60675838201528281526141c1565b6008548211613e9057613e8b90604051906787e93e875e9b4e9e8183015281526141c1565b600655005b6064906040519062461bcd60e51b82526004820152600d60248201526c41626f7665206d6178696d756d60981b6044820152fd5b6064906040519062461bcd60e51b82526004820152600d60248201526c42656c6f77206d696e696d756d60981b6044820152fd5b34610229576020366003190112610229576001600160a01b03613f19614134565b16600052600f6020526040806000206001815491015482519182526020820152f35b3461022957604036600319011261022957613f54614134565b602435903315613d0a576001600160a01b0316908115613cf157336000526001602052604060002082600052602052806040600020556040519081527f8c5be1e5ebec7d5bd14f71427d1e84f3dd0314c0f7b2291e5b200ac8c7c3b92560203392a3602060405160018152f35b34610229576020366003190112610229576001600160a01b03613fe2614134565b16600052600c60205260606040600020805490600260018201549101549060405192835260208301526040820152f35b3461022957600036600319011261022957604051600090600354600181811c908083169283156140c6575b602093848410811461275157838652908115612731575060011461406b576126d2846126c6818803826141dd565b600360009081529294507fc2575a0e9e593c00f959f8c92f12db2869c3395a3b0502d05e2516446f71f85b5b8284106140b357505050816126d2936126c692820101936126b6565b8054858501870152928501928101614097565b91607f169161403d565b34610229576000366003190112610229576020906009548152f35b6020808252825181830181905290939260005b82811061412057505060409293506000838284010152601f8019910116010190565b8181018601518482016040015285016140fe565b600435906001600160a01b038216820361022957565b602435906001600160a01b038216820361022957565b6060906003190112610229576001600160a01b0390600435828116810361022957916024359081168103610229579060443590565b6005546001600160a01b031633036141a957565b60405163118cdaa760e01b8152336004820152602490fd5b6040810190811067ffffffffffffffff8211176122ef57604052565b90601f8019910116810190811067ffffffffffffffff8211176122ef57604052565b916001600160a01b038084169283156142ab57169283156124995760009083825281602052604082205490838210614279575091604082827fddf252ad1be2c89b69c2b068fc378daa952ba7f163c4a11628f55a4df523b3ef958760209652828652038282205586815220818154019055604051908152a3565b60405163391434e360e21b81526001600160a01b03919091166004820152602481019190915260448101839052606490fd5b604051634b637e8f60e11b815260006004820152602490fd5b9190820180921161230557565b8181029291811591840414171561230557565b9190820391821161230557565b60001981146123055760010190565b604080519161432060209367389acb82f04218dd858201528481526141c1565b61433a825167a64b6e6073897a1d858201528481526141c1565b6143548251670deefd87fe362bd2858201528481526141c1565b806143945750908161437961438f935167a921cf7e3fd0c5fd848201528381526141c1565b519067e3d1be3be2d165478183015281526141c1565b600090565b6143ae8251675992e00687ca3e76858201528481526141c1565b6143c8825167cdb0ee10f4c9c15d858201528481526141c1565b6143e282516727348274f88c3005858201528481526141c1565b6143fc825167b858556ccfe9bb19858201528481526141c1565b6144168251678839b622453a12f0858201528481526141c1565b91614431825167bde9ed4428121f97838201528281526141c1565b61444b8251677363a306d628ac0a838201528281526141c1565b600091614468815167308a2ec9783d40b4848201528381526141c1565b614482815167bdc0314b1bf9cb68848201528381526141c1565b670de0b6b3a7640000936144a6825167500244f8a871914b858201528481526141c1565b6144c0825167396e7f587b2f920e858201528481526141c1565b83906144dc835167ad0de8eb650e0bd6868201528581526141c1565b6144f68351670bd3cb7f74470103868201528581526141c1565b6298968091614515845167572fc01744f07603878201528681526141c1565b81614530855167c665e927b0c6882d888201528781526141c1565b614571575b50505061456e92935061455881516740dea02acd3d6514848201528381526141c1565b519067e9dec1c2850540cf8183015281526141c1565b90565b61458b8451673202bd016e9d7d15878201528681526141c1565b6145a5845167e495120e371fa475878201528681526141c1565b6145bf84516715b52406ce520c28878201528681526141c1565b6145d9845167ace441909b614728878201528681526141c1565b6145e381886142e4565b906145fe855167419239a1cb6f5eb9888201528781526141c1565b614618855167173476b9d81bd2ce888201528781526141c1565b87101561464b5750505061456e92935061464281516704a372cb91cfde80848201528381526141c1565b83923880614535565b6146658451678b2be7130c5972a9878201528681526141c1565b61467f845167e3e8e7a30efc6103878201528681526141c1565b614699845167544ad5232c1f1ba6878201528681526141c1565b806146c15750505061456e92935061464281516711d4bcddf71d5c9a848201528381526141c1565b9483956146df849551678d1a316bede48fd9888201528781526141c1565b6146f987516761b239133ec954ee888201528781526141c1565b614713875167482b9fee438ed9cb888201528781526141c1565b80831115614a1957906147446147a99261473d89516757a2b0f7f66560488a8201528981526141c1565b80946142e4565b925b614760885167b394e2ac30bcf974898201528881526141c1565b61477a885167a39303225f22fcf1898201528881526141c1565b6147886127109687926142d1565b04906147a4885167a8c4e81d2e0df164898201528881526141c1565b6142c4565b956147c4865167e739ff3f0295c8ae878201528681526141c1565b806147df8751677d5092e63fcb287f888201528781526141c1565b6147f98751671a5552cd34f02736888201528781526141c1565b600a90818102908015908083048414821715612305576148298a516742c16a190da098398b8201528a81526141c1565b6148438a5167be9170d5967fe50e8b8201528a81526141c1565b83830414159081614a10575b501561493c5750505061487285516774be09f95cb5afc6868201528581526141c1565b61488c855167b19ed8c37f889d65868201528581526141c1565b6148a68551674b24489668391bff868201528581526141c1565b801561491657916148f38596926148fa946148d461456e985167b5201afe1c71d659898201528881526141c1565b6148ee89516758a42af4aac43ebf898201528881526141c1565b6142d1565b04906142c4565b925b6146428151675bd7cb4f0f45cf15848201528381526141c1565b5050508161493761456e9351673c2e5cd7dc3c2e17848201528381526141c1565b6148fc565b9091939796945061495d8551671f3406b13e9a7134888201528781526141c1565b614977855167a55b05ea151c80a3888201528781526141c1565b966149928551671e707f0609ef4ee2888201528781526141c1565b04916149ae84516783281294ef9c808c878201528681526141c1565b6149c8845167e400e4957c589319878201528681526141c1565b826149f05750505061456e929350614642815167c4b6beaad738d864848201528381526141c1565b81614a0b8551676e944265029f383a888201528781526141c1565b614530565b9050153861484f565b50906147a990614a39875167fcedb089ca49eb26888201528781526141c1565b91600092614746565b90612710614b5d61456e93604095614add614aa8885196614a7460209867a2146dea2604361c8a8201528981526141c1565b614a8e8a5167460df709d4dbf1878a8201528981526141c1565b612c638a516702b23b5fdf398d508a8201528981526141c1565b91614ac3895167c15641c67e22ecf6898201528881526141c1565b612c63895167a527b50adf727c04898201528881526141c1565b614af7885167daea89a6324ad31c888201528781526141c1565b614b118851677c21b085b3e4bcc0888201528781526141c1565b8082118015614bbd575b80614b97575b15614b8f5750905b614b4387516773c962773eb181f5878201528681526141c1565b6148ee875167c63bfd15de6467a2878201528681526141c1565b0492614b798151673dd04f0713116362848201528381526141c1565b51906731171b87078ac22d8183015281526141c1565b905090614b29565b50875167c467989eb0bd03e560c01b87820152868152614bb6906141c1565b6001614b21565b50875167195d80366da500a160c31b87820152868152614bdc906141c1565b6000614b1b565b60408051614c0260209167ad5fea6d9c273c52838201528281526141c1565b614c1c825167f62dc0c483b7ad8f838201528281526141c1565b614c368251679ebe53fc414bb4c3838201528281526141c1565b60009260018060a01b03168352600e815281832092614c658351676bc86db466034ace848201528381526141c1565b614c7f8351673d4b0fce3c4759af848201528381526141c1565b612710614c9c84516741c01297b865c857858201528481526141c1565b614cb6845167319af96df9eb9980858201528481526141c1565b6002850154801515908161501e575b5015614fff5750614ce6835167d0bc65e2352f4fe5848201528381526141c1565b614d00835167396b45856d467aef848201528381526141c1565b613a985b614d1e845167129f9150746471b3858201528481526141c1565b614d38845167c1a6135892bb8392858201528481526141c1565b60018501548015159081614fe8575b5015614fc957614d678451670fdbd14692edcf25858201528481526141c1565b614d818451679b7f32cd73564107858201528481526141c1565b6127108101809111614fb5575b614da8845167291272a7f8a6c7b7858201528481526141c1565b614dc2845167fe0be66f11cda923858201528481526141c1565b8454906103e891828102928184041490151715614fa157614df3855167601550b4f5707333868201528581526141c1565b614e0d85516739d76f42160b2d50868201528581526141c1565b8115614f7d57600391614e4e91614e348751671d92a4e4089a2db8888201528781526141c1565b6147a4875167e37fa76e7f4eef57888201528781526141c1565b945b614e6a8551677975233312424768868201528581526141c1565b614e8485516752b37c985a35eea8868201528581526141c1565b0154906101f491828102928184041490151715614f695750614eb6835167b4c0b4926d6f1633848201528381526141c1565b614ed08351676f826c5fb102114d848201528381526141c1565b8015614f4557614f13908394614ef961456e955167a6e02478d938d5e3868201528581526141c1565b6147a4865167caf8e6d0aac3b507868201528581526141c1565b925b614f2f815167b01b6dcb6e01bff9848201528381526141c1565b519067907996cab204506f8183015281526141c1565b5081614f6461456e935167ef4699a1eb53716d848201528381526141c1565b614f15565b634e487b7160e01b81526011600452602490fd5b9460039150614f9c8551673bd6bd9077bb500e868201528581526141c1565b614e50565b634e487b7160e01b83526011600452602483fd5b634e487b7160e01b82526011600452602482fd5b614fe38451679c1ae8e140aa7e13858201528481526141c1565b614d8e565b62278d009150614ff890426142e4565b1038614d47565b61501984516780ad2dc9039c4890858201528481526141c1565b614d04565b62093a80915061502e90426142e4565b1038614cc5565b604080519161505560209367a8c51886a7fe69a3858201528481526141c1565b61506f825167fbddb7cc13265b69858201528481526141c1565b615089825167b7c0a631ccb59f04858201528481526141c1565b6001600160a01b03166000908152600f83528190208151674cd01494d657536e818501528381526150b9906141c1565b6150d3825167a6ba598a4fbc55b1858201528481526141c1565b80548061512b57505090816150fb61456e935167ef5e380149fa9cf1848201528381526141c1565b61511581516753d1f64caddb15fc848201528381526141c1565b519067cff5b33215366fb38183015281526141c1565b615148839592955167075d43ed5ad700b0868201528581526141c1565b6151628351678820d5173c75ac40868201528581526141c1565b61517c8351677c4c53c2a1f6777f868201528581526141c1565b8181106152185750926151c761438f946151a68451671bfb0ea6eaef28db878201528681526141c1565b6151c0845167a17a609f314c2bd8878201528681526141c1565b82546142e4565b81556151e3825167adbd2b5f550ae79d858201528481526141c1565b6001429101556152028151665167fe5504aade848201528381526141c1565b519067898048c4620705118183015281526141c1565b6152a490839261523c61456e96955167fc9866b8d841ae9e878201528681526141c1565b6152568451672d7f7f1c93e975ef878201528681526141c1565b615270845167f04bf01effe109da878201528681526141c1565b61528a845167716fee29f60074ab878201528681526141c1565b611a31845167821ae5367c7d43d3878201528681526141c1565b936152bf825167812229e29209299d858201528481526141c1565b600081556152dd8251671a0aa602668ae038858201528481526141c1565b6001429101556152fd8151673b407e1c1483ea14848201528381526141c1565b519067f621164f2998cb808183015281526141c156fe4ab22c15144ee7dd924422ed9b51b268d04702767f298ffb54749f6baf0e5dc5a26469706673582212209ac2a661ba7f174a59db84b0f6b386ea3b6d8a5b3ee32917990278d2c491c99464736f6c63430008140033","opcodes":"PUSH1 0x80 CALLVALUE PUSH3 0x5A1 JUMPI PUSH1 0x1 PUSH1 0x1 PUSH1 0x40 SHL SUB SWAP1 PUSH3 0x5941 SWAP1 PUSH1 0x1F NOT PUSH1 0x1F CODESIZE DUP5 SWAP1 SUB DUP2 DUP2 ADD DUP4 AND DUP5 ADD SWAP1 DUP7 DUP3 GT DUP6 DUP4 LT OR PUSH3 0x4A3 JUMPI DUP1 DUP6 SWAP2 PUSH1 0x40 SWAP8 DUP9 SWAP5 DUP6 MSTORE DUP4 CODECOPY DUP2 ADD SUB SLT PUSH3 0x5A1 JUMPI PUSH3 0x52 DUP4 PUSH3 0x5C2 JUMP JUMPDEST SWAP2 PUSH3 0x62 PUSH1 0x20 DUP1 SWAP6 ADD PUSH3 0x5C2 JUMP JUMPDEST SWAP1 DUP6 MLOAD SWAP7 PUSH3 0x71 DUP9 PUSH3 0x5A6 JUMP JUMPDEST PUSH1 0xD DUP9 MSTORE PUSH13 0x2A199029BA30B13632B1B7B4B7 PUSH1 0x99 SHL DUP7 DUP10 ADD MSTORE DUP7 MLOAD SWAP8 PUSH3 0x98 DUP10 PUSH3 0x5A6 JUMP JUMPDEST PUSH1 0x2 DUP10 MSTORE PUSH2 0x5433 PUSH1 0xF0 SHL DUP8 DUP11 ADD MSTORE DUP1 MLOAD SWAP1 DUP3 DUP3 GT PUSH3 0x4A3 JUMPI PUSH1 0x3 SWAP2 DUP3 SLOAD PUSH1 0x1 SWAP3 DUP4 DUP3 DUP2 SHR SWAP3 AND DUP1 ISZERO PUSH3 0x596 JUMPI JUMPDEST DUP12 DUP4 LT EQ PUSH3 0x580 JUMPI DUP2 DUP10 DUP5 SWAP4 GT PUSH3 0x52A JUMPI JUMPDEST POP DUP11 SWAP1 DUP10 DUP4 GT PUSH1 0x1 EQ PUSH3 0x4C5 JUMPI PUSH1 0x0 SWAP3 PUSH3 0x4B9 JUMPI JUMPDEST POP POP PUSH1 0x0 NOT DUP3 DUP6 SHL SHR NOT AND SWAP1 DUP3 SHL OR DUP3 SSTORE JUMPDEST DUP10 MLOAD SWAP3 DUP4 GT PUSH3 0x4A3 JUMPI PUSH1 0x4 SWAP10 DUP11 SLOAD DUP3 DUP2 DUP2 SHR SWAP2 AND DUP1 ISZERO PUSH3 0x498 JUMPI JUMPDEST DUP11 DUP3 LT EQ PUSH3 0x483 JUMPI DUP8 DUP2 GT PUSH3 0x438 JUMPI JUMPDEST POP DUP9 SWAP1 DUP8 DUP6 GT PUSH1 0x1 EQ PUSH3 0x3CF JUMPI DUP5 SWAP6 POP SWAP1 DUP5 SWAP3 SWAP2 PUSH1 0x0 SWAP6 PUSH3 0x3C3 JUMPI JUMPDEST POP POP SHL SWAP3 PUSH1 0x0 NOT SWAP2 SHL SHR NOT AND OR DUP7 SSTORE JUMPDEST PUSH1 0x1 PUSH1 0x1 PUSH1 0xA0 SHL SUB SWAP3 DUP4 AND SWAP3 DUP4 ISZERO PUSH3 0x3AC JUMPI PUSH1 0x5 DUP1 SLOAD PUSH1 0x1 PUSH1 0x1 PUSH1 0xA0 SHL SUB NOT DUP1 DUP3 AND DUP8 OR SWAP1 SWAP3 SSTORE DUP8 MLOAD SWAP2 SWAP4 SWAP2 PUSH3 0x1EC SWAP2 DUP8 SWAP1 DUP6 AND PUSH32 0x8BE0079C531659141344CD1FD0A4F28419497F9722A3DAAFE3B4186F6B6457E0 PUSH1 0x0 DUP1 LOG3 PUSH2 0xE10 PUSH1 0x6 SSTORE PUSH2 0x258 PUSH1 0x7 SSTORE PUSH3 0x15180 PUSH1 0x8 SSTORE PUSH3 0x278D00 PUSH1 0x9 SSTORE PUSH8 0x872E4B2B9AEA9869 DUP9 DUP3 ADD MSTORE DUP8 DUP2 MSTORE PUSH3 0x5A6 JUMP JUMPDEST PUSH3 0x208 DUP8 MLOAD PUSH8 0x7C4813665181DEDC DUP9 DUP3 ADD MSTORE DUP8 DUP2 MSTORE PUSH3 0x5A6 JUMP JUMPDEST PUSH3 0x224 DUP8 MLOAD PUSH8 0x1BFBB13A4B7E75B8 DUP9 DUP3 ADD MSTORE DUP8 DUP2 MSTORE PUSH3 0x5A6 JUMP JUMPDEST PUSH3 0x240 DUP8 MLOAD PUSH8 0x150A0C569ABCF7AE DUP9 DUP3 ADD MSTORE DUP8 DUP2 MSTORE PUSH3 0x5A6 JUMP JUMPDEST AND SWAP2 DUP3 ISZERO PUSH3 0x36B JUMPI POP PUSH3 0x266 DUP6 MLOAD PUSH8 0x72370D8CA6BFD9F2 DUP7 DUP3 ADD MSTORE DUP6 DUP2 MSTORE PUSH3 0x5A6 JUMP JUMPDEST PUSH3 0x282 DUP6 MLOAD PUSH8 0xDB557D2E982521ED DUP7 DUP3 ADD MSTORE DUP6 DUP2 MSTORE PUSH3 0x5A6 JUMP JUMPDEST PUSH1 0xA SLOAD AND OR PUSH1 0xA SSTORE PUSH3 0x2A6 DUP4 MLOAD PUSH8 0x46E0894B1893E2F0 DUP5 DUP3 ADD MSTORE DUP4 DUP2 MSTORE PUSH3 0x5A6 JUMP JUMPDEST PUSH3 0x2C2 DUP4 MLOAD PUSH8 0x5A4B23A104783C66 DUP5 DUP3 ADD MSTORE DUP4 DUP2 MSTORE PUSH3 0x5A6 JUMP JUMPDEST PUSH1 0x2 SLOAD PUSH10 0xD3C21BCECCEDA1000000 SWAP5 DUP6 DUP3 ADD DUP1 SWAP3 GT PUSH3 0x356 JUMPI POP PUSH1 0x0 PUSH32 0xDDF252AD1BE2C89B69C2B068FC378DAA952BA7F163C4A11628F55A4DF523B3EF DUP5 PUSH1 0xE SWAP7 SWAP8 DUP6 SWAP5 PUSH1 0x2 SSTORE DUP5 DUP5 MSTORE DUP4 DUP3 MSTORE DUP9 DUP5 KECCAK256 DUP2 DUP2 SLOAD ADD SWAP1 SSTORE DUP9 MLOAD SWAP1 DUP2 MSTORE LOG3 PUSH3 0x33B DUP5 MLOAD PUSH8 0x98F22D1E032FD0BB DUP5 DUP3 ADD MSTORE DUP4 DUP2 MSTORE PUSH3 0x5A6 JUMP JUMPDEST PUSH1 0x0 MSTORE MSTORE TIMESTAMP PUSH1 0x2 DUP3 PUSH1 0x0 KECCAK256 ADD SSTORE MLOAD PUSH2 0x5369 SWAP1 DUP2 PUSH3 0x5D8 DUP3 CODECOPY RETURN JUMPDEST PUSH1 0x11 SWAP1 PUSH4 0x4E487B71 PUSH1 0xE0 SHL PUSH1 0x0 MSTORE MSTORE PUSH1 0x24 PUSH1 0x0 REVERT JUMPDEST DUP7 PUSH1 0x64 SWAP2 DUP7 DUP9 MLOAD SWAP3 PUSH3 0x461BCD PUSH1 0xE5 SHL DUP5 MSTORE DUP4 ADD MSTORE PUSH1 0x24 DUP3 ADD MSTORE PUSH32 0x547265617375727920616464726573732063616E6E6F74206265207A65726F00 PUSH1 0x44 DUP3 ADD MSTORE REVERT JUMPDEST DUP6 MLOAD PUSH4 0x1E4FBDF7 PUSH1 0xE0 SHL DUP2 MSTORE PUSH1 0x0 DUP2 DUP10 ADD MSTORE PUSH1 0x24 SWAP1 REVERT JUMPDEST ADD MLOAD SWAP4 POP CODESIZE DUP1 PUSH3 0x151 JUMP JUMPDEST SWAP3 SWAP2 SWAP5 DUP5 AND SWAP3 DUP12 PUSH1 0x0 MSTORE DUP5 DUP11 PUSH1 0x0 KECCAK256 SWAP5 PUSH1 0x0 JUMPDEST DUP13 DUP10 DUP4 DUP4 LT PUSH3 0x420 JUMPI POP POP POP LT PUSH3 0x405 JUMPI JUMPDEST POP POP POP POP DUP2 SHL ADD DUP7 SSTORE PUSH3 0x161 JUMP JUMPDEST ADD MLOAD SWAP1 PUSH1 0xF8 DUP5 PUSH1 0x0 NOT SWAP3 SHL AND SHR NOT AND SWAP1 SSTORE CODESIZE DUP1 DUP1 DUP1 PUSH3 0x3F6 JUMP JUMPDEST DUP7 DUP7 ADD MLOAD DUP10 SSTORE SWAP1 SWAP8 ADD SWAP7 SWAP5 DUP6 ADD SWAP5 DUP9 SWAP4 POP ADD PUSH3 0x3E2 JUMP JUMPDEST DUP12 PUSH1 0x0 MSTORE DUP10 PUSH1 0x0 KECCAK256 DUP9 DUP1 DUP8 ADD PUSH1 0x5 SHR DUP3 ADD SWAP3 DUP13 DUP9 LT PUSH3 0x479 JUMPI JUMPDEST ADD PUSH1 0x5 SHR ADD SWAP1 DUP4 SWAP1 JUMPDEST DUP3 DUP2 LT PUSH3 0x46C JUMPI POP POP PUSH3 0x133 JUMP JUMPDEST PUSH1 0x0 DUP2 SSTORE ADD DUP4 SWAP1 PUSH3 0x45C JUMP JUMPDEST SWAP3 POP DUP2 SWAP3 PUSH3 0x453 JUMP JUMPDEST PUSH1 0x22 DUP13 PUSH4 0x4E487B71 PUSH1 0xE0 SHL PUSH1 0x0 MSTORE MSTORE PUSH1 0x24 PUSH1 0x0 REVERT JUMPDEST SWAP1 PUSH1 0x7F AND SWAP1 PUSH3 0x121 JUMP JUMPDEST PUSH4 0x4E487B71 PUSH1 0xE0 SHL PUSH1 0x0 MSTORE PUSH1 0x41 PUSH1 0x4 MSTORE PUSH1 0x24 PUSH1 0x0 REVERT JUMPDEST ADD MLOAD SWAP1 POP CODESIZE DUP1 PUSH3 0xF2 JUMP JUMPDEST SWAP1 DUP8 DUP6 SWAP5 AND SWAP2 DUP7 PUSH1 0x0 MSTORE DUP13 PUSH1 0x0 KECCAK256 SWAP3 DUP14 PUSH1 0x0 SWAP1 JUMPDEST DUP3 DUP3 LT PUSH3 0x512 JUMPI POP POP DUP5 GT PUSH3 0x4F9 JUMPI JUMPDEST POP POP POP DUP2 SHL ADD DUP3 SSTORE PUSH3 0x104 JUMP JUMPDEST ADD MLOAD PUSH1 0x0 NOT DUP4 DUP8 SHL PUSH1 0xF8 AND SHR NOT AND SWAP1 SSTORE CODESIZE DUP1 DUP1 PUSH3 0x4EB JUMP JUMPDEST DUP4 DUP6 ADD MLOAD DUP7 SSTORE DUP9 SWAP8 SWAP1 SWAP6 ADD SWAP5 SWAP4 DUP5 ADD SWAP4 ADD DUP15 PUSH3 0x4D9 JUMP JUMPDEST SWAP1 SWAP2 POP DUP5 PUSH1 0x0 MSTORE DUP11 PUSH1 0x0 KECCAK256 DUP10 DUP1 DUP6 ADD PUSH1 0x5 SHR DUP3 ADD SWAP3 DUP14 DUP7 LT PUSH3 0x576 JUMPI JUMPDEST SWAP2 DUP7 SWAP2 DUP7 SWAP6 SWAP5 SWAP4 ADD PUSH1 0x5 SHR ADD SWAP2 JUMPDEST DUP3 DUP2 LT PUSH3 0x566 JUMPI POP POP PUSH3 0xDB JUMP JUMPDEST PUSH1 0x0 DUP2 SSTORE DUP6 SWAP5 POP DUP7 SWAP2 ADD PUSH3 0x556 JUMP JUMPDEST SWAP3 POP DUP2 SWAP3 PUSH3 0x548 JUMP JUMPDEST PUSH4 0x4E487B71 PUSH1 0xE0 SHL PUSH1 0x0 MSTORE PUSH1 0x22 PUSH1 0x4 MSTORE PUSH1 0x24 PUSH1 0x0 REVERT JUMPDEST SWAP2 PUSH1 0x7F AND SWAP2 PUSH3 0xC7 JUMP JUMPDEST PUSH1 0x0 DUP1 REVERT JUMPDEST PUSH1 0x40 DUP2 ADD SWAP1 DUP2 LT PUSH1 0x1 PUSH1 0x1 PUSH1 0x40 SHL SUB DUP3 GT OR PUSH3 0x4A3 JUMPI PUSH1 0x40 MSTORE JUMP JUMPDEST MLOAD SWAP1 PUSH1 0x1 PUSH1 0x1 PUSH1 0xA0 SHL SUB DUP3 AND DUP3 SUB PUSH3 0x5A1 JUMPI JUMP INVALID PUSH1 0x80 DUP1 PUSH1 0x40 MSTORE PUSH1 0x4 CALLDATASIZE LT ISZERO PUSH2 0x13 JUMPI PUSH1 0x0 DUP1 REVERT JUMPDEST PUSH1 0x0 CALLDATALOAD PUSH1 0xE0 SHR SWAP1 DUP2 PUSH4 0x3833501 EQ PUSH2 0x40D0 JUMPI POP DUP1 PUSH4 0x6FDDE03 EQ PUSH2 0x4012 JUMPI DUP1 PUSH4 0x8D887D0 EQ PUSH2 0x3FC1 JUMPI DUP1 PUSH4 0x95EA7B3 EQ PUSH2 0x3F3B JUMPI DUP1 PUSH4 0xC27AB5A EQ PUSH2 0x3EF8 JUMPI DUP1 PUSH4 0xF3F0803 EQ PUSH2 0x3D67 JUMPI DUP1 PUSH4 0x18160DDD EQ PUSH2 0x3D49 JUMPI DUP1 PUSH4 0x23B872DD EQ PUSH2 0x3C6D JUMPI DUP1 PUSH4 0x313CE567 EQ PUSH2 0x3C51 JUMPI DUP1 PUSH4 0x3CBF9342 EQ PUSH2 0x3C15 JUMPI DUP1 PUSH4 0x3D8D1DCE EQ PUSH2 0x3BB9 JUMPI DUP1 PUSH4 0x4C915D18 EQ PUSH2 0x3B9B JUMPI DUP1 PUSH4 0x508C0634 EQ PUSH2 0x30D5 JUMPI DUP1 PUSH4 0x57FE51D2 EQ PUSH2 0x2FCE JUMPI DUP1 PUSH4 0x62D3F814 EQ PUSH2 0x2F4B JUMPI DUP1 PUSH4 0x6605BFDA EQ PUSH2 0x2E1A JUMPI DUP1 PUSH4 0x6B6EF953 EQ PUSH2 0x2DFC JUMPI DUP1 PUSH4 0x6BE14A33 EQ PUSH2 0x2DD5 JUMPI DUP1 PUSH4 0x6CD9CA14 EQ PUSH2 0x2CC5 JUMPI DUP1 PUSH4 0x6E2FAE47 EQ PUSH2 0x2A3B JUMPI DUP1 PUSH4 0x70A08231 EQ PUSH2 0x2A01 JUMPI DUP1 PUSH4 0x715018A6 EQ PUSH2 0x29A4 JUMPI DUP1 PUSH4 0x76223A27 EQ PUSH2 0x2809 JUMPI DUP1 PUSH4 0x800753CF EQ PUSH2 0x27EB JUMPI DUP1 PUSH4 0x8DA5CB5B EQ PUSH2 0x27C2 JUMPI DUP1 PUSH4 0x8FFA15D4 EQ PUSH2 0x2771 JUMPI DUP1 PUSH4 0x95D89B41 EQ PUSH2 0x266C JUMPI DUP1 PUSH4 0xA9059CBB EQ PUSH2 0xD4E JUMPI DUP1 PUSH4 0xB065A8E5 EQ PUSH2 0xCC6 JUMPI DUP1 PUSH4 0xC5F956AF EQ PUSH2 0xC9D JUMPI DUP1 PUSH4 0xC750F203 EQ PUSH2 0xC7F JUMPI DUP1 PUSH4 0xDD62ED3E EQ PUSH2 0xC2E JUMPI DUP1 PUSH4 0xE06A7A10 EQ PUSH2 0xC08 JUMPI DUP1 PUSH4 0xF0E6EA8D EQ PUSH2 0x22E JUMPI PUSH4 0xF2FDE38B EQ PUSH2 0x1A0 JUMPI PUSH1 0x0 DUP1 REVERT JUMPDEST CALLVALUE PUSH2 0x229 JUMPI PUSH1 0x20 CALLDATASIZE PUSH1 0x3 NOT ADD SLT PUSH2 0x229 JUMPI PUSH2 0x1B9 PUSH2 0x4134 JUMP JUMPDEST PUSH2 0x1C1 PUSH2 0x4195 JUMP JUMPDEST PUSH1 0x1 PUSH1 0x1 PUSH1 0xA0 SHL SUB SWAP1 DUP2 AND SWAP1 DUP2 ISZERO PUSH2 0x210 JUMPI PUSH1 0x5 SLOAD DUP3 PUSH1 0x1 PUSH1 0x1 PUSH1 0x60 SHL SUB PUSH1 0xA0 SHL DUP3 AND OR PUSH1 0x5 SSTORE AND PUSH32 0x8BE0079C531659141344CD1FD0A4F28419497F9722A3DAAFE3B4186F6B6457E0 PUSH1 0x0 DUP1 LOG3 STOP JUMPDEST PUSH1 0x40 MLOAD PUSH4 0x1E4FBDF7 PUSH1 0xE0 SHL DUP2 MSTORE PUSH1 0x0 PUSH1 0x4 DUP3 ADD MSTORE PUSH1 0x24 SWAP1 REVERT JUMPDEST PUSH1 0x0 DUP1 REVERT JUMPDEST CALLVALUE PUSH2 0x229 JUMPI PUSH2 0x23C CALLDATASIZE PUSH2 0x4160 JUMP JUMPDEST SWAP1 PUSH2 0x25A PUSH1 0x40 MLOAD PUSH8 0x959A7E59FF621999 PUSH1 0x20 DUP3 ADD MSTORE PUSH1 0x20 DUP2 MSTORE PUSH2 0x41C1 JUMP JUMPDEST PUSH2 0x277 PUSH1 0x40 MLOAD PUSH8 0x2A43CFE6B2A63410 PUSH1 0x20 DUP3 ADD MSTORE PUSH1 0x20 DUP2 MSTORE PUSH2 0x41C1 JUMP JUMPDEST PUSH2 0x294 PUSH1 0x40 MLOAD PUSH8 0xEE1C905E9C887BA9 PUSH1 0x20 DUP3 ADD MSTORE PUSH1 0x20 DUP2 MSTORE PUSH2 0x41C1 JUMP JUMPDEST PUSH2 0x2B1 PUSH1 0x40 MLOAD PUSH8 0xEF27AC6466CB7987 PUSH1 0x20 DUP3 ADD MSTORE PUSH1 0x20 DUP2 MSTORE PUSH2 0x41C1 JUMP JUMPDEST PUSH1 0x1 PUSH1 0x1 PUSH1 0xA0 SHL SUB DUP4 DUP2 AND CALLER SUB PUSH2 0xBB7 JUMPI PUSH2 0x2DF PUSH1 0x40 MLOAD PUSH8 0x43CF5C08B2473D67 PUSH1 0x20 DUP3 ADD MSTORE PUSH1 0x20 DUP2 MSTORE PUSH2 0x41C1 JUMP JUMPDEST PUSH2 0x2FC PUSH1 0x40 MLOAD PUSH8 0xCC5B6035195EA573 PUSH1 0x20 DUP3 ADD MSTORE PUSH1 0x20 DUP2 MSTORE PUSH2 0x41C1 JUMP JUMPDEST PUSH2 0x319 PUSH1 0x40 MLOAD PUSH8 0x94ADF9A95D499211 PUSH1 0x20 DUP3 ADD MSTORE PUSH1 0x20 DUP2 MSTORE PUSH2 0x41C1 JUMP JUMPDEST DUP1 DUP5 AND PUSH1 0x0 MSTORE PUSH1 0xB PUSH1 0x20 MSTORE PUSH1 0x40 PUSH1 0x0 KECCAK256 PUSH2 0x346 PUSH1 0x40 MLOAD PUSH8 0xE18876FD71183A47 PUSH1 0x20 DUP3 ADD MSTORE PUSH1 0x20 DUP2 MSTORE PUSH2 0x41C1 JUMP JUMPDEST PUSH2 0x363 PUSH1 0x40 MLOAD PUSH8 0x4DBA28E26972A384 PUSH1 0x20 DUP3 ADD MSTORE PUSH1 0x20 DUP2 MSTORE PUSH2 0x41C1 JUMP JUMPDEST PUSH2 0x380 PUSH1 0x40 MLOAD PUSH8 0x33113D25AB4214D6 PUSH1 0x20 DUP3 ADD MSTORE PUSH1 0x20 DUP2 MSTORE PUSH2 0x41C1 JUMP JUMPDEST DUP1 SLOAD TIMESTAMP LT ISZERO PUSH2 0xB7F JUMPI PUSH2 0x3A6 PUSH1 0x40 MLOAD PUSH8 0xEBAB3920E59021F5 PUSH1 0x20 DUP3 ADD MSTORE PUSH1 0x20 DUP2 MSTORE PUSH2 0x41C1 JUMP JUMPDEST PUSH2 0x3C3 PUSH1 0x40 MLOAD PUSH8 0xDDC7E3AB884C02FF PUSH1 0x20 DUP3 ADD MSTORE PUSH1 0x20 DUP2 MSTORE PUSH2 0x41C1 JUMP JUMPDEST PUSH2 0x3E0 PUSH1 0x40 MLOAD PUSH8 0xE2F2C1A118CC887D PUSH1 0x20 DUP3 ADD MSTORE PUSH1 0x20 DUP2 MSTORE PUSH2 0x41C1 JUMP JUMPDEST PUSH2 0x3FD PUSH1 0x40 MLOAD PUSH8 0x4ED5E76A20CFE3D0 PUSH1 0x20 DUP3 ADD MSTORE PUSH1 0x20 DUP2 MSTORE PUSH2 0x41C1 JUMP JUMPDEST DUP2 PUSH1 0x2 DUP3 ADD SLOAD AND DUP3 DUP5 AND SUB PUSH2 0xB2E JUMPI PUSH2 0x429 PUSH1 0x40 MLOAD PUSH8 0x7F0D1230E3B5409B PUSH1 0x20 DUP3 ADD MSTORE PUSH1 0x20 DUP2 MSTORE PUSH2 0x41C1 JUMP JUMPDEST PUSH2 0x446 PUSH1 0x40 MLOAD PUSH8 0x15B6FB34A88E8B03 PUSH1 0x20 DUP3 ADD MSTORE PUSH1 0x20 DUP2 MSTORE PUSH2 0x41C1 JUMP JUMPDEST PUSH2 0x463 PUSH1 0x40 MLOAD PUSH8 0x611C418FDC42CF72 PUSH1 0x20 DUP3 ADD MSTORE PUSH1 0x20 DUP2 MSTORE PUSH2 0x41C1 JUMP JUMPDEST PUSH2 0x480 PUSH1 0x40 MLOAD PUSH8 0x14A5C920638D65AB PUSH1 0x20 DUP3 ADD MSTORE PUSH1 0x20 DUP2 MSTORE PUSH2 0x41C1 JUMP JUMPDEST DUP2 DUP6 AND PUSH1 0x0 MSTORE PUSH1 0x0 PUSH1 0x20 MSTORE DUP4 PUSH1 0x40 PUSH1 0x0 KECCAK256 SLOAD LT PUSH2 0xAE9 JUMPI PUSH1 0x6 SWAP1 PUSH2 0x4B7 PUSH1 0x40 MLOAD PUSH8 0xFF4EFB30C1F3912D PUSH1 0x20 DUP3 ADD MSTORE PUSH1 0x20 DUP2 MSTORE PUSH2 0x41C1 JUMP JUMPDEST PUSH2 0x4D4 PUSH1 0x40 MLOAD PUSH8 0x331C4595F4B238AA PUSH1 0x20 DUP3 ADD MSTORE PUSH1 0x20 DUP2 MSTORE PUSH2 0x41C1 JUMP JUMPDEST PUSH2 0x4F1 PUSH1 0x40 MLOAD PUSH8 0x5DA452F1A94E4F3E PUSH1 0x20 DUP3 ADD MSTORE PUSH1 0x20 DUP2 MSTORE PUSH2 0x41C1 JUMP JUMPDEST PUSH2 0x50E PUSH1 0x40 MLOAD PUSH8 0x8C8C80D8169893C9 PUSH1 0x20 DUP3 ADD MSTORE PUSH1 0x20 DUP2 MSTORE PUSH2 0x41C1 JUMP JUMPDEST ADD SWAP1 DUP2 SLOAD PUSH1 0xFF DUP2 AND PUSH2 0xAA4 JUMPI PUSH32 0x55608E3380952B490F6DC0B1B0BCF7A16177FE10590CF1599B7A84F430B70E37 SWAP4 PUSH1 0x20 SWAP4 PUSH1 0x1 DUP5 SWAP4 PUSH2 0x55E PUSH1 0x40 MLOAD PUSH8 0x963F218A55A18EB3 DUP10 DUP3 ADD MSTORE DUP9 DUP2 MSTORE PUSH2 0x41C1 JUMP JUMPDEST PUSH2 0x579 PUSH1 0x40 MLOAD PUSH8 0x870B9021026C53BB DUP10 DUP3 ADD MSTORE DUP9 DUP2 MSTORE PUSH2 0x41C1 JUMP JUMPDEST PUSH1 0xFF NOT AND OR SWAP1 SSTORE PUSH2 0x59B PUSH1 0x40 MLOAD PUSH8 0x6D8FECC0BC0D95A5 DUP7 DUP3 ADD MSTORE DUP6 DUP2 MSTORE PUSH2 0x41C1 JUMP JUMPDEST PUSH2 0x5B6 PUSH1 0x40 MLOAD PUSH8 0xAA1DAA7762FCD4CD DUP7 DUP3 ADD MSTORE DUP6 DUP2 MSTORE PUSH2 0x41C1 JUMP JUMPDEST PUSH2 0x5D1 PUSH1 0x40 MLOAD PUSH8 0xD5ADDC88854A894A DUP7 DUP3 ADD MSTORE DUP6 DUP2 MSTORE PUSH2 0x41C1 JUMP JUMPDEST PUSH2 0x5EC PUSH1 0x40 MLOAD PUSH8 0xA10F2530E2834575 DUP7 DUP3 ADD MSTORE DUP6 DUP2 MSTORE PUSH2 0x41C1 JUMP JUMPDEST PUSH2 0x607 PUSH1 0x40 MLOAD PUSH8 0xC5C1493F6E3CE697 DUP7 DUP3 ADD MSTORE DUP6 DUP2 MSTORE PUSH2 0x41C1 JUMP JUMPDEST DUP2 DUP8 AND PUSH1 0x0 MSTORE PUSH1 0xE DUP5 MSTORE PUSH1 0x40 PUSH1 0x0 KECCAK256 PUSH2 0x631 PUSH1 0x40 MLOAD PUSH8 0x82EB721F0500B511 DUP8 DUP3 ADD MSTORE DUP7 DUP2 MSTORE PUSH2 0x41C1 JUMP JUMPDEST PUSH2 0x64C PUSH1 0x40 MLOAD PUSH8 0xA109DC0763D3BE09 DUP8 DUP3 ADD MSTORE DUP7 DUP2 MSTORE PUSH2 0x41C1 JUMP JUMPDEST PUSH1 0x2 DUP2 ADD DUP1 SLOAD PUSH2 0xA83 JUMPI PUSH2 0x671 PUSH1 0x40 MLOAD PUSH8 0xD7B747CAF0B2F84 DUP9 DUP3 ADD MSTORE DUP8 DUP2 MSTORE PUSH2 0x41C1 JUMP JUMPDEST PUSH2 0x68C PUSH1 0x40 MLOAD PUSH8 0xDECE18D831396F73 DUP9 DUP3 ADD MSTORE DUP8 DUP2 MSTORE PUSH2 0x41C1 JUMP JUMPDEST TIMESTAMP SWAP1 SSTORE JUMPDEST PUSH2 0x6AB PUSH1 0x40 MLOAD PUSH8 0x760812F099BFABCE DUP8 DUP3 ADD MSTORE DUP7 DUP2 MSTORE PUSH2 0x41C1 JUMP JUMPDEST PUSH2 0x6C6 PUSH1 0x40 MLOAD PUSH8 0x84B97F48FD6A4378 DUP8 DUP3 ADD MSTORE DUP7 DUP2 MSTORE PUSH2 0x41C1 JUMP JUMPDEST PUSH2 0x6E1 PUSH1 0x40 MLOAD PUSH8 0xFBC30EE90B394731 DUP8 DUP3 ADD MSTORE DUP7 DUP2 MSTORE PUSH2 0x41C1 JUMP JUMPDEST PUSH2 0x6FC PUSH1 0x40 MLOAD PUSH8 0xF8FC063103D95A11 DUP8 DUP3 ADD MSTORE DUP7 DUP2 MSTORE PUSH2 0x41C1 JUMP JUMPDEST PUSH2 0x706 DUP2 SLOAD PUSH2 0x42F1 JUMP JUMPDEST DUP2 SSTORE PUSH2 0x723 PUSH1 0x40 MLOAD PUSH8 0xC37AC06BC3A5B308 DUP8 DUP3 ADD MSTORE DUP7 DUP2 MSTORE PUSH2 0x41C1 JUMP JUMPDEST PUSH1 0x1 TIMESTAMP SWAP2 ADD SSTORE PUSH2 0x744 PUSH1 0x40 MLOAD PUSH8 0x43E93DF93016C6C3 DUP7 DUP3 ADD MSTORE DUP6 DUP2 MSTORE PUSH2 0x41C1 JUMP JUMPDEST PUSH2 0x75F PUSH1 0x40 MLOAD PUSH8 0xCFAD6C48F3A1F5D8 DUP7 DUP3 ADD MSTORE DUP6 DUP2 MSTORE PUSH2 0x41C1 JUMP JUMPDEST PUSH2 0x768 DUP8 PUSH2 0x4BE3 JUMP JUMPDEST PUSH1 0x40 MLOAD SWAP1 DUP2 MSTORE PUSH1 0x0 DUP1 MLOAD PUSH1 0x20 PUSH2 0x5314 DUP4 CODECOPY DUP2 MLOAD SWAP2 MSTORE DUP6 DUP5 DUP11 AND SWAP3 LOG2 PUSH2 0x79E PUSH1 0x40 MLOAD PUSH8 0x6E611014D411C941 DUP7 DUP3 ADD MSTORE DUP6 DUP2 MSTORE PUSH2 0x41C1 JUMP JUMPDEST PUSH2 0x7B9 PUSH1 0x40 MLOAD PUSH8 0xFC578BE9B62DF778 DUP7 DUP3 ADD MSTORE DUP6 DUP2 MSTORE PUSH2 0x41C1 JUMP JUMPDEST PUSH2 0x7D4 PUSH1 0x40 MLOAD PUSH8 0xD5ADDC88854A894A DUP7 DUP3 ADD MSTORE DUP6 DUP2 MSTORE PUSH2 0x41C1 JUMP JUMPDEST PUSH2 0x7EF PUSH1 0x40 MLOAD PUSH8 0xA10F2530E2834575 DUP7 DUP3 ADD MSTORE DUP6 DUP2 MSTORE PUSH2 0x41C1 JUMP JUMPDEST PUSH2 0x80A PUSH1 0x40 MLOAD PUSH8 0xC5C1493F6E3CE697 DUP7 DUP3 ADD MSTORE DUP6 DUP2 MSTORE PUSH2 0x41C1 JUMP JUMPDEST DUP2 DUP2 AND PUSH1 0x0 MSTORE PUSH1 0xE DUP5 MSTORE PUSH1 0x40 PUSH1 0x0 KECCAK256 PUSH2 0x834 PUSH1 0x40 MLOAD PUSH8 0x82EB721F0500B511 DUP8 DUP3 ADD MSTORE DUP7 DUP2 MSTORE PUSH2 0x41C1 JUMP JUMPDEST PUSH2 0x84F PUSH1 0x40 MLOAD PUSH8 0xA109DC0763D3BE09 DUP8 DUP3 ADD MSTORE DUP7 DUP2 MSTORE PUSH2 0x41C1 JUMP JUMPDEST PUSH1 0x2 DUP2 ADD SLOAD PUSH2 0xA63 JUMPI PUSH2 0x873 PUSH1 0x40 MLOAD PUSH8 0xD7B747CAF0B2F84 DUP8 DUP3 ADD MSTORE DUP7 DUP2 MSTORE PUSH2 0x41C1 JUMP JUMPDEST PUSH2 0x88E PUSH1 0x40 MLOAD PUSH8 0xDECE18D831396F73 DUP8 DUP3 ADD MSTORE DUP7 DUP2 MSTORE PUSH2 0x41C1 JUMP JUMPDEST TIMESTAMP PUSH1 0x2 DUP3 ADD SSTORE JUMPDEST PUSH2 0x8B0 PUSH1 0x40 MLOAD PUSH8 0x760812F099BFABCE DUP8 DUP3 ADD MSTORE DUP7 DUP2 MSTORE PUSH2 0x41C1 JUMP JUMPDEST PUSH2 0x8CB PUSH1 0x40 MLOAD PUSH8 0x84B97F48FD6A4378 DUP8 DUP3 ADD MSTORE DUP7 DUP2 MSTORE PUSH2 0x41C1 JUMP JUMPDEST PUSH2 0x8E6 PUSH1 0x40 MLOAD PUSH8 0xFBC30EE90B394731 DUP8 DUP3 ADD MSTORE DUP7 DUP2 MSTORE PUSH2 0x41C1 JUMP JUMPDEST PUSH2 0x901 PUSH1 0x40 MLOAD PUSH8 0xF8FC063103D95A11 DUP8 DUP3 ADD MSTORE DUP7 DUP2 MSTORE PUSH2 0x41C1 JUMP JUMPDEST PUSH2 0x90B DUP2 SLOAD PUSH2 0x42F1 JUMP JUMPDEST DUP2 SSTORE PUSH2 0x928 PUSH1 0x40 MLOAD PUSH8 0xC37AC06BC3A5B308 DUP8 DUP3 ADD MSTORE DUP7 DUP2 MSTORE PUSH2 0x41C1 JUMP JUMPDEST PUSH1 0x1 TIMESTAMP SWAP2 ADD SSTORE PUSH2 0x949 PUSH1 0x40 MLOAD PUSH8 0x43E93DF93016C6C3 DUP7 DUP3 ADD MSTORE DUP6 DUP2 MSTORE PUSH2 0x41C1 JUMP JUMPDEST PUSH2 0x964 PUSH1 0x40 MLOAD PUSH8 0xCFAD6C48F3A1F5D8 DUP7 DUP3 ADD MSTORE DUP6 DUP2 MSTORE PUSH2 0x41C1 JUMP JUMPDEST PUSH2 0x96D DUP2 PUSH2 0x4BE3 JUMP JUMPDEST PUSH1 0x40 MLOAD SWAP1 DUP2 MSTORE PUSH1 0x0 DUP1 MLOAD PUSH1 0x20 PUSH2 0x5314 DUP4 CODECOPY DUP2 MLOAD SWAP2 MSTORE DUP6 DUP5 DUP5 AND SWAP3 LOG2 PUSH2 0x9A3 PUSH1 0x40 MLOAD PUSH8 0xFA1F8E5D61D4B42A DUP7 DUP3 ADD MSTORE DUP6 DUP2 MSTORE PUSH2 0x41C1 JUMP JUMPDEST PUSH2 0x9BE PUSH1 0x40 MLOAD PUSH8 0x6F28C013D5499FD DUP7 DUP3 ADD MSTORE DUP6 DUP2 MSTORE PUSH2 0x41C1 JUMP JUMPDEST PUSH2 0x9C9 DUP7 DUP3 DUP10 PUSH2 0x41FF JUMP JUMPDEST PUSH2 0x9E4 PUSH1 0x40 MLOAD PUSH8 0xDB9568627A60C91D DUP7 DUP3 ADD MSTORE DUP6 DUP2 MSTORE PUSH2 0x41C1 JUMP JUMPDEST DUP2 DUP8 AND PUSH1 0x0 MSTORE PUSH1 0xB DUP5 MSTORE PUSH2 0xA20 PUSH1 0x40 PUSH1 0x0 KECCAK256 PUSH1 0x6 PUSH1 0x0 SWAP2 DUP3 DUP2 SSTORE DUP3 PUSH1 0x1 DUP3 ADD SSTORE DUP3 PUSH1 0x2 DUP3 ADD SSTORE DUP3 PUSH1 0x3 DUP3 ADD SSTORE DUP3 PUSH1 0x4 DUP3 ADD SSTORE DUP3 PUSH1 0x5 DUP3 ADD SSTORE ADD SSTORE JUMP JUMPDEST PUSH2 0xA3B PUSH1 0x40 MLOAD PUSH8 0x20FFA0C3AA082123 DUP7 DUP3 ADD MSTORE DUP6 DUP2 MSTORE PUSH2 0x41C1 JUMP JUMPDEST PUSH2 0xA56 PUSH1 0x40 MLOAD PUSH8 0x6C1DF6E0565AFF67 DUP7 DUP3 ADD MSTORE DUP6 DUP2 MSTORE PUSH2 0x41C1 JUMP JUMPDEST PUSH1 0x40 MLOAD SWAP6 DUP7 MSTORE AND SWAP5 AND SWAP3 LOG3 STOP JUMPDEST PUSH2 0xA7E PUSH1 0x40 MLOAD PUSH8 0x27630211ED80E7DD DUP8 DUP3 ADD MSTORE DUP7 DUP2 MSTORE PUSH2 0x41C1 JUMP JUMPDEST PUSH2 0x895 JUMP JUMPDEST POP PUSH2 0xA9F PUSH1 0x40 MLOAD PUSH8 0x27630211ED80E7DD DUP8 DUP3 ADD MSTORE DUP7 DUP2 MSTORE PUSH2 0x41C1 JUMP JUMPDEST PUSH2 0x690 JUMP JUMPDEST PUSH1 0x40 MLOAD PUSH3 0x461BCD PUSH1 0xE5 SHL DUP2 MSTORE PUSH1 0x20 PUSH1 0x4 DUP3 ADD MSTORE PUSH1 0x19 PUSH1 0x24 DUP3 ADD MSTORE PUSH32 0x5472616E7366657220616C726561647920726576657273656400000000000000 PUSH1 0x44 DUP3 ADD MSTORE PUSH1 0x64 SWAP1 REVERT JUMPDEST PUSH1 0x40 MLOAD PUSH3 0x461BCD PUSH1 0xE5 SHL DUP2 MSTORE PUSH1 0x20 PUSH1 0x4 DUP3 ADD MSTORE PUSH1 0x1F PUSH1 0x24 DUP3 ADD MSTORE PUSH32 0x496E73756666696369656E742062616C616E636520746F207265766572736500 PUSH1 0x44 DUP3 ADD MSTORE PUSH1 0x64 SWAP1 REVERT JUMPDEST PUSH1 0x40 MLOAD PUSH3 0x461BCD PUSH1 0xE5 SHL DUP2 MSTORE PUSH1 0x20 PUSH1 0x4 DUP3 ADD MSTORE PUSH1 0x23 PUSH1 0x24 DUP3 ADD MSTORE PUSH32 0x526576657273616C206D75737420676F206261636B20746F206F726967696E61 PUSH1 0x44 DUP3 ADD MSTORE PUSH3 0x3A37B9 PUSH1 0xE9 SHL PUSH1 0x64 DUP3 ADD MSTORE PUSH1 0x84 SWAP1 REVERT JUMPDEST PUSH1 0x40 MLOAD PUSH3 0x461BCD PUSH1 0xE5 SHL DUP2 MSTORE PUSH1 0x20 PUSH1 0x4 DUP3 ADD MSTORE PUSH1 0x10 PUSH1 0x24 DUP3 ADD MSTORE PUSH16 0x12185B19931A599948195E1C1A5C9959 PUSH1 0x82 SHL PUSH1 0x44 DUP3 ADD MSTORE PUSH1 0x64 SWAP1 REVERT JUMPDEST PUSH1 0x40 MLOAD PUSH3 0x461BCD PUSH1 0xE5 SHL DUP2 MSTORE PUSH1 0x20 PUSH1 0x4 DUP3 ADD MSTORE PUSH1 0x23 PUSH1 0x24 DUP3 ADD MSTORE PUSH32 0x4F6E6C792072656365697665722063616E20696E697469617465207265766572 PUSH1 0x44 DUP3 ADD MSTORE PUSH3 0x1CD85B PUSH1 0xEA SHL PUSH1 0x64 DUP3 ADD MSTORE PUSH1 0x84 SWAP1 REVERT JUMPDEST CALLVALUE PUSH2 0x229 JUMPI PUSH1 0x20 CALLDATASIZE PUSH1 0x3 NOT ADD SLT PUSH2 0x229 JUMPI PUSH1 0x20 PUSH2 0xC26 PUSH1 0x4 CALLDATALOAD PUSH2 0x4300 JUMP JUMPDEST PUSH1 0x40 MLOAD SWAP1 DUP2 MSTORE RETURN JUMPDEST CALLVALUE PUSH2 0x229 JUMPI PUSH1 0x40 CALLDATASIZE PUSH1 0x3 NOT ADD SLT PUSH2 0x229 JUMPI PUSH2 0xC47 PUSH2 0x4134 JUMP JUMPDEST PUSH2 0xC4F PUSH2 0x414A JUMP JUMPDEST SWAP1 PUSH1 0x1 DUP1 PUSH1 0xA0 SHL SUB DUP1 SWAP2 AND PUSH1 0x0 MSTORE PUSH1 0x1 PUSH1 0x20 MSTORE PUSH1 0x40 PUSH1 0x0 KECCAK256 SWAP2 AND PUSH1 0x0 MSTORE PUSH1 0x20 MSTORE PUSH1 0x20 PUSH1 0x40 PUSH1 0x0 KECCAK256 SLOAD PUSH1 0x40 MLOAD SWAP1 DUP2 MSTORE RETURN JUMPDEST CALLVALUE PUSH2 0x229 JUMPI PUSH1 0x0 CALLDATASIZE PUSH1 0x3 NOT ADD SLT PUSH2 0x229 JUMPI PUSH1 0x20 PUSH1 0x8 SLOAD PUSH1 0x40 MLOAD SWAP1 DUP2 MSTORE RETURN JUMPDEST CALLVALUE PUSH2 0x229 JUMPI PUSH1 0x0 CALLDATASIZE PUSH1 0x3 NOT ADD SLT PUSH2 0x229 JUMPI PUSH1 0xA SLOAD PUSH1 0x40 MLOAD PUSH1 0x1 PUSH1 0x1 PUSH1 0xA0 SHL SUB SWAP1 SWAP2 AND DUP2 MSTORE PUSH1 0x20 SWAP1 RETURN JUMPDEST CALLVALUE PUSH2 0x229 JUMPI PUSH1 0x20 DUP1 PUSH1 0x3 NOT CALLDATASIZE ADD SLT PUSH2 0x229 JUMPI PUSH2 0xCE0 PUSH2 0x4134 JUMP JUMPDEST PUSH2 0xCFB PUSH1 0x40 MLOAD PUSH8 0xB613FE43419A48D3 DUP5 DUP3 ADD MSTORE DUP4 DUP2 MSTORE PUSH2 0x41C1 JUMP JUMPDEST PUSH2 0xD16 PUSH1 0x40 MLOAD PUSH8 0xB02C50BF9B41933E DUP5 DUP3 ADD MSTORE DUP4 DUP2 MSTORE PUSH2 0x41C1 JUMP JUMPDEST PUSH2 0xD31 PUSH1 0x40 MLOAD PUSH8 0xC8AAAEFACA050CC7 DUP5 DUP3 ADD MSTORE DUP4 DUP2 MSTORE PUSH2 0x41C1 JUMP JUMPDEST PUSH1 0x1 DUP1 PUSH1 0xA0 SHL SUB AND PUSH1 0x0 MSTORE PUSH1 0xF DUP2 MSTORE PUSH1 0x40 PUSH1 0x0 KECCAK256 SLOAD PUSH1 0x40 MLOAD SWAP1 DUP2 MSTORE RETURN JUMPDEST CALLVALUE PUSH2 0x229 JUMPI PUSH1 0x40 CALLDATASIZE PUSH1 0x3 NOT ADD SLT PUSH2 0x229 JUMPI PUSH2 0xD67 PUSH2 0x4134 JUMP JUMPDEST PUSH2 0xD84 PUSH1 0x40 MLOAD PUSH8 0xE3B1812FAC83AF14 PUSH1 0x20 DUP3 ADD MSTORE PUSH1 0x20 DUP2 MSTORE PUSH2 0x41C1 JUMP JUMPDEST PUSH2 0xDA1 PUSH1 0x40 MLOAD PUSH8 0x3B53657DF17CA1CD PUSH1 0x20 DUP3 ADD MSTORE PUSH1 0x20 DUP2 MSTORE PUSH2 0x41C1 JUMP JUMPDEST PUSH2 0xDBE PUSH1 0x40 MLOAD PUSH8 0x908563EEAF119993 PUSH1 0x20 DUP3 ADD MSTORE PUSH1 0x20 DUP2 MSTORE PUSH2 0x41C1 JUMP JUMPDEST PUSH2 0xDDB PUSH1 0x40 MLOAD PUSH8 0x3B98C14E84D27CE1 PUSH1 0x20 DUP3 ADD MSTORE PUSH1 0x20 DUP2 MSTORE PUSH2 0x41C1 JUMP JUMPDEST PUSH1 0x1 PUSH1 0x1 PUSH1 0xA0 SHL SUB DUP2 AND ISZERO PUSH2 0x2627 JUMPI PUSH2 0xE07 PUSH1 0x40 MLOAD PUSH8 0xF267173894DD5B9E PUSH1 0x20 DUP3 ADD MSTORE PUSH1 0x20 DUP2 MSTORE PUSH2 0x41C1 JUMP JUMPDEST PUSH2 0xE24 PUSH1 0x40 MLOAD PUSH8 0x11EA53BB7CF86BD9 PUSH1 0x20 DUP3 ADD MSTORE PUSH1 0x20 DUP2 MSTORE PUSH2 0x41C1 JUMP JUMPDEST PUSH2 0xE41 PUSH1 0x40 MLOAD PUSH8 0x3D80FC69D1ED2B93 PUSH1 0x20 DUP3 ADD MSTORE PUSH1 0x20 DUP2 MSTORE PUSH2 0x41C1 JUMP JUMPDEST PUSH2 0xE5E PUSH1 0x40 MLOAD PUSH8 0xC674FB8FDE945E8F PUSH1 0x20 DUP3 ADD MSTORE PUSH1 0x20 DUP2 MSTORE PUSH2 0x41C1 JUMP JUMPDEST PUSH1 0x24 CALLDATALOAD ISZERO PUSH2 0x25D0 JUMPI PUSH2 0xE83 PUSH1 0x40 MLOAD PUSH8 0xE6563B1B8EB40798 PUSH1 0x20 DUP3 ADD MSTORE PUSH1 0x20 DUP2 MSTORE PUSH2 0x41C1 JUMP JUMPDEST PUSH2 0xEA0 PUSH1 0x40 MLOAD PUSH8 0x739E194FBF1CDE5 PUSH1 0x20 DUP3 ADD MSTORE PUSH1 0x20 DUP2 MSTORE PUSH2 0x41C1 JUMP JUMPDEST PUSH2 0xEBD PUSH1 0x40 MLOAD PUSH8 0x48D44B55A7FC063A PUSH1 0x20 DUP3 ADD MSTORE PUSH1 0x20 DUP2 MSTORE PUSH2 0x41C1 JUMP JUMPDEST PUSH2 0xEDA PUSH1 0x40 MLOAD PUSH8 0x487A193F1A384726 PUSH1 0x20 DUP3 ADD MSTORE PUSH1 0x20 DUP2 MSTORE PUSH2 0x41C1 JUMP JUMPDEST PUSH2 0xEF7 PUSH1 0x40 MLOAD PUSH8 0xF7A10E6E03C6FEF8 PUSH1 0x20 DUP3 ADD MSTORE PUSH1 0x20 DUP2 MSTORE PUSH2 0x41C1 JUMP JUMPDEST PUSH2 0xF14 PUSH1 0x40 MLOAD PUSH8 0xD5ADDC88854A894A PUSH1 0x20 DUP3 ADD MSTORE PUSH1 0x20 DUP2 MSTORE PUSH2 0x41C1 JUMP JUMPDEST PUSH2 0xF31 PUSH1 0x40 MLOAD PUSH8 0xA10F2530E2834575 PUSH1 0x20 DUP3 ADD MSTORE PUSH1 0x20 DUP2 MSTORE PUSH2 0x41C1 JUMP JUMPDEST PUSH2 0xF4E PUSH1 0x40 MLOAD PUSH8 0xC5C1493F6E3CE697 PUSH1 0x20 DUP3 ADD MSTORE PUSH1 0x20 DUP2 MSTORE PUSH2 0x41C1 JUMP JUMPDEST CALLER PUSH1 0x0 MSTORE PUSH1 0xE PUSH1 0x20 MSTORE PUSH1 0x2 PUSH1 0x40 PUSH1 0x0 KECCAK256 PUSH2 0xF7B PUSH1 0x40 MLOAD PUSH8 0x82EB721F0500B511 PUSH1 0x20 DUP3 ADD MSTORE PUSH1 0x20 DUP2 MSTORE PUSH2 0x41C1 JUMP JUMPDEST PUSH2 0xF98 PUSH1 0x40 MLOAD PUSH8 0xA109DC0763D3BE09 PUSH1 0x20 DUP3 ADD MSTORE PUSH1 0x20 DUP2 MSTORE PUSH2 0x41C1 JUMP JUMPDEST ADD DUP1 SLOAD PUSH2 0x25AD JUMPI PUSH2 0xFBC PUSH1 0x40 MLOAD PUSH8 0xD7B747CAF0B2F84 PUSH1 0x20 DUP3 ADD MSTORE PUSH1 0x20 DUP2 MSTORE PUSH2 0x41C1 JUMP JUMPDEST PUSH2 0xFD9 PUSH1 0x40 MLOAD PUSH8 0xDECE18D831396F73 PUSH1 0x20 DUP3 ADD MSTORE PUSH1 0x20 DUP2 MSTORE PUSH2 0x41C1 JUMP JUMPDEST TIMESTAMP SWAP1 SSTORE JUMPDEST PUSH2 0xFFA PUSH1 0x40 MLOAD PUSH8 0x760812F099BFABCE PUSH1 0x20 DUP3 ADD MSTORE PUSH1 0x20 DUP2 MSTORE PUSH2 0x41C1 JUMP JUMPDEST PUSH2 0x1017 PUSH1 0x40 MLOAD PUSH8 0x84B97F48FD6A4378 PUSH1 0x20 DUP3 ADD MSTORE PUSH1 0x20 DUP2 MSTORE PUSH2 0x41C1 JUMP JUMPDEST PUSH2 0x1034 PUSH1 0x40 MLOAD PUSH8 0xDAACE93EAD4BD0AE PUSH1 0x20 DUP3 ADD MSTORE PUSH1 0x20 DUP2 MSTORE PUSH2 0x41C1 JUMP JUMPDEST PUSH2 0x1051 PUSH1 0x40 MLOAD PUSH8 0x43E93DF93016C6C3 PUSH1 0x20 DUP3 ADD MSTORE PUSH1 0x20 DUP2 MSTORE PUSH2 0x41C1 JUMP JUMPDEST PUSH2 0x106E PUSH1 0x40 MLOAD PUSH8 0xCFAD6C48F3A1F5D8 PUSH1 0x20 DUP3 ADD MSTORE PUSH1 0x20 DUP2 MSTORE PUSH2 0x41C1 JUMP JUMPDEST PUSH2 0x1077 CALLER PUSH2 0x4BE3 JUMP JUMPDEST PUSH1 0x40 MLOAD SWAP1 DUP2 MSTORE PUSH1 0x0 DUP1 MLOAD PUSH1 0x20 PUSH2 0x5314 DUP4 CODECOPY DUP2 MLOAD SWAP2 MSTORE PUSH1 0x20 CALLER SWAP3 LOG2 PUSH2 0x10AE PUSH1 0x40 MLOAD PUSH8 0x4EE3CE079208CDBD PUSH1 0x20 DUP3 ADD MSTORE PUSH1 0x20 DUP2 MSTORE PUSH2 0x41C1 JUMP JUMPDEST PUSH2 0x10CB PUSH1 0x40 MLOAD PUSH8 0xCF53E2B0B759F0BD PUSH1 0x20 DUP3 ADD MSTORE PUSH1 0x20 DUP2 MSTORE PUSH2 0x41C1 JUMP JUMPDEST PUSH2 0x10E8 PUSH1 0x40 MLOAD PUSH8 0xD5ADDC88854A894A PUSH1 0x20 DUP3 ADD MSTORE PUSH1 0x20 DUP2 MSTORE PUSH2 0x41C1 JUMP JUMPDEST PUSH2 0x1105 PUSH1 0x40 MLOAD PUSH8 0xA10F2530E2834575 PUSH1 0x20 DUP3 ADD MSTORE PUSH1 0x20 DUP2 MSTORE PUSH2 0x41C1 JUMP JUMPDEST PUSH2 0x1122 PUSH1 0x40 MLOAD PUSH8 0xC5C1493F6E3CE697 PUSH1 0x20 DUP3 ADD MSTORE PUSH1 0x20 DUP2 MSTORE PUSH2 0x41C1 JUMP JUMPDEST PUSH1 0x1 DUP1 PUSH1 0xA0 SHL SUB DUP2 AND PUSH1 0x0 MSTORE PUSH1 0xE PUSH1 0x20 MSTORE PUSH1 0x2 PUSH1 0x40 PUSH1 0x0 KECCAK256 PUSH2 0x1157 PUSH1 0x40 MLOAD PUSH8 0x82EB721F0500B511 PUSH1 0x20 DUP3 ADD MSTORE PUSH1 0x20 DUP2 MSTORE PUSH2 0x41C1 JUMP JUMPDEST PUSH2 0x1174 PUSH1 0x40 MLOAD PUSH8 0xA109DC0763D3BE09 PUSH1 0x20 DUP3 ADD MSTORE PUSH1 0x20 DUP2 MSTORE PUSH2 0x41C1 JUMP JUMPDEST ADD DUP1 SLOAD PUSH2 0x258A JUMPI PUSH2 0x1198 PUSH1 0x40 MLOAD PUSH8 0xD7B747CAF0B2F84 PUSH1 0x20 DUP3 ADD MSTORE PUSH1 0x20 DUP2 MSTORE PUSH2 0x41C1 JUMP JUMPDEST PUSH2 0x11B5 PUSH1 0x40 MLOAD PUSH8 0xDECE18D831396F73 PUSH1 0x20 DUP3 ADD MSTORE PUSH1 0x20 DUP2 MSTORE PUSH2 0x41C1 JUMP JUMPDEST TIMESTAMP SWAP1 SSTORE JUMPDEST PUSH2 0x11D6 PUSH1 0x40 MLOAD PUSH8 0x760812F099BFABCE PUSH1 0x20 DUP3 ADD MSTORE PUSH1 0x20 DUP2 MSTORE PUSH2 0x41C1 JUMP JUMPDEST PUSH2 0x11F3 PUSH1 0x40 MLOAD PUSH8 0x84B97F48FD6A4378 PUSH1 0x20 DUP3 ADD MSTORE PUSH1 0x20 DUP2 MSTORE PUSH2 0x41C1 JUMP JUMPDEST PUSH2 0x1210 PUSH1 0x40 MLOAD PUSH8 0xDAACE93EAD4BD0AE PUSH1 0x20 DUP3 ADD MSTORE PUSH1 0x20 DUP2 MSTORE PUSH2 0x41C1 JUMP JUMPDEST PUSH2 0x122D PUSH1 0x40 MLOAD PUSH8 0x43E93DF93016C6C3 PUSH1 0x20 DUP3 ADD MSTORE PUSH1 0x20 DUP2 MSTORE PUSH2 0x41C1 JUMP JUMPDEST PUSH2 0x124A PUSH1 0x40 MLOAD PUSH8 0xCFAD6C48F3A1F5D8 PUSH1 0x20 DUP3 ADD MSTORE PUSH1 0x20 DUP2 MSTORE PUSH2 0x41C1 JUMP JUMPDEST PUSH2 0x1253 DUP2 PUSH2 0x4BE3 JUMP JUMPDEST PUSH1 0x40 MLOAD SWAP1 DUP2 MSTORE PUSH1 0x1 PUSH1 0x1 PUSH1 0xA0 SHL SUB DUP3 AND SWAP1 PUSH1 0x0 DUP1 MLOAD PUSH1 0x20 PUSH2 0x5314 DUP4 CODECOPY DUP2 MLOAD SWAP2 MSTORE SWAP1 PUSH1 0x20 SWAP1 LOG2 PUSH2 0x1295 PUSH1 0x40 MLOAD PUSH8 0x11B1E88929CD88E6 PUSH1 0x20 DUP3 ADD MSTORE PUSH1 0x20 DUP2 MSTORE PUSH2 0x41C1 JUMP JUMPDEST PUSH2 0x12B2 PUSH1 0x40 MLOAD PUSH8 0xE05663502AD8E696 PUSH1 0x20 DUP3 ADD MSTORE PUSH1 0x20 DUP2 MSTORE PUSH2 0x41C1 JUMP JUMPDEST CALLER PUSH1 0x0 MSTORE PUSH1 0xB PUSH1 0x20 MSTORE PUSH1 0x40 PUSH1 0x0 KECCAK256 DUP1 SLOAD TIMESTAMP LT SWAP1 DUP2 PUSH2 0x256F JUMPI JUMPDEST POP ISZERO PUSH2 0x1392 JUMPI PUSH2 0x12EE PUSH1 0x40 MLOAD PUSH8 0x63CDDEF929273DF3 PUSH1 0x20 DUP3 ADD MSTORE PUSH1 0x20 DUP2 MSTORE PUSH2 0x41C1 JUMP JUMPDEST PUSH2 0x130B PUSH1 0x40 MLOAD PUSH8 0x689E3408CEB7A8FA PUSH1 0x20 DUP3 ADD MSTORE PUSH1 0x20 DUP2 MSTORE PUSH2 0x41C1 JUMP JUMPDEST PUSH2 0x1328 PUSH1 0x40 MLOAD PUSH8 0x6EB7380220E698F8 PUSH1 0x20 DUP3 ADD MSTORE PUSH1 0x20 DUP2 MSTORE PUSH2 0x41C1 JUMP JUMPDEST PUSH1 0x84 PUSH1 0x40 MLOAD PUSH3 0x461BCD PUSH1 0xE5 SHL DUP2 MSTORE PUSH1 0x20 PUSH1 0x4 DUP3 ADD MSTORE PUSH1 0x40 PUSH1 0x24 DUP3 ADD MSTORE PUSH32 0x43616E6E6F74207472616E7366657220647572696E672048616C664C69666520 PUSH1 0x44 DUP3 ADD MSTORE PUSH32 0x706572696F6420657863657074206261636B20746F206F726967696E61746F72 PUSH1 0x64 DUP3 ADD MSTORE REVERT JUMPDEST PUSH2 0x13AF PUSH1 0x40 MLOAD PUSH8 0x91C54E7E14B7A779 PUSH1 0x20 DUP3 ADD MSTORE PUSH1 0x20 DUP2 MSTORE PUSH2 0x41C1 JUMP JUMPDEST PUSH2 0x13CC PUSH1 0x40 MLOAD PUSH8 0x78509701F1C064B5 PUSH1 0x20 DUP3 ADD MSTORE PUSH1 0x20 DUP2 MSTORE PUSH2 0x41C1 JUMP JUMPDEST PUSH2 0x13E9 PUSH1 0x40 MLOAD PUSH8 0xC899CD4FC3429CDC PUSH1 0x20 DUP3 ADD MSTORE PUSH1 0x20 DUP2 MSTORE PUSH2 0x41C1 JUMP JUMPDEST PUSH2 0x147C PUSH2 0x143C DUP3 PUSH2 0x13FB PUSH1 0x24 CALLDATALOAD PUSH2 0x4300 JUMP JUMPDEST PUSH2 0x1418 PUSH1 0x40 MLOAD PUSH8 0x4907E1CE09E68554 PUSH1 0x20 DUP3 ADD MSTORE PUSH1 0x20 DUP2 MSTORE PUSH2 0x41C1 JUMP JUMPDEST PUSH2 0x1435 PUSH1 0x40 MLOAD PUSH8 0xFFFAB400C4981555 PUSH1 0x20 DUP3 ADD MSTORE PUSH1 0x20 DUP2 MSTORE PUSH2 0x41C1 JUMP JUMPDEST CALLER SWAP1 PUSH2 0x4A42 JUMP JUMPDEST PUSH2 0x1459 PUSH1 0x40 MLOAD PUSH8 0xFF49A93F074DC41 PUSH1 0x20 DUP3 ADD MSTORE PUSH1 0x20 DUP2 MSTORE PUSH2 0x41C1 JUMP JUMPDEST PUSH2 0x1476 PUSH1 0x40 MLOAD PUSH8 0x63422C7C89687586 PUSH1 0x20 DUP3 ADD MSTORE PUSH1 0x20 DUP2 MSTORE PUSH2 0x41C1 JUMP JUMPDEST CALLER PUSH2 0x5035 JUMP JUMPDEST PUSH2 0x1499 PUSH1 0x40 MLOAD PUSH8 0x67019452D609F939 PUSH1 0x20 DUP3 ADD MSTORE PUSH1 0x20 DUP2 MSTORE PUSH2 0x41C1 JUMP JUMPDEST PUSH2 0x14B6 PUSH1 0x40 MLOAD PUSH8 0x51A19ADA6E49534D PUSH1 0x20 DUP3 ADD MSTORE PUSH1 0x20 DUP2 MSTORE PUSH2 0x41C1 JUMP JUMPDEST DUP1 PUSH2 0x14D4 PUSH1 0x40 MLOAD PUSH8 0xF227D51FEC2BC37B PUSH1 0x20 DUP3 ADD MSTORE PUSH1 0x20 DUP2 MSTORE PUSH2 0x41C1 JUMP JUMPDEST PUSH2 0x14F1 PUSH1 0x40 MLOAD PUSH8 0x86FEE8B2C264BC75 PUSH1 0x20 DUP3 ADD MSTORE PUSH1 0x20 DUP2 MSTORE PUSH2 0x41C1 JUMP JUMPDEST PUSH2 0x1F4 DUP1 PUSH1 0x24 CALLDATALOAD MUL SWAP1 PUSH1 0x24 CALLDATALOAD DUP3 DIV SUB PUSH2 0x2305 JUMPI PUSH2 0x2710 SWAP1 DIV DUP1 SWAP3 PUSH2 0x1528 PUSH1 0x40 MLOAD PUSH8 0x175EFE265C24A456 PUSH1 0x20 DUP3 ADD MSTORE PUSH1 0x20 DUP2 MSTORE PUSH2 0x41C1 JUMP JUMPDEST PUSH2 0x1545 PUSH1 0x40 MLOAD PUSH8 0xBA31C821700DF486 PUSH1 0x20 DUP3 ADD MSTORE PUSH1 0x20 DUP2 MSTORE PUSH2 0x41C1 JUMP JUMPDEST GT ISZERO PUSH2 0x254B JUMPI POP PUSH2 0x1569 PUSH1 0x40 MLOAD PUSH8 0xB733384594A80A34 PUSH1 0x20 DUP3 ADD MSTORE PUSH1 0x20 DUP2 MSTORE PUSH2 0x41C1 JUMP JUMPDEST PUSH2 0x1586 PUSH1 0x40 MLOAD PUSH8 0x63E928CFDD29B8EE PUSH1 0x20 DUP3 ADD MSTORE PUSH1 0x20 DUP2 MSTORE PUSH2 0x41C1 JUMP JUMPDEST PUSH2 0x15A3 PUSH1 0x40 MLOAD PUSH8 0x8AE8C5AFA115A750 PUSH1 0x20 DUP3 ADD MSTORE PUSH1 0x20 DUP2 MSTORE PUSH2 0x41C1 JUMP JUMPDEST PUSH2 0x15C0 PUSH1 0x40 MLOAD PUSH8 0x538BC729853E805E PUSH1 0x20 DUP3 ADD MSTORE PUSH1 0x20 DUP2 MSTORE PUSH2 0x41C1 JUMP JUMPDEST PUSH2 0x15DD PUSH1 0x40 MLOAD PUSH8 0xD52A8CC1E6A98117 PUSH1 0x20 DUP3 ADD MSTORE PUSH1 0x20 DUP2 MSTORE PUSH2 0x41C1 JUMP JUMPDEST PUSH2 0x15FA PUSH1 0x40 MLOAD PUSH8 0xEA1F8811902F4791 PUSH1 0x20 DUP3 ADD MSTORE PUSH1 0x20 DUP2 MSTORE PUSH2 0x41C1 JUMP JUMPDEST PUSH1 0x1 DUP2 LT DUP1 PUSH2 0x253F JUMPI JUMPDEST ISZERO PUSH2 0x251D JUMPI POP PUSH2 0x1627 PUSH1 0x40 MLOAD PUSH8 0x3C3770425BF481E7 PUSH1 0x20 DUP3 ADD MSTORE PUSH1 0x20 DUP2 MSTORE PUSH2 0x41C1 JUMP JUMPDEST PUSH2 0x1644 PUSH1 0x40 MLOAD PUSH8 0xE41ACF310B495469 PUSH1 0x20 DUP3 ADD MSTORE PUSH1 0x20 DUP2 MSTORE PUSH2 0x41C1 JUMP JUMPDEST PUSH1 0x1 JUMPDEST PUSH2 0x1664 PUSH1 0x40 MLOAD PUSH8 0xD51BE13B83B82B0B PUSH1 0x20 DUP3 ADD MSTORE PUSH1 0x20 DUP2 MSTORE PUSH2 0x41C1 JUMP JUMPDEST PUSH2 0x1681 PUSH1 0x40 MLOAD PUSH8 0x6F12C1384A67AEF2 PUSH1 0x20 DUP3 ADD MSTORE PUSH1 0x20 DUP2 MSTORE PUSH2 0x41C1 JUMP JUMPDEST PUSH1 0x24 CALLDATALOAD DUP2 GT ISZERO PUSH2 0x24FA JUMPI POP PUSH2 0x16A9 PUSH1 0x40 MLOAD PUSH8 0x4120DAC8F69DA311 PUSH1 0x20 DUP3 ADD MSTORE PUSH1 0x20 DUP2 MSTORE PUSH2 0x41C1 JUMP JUMPDEST PUSH2 0x16C6 PUSH1 0x40 MLOAD PUSH8 0x1DEB614BA6D3B976 PUSH1 0x20 DUP3 ADD MSTORE PUSH1 0x20 DUP2 MSTORE PUSH2 0x41C1 JUMP JUMPDEST PUSH1 0x24 CALLDATALOAD SWAP1 JUMPDEST PUSH2 0x16E8 PUSH1 0x40 MLOAD PUSH8 0x7A9BECA78E58693E PUSH1 0x20 DUP3 ADD MSTORE PUSH1 0x20 DUP2 MSTORE PUSH2 0x41C1 JUMP JUMPDEST PUSH2 0x1705 PUSH1 0x40 MLOAD PUSH8 0x9F41100959775AEB PUSH1 0x20 DUP3 ADD MSTORE PUSH1 0x20 DUP2 MSTORE PUSH2 0x41C1 JUMP JUMPDEST PUSH2 0x1711 DUP3 PUSH1 0x24 CALLDATALOAD PUSH2 0x42E4 JUMP JUMPDEST SWAP2 PUSH2 0x172F PUSH1 0x40 MLOAD PUSH8 0xDBC75BBEB7BAF233 PUSH1 0x20 DUP3 ADD MSTORE PUSH1 0x20 DUP2 MSTORE PUSH2 0x41C1 JUMP JUMPDEST PUSH2 0x174C PUSH1 0x40 MLOAD PUSH8 0x72937C617501F32C PUSH1 0x20 DUP3 ADD MSTORE PUSH1 0x20 DUP2 MSTORE PUSH2 0x41C1 JUMP JUMPDEST PUSH2 0x1757 DUP4 DUP4 CALLER PUSH2 0x41FF JUMP JUMPDEST PUSH2 0x1774 PUSH1 0x40 MLOAD PUSH8 0x823DF8BB018BA305 PUSH1 0x20 DUP3 ADD MSTORE PUSH1 0x20 DUP2 MSTORE PUSH2 0x41C1 JUMP JUMPDEST PUSH2 0x1791 PUSH1 0x40 MLOAD PUSH8 0x9EE5AD823B89D2AA PUSH1 0x20 DUP3 ADD MSTORE PUSH1 0x20 DUP2 MSTORE PUSH2 0x41C1 JUMP JUMPDEST DUP1 ISZERO PUSH2 0x24D8 JUMPI PUSH2 0x17B4 PUSH1 0x40 MLOAD PUSH8 0xD25E5E8B560FC444 PUSH1 0x20 DUP3 ADD MSTORE PUSH1 0x20 DUP2 MSTORE PUSH2 0x41C1 JUMP JUMPDEST PUSH2 0x17D1 PUSH1 0x40 MLOAD PUSH8 0x87D4FE7D9656739C PUSH1 0x20 DUP3 ADD MSTORE PUSH1 0x20 DUP2 MSTORE PUSH2 0x41C1 JUMP JUMPDEST PUSH2 0x17EE PUSH1 0x40 MLOAD PUSH8 0xFD7E522419CA628A PUSH1 0x20 DUP3 ADD MSTORE PUSH1 0x20 DUP2 MSTORE PUSH2 0x41C1 JUMP JUMPDEST PUSH2 0x180B PUSH1 0x40 MLOAD PUSH8 0x3E8C91B9C62C8013 PUSH1 0x20 DUP3 ADD MSTORE PUSH1 0x20 DUP2 MSTORE PUSH2 0x41C1 JUMP JUMPDEST PUSH2 0x1828 PUSH1 0x40 MLOAD PUSH8 0x976AE90CC8864D3A PUSH1 0x20 DUP3 ADD MSTORE PUSH1 0x20 DUP2 MSTORE PUSH2 0x41C1 JUMP JUMPDEST PUSH2 0x1845 PUSH1 0x40 MLOAD PUSH8 0xCDDB68207DC5C3E4 PUSH1 0x20 DUP3 ADD MSTORE PUSH1 0x20 DUP2 MSTORE PUSH2 0x41C1 JUMP JUMPDEST DUP1 PUSH1 0x1 SHR PUSH2 0x1866 PUSH1 0x40 MLOAD PUSH8 0x1D4479520B024985 PUSH1 0x20 DUP3 ADD MSTORE PUSH1 0x20 DUP2 MSTORE PUSH2 0x41C1 JUMP JUMPDEST PUSH2 0x1883 PUSH1 0x40 MLOAD PUSH8 0x815E880DD6415398 PUSH1 0x20 DUP3 ADD MSTORE PUSH1 0x20 DUP2 MSTORE PUSH2 0x41C1 JUMP JUMPDEST DUP1 ISZERO PUSH2 0x24B2 JUMPI PUSH2 0x18A6 PUSH1 0x40 MLOAD PUSH8 0x731DE1608FBC4064 PUSH1 0x20 DUP3 ADD MSTORE PUSH1 0x20 DUP2 MSTORE PUSH2 0x41C1 JUMP JUMPDEST PUSH2 0x18C3 PUSH1 0x40 MLOAD PUSH8 0xF2E3495695DC523C PUSH1 0x20 DUP3 ADD MSTORE PUSH1 0x20 DUP2 MSTORE PUSH2 0x41C1 JUMP JUMPDEST PUSH2 0x18E0 PUSH1 0x40 MLOAD PUSH8 0x2CC1E8375C87078E PUSH1 0x20 DUP3 ADD MSTORE PUSH1 0x20 DUP2 MSTORE PUSH2 0x41C1 JUMP JUMPDEST PUSH1 0xA SLOAD PUSH1 0x1 PUSH1 0x1 PUSH1 0xA0 SHL SUB AND SWAP1 DUP2 ISZERO PUSH2 0x2499 JUMPI PUSH2 0x1A36 SWAP2 PUSH2 0x1903 DUP3 PUSH1 0x2 SLOAD PUSH2 0x42C4 JUMP JUMPDEST PUSH1 0x2 SSTORE DUP1 PUSH1 0x0 MSTORE PUSH1 0x0 PUSH1 0x20 MSTORE PUSH1 0x40 PUSH1 0x0 KECCAK256 DUP3 DUP2 SLOAD ADD SWAP1 SSTORE PUSH1 0x0 PUSH32 0xDDF252AD1BE2C89B69C2B068FC378DAA952BA7F163C4A11628F55A4DF523B3EF PUSH1 0x20 PUSH1 0x40 MLOAD DUP6 DUP2 MSTORE LOG3 JUMPDEST PUSH2 0x1964 PUSH1 0x40 MLOAD PUSH8 0xE374157375437CCE PUSH1 0x20 DUP3 ADD MSTORE PUSH1 0x20 DUP2 MSTORE PUSH2 0x41C1 JUMP JUMPDEST PUSH2 0x1981 PUSH1 0x40 MLOAD PUSH8 0x3F156C28F7D1E53B PUSH1 0x20 DUP3 ADD MSTORE PUSH1 0x20 DUP2 MSTORE PUSH2 0x41C1 JUMP JUMPDEST PUSH2 0x1A31 DUP4 PUSH1 0x2 SHR SWAP2 PUSH2 0x19A6 PUSH1 0x40 MLOAD PUSH8 0xEEFB543EFB4EA814 PUSH1 0x20 DUP3 ADD MSTORE PUSH1 0x20 DUP2 MSTORE PUSH2 0x41C1 JUMP JUMPDEST CALLER PUSH1 0x0 MSTORE PUSH1 0xF PUSH1 0x20 MSTORE PUSH1 0x40 PUSH1 0x0 KECCAK256 PUSH2 0x19BF DUP5 DUP3 SLOAD PUSH2 0x42C4 JUMP JUMPDEST SWAP1 SSTORE PUSH2 0x19DE PUSH1 0x40 MLOAD PUSH8 0x31A0BACD179C66AE PUSH1 0x20 DUP3 ADD MSTORE PUSH1 0x20 DUP2 MSTORE PUSH2 0x41C1 JUMP JUMPDEST CALLER PUSH1 0x0 MSTORE PUSH1 0xF PUSH1 0x20 MSTORE TIMESTAMP PUSH1 0x1 PUSH1 0x40 PUSH1 0x0 KECCAK256 ADD SSTORE PUSH2 0x1A0E PUSH1 0x40 MLOAD PUSH8 0x4BAAB5B62C4E3E22 PUSH1 0x20 DUP3 ADD MSTORE PUSH1 0x20 DUP2 MSTORE PUSH2 0x41C1 JUMP JUMPDEST PUSH2 0x1A2B PUSH1 0x40 MLOAD PUSH8 0xA87C65F9182A3D7E PUSH1 0x20 DUP3 ADD MSTORE PUSH1 0x20 DUP2 MSTORE PUSH2 0x41C1 JUMP JUMPDEST DUP5 PUSH2 0x42E4 JUMP JUMPDEST PUSH2 0x42E4 JUMP JUMPDEST PUSH2 0x1A53 PUSH1 0x40 MLOAD PUSH8 0x9E1D9A052563C927 PUSH1 0x20 DUP3 ADD MSTORE PUSH1 0x20 DUP2 MSTORE PUSH2 0x41C1 JUMP JUMPDEST PUSH1 0x1 DUP1 PUSH1 0xA0 SHL SUB DUP4 AND PUSH1 0x0 MSTORE PUSH1 0xF PUSH1 0x20 MSTORE PUSH2 0x1A74 PUSH1 0x40 PUSH1 0x0 KECCAK256 SWAP2 DUP3 SLOAD PUSH2 0x42C4 JUMP JUMPDEST SWAP1 SSTORE PUSH2 0x1A93 PUSH1 0x40 MLOAD PUSH8 0x931389147291891E PUSH1 0x20 DUP3 ADD MSTORE PUSH1 0x20 DUP2 MSTORE PUSH2 0x41C1 JUMP JUMPDEST PUSH1 0x1 DUP1 PUSH1 0xA0 SHL SUB DUP3 AND PUSH1 0x0 MSTORE PUSH1 0xF PUSH1 0x20 MSTORE TIMESTAMP PUSH1 0x1 PUSH1 0x40 PUSH1 0x0 KECCAK256 ADD SSTORE JUMPDEST PUSH2 0x1ACC PUSH1 0x40 MLOAD PUSH8 0xEF8BA3719C1D4A52 PUSH1 0x20 DUP3 ADD MSTORE PUSH1 0x20 DUP2 MSTORE PUSH2 0x41C1 JUMP JUMPDEST CALLER PUSH1 0x0 MSTORE PUSH1 0xD PUSH1 0x20 MSTORE PUSH1 0x40 PUSH1 0x0 KECCAK256 PUSH1 0x1 DUP1 PUSH1 0xA0 SHL SUB DUP4 AND PUSH1 0x0 MSTORE PUSH1 0x20 MSTORE PUSH1 0x40 PUSH1 0x0 KECCAK256 PUSH2 0x1AF8 DUP2 SLOAD PUSH2 0x42F1 JUMP JUMPDEST SWAP1 SSTORE PUSH2 0x1B17 PUSH1 0x40 MLOAD PUSH8 0xD94FFD960E5DAA88 PUSH1 0x20 DUP3 ADD MSTORE PUSH1 0x20 DUP2 MSTORE PUSH2 0x41C1 JUMP JUMPDEST PUSH2 0x1B34 PUSH1 0x40 MLOAD PUSH8 0xFB3EE0B1331F5E7C PUSH1 0x20 DUP3 ADD MSTORE PUSH1 0x20 DUP2 MSTORE PUSH2 0x41C1 JUMP JUMPDEST PUSH2 0x1B51 PUSH1 0x40 MLOAD PUSH8 0xEB42C7021465F90C PUSH1 0x20 DUP3 ADD MSTORE PUSH1 0x20 DUP2 MSTORE PUSH2 0x41C1 JUMP JUMPDEST PUSH2 0x1B6E PUSH1 0x40 MLOAD PUSH8 0xC7CCF7653182D094 PUSH1 0x20 DUP3 ADD MSTORE PUSH1 0x20 DUP2 MSTORE PUSH2 0x41C1 JUMP JUMPDEST PUSH2 0x1B8B PUSH1 0x40 MLOAD PUSH8 0xEAE5D45C9708AE43 PUSH1 0x20 DUP3 ADD MSTORE PUSH1 0x20 DUP2 MSTORE PUSH2 0x41C1 JUMP JUMPDEST PUSH1 0x6 SLOAD PUSH2 0x1BAB PUSH1 0x40 MLOAD PUSH8 0xE47592B00A504C75 PUSH1 0x20 DUP3 ADD MSTORE PUSH1 0x20 DUP2 MSTORE PUSH2 0x41C1 JUMP JUMPDEST PUSH2 0x1BC8 PUSH1 0x40 MLOAD PUSH8 0x4A47C952C926F9B2 PUSH1 0x20 DUP3 ADD MSTORE PUSH1 0x20 DUP2 MSTORE PUSH2 0x41C1 JUMP JUMPDEST CALLER PUSH1 0x0 MSTORE PUSH1 0xD PUSH1 0x20 MSTORE PUSH1 0x40 PUSH1 0x0 KECCAK256 PUSH1 0x1 DUP1 PUSH1 0xA0 SHL SUB DUP5 AND PUSH1 0x0 MSTORE PUSH1 0x20 MSTORE PUSH1 0x40 PUSH1 0x0 KECCAK256 SLOAD PUSH2 0x1C08 PUSH1 0x40 MLOAD PUSH8 0xB0967A3931FED033 PUSH1 0x20 DUP3 ADD MSTORE PUSH1 0x20 DUP2 MSTORE PUSH2 0x41C1 JUMP JUMPDEST PUSH2 0x1C25 PUSH1 0x40 MLOAD PUSH8 0xBCEB9CFE903C7968 PUSH1 0x20 DUP3 ADD MSTORE PUSH1 0x20 DUP2 MSTORE PUSH2 0x41C1 JUMP JUMPDEST DUP1 ISZERO DUP1 PUSH2 0x2475 JUMPI PUSH2 0x1C49 PUSH1 0x40 MLOAD PUSH8 0xC2121D5ACEF1289C PUSH1 0x20 DUP3 ADD MSTORE PUSH1 0x20 DUP2 MSTORE PUSH2 0x41C1 JUMP JUMPDEST PUSH2 0x1C66 PUSH1 0x40 MLOAD PUSH8 0x65C757C5522F0180 PUSH1 0x20 DUP3 ADD MSTORE PUSH1 0x20 DUP2 MSTORE PUSH2 0x41C1 JUMP JUMPDEST PUSH2 0x1C83 PUSH1 0x40 MLOAD PUSH8 0x5AB89ECFB39C1C5 PUSH1 0x20 DUP3 ADD MSTORE PUSH1 0x20 DUP2 MSTORE PUSH2 0x41C1 JUMP JUMPDEST DUP2 PUSH1 0xA DUP2 MUL DIV PUSH1 0xA EQ OR ISZERO PUSH2 0x2305 JUMPI PUSH1 0x5A PUSH1 0xA DUP3 MUL GT DUP1 ISZERO PUSH2 0x244D JUMPI JUMPDEST DUP1 PUSH2 0x2425 JUMPI JUMPDEST ISZERO PUSH2 0x241D JUMPI POP PUSH1 0x5A JUMPDEST PUSH2 0x1CCC PUSH1 0x40 MLOAD PUSH8 0x4FD96E3FCE133B29 PUSH1 0x20 DUP3 ADD MSTORE PUSH1 0x20 DUP2 MSTORE PUSH2 0x41C1 JUMP JUMPDEST PUSH1 0x64 SUB SWAP1 PUSH1 0x64 DUP3 GT PUSH2 0x2305 JUMPI PUSH1 0x64 SWAP2 PUSH2 0x1CE4 SWAP2 PUSH2 0x42D1 JUMP JUMPDEST DIV JUMPDEST PUSH2 0x1D03 PUSH1 0x40 MLOAD PUSH8 0xDFE92852A44F8411 PUSH1 0x20 DUP3 ADD MSTORE PUSH1 0x20 DUP2 MSTORE PUSH2 0x41C1 JUMP JUMPDEST PUSH2 0x1D20 PUSH1 0x40 MLOAD PUSH8 0xD1958A37B3FFCE60 PUSH1 0x20 DUP3 ADD MSTORE PUSH1 0x20 DUP2 MSTORE PUSH2 0x41C1 JUMP JUMPDEST CALLER PUSH1 0x0 MSTORE PUSH1 0xC PUSH1 0x20 MSTORE PUSH1 0x40 PUSH1 0x0 KECCAK256 PUSH2 0x1D4B PUSH1 0x40 MLOAD PUSH8 0x5EF94AF5EE2C8425 PUSH1 0x20 DUP3 ADD MSTORE PUSH1 0x20 DUP2 MSTORE PUSH2 0x41C1 JUMP JUMPDEST PUSH2 0x1D68 PUSH1 0x40 MLOAD PUSH8 0x4947B166BC32A441 PUSH1 0x20 DUP3 ADD MSTORE PUSH1 0x20 DUP2 MSTORE PUSH2 0x41C1 JUMP JUMPDEST PUSH1 0x1 DUP2 ADD SLOAD SWAP1 DUP2 ISZERO SWAP1 DUP2 PUSH2 0x23FD JUMPI PUSH2 0x1D93 PUSH1 0x40 MLOAD PUSH8 0x7C1CF24F6315D1C8 PUSH1 0x20 DUP3 ADD MSTORE PUSH1 0x20 DUP2 MSTORE PUSH2 0x41C1 JUMP JUMPDEST PUSH2 0x1DB0 PUSH1 0x40 MLOAD PUSH8 0xED96AAE4C1EA001A PUSH1 0x20 DUP3 ADD MSTORE PUSH1 0x20 DUP2 MSTORE PUSH2 0x41C1 JUMP JUMPDEST PUSH2 0x1DCD PUSH1 0x40 MLOAD PUSH8 0x5B16286902AFCEC5 PUSH1 0x20 DUP3 ADD MSTORE PUSH1 0x20 DUP2 MSTORE PUSH2 0x41C1 JUMP JUMPDEST SLOAD SWAP1 DUP2 ISZERO PUSH2 0x23DD JUMPI PUSH2 0x1DF2 PUSH1 0x40 MLOAD PUSH8 0x94873D77DCC85042 PUSH1 0x20 DUP3 ADD MSTORE PUSH1 0x20 DUP2 MSTORE PUSH2 0x41C1 JUMP JUMPDEST PUSH2 0x1E0F PUSH1 0x40 MLOAD PUSH8 0x94B88B16A0D308D6 PUSH1 0x20 DUP3 ADD MSTORE PUSH1 0x20 DUP2 MSTORE PUSH2 0x41C1 JUMP JUMPDEST PUSH2 0x1E2C PUSH1 0x40 MLOAD PUSH8 0x6F02C2EABA4D2CE5 PUSH1 0x20 DUP3 ADD MSTORE PUSH1 0x20 DUP2 MSTORE PUSH2 0x41C1 JUMP JUMPDEST PUSH2 0x23C7 JUMPI DIV PUSH2 0x1E4E PUSH1 0x40 MLOAD PUSH8 0x469B1E74B43EE8FA PUSH1 0x20 DUP3 ADD MSTORE PUSH1 0x20 DUP2 MSTORE PUSH2 0x41C1 JUMP JUMPDEST PUSH2 0x1E6B PUSH1 0x40 MLOAD PUSH8 0x10F36BD42A9AA072 PUSH1 0x20 DUP3 ADD MSTORE PUSH1 0x20 DUP2 MSTORE PUSH2 0x41C1 JUMP JUMPDEST PUSH1 0xA DUP2 MUL SWAP1 DUP1 DUP3 DIV PUSH1 0xA EQ SWAP1 ISZERO OR ISZERO PUSH2 0x2305 JUMPI PUSH1 0x24 CALLDATALOAD GT ISZERO PUSH2 0x23A5 JUMPI PUSH2 0x1EA4 PUSH1 0x40 MLOAD PUSH8 0x2CE534D50DD2D9E PUSH1 0x20 DUP3 ADD MSTORE PUSH1 0x20 DUP2 MSTORE PUSH2 0x41C1 JUMP JUMPDEST DUP1 PUSH1 0x1 SHL SWAP1 DUP1 DUP3 DIV PUSH1 0x2 EQ SWAP1 ISZERO OR ISZERO PUSH2 0x2305 JUMPI JUMPDEST PUSH2 0x1ED5 PUSH1 0x40 MLOAD PUSH8 0x5482D927C8246D27 PUSH1 0x20 DUP3 ADD MSTORE PUSH1 0x20 DUP2 MSTORE PUSH2 0x41C1 JUMP JUMPDEST PUSH2 0x1EF2 PUSH1 0x40 MLOAD PUSH8 0x5B2BA6D4DF24AA6 PUSH1 0x20 DUP3 ADD MSTORE PUSH1 0x20 DUP2 MSTORE PUSH2 0x41C1 JUMP JUMPDEST PUSH1 0x7 SLOAD SWAP1 DUP2 DUP2 LT ISZERO PUSH2 0x231B JUMPI POP PUSH2 0x1F1C PUSH1 0x40 MLOAD PUSH8 0x578CB93D81831323 PUSH1 0x20 DUP3 ADD MSTORE PUSH1 0x20 DUP2 MSTORE PUSH2 0x41C1 JUMP JUMPDEST PUSH2 0x1F39 PUSH1 0x40 MLOAD PUSH8 0x5F9C278E70471F76 PUSH1 0x20 DUP3 ADD MSTORE PUSH1 0x20 DUP2 MSTORE PUSH2 0x41C1 JUMP JUMPDEST PUSH2 0x1F56 PUSH1 0x40 MLOAD PUSH8 0x3E780238272D7DB3 PUSH1 0x20 DUP3 ADD MSTORE PUSH1 0x20 DUP2 MSTORE PUSH2 0x41C1 JUMP JUMPDEST PUSH2 0x1F73 PUSH1 0x40 MLOAD PUSH8 0xA5E346C84AC247C3 PUSH1 0x20 DUP3 ADD MSTORE PUSH1 0x20 DUP2 MSTORE PUSH2 0x41C1 JUMP JUMPDEST PUSH2 0x1F7D DUP2 TIMESTAMP PUSH2 0x42C4 JUMP JUMPDEST PUSH1 0x1 PUSH1 0x1 PUSH1 0xA0 SHL SUB DUP5 AND PUSH1 0x0 SWAP1 DUP2 MSTORE PUSH1 0xB PUSH1 0x20 MSTORE PUSH1 0x40 SWAP1 KECCAK256 PUSH1 0x3 ADD SLOAD PUSH1 0x1 DUP2 ADD DUP2 GT PUSH2 0x2305 JUMPI PUSH1 0x40 MLOAD SWAP1 CALLER PUSH1 0x60 SHL PUSH1 0x20 DUP4 ADD MSTORE PUSH1 0x1 PUSH1 0x1 PUSH1 0x60 SHL SUB NOT DUP7 PUSH1 0x60 SHL AND PUSH1 0x34 DUP4 ADD MSTORE PUSH1 0x24 CALLDATALOAD PUSH1 0x48 DUP4 ADD MSTORE PUSH1 0x48 DUP3 MSTORE DUP2 PUSH1 0x80 DUP2 ADD LT PUSH8 0xFFFFFFFFFFFFFFFF PUSH1 0x80 DUP5 ADD GT OR PUSH2 0x22EF JUMPI PUSH1 0x80 DUP3 ADD PUSH1 0x40 MSTORE DUP2 MLOAD PUSH1 0x20 DUP4 ADD KECCAK256 PUSH1 0x80 DUP4 ADD PUSH2 0x160 DUP5 ADD LT PUSH8 0xFFFFFFFFFFFFFFFF PUSH2 0x160 DUP6 ADD GT OR PUSH2 0x22EF JUMPI PUSH1 0x6 SWAP4 PUSH2 0x160 DUP5 ADD PUSH1 0x40 MSTORE PUSH1 0x80 DUP5 ADD MSTORE PUSH1 0xA0 DUP4 ADD SWAP5 DUP6 MSTORE PUSH1 0xC0 DUP4 ADD SWAP2 CALLER DUP4 MSTORE PUSH1 0x1 PUSH1 0xE0 DUP6 ADD SWAP2 ADD DUP2 MSTORE PUSH2 0x100 DUP5 ADD SWAP2 DUP3 MSTORE PUSH2 0x120 DUP5 ADD SWAP3 DUP8 DUP5 MSTORE PUSH2 0x140 DUP6 ADD SWAP7 PUSH1 0x0 DUP9 MSTORE PUSH1 0x1 DUP1 PUSH1 0xA0 SHL SUB DUP11 AND PUSH1 0x0 MSTORE PUSH1 0xB PUSH1 0x20 MSTORE PUSH1 0x80 PUSH1 0x40 PUSH1 0x0 KECCAK256 SWAP7 ADD MLOAD DUP7 SSTORE MLOAD PUSH1 0x1 DUP7 ADD SSTORE PUSH1 0x2 DUP6 ADD SWAP1 PUSH1 0x1 DUP1 PUSH1 0xA0 SHL SUB SWAP1 MLOAD AND PUSH1 0x1 PUSH1 0x1 PUSH1 0x60 SHL SUB PUSH1 0xA0 SHL DUP3 SLOAD AND OR SWAP1 SSTORE MLOAD PUSH1 0x3 DUP5 ADD SSTORE MLOAD PUSH1 0x4 DUP4 ADD SSTORE MLOAD PUSH1 0x5 DUP3 ADD SSTORE ADD SWAP1 MLOAD ISZERO ISZERO PUSH1 0xFF DUP1 NOT DUP4 SLOAD AND SWAP2 AND OR SWAP1 SSTORE PUSH2 0x20DB PUSH1 0x40 MLOAD PUSH8 0xA1A6C8A805E12D5F PUSH1 0x20 DUP3 ADD MSTORE PUSH1 0x20 DUP2 MSTORE PUSH2 0x41C1 JUMP JUMPDEST PUSH2 0x20F8 PUSH1 0x40 MLOAD PUSH8 0xCF6BE71863726296 PUSH1 0x20 DUP3 ADD MSTORE PUSH1 0x20 DUP2 MSTORE PUSH2 0x41C1 JUMP JUMPDEST PUSH2 0x2115 PUSH1 0x40 MLOAD PUSH8 0x5602F8F30B8375B1 PUSH1 0x20 DUP3 ADD MSTORE PUSH1 0x20 DUP2 MSTORE PUSH2 0x41C1 JUMP JUMPDEST PUSH2 0x2132 PUSH1 0x40 MLOAD PUSH8 0xBA9D57F6A7DCB3BB PUSH1 0x20 DUP3 ADD MSTORE PUSH1 0x20 DUP2 MSTORE PUSH2 0x41C1 JUMP JUMPDEST PUSH2 0x214F PUSH1 0x40 MLOAD PUSH8 0x9194E4B0BE8C7A1F PUSH1 0x20 DUP3 ADD MSTORE PUSH1 0x20 DUP2 MSTORE PUSH2 0x41C1 JUMP JUMPDEST PUSH1 0x1 DUP1 PUSH1 0xA0 SHL SUB DUP3 AND PUSH1 0x0 MSTORE PUSH1 0xC PUSH1 0x20 MSTORE PUSH1 0x40 PUSH1 0x0 KECCAK256 PUSH2 0x2182 PUSH1 0x40 MLOAD PUSH8 0x8C07352675864C1A PUSH1 0x20 DUP3 ADD MSTORE PUSH1 0x20 DUP2 MSTORE PUSH2 0x41C1 JUMP JUMPDEST PUSH2 0x219F PUSH1 0x40 MLOAD PUSH8 0x1F02FE911C772D7F PUSH1 0x20 DUP3 ADD MSTORE PUSH1 0x20 DUP2 MSTORE PUSH2 0x41C1 JUMP JUMPDEST PUSH1 0x1 PUSH1 0x2 DUP3 ADD SWAP2 DUP3 SLOAD DUP1 ISZERO ISZERO SWAP1 DUP2 PUSH2 0x22DA JUMPI JUMPDEST POP ISZERO PUSH2 0x22B8 JUMPI PUSH2 0x21D5 PUSH1 0x40 MLOAD PUSH8 0xA89894E845A69DB6 PUSH1 0x20 DUP3 ADD MSTORE PUSH1 0x20 DUP2 MSTORE PUSH2 0x41C1 JUMP JUMPDEST PUSH1 0x0 DUP2 SSTORE PUSH1 0x0 DUP3 DUP3 ADD SSTORE JUMPDEST PUSH2 0x21ED PUSH1 0x24 CALLDATALOAD DUP3 SLOAD PUSH2 0x42C4 JUMP JUMPDEST DUP2 SSTORE ADD PUSH2 0x21FA DUP2 SLOAD PUSH2 0x42F1 JUMP JUMPDEST SWAP1 SSTORE TIMESTAMP SWAP1 SSTORE PUSH2 0x221C PUSH1 0x40 MLOAD PUSH8 0xD487D121C726532 PUSH1 0x20 DUP3 ADD MSTORE PUSH1 0x20 DUP2 MSTORE PUSH2 0x41C1 JUMP JUMPDEST PUSH2 0x2239 PUSH1 0x40 MLOAD PUSH8 0x556DF496D88B322B PUSH1 0x20 DUP3 ADD MSTORE PUSH1 0x20 DUP2 MSTORE PUSH2 0x41C1 JUMP JUMPDEST PUSH1 0x40 MLOAD SWAP3 DUP4 MSTORE PUSH1 0x20 DUP4 ADD MSTORE PUSH1 0x1 DUP1 PUSH1 0xA0 SHL SUB AND SWAP1 PUSH32 0x98BC3FE7D138931A49691B623C256B8812F2A3D7F9B25BA7098C82538977A5D0 PUSH1 0x40 CALLER SWAP3 LOG3 PUSH2 0x2290 PUSH1 0x40 MLOAD PUSH8 0x7D602C9934555E8 PUSH1 0x20 DUP3 ADD MSTORE PUSH1 0x20 DUP2 MSTORE PUSH2 0x41C1 JUMP JUMPDEST PUSH2 0x22AD PUSH1 0x40 MLOAD PUSH8 0xC28BC3B1D763A64C PUSH1 0x20 DUP3 ADD MSTORE PUSH1 0x20 DUP2 MSTORE PUSH2 0x41C1 JUMP JUMPDEST PUSH1 0x20 PUSH1 0x40 MLOAD PUSH1 0x1 DUP2 MSTORE RETURN JUMPDEST PUSH2 0x22D5 PUSH1 0x40 MLOAD PUSH8 0xDFED1E1FE1338AAF PUSH1 0x20 DUP3 ADD MSTORE PUSH1 0x20 DUP2 MSTORE PUSH2 0x41C1 JUMP JUMPDEST PUSH2 0x21E0 JUMP JUMPDEST PUSH2 0x22E5 SWAP2 POP TIMESTAMP PUSH2 0x42E4 JUMP JUMPDEST PUSH1 0x9 SLOAD LT DUP8 PUSH2 0x21B2 JUMP JUMPDEST PUSH4 0x4E487B71 PUSH1 0xE0 SHL PUSH1 0x0 MSTORE PUSH1 0x41 PUSH1 0x4 MSTORE PUSH1 0x24 PUSH1 0x0 REVERT JUMPDEST PUSH4 0x4E487B71 PUSH1 0xE0 SHL PUSH1 0x0 MSTORE PUSH1 0x11 PUSH1 0x4 MSTORE PUSH1 0x24 PUSH1 0x0 REVERT JUMPDEST SWAP1 POP PUSH2 0x233A PUSH1 0x40 MLOAD PUSH8 0x9A893B8FB44B5F53 PUSH1 0x20 DUP3 ADD MSTORE PUSH1 0x20 DUP2 MSTORE PUSH2 0x41C1 JUMP JUMPDEST PUSH2 0x2357 PUSH1 0x40 MLOAD PUSH8 0xE954B48192F36D43 PUSH1 0x20 DUP3 ADD MSTORE PUSH1 0x20 DUP2 MSTORE PUSH2 0x41C1 JUMP JUMPDEST PUSH1 0x8 SLOAD SWAP1 DUP2 DUP2 GT ISZERO PUSH2 0x2386 JUMPI POP PUSH2 0x2381 PUSH1 0x40 MLOAD PUSH8 0xA67AB7D3D9097340 PUSH1 0x20 DUP3 ADD MSTORE PUSH1 0x20 DUP2 MSTORE PUSH2 0x41C1 JUMP JUMPDEST PUSH2 0x1F1C JUMP JUMPDEST SWAP1 POP PUSH2 0x2381 PUSH1 0x40 MLOAD PUSH8 0xE535AC6447162A5B PUSH1 0x20 DUP3 ADD MSTORE PUSH1 0x20 DUP2 MSTORE PUSH2 0x41C1 JUMP JUMPDEST PUSH2 0x23C2 PUSH1 0x40 MLOAD PUSH8 0xA9E8FA354C8973A4 PUSH1 0x20 DUP3 ADD MSTORE PUSH1 0x20 DUP2 MSTORE PUSH2 0x41C1 JUMP JUMPDEST PUSH2 0x1EB8 JUMP JUMPDEST PUSH4 0x4E487B71 PUSH1 0xE0 SHL PUSH1 0x0 MSTORE PUSH1 0x12 PUSH1 0x4 MSTORE PUSH1 0x24 PUSH1 0x0 REVERT JUMPDEST POP POP POP PUSH2 0x23C2 PUSH1 0x40 MLOAD PUSH8 0xDDE50AB956EDFC42 PUSH1 0x20 DUP3 ADD MSTORE PUSH1 0x20 DUP2 MSTORE PUSH2 0x41C1 JUMP JUMPDEST POP POP POP PUSH2 0x23C2 PUSH1 0x40 MLOAD PUSH8 0xB8BAE17B737BEFAD PUSH1 0x20 DUP3 ADD MSTORE PUSH1 0x20 DUP2 MSTORE PUSH2 0x41C1 JUMP JUMPDEST PUSH1 0xA MUL PUSH2 0x1CAF JUMP JUMPDEST POP PUSH2 0x2446 PUSH1 0x40 MLOAD PUSH8 0x2B7DB0ED5744C9A7 PUSH1 0xC0 SHL PUSH1 0x20 DUP3 ADD MSTORE PUSH1 0x20 DUP2 MSTORE PUSH2 0x41C1 JUMP JUMPDEST PUSH1 0x1 PUSH2 0x1CA6 JUMP JUMPDEST POP PUSH2 0x246E PUSH1 0x40 MLOAD PUSH8 0x153DE598D6CC433 PUSH1 0xC6 SHL PUSH1 0x20 DUP3 ADD MSTORE PUSH1 0x20 DUP2 MSTORE PUSH2 0x41C1 JUMP JUMPDEST PUSH1 0x0 PUSH2 0x1CA0 JUMP JUMPDEST POP POP PUSH2 0x2494 PUSH1 0x40 MLOAD PUSH8 0x35A23CE870A5D1D5 PUSH1 0x20 DUP3 ADD MSTORE PUSH1 0x20 DUP2 MSTORE PUSH2 0x41C1 JUMP JUMPDEST PUSH2 0x1CE6 JUMP JUMPDEST PUSH1 0x40 MLOAD PUSH4 0xEC442F05 PUSH1 0xE0 SHL DUP2 MSTORE PUSH1 0x0 PUSH1 0x4 DUP3 ADD MSTORE PUSH1 0x24 SWAP1 REVERT JUMPDEST PUSH2 0x1A36 SWAP1 PUSH2 0x24D3 PUSH1 0x40 MLOAD PUSH8 0xF84EF5719E151A2 PUSH1 0x20 DUP3 ADD MSTORE PUSH1 0x20 DUP2 MSTORE PUSH2 0x41C1 JUMP JUMPDEST PUSH2 0x1947 JUMP JUMPDEST PUSH2 0x24F5 PUSH1 0x40 MLOAD PUSH8 0xF9B4CAB5590FF9C0 PUSH1 0x20 DUP3 ADD MSTORE PUSH1 0x20 DUP2 MSTORE PUSH2 0x41C1 JUMP JUMPDEST PUSH2 0x1AAF JUMP JUMPDEST SWAP1 PUSH2 0x2518 PUSH1 0x40 MLOAD PUSH8 0x3412AEA162DABE53 PUSH1 0x20 DUP3 ADD MSTORE PUSH1 0x20 DUP2 MSTORE PUSH2 0x41C1 JUMP JUMPDEST PUSH2 0x16CB JUMP JUMPDEST PUSH2 0x253A PUSH1 0x40 MLOAD PUSH8 0x99B21578E33B93DE PUSH1 0x20 DUP3 ADD MSTORE PUSH1 0x20 DUP2 MSTORE PUSH2 0x41C1 JUMP JUMPDEST PUSH2 0x1647 JUMP JUMPDEST POP PUSH1 0x1 PUSH1 0x24 CALLDATALOAD GT PUSH2 0x1604 JUMP JUMPDEST SWAP1 POP PUSH2 0x256A PUSH1 0x40 MLOAD PUSH8 0x15B2AF2C3ACE5C50 PUSH1 0x20 DUP3 ADD MSTORE PUSH1 0x20 DUP2 MSTORE PUSH2 0x41C1 JUMP JUMPDEST PUSH2 0x1586 JUMP JUMPDEST PUSH1 0x2 ADD SLOAD PUSH1 0x1 PUSH1 0x1 PUSH1 0xA0 SHL SUB DUP4 DUP2 AND SWAP2 AND EQ ISZERO SWAP1 POP DUP3 PUSH2 0x12CB JUMP JUMPDEST POP PUSH2 0x25A8 PUSH1 0x40 MLOAD PUSH8 0x27630211ED80E7DD PUSH1 0x20 DUP3 ADD MSTORE PUSH1 0x20 DUP2 MSTORE PUSH2 0x41C1 JUMP JUMPDEST PUSH2 0x11B9 JUMP JUMPDEST POP PUSH2 0x25CB PUSH1 0x40 MLOAD PUSH8 0x27630211ED80E7DD PUSH1 0x20 DUP3 ADD MSTORE PUSH1 0x20 DUP2 MSTORE PUSH2 0x41C1 JUMP JUMPDEST PUSH2 0xFDD JUMP JUMPDEST PUSH1 0x40 MLOAD PUSH3 0x461BCD PUSH1 0xE5 SHL DUP2 MSTORE PUSH1 0x20 PUSH1 0x4 DUP3 ADD MSTORE PUSH1 0x29 PUSH1 0x24 DUP3 ADD MSTORE PUSH32 0x5472616E7366657220616D6F756E74206D757374206265206772656174657220 PUSH1 0x44 DUP3 ADD MSTORE PUSH9 0x7468616E207A65726F PUSH1 0xB8 SHL PUSH1 0x64 DUP3 ADD MSTORE PUSH1 0x84 SWAP1 REVERT JUMPDEST PUSH1 0x40 MLOAD PUSH3 0x461BCD PUSH1 0xE5 SHL DUP2 MSTORE PUSH1 0x20 PUSH1 0x4 DUP3 ADD MSTORE PUSH1 0x18 PUSH1 0x24 DUP3 ADD MSTORE PUSH32 0x5472616E7366657220746F207A65726F20616464726573730000000000000000 PUSH1 0x44 DUP3 ADD MSTORE PUSH1 0x64 SWAP1 REVERT JUMPDEST CALLVALUE PUSH2 0x229 JUMPI PUSH1 0x0 CALLDATASIZE PUSH1 0x3 NOT ADD SLT PUSH2 0x229 JUMPI PUSH1 0x40 MLOAD PUSH1 0x0 SWAP1 PUSH1 0x4 SLOAD PUSH1 0x1 DUP2 DUP2 SHR SWAP1 DUP1 DUP4 AND SWAP3 DUP4 ISZERO PUSH2 0x2767 JUMPI JUMPDEST PUSH1 0x20 SWAP4 DUP5 DUP5 LT DUP2 EQ PUSH2 0x2751 JUMPI DUP4 DUP7 MSTORE SWAP1 DUP2 ISZERO PUSH2 0x2731 JUMPI POP PUSH1 0x1 EQ PUSH2 0x26D6 JUMPI JUMPDEST PUSH2 0x26D2 DUP5 PUSH2 0x26C6 DUP2 DUP9 SUB DUP3 PUSH2 0x41DD JUMP JUMPDEST PUSH1 0x40 MLOAD SWAP2 DUP3 SWAP2 DUP3 PUSH2 0x40EB JUMP JUMPDEST SUB SWAP1 RETURN JUMPDEST PUSH1 0x4 PUSH1 0x0 SWAP1 DUP2 MSTORE SWAP3 SWAP5 POP PUSH32 0x8A35ACFBC15FF81A39AE7D344FD709F28E8600B4AA8C65C6B64BFE7FE36BD19B JUMPDEST DUP3 DUP5 LT PUSH2 0x271E JUMPI POP POP POP DUP2 PUSH2 0x26D2 SWAP4 PUSH2 0x26C6 SWAP3 DUP3 ADD ADD SWAP4 PUSH2 0x26B6 JUMP JUMPDEST DUP1 SLOAD DUP6 DUP6 ADD DUP8 ADD MSTORE SWAP3 DUP6 ADD SWAP3 DUP2 ADD PUSH2 0x2702 JUMP JUMPDEST PUSH1 0xFF NOT AND DUP6 DUP6 ADD MSTORE POP POP ISZERO ISZERO PUSH1 0x5 SHL DUP3 ADD ADD SWAP2 POP PUSH2 0x26C6 DUP2 PUSH2 0x26D2 PUSH2 0x26B6 JUMP JUMPDEST PUSH4 0x4E487B71 PUSH1 0xE0 SHL PUSH1 0x0 MSTORE PUSH1 0x22 PUSH1 0x4 MSTORE PUSH1 0x24 PUSH1 0x0 REVERT JUMPDEST SWAP2 PUSH1 0x7F AND SWAP2 PUSH2 0x2697 JUMP JUMPDEST CALLVALUE PUSH2 0x229 JUMPI PUSH1 0x40 CALLDATASIZE PUSH1 0x3 NOT ADD SLT PUSH2 0x229 JUMPI PUSH2 0x278A PUSH2 0x4134 JUMP JUMPDEST PUSH2 0x2792 PUSH2 0x414A JUMP JUMPDEST SWAP1 PUSH1 0x1 DUP1 PUSH1 0xA0 SHL SUB DUP1 SWAP2 AND PUSH1 0x0 MSTORE PUSH1 0xD PUSH1 0x20 MSTORE PUSH1 0x40 PUSH1 0x0 KECCAK256 SWAP2 AND PUSH1 0x0 MSTORE PUSH1 0x20 MSTORE PUSH1 0x20 PUSH1 0x40 PUSH1 0x0 KECCAK256 SLOAD PUSH1 0x40 MLOAD SWAP1 DUP2 MSTORE RETURN JUMPDEST CALLVALUE PUSH2 0x229 JUMPI PUSH1 0x0 CALLDATASIZE PUSH1 0x3 NOT ADD SLT PUSH2 0x229 JUMPI PUSH1 0x5 SLOAD PUSH1 0x40 MLOAD PUSH1 0x1 PUSH1 0x1 PUSH1 0xA0 SHL SUB SWAP1 SWAP2 AND DUP2 MSTORE PUSH1 0x20 SWAP1 RETURN JUMPDEST CALLVALUE PUSH2 0x229 JUMPI PUSH1 0x0 CALLDATASIZE PUSH1 0x3 NOT ADD SLT PUSH2 0x229 JUMPI PUSH1 0x20 PUSH1 0x7 SLOAD PUSH1 0x40 MLOAD SWAP1 DUP2 MSTORE RETURN JUMPDEST CALLVALUE PUSH2 0x229 JUMPI PUSH1 0x20 DUP1 PUSH1 0x3 NOT CALLDATASIZE ADD SLT PUSH2 0x229 JUMPI PUSH1 0x4 CALLDATALOAD SWAP1 PUSH2 0x283A PUSH1 0x40 MLOAD PUSH8 0xCAF17000F263D712 DUP4 DUP3 ADD MSTORE DUP3 DUP2 MSTORE PUSH2 0x41C1 JUMP JUMPDEST PUSH2 0x2842 PUSH2 0x4195 JUMP JUMPDEST PUSH2 0x285D PUSH1 0x40 MLOAD PUSH8 0xE09266BB0EF45B82 DUP4 DUP3 ADD MSTORE DUP3 DUP2 MSTORE PUSH2 0x41C1 JUMP JUMPDEST PUSH2 0x2878 PUSH1 0x40 MLOAD PUSH8 0x9368493365F1CB71 DUP4 DUP3 ADD MSTORE DUP3 DUP2 MSTORE PUSH2 0x41C1 JUMP JUMPDEST PUSH2 0x2893 PUSH1 0x40 MLOAD PUSH8 0xF40FDEC6121AD049 DUP4 DUP3 ADD MSTORE DUP3 DUP2 MSTORE PUSH2 0x41C1 JUMP JUMPDEST PUSH2 0x28AE PUSH1 0x40 MLOAD PUSH8 0x94E8E700ED64784A DUP4 DUP3 ADD MSTORE DUP3 DUP2 MSTORE PUSH2 0x41C1 JUMP JUMPDEST DUP2 ISZERO PUSH2 0x2969 JUMPI PUSH2 0x28CF PUSH1 0x40 MLOAD PUSH8 0x9841BCD657877D45 DUP4 DUP3 ADD MSTORE DUP3 DUP2 MSTORE PUSH2 0x41C1 JUMP JUMPDEST PUSH2 0x28EA PUSH1 0x40 MLOAD PUSH8 0x5434CCA35C1559C9 DUP4 DUP3 ADD MSTORE DUP3 DUP2 MSTORE PUSH2 0x41C1 JUMP JUMPDEST PUSH2 0x2905 PUSH1 0x40 MLOAD PUSH8 0x964B37F810426568 DUP4 DUP3 ADD MSTORE DUP3 DUP2 MSTORE PUSH2 0x41C1 JUMP JUMPDEST PUSH1 0x6 SLOAD DUP3 GT PUSH2 0x292F JUMPI PUSH2 0x292A SWAP1 PUSH1 0x40 MLOAD SWAP1 PUSH8 0xA5A6D39480D44541 DUP2 DUP4 ADD MSTORE DUP2 MSTORE PUSH2 0x41C1 JUMP JUMPDEST PUSH1 0x7 SSTORE STOP JUMPDEST PUSH1 0x64 SWAP1 PUSH1 0x40 MLOAD SWAP1 PUSH3 0x461BCD PUSH1 0xE5 SHL DUP3 MSTORE PUSH1 0x4 DUP3 ADD MSTORE PUSH1 0x13 PUSH1 0x24 DUP3 ADD MSTORE PUSH19 0x135A5B88195E18D959591CC8191959985D5B1D PUSH1 0x6A SHL PUSH1 0x44 DUP3 ADD MSTORE REVERT JUMPDEST PUSH1 0x64 SWAP1 PUSH1 0x40 MLOAD SWAP1 PUSH3 0x461BCD PUSH1 0xE5 SHL DUP3 MSTORE PUSH1 0x4 DUP3 ADD MSTORE PUSH1 0x14 PUSH1 0x24 DUP3 ADD MSTORE PUSH20 0x4D696E206D75737420626520706F736974697665 PUSH1 0x60 SHL PUSH1 0x44 DUP3 ADD MSTORE REVERT JUMPDEST CALLVALUE PUSH2 0x229 JUMPI PUSH1 0x0 CALLDATASIZE PUSH1 0x3 NOT ADD SLT PUSH2 0x229 JUMPI PUSH2 0x29BD PUSH2 0x4195 JUMP JUMPDEST PUSH1 0x5 DUP1 SLOAD PUSH1 0x1 PUSH1 0x1 PUSH1 0xA0 SHL SUB NOT DUP2 AND SWAP1 SWAP2 SSTORE PUSH1 0x0 SWAP1 PUSH1 0x1 PUSH1 0x1 PUSH1 0xA0 SHL SUB AND PUSH32 0x8BE0079C531659141344CD1FD0A4F28419497F9722A3DAAFE3B4186F6B6457E0 DUP3 DUP1 LOG3 STOP JUMPDEST CALLVALUE PUSH2 0x229 JUMPI PUSH1 0x20 CALLDATASIZE PUSH1 0x3 NOT ADD SLT PUSH2 0x229 JUMPI PUSH1 0x1 PUSH1 0x1 PUSH1 0xA0 SHL SUB PUSH2 0x2A22 PUSH2 0x4134 JUMP JUMPDEST AND PUSH1 0x0 MSTORE PUSH1 0x0 PUSH1 0x20 MSTORE PUSH1 0x20 PUSH1 0x40 PUSH1 0x0 KECCAK256 SLOAD PUSH1 0x40 MLOAD SWAP1 DUP2 MSTORE RETURN JUMPDEST CALLVALUE PUSH2 0x229 JUMPI PUSH1 0x20 DUP1 PUSH1 0x3 NOT CALLDATASIZE ADD SLT PUSH2 0x229 JUMPI PUSH1 0xE SWAP1 PUSH2 0x2C68 PUSH2 0x2A5B PUSH2 0x4134 JUMP JUMPDEST PUSH2 0x2A76 PUSH1 0x40 MLOAD PUSH8 0x4ECE7E3B0A517EA9 DUP6 DUP3 ADD MSTORE DUP5 DUP2 MSTORE PUSH2 0x41C1 JUMP JUMPDEST PUSH2 0x2A7E PUSH2 0x4195 JUMP JUMPDEST PUSH2 0x2A99 PUSH1 0x40 MLOAD PUSH8 0x24FE002AB653FD9D DUP6 DUP3 ADD MSTORE DUP5 DUP2 MSTORE PUSH2 0x41C1 JUMP JUMPDEST PUSH2 0x2AB4 PUSH1 0x40 MLOAD PUSH8 0xBB2761670420CCC5 DUP6 DUP3 ADD MSTORE DUP5 DUP2 MSTORE PUSH2 0x41C1 JUMP JUMPDEST PUSH2 0x2ACF PUSH1 0x40 MLOAD PUSH8 0x2D90C910F830CB34 DUP6 DUP3 ADD MSTORE DUP5 DUP2 MSTORE PUSH2 0x41C1 JUMP JUMPDEST PUSH2 0x2AEA PUSH1 0x40 MLOAD PUSH8 0xA3A1F5EA7F5A7CCB DUP6 DUP3 ADD MSTORE DUP5 DUP2 MSTORE PUSH2 0x41C1 JUMP JUMPDEST PUSH2 0x2B05 PUSH1 0x40 MLOAD PUSH8 0xD5ADDC88854A894A DUP6 DUP3 ADD MSTORE DUP5 DUP2 MSTORE PUSH2 0x41C1 JUMP JUMPDEST PUSH2 0x2B20 PUSH1 0x40 MLOAD PUSH8 0xA10F2530E2834575 DUP6 DUP3 ADD MSTORE DUP5 DUP2 MSTORE PUSH2 0x41C1 JUMP JUMPDEST PUSH2 0x2B3B PUSH1 0x40 MLOAD PUSH8 0xC5C1493F6E3CE697 DUP6 DUP3 ADD MSTORE DUP5 DUP2 MSTORE PUSH2 0x41C1 JUMP JUMPDEST PUSH1 0x0 DUP1 MLOAD PUSH1 0x20 PUSH2 0x5314 DUP4 CODECOPY DUP2 MLOAD SWAP2 MSTORE DUP4 PUSH1 0x1 DUP1 PUSH1 0xA0 SHL SUB DUP4 AND SWAP4 DUP5 SWAP4 DUP5 PUSH1 0x0 MSTORE DUP8 DUP4 MSTORE PUSH1 0x2 PUSH1 0x40 PUSH1 0x0 KECCAK256 PUSH2 0x2B80 PUSH1 0x40 MLOAD PUSH8 0x82EB721F0500B511 DUP8 DUP3 ADD MSTORE DUP7 DUP2 MSTORE PUSH2 0x41C1 JUMP JUMPDEST PUSH2 0x2B9B PUSH1 0x40 MLOAD PUSH8 0xA109DC0763D3BE09 DUP8 DUP3 ADD MSTORE DUP7 DUP2 MSTORE PUSH2 0x41C1 JUMP JUMPDEST ADD DUP1 SLOAD PUSH2 0x2CA4 JUMPI PUSH2 0x2BBD PUSH1 0x40 MLOAD PUSH8 0xD7B747CAF0B2F84 DUP7 DUP3 ADD MSTORE DUP6 DUP2 MSTORE PUSH2 0x41C1 JUMP JUMPDEST PUSH2 0x2BD8 PUSH1 0x40 MLOAD PUSH8 0xDECE18D831396F73 DUP7 DUP3 ADD MSTORE DUP6 DUP2 MSTORE PUSH2 0x41C1 JUMP JUMPDEST TIMESTAMP SWAP1 SSTORE JUMPDEST PUSH2 0x2BF7 PUSH1 0x40 MLOAD PUSH8 0x760812F099BFABCE DUP6 DUP3 ADD MSTORE DUP5 DUP2 MSTORE PUSH2 0x41C1 JUMP JUMPDEST PUSH2 0x2C12 PUSH1 0x40 MLOAD PUSH8 0x84B97F48FD6A4378 DUP6 DUP3 ADD MSTORE DUP5 DUP2 MSTORE PUSH2 0x41C1 JUMP JUMPDEST PUSH2 0x2C2D PUSH1 0x40 MLOAD PUSH8 0xDAACE93EAD4BD0AE DUP6 DUP3 ADD MSTORE DUP5 DUP2 MSTORE PUSH2 0x41C1 JUMP JUMPDEST PUSH2 0x2C48 PUSH1 0x40 MLOAD PUSH8 0x43E93DF93016C6C3 DUP6 DUP3 ADD MSTORE DUP5 DUP2 MSTORE PUSH2 0x41C1 JUMP JUMPDEST PUSH2 0x2C63 PUSH1 0x40 MLOAD PUSH8 0xCFAD6C48F3A1F5D8 DUP6 DUP3 ADD MSTORE DUP5 DUP2 MSTORE PUSH2 0x41C1 JUMP JUMPDEST PUSH2 0x4BE3 JUMP JUMPDEST PUSH1 0x40 MLOAD SWAP1 DUP2 MSTORE LOG2 PUSH2 0x2C8A PUSH1 0x40 MLOAD PUSH8 0xB291ED991AC9572A DUP5 DUP3 ADD MSTORE DUP4 DUP2 MSTORE PUSH2 0x41C1 JUMP JUMPDEST PUSH1 0x0 MSTORE MSTORE PUSH1 0x3 PUSH1 0x40 PUSH1 0x0 KECCAK256 ADD PUSH2 0x2CA0 DUP2 SLOAD PUSH2 0x42F1 JUMP JUMPDEST SWAP1 SSTORE STOP JUMPDEST POP PUSH2 0x2CC0 PUSH1 0x40 MLOAD PUSH8 0x27630211ED80E7DD DUP6 DUP3 ADD MSTORE DUP5 DUP2 MSTORE PUSH2 0x41C1 JUMP JUMPDEST PUSH2 0x2BDC JUMP JUMPDEST CALLVALUE PUSH2 0x229 JUMPI PUSH1 0x20 DUP1 PUSH1 0x3 NOT CALLDATASIZE ADD SLT PUSH2 0x229 JUMPI PUSH1 0x4 CALLDATALOAD SWAP1 PUSH2 0x2CF6 PUSH1 0x40 MLOAD PUSH8 0x2A2F9110869BC40B DUP4 DUP3 ADD MSTORE DUP3 DUP2 MSTORE PUSH2 0x41C1 JUMP JUMPDEST PUSH2 0x2CFE PUSH2 0x4195 JUMP JUMPDEST PUSH2 0x2D19 PUSH1 0x40 MLOAD PUSH8 0xEB729C6B5A478185 DUP4 DUP3 ADD MSTORE DUP3 DUP2 MSTORE PUSH2 0x41C1 JUMP JUMPDEST PUSH2 0x2D34 PUSH1 0x40 MLOAD PUSH8 0x9A9E3AFBCD715FDF DUP4 DUP3 ADD MSTORE DUP3 DUP2 MSTORE PUSH2 0x41C1 JUMP JUMPDEST PUSH2 0x2D4F PUSH1 0x40 MLOAD PUSH8 0x308DDDA9DD24CDE0 DUP4 DUP3 ADD MSTORE DUP3 DUP2 MSTORE PUSH2 0x41C1 JUMP JUMPDEST PUSH2 0x2D6A PUSH1 0x40 MLOAD PUSH8 0xEB2E5C77DDC7C809 DUP4 DUP3 ADD MSTORE DUP3 DUP2 MSTORE PUSH2 0x41C1 JUMP JUMPDEST DUP2 ISZERO PUSH2 0x2D91 JUMPI PUSH2 0x2D8C SWAP1 PUSH1 0x40 MLOAD SWAP1 PUSH8 0xC2E386BDE33438F0 DUP2 DUP4 ADD MSTORE DUP2 MSTORE PUSH2 0x41C1 JUMP JUMPDEST PUSH1 0x9 SSTORE STOP JUMPDEST PUSH1 0x64 SWAP1 PUSH1 0x40 MLOAD SWAP1 PUSH3 0x461BCD PUSH1 0xE5 SHL DUP3 MSTORE PUSH1 0x4 DUP3 ADD MSTORE PUSH1 0x17 PUSH1 0x24 DUP3 ADD MSTORE PUSH32 0x506572696F64206D75737420626520706F736974697665000000000000000000 PUSH1 0x44 DUP3 ADD MSTORE REVERT JUMPDEST CALLVALUE PUSH2 0x229 JUMPI PUSH1 0x40 CALLDATASIZE PUSH1 0x3 NOT ADD SLT PUSH2 0x229 JUMPI PUSH1 0x20 PUSH2 0xC26 PUSH2 0x2DF3 PUSH2 0x4134 JUMP JUMPDEST PUSH1 0x24 CALLDATALOAD SWAP1 PUSH2 0x5035 JUMP JUMPDEST CALLVALUE PUSH2 0x229 JUMPI PUSH1 0x20 CALLDATASIZE PUSH1 0x3 NOT ADD SLT PUSH2 0x229 JUMPI PUSH1 0x20 PUSH2 0xC26 PUSH2 0x2C63 PUSH2 0x4134 JUMP JUMPDEST CALLVALUE PUSH2 0x229 JUMPI PUSH1 0x20 DUP1 PUSH1 0x3 NOT CALLDATASIZE ADD SLT PUSH2 0x229 JUMPI PUSH2 0x2E34 PUSH2 0x4134 JUMP JUMPDEST PUSH2 0x2E4F PUSH1 0x40 MLOAD PUSH8 0x7BC796724A5D91AB DUP5 DUP3 ADD MSTORE DUP4 DUP2 MSTORE PUSH2 0x41C1 JUMP JUMPDEST PUSH2 0x2E57 PUSH2 0x4195 JUMP JUMPDEST PUSH2 0x2E72 PUSH1 0x40 MLOAD PUSH8 0x32AF8709A43DB1A2 DUP5 DUP3 ADD MSTORE DUP4 DUP2 MSTORE PUSH2 0x41C1 JUMP JUMPDEST PUSH2 0x2E8D PUSH1 0x40 MLOAD PUSH8 0xA15640BC1A0D4898 DUP5 DUP3 ADD MSTORE DUP4 DUP2 MSTORE PUSH2 0x41C1 JUMP JUMPDEST PUSH2 0x2EA8 PUSH1 0x40 MLOAD PUSH8 0xD31789AD8931E34D DUP5 DUP3 ADD MSTORE DUP4 DUP2 MSTORE PUSH2 0x41C1 JUMP JUMPDEST PUSH2 0x2EC3 PUSH1 0x40 MLOAD PUSH8 0xE2FB91A51F2CE0FA DUP5 DUP3 ADD MSTORE DUP4 DUP2 MSTORE PUSH2 0x41C1 JUMP JUMPDEST PUSH1 0x1 PUSH1 0x1 PUSH1 0xA0 SHL SUB AND SWAP1 DUP2 ISZERO PUSH2 0x2F07 JUMPI PUSH2 0x2EEF SWAP1 PUSH1 0x40 MLOAD SWAP1 PUSH8 0x4934B1871E9EC234 DUP2 DUP4 ADD MSTORE DUP2 MSTORE PUSH2 0x41C1 JUMP JUMPDEST PUSH1 0x1 PUSH1 0x1 PUSH1 0x60 SHL SUB PUSH1 0xA0 SHL PUSH1 0xA SLOAD AND OR PUSH1 0xA SSTORE PUSH1 0x0 DUP1 RETURN JUMPDEST PUSH1 0x64 SWAP1 PUSH1 0x40 MLOAD SWAP1 PUSH3 0x461BCD PUSH1 0xE5 SHL DUP3 MSTORE PUSH1 0x4 DUP3 ADD MSTORE PUSH1 0x1F PUSH1 0x24 DUP3 ADD MSTORE PUSH32 0x547265617375727920616464726573732063616E6E6F74206265207A65726F00 PUSH1 0x44 DUP3 ADD MSTORE REVERT JUMPDEST CALLVALUE PUSH2 0x229 JUMPI PUSH1 0x20 CALLDATASIZE PUSH1 0x3 NOT ADD SLT PUSH2 0x229 JUMPI PUSH1 0xE0 PUSH1 0x1 PUSH1 0x1 PUSH1 0xA0 SHL SUB DUP1 PUSH2 0x2F6F PUSH2 0x4134 JUMP JUMPDEST AND PUSH1 0x0 MSTORE PUSH1 0xB PUSH1 0x20 MSTORE PUSH1 0x40 PUSH1 0x0 KECCAK256 SWAP1 DUP2 SLOAD SWAP2 PUSH1 0x1 DUP2 ADD SLOAD SWAP2 PUSH1 0x2 DUP3 ADD SLOAD AND PUSH1 0x3 DUP3 ADD SLOAD PUSH1 0x4 DUP4 ADD SLOAD SWAP2 PUSH1 0xFF PUSH1 0x6 PUSH1 0x5 DUP7 ADD SLOAD SWAP6 ADD SLOAD AND SWAP5 PUSH1 0x40 MLOAD SWAP7 DUP8 MSTORE PUSH1 0x20 DUP8 ADD MSTORE PUSH1 0x40 DUP7 ADD MSTORE PUSH1 0x60 DUP6 ADD MSTORE PUSH1 0x80 DUP5 ADD MSTORE PUSH1 0xA0 DUP4 ADD MSTORE ISZERO ISZERO PUSH1 0xC0 DUP3 ADD MSTORE RETURN JUMPDEST CALLVALUE PUSH2 0x229 JUMPI PUSH1 0x20 DUP1 PUSH1 0x3 NOT CALLDATASIZE ADD SLT PUSH2 0x229 JUMPI PUSH1 0x4 CALLDATALOAD SWAP1 PUSH2 0x2FFF PUSH1 0x40 MLOAD PUSH8 0x32BEA349531EC59A DUP4 DUP3 ADD MSTORE DUP3 DUP2 MSTORE PUSH2 0x41C1 JUMP JUMPDEST PUSH2 0x3007 PUSH2 0x4195 JUMP JUMPDEST PUSH2 0x3022 PUSH1 0x40 MLOAD PUSH8 0xD942F247555780EF DUP4 DUP3 ADD MSTORE DUP3 DUP2 MSTORE PUSH2 0x41C1 JUMP JUMPDEST PUSH2 0x303D PUSH1 0x40 MLOAD PUSH8 0x82A52B4F1AE118A8 DUP4 DUP3 ADD MSTORE DUP3 DUP2 MSTORE PUSH2 0x41C1 JUMP JUMPDEST PUSH2 0x3058 PUSH1 0x40 MLOAD PUSH8 0x31D0B53FEE2BB0B1 DUP4 DUP3 ADD MSTORE DUP3 DUP2 MSTORE PUSH2 0x41C1 JUMP JUMPDEST PUSH2 0x3073 PUSH1 0x40 MLOAD PUSH8 0xFB2E38BEFF51ADE7 DUP4 DUP3 ADD MSTORE DUP3 DUP2 MSTORE PUSH2 0x41C1 JUMP JUMPDEST PUSH1 0x6 SLOAD DUP3 LT PUSH2 0x309D JUMPI PUSH2 0x3098 SWAP1 PUSH1 0x40 MLOAD SWAP1 PUSH8 0xB25982417D75675D DUP2 DUP4 ADD MSTORE DUP2 MSTORE PUSH2 0x41C1 JUMP JUMPDEST PUSH1 0x8 SSTORE STOP JUMPDEST PUSH1 0x64 SWAP1 PUSH1 0x40 MLOAD SWAP1 PUSH3 0x461BCD PUSH1 0xE5 SHL DUP3 MSTORE PUSH1 0x4 DUP3 ADD MSTORE PUSH1 0x11 PUSH1 0x24 DUP3 ADD MSTORE PUSH17 0x13585E0818995B1BDDC8191959985D5B1D PUSH1 0x7A SHL PUSH1 0x44 DUP3 ADD MSTORE REVERT JUMPDEST CALLVALUE PUSH2 0x229 JUMPI PUSH1 0x20 CALLDATASIZE PUSH1 0x3 NOT ADD SLT PUSH2 0x229 JUMPI PUSH2 0x30EE PUSH2 0x4134 JUMP JUMPDEST PUSH2 0x310B PUSH1 0x40 MLOAD PUSH8 0x2E8A0537C36802D PUSH1 0x20 DUP3 ADD MSTORE PUSH1 0x20 DUP2 MSTORE PUSH2 0x41C1 JUMP JUMPDEST PUSH2 0x3128 PUSH1 0x40 MLOAD PUSH8 0x6E4D33AD1E43E42D PUSH1 0x20 DUP3 ADD MSTORE PUSH1 0x20 DUP2 MSTORE PUSH2 0x41C1 JUMP JUMPDEST PUSH2 0x3145 PUSH1 0x40 MLOAD PUSH8 0xBBC804128D1C0822 PUSH1 0x20 DUP3 ADD MSTORE PUSH1 0x20 DUP2 MSTORE PUSH2 0x41C1 JUMP JUMPDEST PUSH1 0x1 DUP1 PUSH1 0xA0 SHL SUB DUP2 AND PUSH1 0x0 MSTORE PUSH1 0xB PUSH1 0x20 MSTORE PUSH1 0x40 PUSH1 0x0 KECCAK256 PUSH2 0x3178 PUSH1 0x40 MLOAD PUSH8 0xC41006B258EE2ABE PUSH1 0x20 DUP3 ADD MSTORE PUSH1 0x20 DUP2 MSTORE PUSH2 0x41C1 JUMP JUMPDEST PUSH2 0x3195 PUSH1 0x40 MLOAD PUSH8 0x325867B55BF1677E PUSH1 0x20 DUP3 ADD MSTORE PUSH1 0x20 DUP2 MSTORE PUSH2 0x41C1 JUMP JUMPDEST PUSH2 0x31B2 PUSH1 0x40 MLOAD PUSH8 0x9F7FE60EC9D19801 PUSH1 0x20 DUP3 ADD MSTORE PUSH1 0x20 DUP2 MSTORE PUSH2 0x41C1 JUMP JUMPDEST DUP1 SLOAD DUP1 ISZERO PUSH2 0x3B56 JUMPI PUSH2 0x31D7 PUSH1 0x40 MLOAD PUSH8 0x278122371F0525A3 PUSH1 0x20 DUP3 ADD MSTORE PUSH1 0x20 DUP2 MSTORE PUSH2 0x41C1 JUMP JUMPDEST PUSH2 0x31F4 PUSH1 0x40 MLOAD PUSH8 0x42AF15302AC51157 PUSH1 0x20 DUP3 ADD MSTORE PUSH1 0x20 DUP2 MSTORE PUSH2 0x41C1 JUMP JUMPDEST PUSH2 0x3211 PUSH1 0x40 MLOAD PUSH8 0xE7F269AEDA2E94FD PUSH1 0x20 DUP3 ADD MSTORE PUSH1 0x20 DUP2 MSTORE PUSH2 0x41C1 JUMP JUMPDEST PUSH2 0x322E PUSH1 0x40 MLOAD PUSH8 0x51C2299ED869CBCE PUSH1 0x20 DUP3 ADD MSTORE PUSH1 0x20 DUP2 MSTORE PUSH2 0x41C1 JUMP JUMPDEST TIMESTAMP LT PUSH2 0x3B11 JUMPI PUSH2 0x3251 PUSH1 0x40 MLOAD PUSH8 0x7BA4FAA806112904 PUSH1 0x20 DUP3 ADD MSTORE PUSH1 0x20 DUP2 MSTORE PUSH2 0x41C1 JUMP JUMPDEST PUSH2 0x326E PUSH1 0x40 MLOAD PUSH8 0xBBF5AEBA1E63046C PUSH1 0x20 DUP3 ADD MSTORE PUSH1 0x20 DUP2 MSTORE PUSH2 0x41C1 JUMP JUMPDEST PUSH2 0x328B PUSH1 0x40 MLOAD PUSH8 0xE810589DE6076C33 PUSH1 0x20 DUP3 ADD MSTORE PUSH1 0x20 DUP2 MSTORE PUSH2 0x41C1 JUMP JUMPDEST PUSH2 0x32A8 PUSH1 0x40 MLOAD PUSH8 0x9D510105289BABEE PUSH1 0x20 DUP3 ADD MSTORE PUSH1 0x20 DUP2 MSTORE PUSH2 0x41C1 JUMP JUMPDEST PUSH1 0xFF PUSH1 0x6 DUP3 ADD SLOAD AND PUSH2 0x3AD4 JUMPI PUSH2 0x32D1 PUSH1 0x40 MLOAD PUSH8 0x30A100D972047B94 PUSH1 0x20 DUP3 ADD MSTORE PUSH1 0x20 DUP2 MSTORE PUSH2 0x41C1 JUMP JUMPDEST PUSH2 0x32EE PUSH1 0x40 MLOAD PUSH8 0xB352B52E1C3A0FA4 PUSH1 0x20 DUP3 ADD MSTORE PUSH1 0x20 DUP2 MSTORE PUSH2 0x41C1 JUMP JUMPDEST PUSH2 0x330B PUSH1 0x40 MLOAD PUSH8 0xF40CB4744903FE9F PUSH1 0x20 DUP3 ADD MSTORE PUSH1 0x20 DUP2 MSTORE PUSH2 0x41C1 JUMP JUMPDEST PUSH1 0x5 DUP2 ADD SLOAD PUSH2 0x332D PUSH1 0x40 MLOAD PUSH8 0xBBC8E5986B48838E PUSH1 0x20 DUP3 ADD MSTORE PUSH1 0x20 DUP2 MSTORE PUSH2 0x41C1 JUMP JUMPDEST PUSH2 0x334A PUSH1 0x40 MLOAD PUSH8 0x442B8A20A8435F0C PUSH1 0x20 DUP3 ADD MSTORE PUSH1 0x20 DUP2 MSTORE PUSH2 0x41C1 JUMP JUMPDEST DUP1 ISZERO PUSH2 0x3AB6 JUMPI PUSH2 0x336D PUSH1 0x40 MLOAD PUSH8 0xFF393930E6F6C0C7 PUSH1 0x20 DUP3 ADD MSTORE PUSH1 0x20 DUP2 MSTORE PUSH2 0x41C1 JUMP JUMPDEST PUSH2 0x338A PUSH1 0x40 MLOAD PUSH8 0x62866F3AAFD93A73 PUSH1 0x20 DUP3 ADD MSTORE PUSH1 0x20 DUP2 MSTORE PUSH2 0x41C1 JUMP JUMPDEST PUSH2 0x33A7 PUSH1 0x40 MLOAD PUSH8 0x443A18C3DA8EB940 PUSH1 0x20 DUP3 ADD MSTORE PUSH1 0x20 DUP2 MSTORE PUSH2 0x41C1 JUMP JUMPDEST PUSH1 0x3 SHR PUSH2 0x33C7 PUSH1 0x40 MLOAD PUSH8 0x905408F79704EC43 PUSH1 0x20 DUP3 ADD MSTORE PUSH1 0x20 DUP2 MSTORE PUSH2 0x41C1 JUMP JUMPDEST PUSH2 0x33E4 PUSH1 0x40 MLOAD PUSH8 0x7EE4BDE7BED2DD40 PUSH1 0x20 DUP3 ADD MSTORE PUSH1 0x20 DUP2 MSTORE PUSH2 0x41C1 JUMP JUMPDEST DUP1 ISZERO PUSH2 0x3A93 JUMPI PUSH2 0x3407 PUSH1 0x40 MLOAD PUSH8 0x94A41DFD06DB7620 PUSH1 0x20 DUP3 ADD MSTORE PUSH1 0x20 DUP2 MSTORE PUSH2 0x41C1 JUMP JUMPDEST PUSH2 0x3424 PUSH1 0x40 MLOAD PUSH8 0x2D5383B1DD8CA53B PUSH1 0x20 DUP3 ADD MSTORE PUSH1 0x20 DUP2 MSTORE PUSH2 0x41C1 JUMP JUMPDEST PUSH1 0x20 PUSH1 0x2 DUP4 ADD PUSH1 0x1 DUP1 PUSH1 0xA0 SHL SUB DUP2 SLOAD AND PUSH1 0x0 MSTORE PUSH1 0xF DUP3 MSTORE PUSH1 0x40 PUSH1 0x0 KECCAK256 PUSH2 0x344B DUP5 DUP3 SLOAD PUSH2 0x42C4 JUMP JUMPDEST SWAP1 SSTORE PUSH2 0x3468 PUSH1 0x40 MLOAD PUSH8 0x8D93B5AC3E763B91 DUP5 DUP3 ADD MSTORE DUP4 DUP2 MSTORE PUSH2 0x41C1 JUMP JUMPDEST PUSH1 0x1 DUP1 PUSH1 0xA0 SHL SUB DUP2 SLOAD AND PUSH1 0x0 MSTORE PUSH1 0xF DUP3 MSTORE TIMESTAMP PUSH1 0x1 PUSH1 0x40 PUSH1 0x0 KECCAK256 ADD SSTORE PUSH2 0x349E PUSH1 0x40 MLOAD PUSH8 0x6E0664D55C437D03 DUP5 DUP3 ADD MSTORE DUP4 DUP2 MSTORE PUSH2 0x41C1 JUMP JUMPDEST PUSH1 0x1 DUP1 PUSH1 0xA0 SHL SUB DUP6 AND PUSH1 0x0 MSTORE PUSH1 0xF DUP3 MSTORE PUSH1 0x40 PUSH1 0x0 KECCAK256 PUSH2 0x34BE DUP5 DUP3 SLOAD PUSH2 0x42C4 JUMP JUMPDEST SWAP1 SSTORE PUSH2 0x34DB PUSH1 0x40 MLOAD PUSH8 0x5C2D86DB51D816C6 DUP5 DUP3 ADD MSTORE DUP4 DUP2 MSTORE PUSH2 0x41C1 JUMP JUMPDEST PUSH1 0x1 DUP1 PUSH1 0xA0 SHL SUB DUP6 AND PUSH1 0x0 MSTORE PUSH1 0xF DUP3 MSTORE TIMESTAMP PUSH1 0x1 PUSH1 0x40 PUSH1 0x0 KECCAK256 ADD SSTORE PUSH2 0x3510 PUSH1 0x40 MLOAD PUSH8 0x4AC3B031ED1C7E4D DUP5 DUP3 ADD MSTORE DUP4 DUP2 MSTORE PUSH2 0x41C1 JUMP JUMPDEST PUSH2 0x352B PUSH1 0x40 MLOAD PUSH8 0x7BAE3AC58EBABA55 DUP5 DUP3 ADD MSTORE DUP4 DUP2 MSTORE PUSH2 0x41C1 JUMP JUMPDEST SLOAD PUSH1 0x40 MLOAD DUP4 DUP2 MSTORE PUSH32 0xFDFA38DC30C58B0662200654EF296C1527ABBF34B03B2F908AF130D2A35DB878 SWAP3 PUSH1 0x1 PUSH1 0x1 PUSH1 0xA0 SHL SUB SWAP1 SWAP3 AND SWAP2 DUP4 SWAP2 LOG2 PUSH2 0x3580 PUSH1 0x40 MLOAD PUSH8 0x184DA28C83184A45 PUSH1 0x20 DUP3 ADD MSTORE PUSH1 0x20 DUP2 MSTORE PUSH2 0x41C1 JUMP JUMPDEST PUSH2 0x359D PUSH1 0x40 MLOAD PUSH8 0x94D5EF299C86069A PUSH1 0x20 DUP3 ADD MSTORE PUSH1 0x20 DUP2 MSTORE PUSH2 0x41C1 JUMP JUMPDEST PUSH1 0x40 MLOAD SWAP2 DUP3 MSTORE PUSH1 0x1 PUSH1 0x1 PUSH1 0xA0 SHL SUB DUP5 AND SWAP2 PUSH1 0x20 SWAP1 LOG2 JUMPDEST PUSH2 0x35D0 PUSH1 0x40 MLOAD PUSH8 0x4B2331900B32F954 PUSH1 0x20 DUP3 ADD MSTORE PUSH1 0x20 DUP2 MSTORE PUSH2 0x41C1 JUMP JUMPDEST PUSH2 0x35ED PUSH1 0x40 MLOAD PUSH8 0x9ACBEF12ECE4622A PUSH1 0x20 DUP3 ADD MSTORE PUSH1 0x20 DUP2 MSTORE PUSH2 0x41C1 JUMP JUMPDEST PUSH2 0x360A PUSH1 0x40 MLOAD PUSH8 0xD5ADDC88854A894A PUSH1 0x20 DUP3 ADD MSTORE PUSH1 0x20 DUP2 MSTORE PUSH2 0x41C1 JUMP JUMPDEST PUSH2 0x3627 PUSH1 0x40 MLOAD PUSH8 0xA10F2530E2834575 PUSH1 0x20 DUP3 ADD MSTORE PUSH1 0x20 DUP2 MSTORE PUSH2 0x41C1 JUMP JUMPDEST PUSH2 0x3644 PUSH1 0x40 MLOAD PUSH8 0xC5C1493F6E3CE697 PUSH1 0x20 DUP3 ADD MSTORE PUSH1 0x20 DUP2 MSTORE PUSH2 0x41C1 JUMP JUMPDEST PUSH1 0x1 DUP1 PUSH1 0xA0 SHL SUB DUP3 AND PUSH1 0x0 MSTORE PUSH1 0xE PUSH1 0x20 MSTORE PUSH1 0x2 PUSH1 0x40 PUSH1 0x0 KECCAK256 PUSH2 0x3679 PUSH1 0x40 MLOAD PUSH8 0x82EB721F0500B511 PUSH1 0x20 DUP3 ADD MSTORE PUSH1 0x20 DUP2 MSTORE PUSH2 0x41C1 JUMP JUMPDEST PUSH2 0x3696 PUSH1 0x40 MLOAD PUSH8 0xA109DC0763D3BE09 PUSH1 0x20 DUP3 ADD MSTORE PUSH1 0x20 DUP2 MSTORE PUSH2 0x41C1 JUMP JUMPDEST ADD DUP1 SLOAD PUSH2 0x3A70 JUMPI PUSH2 0x36BA PUSH1 0x40 MLOAD PUSH8 0xD7B747CAF0B2F84 PUSH1 0x20 DUP3 ADD MSTORE PUSH1 0x20 DUP2 MSTORE PUSH2 0x41C1 JUMP JUMPDEST PUSH2 0x36D7 PUSH1 0x40 MLOAD PUSH8 0xDECE18D831396F73 PUSH1 0x20 DUP3 ADD MSTORE PUSH1 0x20 DUP2 MSTORE PUSH2 0x41C1 JUMP JUMPDEST TIMESTAMP SWAP1 SSTORE JUMPDEST PUSH2 0x36F8 PUSH1 0x40 MLOAD PUSH8 0x760812F099BFABCE PUSH1 0x20 DUP3 ADD MSTORE PUSH1 0x20 DUP2 MSTORE PUSH2 0x41C1 JUMP JUMPDEST PUSH2 0x3715 PUSH1 0x40 MLOAD PUSH8 0x84B97F48FD6A4378 PUSH1 0x20 DUP3 ADD MSTORE PUSH1 0x20 DUP2 MSTORE PUSH2 0x41C1 JUMP JUMPDEST PUSH2 0x3732 PUSH1 0x40 MLOAD PUSH8 0xDAACE93EAD4BD0AE PUSH1 0x20 DUP3 ADD MSTORE PUSH1 0x20 DUP2 MSTORE PUSH2 0x41C1 JUMP JUMPDEST PUSH2 0x374F PUSH1 0x40 MLOAD PUSH8 0x43E93DF93016C6C3 PUSH1 0x20 DUP3 ADD MSTORE PUSH1 0x20 DUP2 MSTORE PUSH2 0x41C1 JUMP JUMPDEST PUSH2 0x376C PUSH1 0x40 MLOAD PUSH8 0xCFAD6C48F3A1F5D8 PUSH1 0x20 DUP3 ADD MSTORE PUSH1 0x20 DUP2 MSTORE PUSH2 0x41C1 JUMP JUMPDEST PUSH2 0x3775 DUP3 PUSH2 0x4BE3 JUMP JUMPDEST PUSH1 0x40 MLOAD SWAP1 DUP2 MSTORE PUSH1 0x1 PUSH1 0x1 PUSH1 0xA0 SHL SUB DUP4 AND SWAP1 PUSH1 0x0 DUP1 MLOAD PUSH1 0x20 PUSH2 0x5314 DUP4 CODECOPY DUP2 MLOAD SWAP2 MSTORE SWAP1 PUSH1 0x20 SWAP1 LOG2 PUSH2 0x37B7 PUSH1 0x40 MLOAD PUSH8 0x60DEA768A6F253FC PUSH1 0x20 DUP3 ADD MSTORE PUSH1 0x20 DUP2 MSTORE PUSH2 0x41C1 JUMP JUMPDEST PUSH2 0x37D4 PUSH1 0x40 MLOAD PUSH8 0x73416037DD79FB2F PUSH1 0x20 DUP3 ADD MSTORE PUSH1 0x20 DUP2 MSTORE PUSH2 0x41C1 JUMP JUMPDEST PUSH1 0x2 PUSH1 0x1 DUP1 PUSH1 0xA0 SHL SUB SWAP2 ADD SLOAD AND PUSH2 0x37FE PUSH1 0x40 MLOAD PUSH8 0xD5ADDC88854A894A PUSH1 0x20 DUP3 ADD MSTORE PUSH1 0x20 DUP2 MSTORE PUSH2 0x41C1 JUMP JUMPDEST PUSH2 0x381B PUSH1 0x40 MLOAD PUSH8 0xA10F2530E2834575 PUSH1 0x20 DUP3 ADD MSTORE PUSH1 0x20 DUP2 MSTORE PUSH2 0x41C1 JUMP JUMPDEST PUSH2 0x3838 PUSH1 0x40 MLOAD PUSH8 0xC5C1493F6E3CE697 PUSH1 0x20 DUP3 ADD MSTORE PUSH1 0x20 DUP2 MSTORE PUSH2 0x41C1 JUMP JUMPDEST DUP1 PUSH1 0x0 MSTORE PUSH1 0xE PUSH1 0x20 MSTORE PUSH1 0x2 PUSH1 0x40 PUSH1 0x0 KECCAK256 PUSH2 0x3865 PUSH1 0x40 MLOAD PUSH8 0x82EB721F0500B511 PUSH1 0x20 DUP3 ADD MSTORE PUSH1 0x20 DUP2 MSTORE PUSH2 0x41C1 JUMP JUMPDEST PUSH2 0x3882 PUSH1 0x40 MLOAD PUSH8 0xA109DC0763D3BE09 PUSH1 0x20 DUP3 ADD MSTORE PUSH1 0x20 DUP2 MSTORE PUSH2 0x41C1 JUMP JUMPDEST ADD DUP1 SLOAD PUSH2 0x3A4D JUMPI PUSH2 0x38A6 PUSH1 0x40 MLOAD PUSH8 0xD7B747CAF0B2F84 PUSH1 0x20 DUP3 ADD MSTORE PUSH1 0x20 DUP2 MSTORE PUSH2 0x41C1 JUMP JUMPDEST PUSH2 0x38C3 PUSH1 0x40 MLOAD PUSH8 0xDECE18D831396F73 PUSH1 0x20 DUP3 ADD MSTORE PUSH1 0x20 DUP2 MSTORE PUSH2 0x41C1 JUMP JUMPDEST TIMESTAMP SWAP1 SSTORE JUMPDEST PUSH2 0x38E4 PUSH1 0x40 MLOAD PUSH8 0x760812F099BFABCE PUSH1 0x20 DUP3 ADD MSTORE PUSH1 0x20 DUP2 MSTORE PUSH2 0x41C1 JUMP JUMPDEST PUSH2 0x3901 PUSH1 0x40 MLOAD PUSH8 0x84B97F48FD6A4378 PUSH1 0x20 DUP3 ADD MSTORE PUSH1 0x20 DUP2 MSTORE PUSH2 0x41C1 JUMP JUMPDEST PUSH2 0x391E PUSH1 0x40 MLOAD PUSH8 0xDAACE93EAD4BD0AE PUSH1 0x20 DUP3 ADD MSTORE PUSH1 0x20 DUP2 MSTORE PUSH2 0x41C1 JUMP JUMPDEST PUSH2 0x393B PUSH1 0x40 MLOAD PUSH8 0x43E93DF93016C6C3 PUSH1 0x20 DUP3 ADD MSTORE PUSH1 0x20 DUP2 MSTORE PUSH2 0x41C1 JUMP JUMPDEST PUSH2 0x3958 PUSH1 0x40 MLOAD PUSH8 0xCFAD6C48F3A1F5D8 PUSH1 0x20 DUP3 ADD MSTORE PUSH1 0x20 DUP2 MSTORE PUSH2 0x41C1 JUMP JUMPDEST PUSH1 0x0 DUP1 MLOAD PUSH1 0x20 PUSH2 0x5314 DUP4 CODECOPY DUP2 MLOAD SWAP2 MSTORE PUSH1 0x20 PUSH2 0x3972 DUP4 PUSH2 0x4BE3 JUMP JUMPDEST PUSH1 0x40 MLOAD SWAP1 DUP2 MSTORE LOG2 PUSH2 0x3996 PUSH1 0x40 MLOAD PUSH8 0x2F9FF88C02D35A6D PUSH1 0x20 DUP3 ADD MSTORE PUSH1 0x20 DUP2 MSTORE PUSH2 0x41C1 JUMP JUMPDEST PUSH1 0x1 DUP1 PUSH1 0xA0 SHL SUB DUP2 AND PUSH1 0x0 MSTORE PUSH1 0xB PUSH1 0x20 MSTORE PUSH2 0x39D9 PUSH1 0x40 PUSH1 0x0 KECCAK256 PUSH1 0x6 PUSH1 0x0 SWAP2 DUP3 DUP2 SSTORE DUP3 PUSH1 0x1 DUP3 ADD SSTORE DUP3 PUSH1 0x2 DUP3 ADD SSTORE DUP3 PUSH1 0x3 DUP3 ADD SSTORE DUP3 PUSH1 0x4 DUP3 ADD SSTORE DUP3 PUSH1 0x5 DUP3 ADD SSTORE ADD SSTORE JUMP JUMPDEST PUSH2 0x39F6 PUSH1 0x40 MLOAD PUSH8 0xCCF3E6A1FAA26328 PUSH1 0x20 DUP3 ADD MSTORE PUSH1 0x20 DUP2 MSTORE PUSH2 0x41C1 JUMP JUMPDEST PUSH2 0x3A13 PUSH1 0x40 MLOAD PUSH8 0x7D7E45270F34E167 PUSH1 0x20 DUP3 ADD MSTORE PUSH1 0x20 DUP2 MSTORE PUSH2 0x41C1 JUMP JUMPDEST PUSH1 0x40 MLOAD TIMESTAMP DUP2 MSTORE PUSH1 0x1 PUSH1 0x1 PUSH1 0xA0 SHL SUB SWAP1 SWAP2 AND SWAP1 PUSH32 0x23BD7F8191A147E373DEF338D5A76DCE96B4D2F7D15A43ECA83E3EE6E7506143 SWAP1 PUSH1 0x20 SWAP1 LOG2 STOP JUMPDEST POP PUSH2 0x3A6B PUSH1 0x40 MLOAD PUSH8 0x27630211ED80E7DD PUSH1 0x20 DUP3 ADD MSTORE PUSH1 0x20 DUP2 MSTORE PUSH2 0x41C1 JUMP JUMPDEST PUSH2 0x38C7 JUMP JUMPDEST POP PUSH2 0x3A8E PUSH1 0x40 MLOAD PUSH8 0x27630211ED80E7DD PUSH1 0x20 DUP3 ADD MSTORE PUSH1 0x20 DUP2 MSTORE PUSH2 0x41C1 JUMP JUMPDEST PUSH2 0x36DB JUMP JUMPDEST POP PUSH2 0x3AB1 PUSH1 0x40 MLOAD PUSH8 0x4BE5DD573FC7E464 PUSH1 0x20 DUP3 ADD MSTORE PUSH1 0x20 DUP2 MSTORE PUSH2 0x41C1 JUMP JUMPDEST PUSH2 0x35B3 JUMP JUMPDEST POP PUSH2 0x3AB1 PUSH1 0x40 MLOAD PUSH8 0x8C3CC096D9E93863 PUSH1 0x20 DUP3 ADD MSTORE PUSH1 0x20 DUP2 MSTORE PUSH2 0x41C1 JUMP JUMPDEST PUSH1 0x40 MLOAD PUSH3 0x461BCD PUSH1 0xE5 SHL DUP2 MSTORE PUSH1 0x20 PUSH1 0x4 DUP3 ADD MSTORE PUSH1 0x15 PUSH1 0x24 DUP3 ADD MSTORE PUSH21 0x151C985B9CD9995C881DD85CC81C995D995C9CD959 PUSH1 0x5A SHL PUSH1 0x44 DUP3 ADD MSTORE PUSH1 0x64 SWAP1 REVERT JUMPDEST PUSH1 0x40 MLOAD PUSH3 0x461BCD PUSH1 0xE5 SHL DUP2 MSTORE PUSH1 0x20 PUSH1 0x4 DUP3 ADD MSTORE PUSH1 0x18 PUSH1 0x24 DUP3 ADD MSTORE PUSH32 0x48616C664C696665206E6F742065787069726564207965740000000000000000 PUSH1 0x44 DUP3 ADD MSTORE PUSH1 0x64 SWAP1 REVERT JUMPDEST PUSH1 0x40 MLOAD PUSH3 0x461BCD PUSH1 0xE5 SHL DUP2 MSTORE PUSH1 0x20 PUSH1 0x4 DUP3 ADD MSTORE PUSH1 0x17 PUSH1 0x24 DUP3 ADD MSTORE PUSH32 0x4E6F20616374697665207472616E736665722064617461000000000000000000 PUSH1 0x44 DUP3 ADD MSTORE PUSH1 0x64 SWAP1 REVERT JUMPDEST CALLVALUE PUSH2 0x229 JUMPI PUSH1 0x0 CALLDATASIZE PUSH1 0x3 NOT ADD SLT PUSH2 0x229 JUMPI PUSH1 0x20 PUSH1 0x6 SLOAD PUSH1 0x40 MLOAD SWAP1 DUP2 MSTORE RETURN JUMPDEST CALLVALUE PUSH2 0x229 JUMPI PUSH1 0x20 CALLDATASIZE PUSH1 0x3 NOT ADD SLT PUSH2 0x229 JUMPI PUSH1 0x1 PUSH1 0x1 PUSH1 0xA0 SHL SUB PUSH2 0x3BDA PUSH2 0x4134 JUMP JUMPDEST AND PUSH1 0x0 MSTORE PUSH1 0xE PUSH1 0x20 MSTORE PUSH1 0x80 PUSH1 0x40 PUSH1 0x0 KECCAK256 DUP1 SLOAD SWAP1 PUSH1 0x1 DUP2 ADD SLOAD SWAP1 PUSH1 0x3 PUSH1 0x2 DUP3 ADD SLOAD SWAP2 ADD SLOAD SWAP2 PUSH1 0x40 MLOAD SWAP4 DUP5 MSTORE PUSH1 0x20 DUP5 ADD MSTORE PUSH1 0x40 DUP4 ADD MSTORE PUSH1 0x60 DUP3 ADD MSTORE RETURN JUMPDEST CALLVALUE PUSH2 0x229 JUMPI PUSH1 0x60 CALLDATASIZE PUSH1 0x3 NOT ADD SLT PUSH2 0x229 JUMPI PUSH2 0x3C2E PUSH2 0x414A JUMP JUMPDEST PUSH1 0x44 CALLDATALOAD SWAP1 PUSH1 0x1 PUSH1 0x1 PUSH1 0xA0 SHL SUB DUP3 AND DUP3 SUB PUSH2 0x229 JUMPI PUSH1 0x20 SWAP2 PUSH2 0xC26 SWAP2 PUSH1 0x4 CALLDATALOAD PUSH2 0x4A42 JUMP JUMPDEST CALLVALUE PUSH2 0x229 JUMPI PUSH1 0x0 CALLDATASIZE PUSH1 0x3 NOT ADD SLT PUSH2 0x229 JUMPI PUSH1 0x20 PUSH1 0x40 MLOAD PUSH1 0x12 DUP2 MSTORE RETURN JUMPDEST CALLVALUE PUSH2 0x229 JUMPI PUSH2 0x3C7B CALLDATASIZE PUSH2 0x4160 JUMP JUMPDEST SWAP1 PUSH1 0x1 DUP1 PUSH1 0xA0 SHL SUB DUP4 AND SWAP3 DUP4 PUSH1 0x0 MSTORE PUSH1 0x1 PUSH1 0x20 MSTORE PUSH1 0x40 PUSH1 0x0 KECCAK256 CALLER PUSH1 0x0 MSTORE PUSH1 0x20 MSTORE PUSH1 0x40 PUSH1 0x0 KECCAK256 SLOAD SWAP4 PUSH1 0x0 NOT DUP6 LT PUSH2 0x3CB7 JUMPI JUMPDEST POP PUSH2 0x22AD SWAP4 POP PUSH2 0x41FF JUMP JUMPDEST DUP4 DUP6 LT PUSH2 0x3D23 JUMPI DUP1 ISZERO PUSH2 0x3D0A JUMPI CALLER ISZERO PUSH2 0x3CF1 JUMPI PUSH2 0x22AD SWAP5 DUP5 SWAP2 PUSH1 0x0 MSTORE PUSH1 0x1 PUSH1 0x20 MSTORE PUSH1 0x40 PUSH1 0x0 KECCAK256 CALLER PUSH1 0x0 MSTORE PUSH1 0x20 MSTORE SUB PUSH1 0x40 PUSH1 0x0 KECCAK256 SSTORE DUP5 PUSH2 0x3CAC JUMP JUMPDEST PUSH1 0x40 MLOAD PUSH4 0x4A1406B1 PUSH1 0xE1 SHL DUP2 MSTORE PUSH1 0x0 PUSH1 0x4 DUP3 ADD MSTORE PUSH1 0x24 SWAP1 REVERT JUMPDEST PUSH1 0x40 MLOAD PUSH4 0xE602DF05 PUSH1 0xE0 SHL DUP2 MSTORE PUSH1 0x0 PUSH1 0x4 DUP3 ADD MSTORE PUSH1 0x24 SWAP1 REVERT JUMPDEST PUSH1 0x40 MLOAD PUSH4 0x7DC7A0D9 PUSH1 0xE1 SHL DUP2 MSTORE CALLER PUSH1 0x4 DUP3 ADD MSTORE PUSH1 0x24 DUP2 ADD DUP7 SWAP1 MSTORE PUSH1 0x44 DUP2 ADD DUP6 SWAP1 MSTORE PUSH1 0x64 SWAP1 REVERT JUMPDEST CALLVALUE PUSH2 0x229 JUMPI PUSH1 0x0 CALLDATASIZE PUSH1 0x3 NOT ADD SLT PUSH2 0x229 JUMPI PUSH1 0x20 PUSH1 0x2 SLOAD PUSH1 0x40 MLOAD SWAP1 DUP2 MSTORE RETURN JUMPDEST CALLVALUE PUSH2 0x229 JUMPI PUSH1 0x20 DUP1 PUSH1 0x3 NOT CALLDATASIZE ADD SLT PUSH2 0x229 JUMPI PUSH1 0x4 CALLDATALOAD SWAP1 PUSH2 0x3D98 PUSH1 0x40 MLOAD PUSH8 0xC9D9D5274E1E8187 DUP4 DUP3 ADD MSTORE DUP3 DUP2 MSTORE PUSH2 0x41C1 JUMP JUMPDEST PUSH2 0x3DA0 PUSH2 0x4195 JUMP JUMPDEST PUSH2 0x3DBB PUSH1 0x40 MLOAD PUSH8 0x7F754825A5BEAFA0 DUP4 DUP3 ADD MSTORE DUP3 DUP2 MSTORE PUSH2 0x41C1 JUMP JUMPDEST PUSH2 0x3DD6 PUSH1 0x40 MLOAD PUSH8 0xAEC113238725CE15 DUP4 DUP3 ADD MSTORE DUP3 DUP2 MSTORE PUSH2 0x41C1 JUMP JUMPDEST PUSH2 0x3DF1 PUSH1 0x40 MLOAD PUSH8 0x50EB2D8E26ED63B7 DUP4 DUP3 ADD MSTORE DUP3 DUP2 MSTORE PUSH2 0x41C1 JUMP JUMPDEST PUSH2 0x3E0C PUSH1 0x40 MLOAD PUSH8 0x6A843E43D3D19269 DUP4 DUP3 ADD MSTORE DUP3 DUP2 MSTORE PUSH2 0x41C1 JUMP JUMPDEST PUSH1 0x7 SLOAD DUP3 LT PUSH2 0x3EC4 JUMPI PUSH2 0x3E30 PUSH1 0x40 MLOAD PUSH8 0x2B46AB474944969D DUP4 DUP3 ADD MSTORE DUP3 DUP2 MSTORE PUSH2 0x41C1 JUMP JUMPDEST PUSH2 0x3E4B PUSH1 0x40 MLOAD PUSH8 0xFB8B43EAB98CB2C7 DUP4 DUP3 ADD MSTORE DUP3 DUP2 MSTORE PUSH2 0x41C1 JUMP JUMPDEST PUSH2 0x3E66 PUSH1 0x40 MLOAD PUSH8 0x2B26011CC4D60675 DUP4 DUP3 ADD MSTORE DUP3 DUP2 MSTORE PUSH2 0x41C1 JUMP JUMPDEST PUSH1 0x8 SLOAD DUP3 GT PUSH2 0x3E90 JUMPI PUSH2 0x3E8B SWAP1 PUSH1 0x40 MLOAD SWAP1 PUSH8 0x87E93E875E9B4E9E DUP2 DUP4 ADD MSTORE DUP2 MSTORE PUSH2 0x41C1 JUMP JUMPDEST PUSH1 0x6 SSTORE STOP JUMPDEST PUSH1 0x64 SWAP1 PUSH1 0x40 MLOAD SWAP1 PUSH3 0x461BCD PUSH1 0xE5 SHL DUP3 MSTORE PUSH1 0x4 DUP3 ADD MSTORE PUSH1 0xD PUSH1 0x24 DUP3 ADD MSTORE PUSH13 0x41626F7665206D6178696D756D PUSH1 0x98 SHL PUSH1 0x44 DUP3 ADD MSTORE REVERT JUMPDEST PUSH1 0x64 SWAP1 PUSH1 0x40 MLOAD SWAP1 PUSH3 0x461BCD PUSH1 0xE5 SHL DUP3 MSTORE PUSH1 0x4 DUP3 ADD MSTORE PUSH1 0xD PUSH1 0x24 DUP3 ADD MSTORE PUSH13 0x42656C6F77206D696E696D756D PUSH1 0x98 SHL PUSH1 0x44 DUP3 ADD MSTORE REVERT JUMPDEST CALLVALUE PUSH2 0x229 JUMPI PUSH1 0x20 CALLDATASIZE PUSH1 0x3 NOT ADD SLT PUSH2 0x229 JUMPI PUSH1 0x1 PUSH1 0x1 PUSH1 0xA0 SHL SUB PUSH2 0x3F19 PUSH2 0x4134 JUMP JUMPDEST AND PUSH1 0x0 MSTORE PUSH1 0xF PUSH1 0x20 MSTORE PUSH1 0x40 DUP1 PUSH1 0x0 KECCAK256 PUSH1 0x1 DUP2 SLOAD SWAP2 ADD SLOAD DUP3 MLOAD SWAP2 DUP3 MSTORE PUSH1 0x20 DUP3 ADD MSTORE RETURN JUMPDEST CALLVALUE PUSH2 0x229 JUMPI PUSH1 0x40 CALLDATASIZE PUSH1 0x3 NOT ADD SLT PUSH2 0x229 JUMPI PUSH2 0x3F54 PUSH2 0x4134 JUMP JUMPDEST PUSH1 0x24 CALLDATALOAD SWAP1 CALLER ISZERO PUSH2 0x3D0A JUMPI PUSH1 0x1 PUSH1 0x1 PUSH1 0xA0 SHL SUB AND SWAP1 DUP2 ISZERO PUSH2 0x3CF1 JUMPI CALLER PUSH1 0x0 MSTORE PUSH1 0x1 PUSH1 0x20 MSTORE PUSH1 0x40 PUSH1 0x0 KECCAK256 DUP3 PUSH1 0x0 MSTORE PUSH1 0x20 MSTORE DUP1 PUSH1 0x40 PUSH1 0x0 KECCAK256 SSTORE PUSH1 0x40 MLOAD SWAP1 DUP2 MSTORE PUSH32 0x8C5BE1E5EBEC7D5BD14F71427D1E84F3DD0314C0F7B2291E5B200AC8C7C3B925 PUSH1 0x20 CALLER SWAP3 LOG3 PUSH1 0x20 PUSH1 0x40 MLOAD PUSH1 0x1 DUP2 MSTORE RETURN JUMPDEST CALLVALUE PUSH2 0x229 JUMPI PUSH1 0x20 CALLDATASIZE PUSH1 0x3 NOT ADD SLT PUSH2 0x229 JUMPI PUSH1 0x1 PUSH1 0x1 PUSH1 0xA0 SHL SUB PUSH2 0x3FE2 PUSH2 0x4134 JUMP JUMPDEST AND PUSH1 0x0 MSTORE PUSH1 0xC PUSH1 0x20 MSTORE PUSH1 0x60 PUSH1 0x40 PUSH1 0x0 KECCAK256 DUP1 SLOAD SWAP1 PUSH1 0x2 PUSH1 0x1 DUP3 ADD SLOAD SWAP2 ADD SLOAD SWAP1 PUSH1 0x40 MLOAD SWAP3 DUP4 MSTORE PUSH1 0x20 DUP4 ADD MSTORE PUSH1 0x40 DUP3 ADD MSTORE RETURN JUMPDEST CALLVALUE PUSH2 0x229 JUMPI PUSH1 0x0 CALLDATASIZE PUSH1 0x3 NOT ADD SLT PUSH2 0x229 JUMPI PUSH1 0x40 MLOAD PUSH1 0x0 SWAP1 PUSH1 0x3 SLOAD PUSH1 0x1 DUP2 DUP2 SHR SWAP1 DUP1 DUP4 AND SWAP3 DUP4 ISZERO PUSH2 0x40C6 JUMPI JUMPDEST PUSH1 0x20 SWAP4 DUP5 DUP5 LT DUP2 EQ PUSH2 0x2751 JUMPI DUP4 DUP7 MSTORE SWAP1 DUP2 ISZERO PUSH2 0x2731 JUMPI POP PUSH1 0x1 EQ PUSH2 0x406B JUMPI PUSH2 0x26D2 DUP5 PUSH2 0x26C6 DUP2 DUP9 SUB DUP3 PUSH2 0x41DD JUMP JUMPDEST PUSH1 0x3 PUSH1 0x0 SWAP1 DUP2 MSTORE SWAP3 SWAP5 POP PUSH32 0xC2575A0E9E593C00F959F8C92F12DB2869C3395A3B0502D05E2516446F71F85B JUMPDEST DUP3 DUP5 LT PUSH2 0x40B3 JUMPI POP POP POP DUP2 PUSH2 0x26D2 SWAP4 PUSH2 0x26C6 SWAP3 DUP3 ADD ADD SWAP4 PUSH2 0x26B6 JUMP JUMPDEST DUP1 SLOAD DUP6 DUP6 ADD DUP8 ADD MSTORE SWAP3 DUP6 ADD SWAP3 DUP2 ADD PUSH2 0x4097 JUMP JUMPDEST SWAP2 PUSH1 0x7F AND SWAP2 PUSH2 0x403D JUMP JUMPDEST CALLVALUE PUSH2 0x229 JUMPI PUSH1 0x0 CALLDATASIZE PUSH1 0x3 NOT ADD SLT PUSH2 0x229 JUMPI PUSH1 0x20 SWAP1 PUSH1 0x9 SLOAD DUP2 MSTORE RETURN JUMPDEST PUSH1 0x20 DUP1 DUP3 MSTORE DUP3 MLOAD DUP2 DUP4 ADD DUP2 SWAP1 MSTORE SWAP1 SWAP4 SWAP3 PUSH1 0x0 JUMPDEST DUP3 DUP2 LT PUSH2 0x4120 JUMPI POP POP PUSH1 0x40 SWAP3 SWAP4 POP PUSH1 0x0 DUP4 DUP3 DUP5 ADD ADD MSTORE PUSH1 0x1F DUP1 NOT SWAP2 ADD AND ADD ADD SWAP1 JUMP JUMPDEST DUP2 DUP2 ADD DUP7 ADD MLOAD DUP5 DUP3 ADD PUSH1 0x40 ADD MSTORE DUP6 ADD PUSH2 0x40FE JUMP JUMPDEST PUSH1 0x4 CALLDATALOAD SWAP1 PUSH1 0x1 PUSH1 0x1 PUSH1 0xA0 SHL SUB DUP3 AND DUP3 SUB PUSH2 0x229 JUMPI JUMP JUMPDEST PUSH1 0x24 CALLDATALOAD SWAP1 PUSH1 0x1 PUSH1 0x1 PUSH1 0xA0 SHL SUB DUP3 AND DUP3 SUB PUSH2 0x229 JUMPI JUMP JUMPDEST PUSH1 0x60 SWAP1 PUSH1 0x3 NOT ADD SLT PUSH2 0x229 JUMPI PUSH1 0x1 PUSH1 0x1 PUSH1 0xA0 SHL SUB SWAP1 PUSH1 0x4 CALLDATALOAD DUP3 DUP2 AND DUP2 SUB PUSH2 0x229 JUMPI SWAP2 PUSH1 0x24 CALLDATALOAD SWAP1 DUP2 AND DUP2 SUB PUSH2 0x229 JUMPI SWAP1 PUSH1 0x44 CALLDATALOAD SWAP1 JUMP JUMPDEST PUSH1 0x5 SLOAD PUSH1 0x1 PUSH1 0x1 PUSH1 0xA0 SHL SUB AND CALLER SUB PUSH2 0x41A9 JUMPI JUMP JUMPDEST PUSH1 0x40 MLOAD PUSH4 0x118CDAA7 PUSH1 0xE0 SHL DUP2 MSTORE CALLER PUSH1 0x4 DUP3 ADD MSTORE PUSH1 0x24 SWAP1 REVERT JUMPDEST PUSH1 0x40 DUP2 ADD SWAP1 DUP2 LT PUSH8 0xFFFFFFFFFFFFFFFF DUP3 GT OR PUSH2 0x22EF JUMPI PUSH1 0x40 MSTORE JUMP JUMPDEST SWAP1 PUSH1 0x1F DUP1 NOT SWAP2 ADD AND DUP2 ADD SWAP1 DUP2 LT PUSH8 0xFFFFFFFFFFFFFFFF DUP3 GT OR PUSH2 0x22EF JUMPI PUSH1 0x40 MSTORE JUMP JUMPDEST SWAP2 PUSH1 0x1 PUSH1 0x1 PUSH1 0xA0 SHL SUB DUP1 DUP5 AND SWAP3 DUP4 ISZERO PUSH2 0x42AB JUMPI AND SWAP3 DUP4 ISZERO PUSH2 0x2499 JUMPI PUSH1 0x0 SWAP1 DUP4 DUP3 MSTORE DUP2 PUSH1 0x20 MSTORE PUSH1 0x40 DUP3 KECCAK256 SLOAD SWAP1 DUP4 DUP3 LT PUSH2 0x4279 JUMPI POP SWAP2 PUSH1 0x40 DUP3 DUP3 PUSH32 0xDDF252AD1BE2C89B69C2B068FC378DAA952BA7F163C4A11628F55A4DF523B3EF SWAP6 DUP8 PUSH1 0x20 SWAP7 MSTORE DUP3 DUP7 MSTORE SUB DUP3 DUP3 KECCAK256 SSTORE DUP7 DUP2 MSTORE KECCAK256 DUP2 DUP2 SLOAD ADD SWAP1 SSTORE PUSH1 0x40 MLOAD SWAP1 DUP2 MSTORE LOG3 JUMP JUMPDEST PUSH1 0x40 MLOAD PUSH4 0x391434E3 PUSH1 0xE2 SHL DUP2 MSTORE PUSH1 0x1 PUSH1 0x1 PUSH1 0xA0 SHL SUB SWAP2 SWAP1 SWAP2 AND PUSH1 0x4 DUP3 ADD MSTORE PUSH1 0x24 DUP2 ADD SWAP2 SWAP1 SWAP2 MSTORE PUSH1 0x44 DUP2 ADD DUP4 SWAP1 MSTORE PUSH1 0x64 SWAP1 REVERT JUMPDEST PUSH1 0x40 MLOAD PUSH4 0x4B637E8F PUSH1 0xE1 SHL DUP2 MSTORE PUSH1 0x0 PUSH1 0x4 DUP3 ADD MSTORE PUSH1 0x24 SWAP1 REVERT JUMPDEST SWAP2 SWAP1 DUP3 ADD DUP1 SWAP3 GT PUSH2 0x2305 JUMPI JUMP JUMPDEST DUP2 DUP2 MUL SWAP3 SWAP2 DUP2 ISZERO SWAP2 DUP5 DIV EQ OR ISZERO PUSH2 0x2305 JUMPI JUMP JUMPDEST SWAP2 SWAP1 DUP3 SUB SWAP2 DUP3 GT PUSH2 0x2305 JUMPI JUMP JUMPDEST PUSH1 0x0 NOT DUP2 EQ PUSH2 0x2305 JUMPI PUSH1 0x1 ADD SWAP1 JUMP JUMPDEST PUSH1 0x40 DUP1 MLOAD SWAP2 PUSH2 0x4320 PUSH1 0x20 SWAP4 PUSH8 0x389ACB82F04218DD DUP6 DUP3 ADD MSTORE DUP5 DUP2 MSTORE PUSH2 0x41C1 JUMP JUMPDEST PUSH2 0x433A DUP3 MLOAD PUSH8 0xA64B6E6073897A1D DUP6 DUP3 ADD MSTORE DUP5 DUP2 MSTORE PUSH2 0x41C1 JUMP JUMPDEST PUSH2 0x4354 DUP3 MLOAD PUSH8 0xDEEFD87FE362BD2 DUP6 DUP3 ADD MSTORE DUP5 DUP2 MSTORE PUSH2 0x41C1 JUMP JUMPDEST DUP1 PUSH2 0x4394 JUMPI POP SWAP1 DUP2 PUSH2 0x4379 PUSH2 0x438F SWAP4 MLOAD PUSH8 0xA921CF7E3FD0C5FD DUP5 DUP3 ADD MSTORE DUP4 DUP2 MSTORE PUSH2 0x41C1 JUMP JUMPDEST MLOAD SWAP1 PUSH8 0xE3D1BE3BE2D16547 DUP2 DUP4 ADD MSTORE DUP2 MSTORE PUSH2 0x41C1 JUMP JUMPDEST PUSH1 0x0 SWAP1 JUMP JUMPDEST PUSH2 0x43AE DUP3 MLOAD PUSH8 0x5992E00687CA3E76 DUP6 DUP3 ADD MSTORE DUP5 DUP2 MSTORE PUSH2 0x41C1 JUMP JUMPDEST PUSH2 0x43C8 DUP3 MLOAD PUSH8 0xCDB0EE10F4C9C15D DUP6 DUP3 ADD MSTORE DUP5 DUP2 MSTORE PUSH2 0x41C1 JUMP JUMPDEST PUSH2 0x43E2 DUP3 MLOAD PUSH8 0x27348274F88C3005 DUP6 DUP3 ADD MSTORE DUP5 DUP2 MSTORE PUSH2 0x41C1 JUMP JUMPDEST PUSH2 0x43FC DUP3 MLOAD PUSH8 0xB858556CCFE9BB19 DUP6 DUP3 ADD MSTORE DUP5 DUP2 MSTORE PUSH2 0x41C1 JUMP JUMPDEST PUSH2 0x4416 DUP3 MLOAD PUSH8 0x8839B622453A12F0 DUP6 DUP3 ADD MSTORE DUP5 DUP2 MSTORE PUSH2 0x41C1 JUMP JUMPDEST SWAP2 PUSH2 0x4431 DUP3 MLOAD PUSH8 0xBDE9ED4428121F97 DUP4 DUP3 ADD MSTORE DUP3 DUP2 MSTORE PUSH2 0x41C1 JUMP JUMPDEST PUSH2 0x444B DUP3 MLOAD PUSH8 0x7363A306D628AC0A DUP4 DUP3 ADD MSTORE DUP3 DUP2 MSTORE PUSH2 0x41C1 JUMP JUMPDEST PUSH1 0x0 SWAP2 PUSH2 0x4468 DUP2 MLOAD PUSH8 0x308A2EC9783D40B4 DUP5 DUP3 ADD MSTORE DUP4 DUP2 MSTORE PUSH2 0x41C1 JUMP JUMPDEST PUSH2 0x4482 DUP2 MLOAD PUSH8 0xBDC0314B1BF9CB68 DUP5 DUP3 ADD MSTORE DUP4 DUP2 MSTORE PUSH2 0x41C1 JUMP JUMPDEST PUSH8 0xDE0B6B3A7640000 SWAP4 PUSH2 0x44A6 DUP3 MLOAD PUSH8 0x500244F8A871914B DUP6 DUP3 ADD MSTORE DUP5 DUP2 MSTORE PUSH2 0x41C1 JUMP JUMPDEST PUSH2 0x44C0 DUP3 MLOAD PUSH8 0x396E7F587B2F920E DUP6 DUP3 ADD MSTORE DUP5 DUP2 MSTORE PUSH2 0x41C1 JUMP JUMPDEST DUP4 SWAP1 PUSH2 0x44DC DUP4 MLOAD PUSH8 0xAD0DE8EB650E0BD6 DUP7 DUP3 ADD MSTORE DUP6 DUP2 MSTORE PUSH2 0x41C1 JUMP JUMPDEST PUSH2 0x44F6 DUP4 MLOAD PUSH8 0xBD3CB7F74470103 DUP7 DUP3 ADD MSTORE DUP6 DUP2 MSTORE PUSH2 0x41C1 JUMP JUMPDEST PUSH3 0x989680 SWAP2 PUSH2 0x4515 DUP5 MLOAD PUSH8 0x572FC01744F07603 DUP8 DUP3 ADD MSTORE DUP7 DUP2 MSTORE PUSH2 0x41C1 JUMP JUMPDEST DUP2 PUSH2 0x4530 DUP6 MLOAD PUSH8 0xC665E927B0C6882D DUP9 DUP3 ADD MSTORE DUP8 DUP2 MSTORE PUSH2 0x41C1 JUMP JUMPDEST PUSH2 0x4571 JUMPI JUMPDEST POP POP POP PUSH2 0x456E SWAP3 SWAP4 POP PUSH2 0x4558 DUP2 MLOAD PUSH8 0x40DEA02ACD3D6514 DUP5 DUP3 ADD MSTORE DUP4 DUP2 MSTORE PUSH2 0x41C1 JUMP JUMPDEST MLOAD SWAP1 PUSH8 0xE9DEC1C2850540CF DUP2 DUP4 ADD MSTORE DUP2 MSTORE PUSH2 0x41C1 JUMP JUMPDEST SWAP1 JUMP JUMPDEST PUSH2 0x458B DUP5 MLOAD PUSH8 0x3202BD016E9D7D15 DUP8 DUP3 ADD MSTORE DUP7 DUP2 MSTORE PUSH2 0x41C1 JUMP JUMPDEST PUSH2 0x45A5 DUP5 MLOAD PUSH8 0xE495120E371FA475 DUP8 DUP3 ADD MSTORE DUP7 DUP2 MSTORE PUSH2 0x41C1 JUMP JUMPDEST PUSH2 0x45BF DUP5 MLOAD PUSH8 0x15B52406CE520C28 DUP8 DUP3 ADD MSTORE DUP7 DUP2 MSTORE PUSH2 0x41C1 JUMP JUMPDEST PUSH2 0x45D9 DUP5 MLOAD PUSH8 0xACE441909B614728 DUP8 DUP3 ADD MSTORE DUP7 DUP2 MSTORE PUSH2 0x41C1 JUMP JUMPDEST PUSH2 0x45E3 DUP2 DUP9 PUSH2 0x42E4 JUMP JUMPDEST SWAP1 PUSH2 0x45FE DUP6 MLOAD PUSH8 0x419239A1CB6F5EB9 DUP9 DUP3 ADD MSTORE DUP8 DUP2 MSTORE PUSH2 0x41C1 JUMP JUMPDEST PUSH2 0x4618 DUP6 MLOAD PUSH8 0x173476B9D81BD2CE DUP9 DUP3 ADD MSTORE DUP8 DUP2 MSTORE PUSH2 0x41C1 JUMP JUMPDEST DUP8 LT ISZERO PUSH2 0x464B JUMPI POP POP POP PUSH2 0x456E SWAP3 SWAP4 POP PUSH2 0x4642 DUP2 MLOAD PUSH8 0x4A372CB91CFDE80 DUP5 DUP3 ADD MSTORE DUP4 DUP2 MSTORE PUSH2 0x41C1 JUMP JUMPDEST DUP4 SWAP3 CODESIZE DUP1 PUSH2 0x4535 JUMP JUMPDEST PUSH2 0x4665 DUP5 MLOAD PUSH8 0x8B2BE7130C5972A9 DUP8 DUP3 ADD MSTORE DUP7 DUP2 MSTORE PUSH2 0x41C1 JUMP JUMPDEST PUSH2 0x467F DUP5 MLOAD PUSH8 0xE3E8E7A30EFC6103 DUP8 DUP3 ADD MSTORE DUP7 DUP2 MSTORE PUSH2 0x41C1 JUMP JUMPDEST PUSH2 0x4699 DUP5 MLOAD PUSH8 0x544AD5232C1F1BA6 DUP8 DUP3 ADD MSTORE DUP7 DUP2 MSTORE PUSH2 0x41C1 JUMP JUMPDEST DUP1 PUSH2 0x46C1 JUMPI POP POP POP PUSH2 0x456E SWAP3 SWAP4 POP PUSH2 0x4642 DUP2 MLOAD PUSH8 0x11D4BCDDF71D5C9A DUP5 DUP3 ADD MSTORE DUP4 DUP2 MSTORE PUSH2 0x41C1 JUMP JUMPDEST SWAP5 DUP4 SWAP6 PUSH2 0x46DF DUP5 SWAP6 MLOAD PUSH8 0x8D1A316BEDE48FD9 DUP9 DUP3 ADD MSTORE DUP8 DUP2 MSTORE PUSH2 0x41C1 JUMP JUMPDEST PUSH2 0x46F9 DUP8 MLOAD PUSH8 0x61B239133EC954EE DUP9 DUP3 ADD MSTORE DUP8 DUP2 MSTORE PUSH2 0x41C1 JUMP JUMPDEST PUSH2 0x4713 DUP8 MLOAD PUSH8 0x482B9FEE438ED9CB DUP9 DUP3 ADD MSTORE DUP8 DUP2 MSTORE PUSH2 0x41C1 JUMP JUMPDEST DUP1 DUP4 GT ISZERO PUSH2 0x4A19 JUMPI SWAP1 PUSH2 0x4744 PUSH2 0x47A9 SWAP3 PUSH2 0x473D DUP10 MLOAD PUSH8 0x57A2B0F7F6656048 DUP11 DUP3 ADD MSTORE DUP10 DUP2 MSTORE PUSH2 0x41C1 JUMP JUMPDEST DUP1 SWAP5 PUSH2 0x42E4 JUMP JUMPDEST SWAP3 JUMPDEST PUSH2 0x4760 DUP9 MLOAD PUSH8 0xB394E2AC30BCF974 DUP10 DUP3 ADD MSTORE DUP9 DUP2 MSTORE PUSH2 0x41C1 JUMP JUMPDEST PUSH2 0x477A DUP9 MLOAD PUSH8 0xA39303225F22FCF1 DUP10 DUP3 ADD MSTORE DUP9 DUP2 MSTORE PUSH2 0x41C1 JUMP JUMPDEST PUSH2 0x4788 PUSH2 0x2710 SWAP7 DUP8 SWAP3 PUSH2 0x42D1 JUMP JUMPDEST DIV SWAP1 PUSH2 0x47A4 DUP9 MLOAD PUSH8 0xA8C4E81D2E0DF164 DUP10 DUP3 ADD MSTORE DUP9 DUP2 MSTORE PUSH2 0x41C1 JUMP JUMPDEST PUSH2 0x42C4 JUMP JUMPDEST SWAP6 PUSH2 0x47C4 DUP7 MLOAD PUSH8 0xE739FF3F0295C8AE DUP8 DUP3 ADD MSTORE DUP7 DUP2 MSTORE PUSH2 0x41C1 JUMP JUMPDEST DUP1 PUSH2 0x47DF DUP8 MLOAD PUSH8 0x7D5092E63FCB287F DUP9 DUP3 ADD MSTORE DUP8 DUP2 MSTORE PUSH2 0x41C1 JUMP JUMPDEST PUSH2 0x47F9 DUP8 MLOAD PUSH8 0x1A5552CD34F02736 DUP9 DUP3 ADD MSTORE DUP8 DUP2 MSTORE PUSH2 0x41C1 JUMP JUMPDEST PUSH1 0xA SWAP1 DUP2 DUP2 MUL SWAP1 DUP1 ISZERO SWAP1 DUP1 DUP4 DIV DUP5 EQ DUP3 OR ISZERO PUSH2 0x2305 JUMPI PUSH2 0x4829 DUP11 MLOAD PUSH8 0x42C16A190DA09839 DUP12 DUP3 ADD MSTORE DUP11 DUP2 MSTORE PUSH2 0x41C1 JUMP JUMPDEST PUSH2 0x4843 DUP11 MLOAD PUSH8 0xBE9170D5967FE50E DUP12 DUP3 ADD MSTORE DUP11 DUP2 MSTORE PUSH2 0x41C1 JUMP JUMPDEST DUP4 DUP4 DIV EQ ISZERO SWAP1 DUP2 PUSH2 0x4A10 JUMPI JUMPDEST POP ISZERO PUSH2 0x493C JUMPI POP POP POP PUSH2 0x4872 DUP6 MLOAD PUSH8 0x74BE09F95CB5AFC6 DUP7 DUP3 ADD MSTORE DUP6 DUP2 MSTORE PUSH2 0x41C1 JUMP JUMPDEST PUSH2 0x488C DUP6 MLOAD PUSH8 0xB19ED8C37F889D65 DUP7 DUP3 ADD MSTORE DUP6 DUP2 MSTORE PUSH2 0x41C1 JUMP JUMPDEST PUSH2 0x48A6 DUP6 MLOAD PUSH8 0x4B24489668391BFF DUP7 DUP3 ADD MSTORE DUP6 DUP2 MSTORE PUSH2 0x41C1 JUMP JUMPDEST DUP1 ISZERO PUSH2 0x4916 JUMPI SWAP2 PUSH2 0x48F3 DUP6 SWAP7 SWAP3 PUSH2 0x48FA SWAP5 PUSH2 0x48D4 PUSH2 0x456E SWAP9 MLOAD PUSH8 0xB5201AFE1C71D659 DUP10 DUP3 ADD MSTORE DUP9 DUP2 MSTORE PUSH2 0x41C1 JUMP JUMPDEST PUSH2 0x48EE DUP10 MLOAD PUSH8 0x58A42AF4AAC43EBF DUP10 DUP3 ADD MSTORE DUP9 DUP2 MSTORE PUSH2 0x41C1 JUMP JUMPDEST PUSH2 0x42D1 JUMP JUMPDEST DIV SWAP1 PUSH2 0x42C4 JUMP JUMPDEST SWAP3 JUMPDEST PUSH2 0x4642 DUP2 MLOAD PUSH8 0x5BD7CB4F0F45CF15 DUP5 DUP3 ADD MSTORE DUP4 DUP2 MSTORE PUSH2 0x41C1 JUMP JUMPDEST POP POP POP DUP2 PUSH2 0x4937 PUSH2 0x456E SWAP4 MLOAD PUSH8 0x3C2E5CD7DC3C2E17 DUP5 DUP3 ADD MSTORE DUP4 DUP2 MSTORE PUSH2 0x41C1 JUMP JUMPDEST PUSH2 0x48FC JUMP JUMPDEST SWAP1 SWAP2 SWAP4 SWAP8 SWAP7 SWAP5 POP PUSH2 0x495D DUP6 MLOAD PUSH8 0x1F3406B13E9A7134 DUP9 DUP3 ADD MSTORE DUP8 DUP2 MSTORE PUSH2 0x41C1 JUMP JUMPDEST PUSH2 0x4977 DUP6 MLOAD PUSH8 0xA55B05EA151C80A3 DUP9 DUP3 ADD MSTORE DUP8 DUP2 MSTORE PUSH2 0x41C1 JUMP JUMPDEST SWAP7 PUSH2 0x4992 DUP6 MLOAD PUSH8 0x1E707F0609EF4EE2 DUP9 DUP3 ADD MSTORE DUP8 DUP2 MSTORE PUSH2 0x41C1 JUMP JUMPDEST DIV SWAP2 PUSH2 0x49AE DUP5 MLOAD PUSH8 0x83281294EF9C808C DUP8 DUP3 ADD MSTORE DUP7 DUP2 MSTORE PUSH2 0x41C1 JUMP JUMPDEST PUSH2 0x49C8 DUP5 MLOAD PUSH8 0xE400E4957C589319 DUP8 DUP3 ADD MSTORE DUP7 DUP2 MSTORE PUSH2 0x41C1 JUMP JUMPDEST DUP3 PUSH2 0x49F0 JUMPI POP POP POP PUSH2 0x456E SWAP3 SWAP4 POP PUSH2 0x4642 DUP2 MLOAD PUSH8 0xC4B6BEAAD738D864 DUP5 DUP3 ADD MSTORE DUP4 DUP2 MSTORE PUSH2 0x41C1 JUMP JUMPDEST DUP2 PUSH2 0x4A0B DUP6 MLOAD PUSH8 0x6E944265029F383A DUP9 DUP3 ADD MSTORE DUP8 DUP2 MSTORE PUSH2 0x41C1 JUMP JUMPDEST PUSH2 0x4530 JUMP JUMPDEST SWAP1 POP ISZERO CODESIZE PUSH2 0x484F JUMP JUMPDEST POP SWAP1 PUSH2 0x47A9 SWAP1 PUSH2 0x4A39 DUP8 MLOAD PUSH8 0xFCEDB089CA49EB26 DUP9 DUP3 ADD MSTORE DUP8 DUP2 MSTORE PUSH2 0x41C1 JUMP JUMPDEST SWAP2 PUSH1 0x0 SWAP3 PUSH2 0x4746 JUMP JUMPDEST SWAP1 PUSH2 0x2710 PUSH2 0x4B5D PUSH2 0x456E SWAP4 PUSH1 0x40 SWAP6 PUSH2 0x4ADD PUSH2 0x4AA8 DUP9 MLOAD SWAP7 PUSH2 0x4A74 PUSH1 0x20 SWAP9 PUSH8 0xA2146DEA2604361C DUP11 DUP3 ADD MSTORE DUP10 DUP2 MSTORE PUSH2 0x41C1 JUMP JUMPDEST PUSH2 0x4A8E DUP11 MLOAD PUSH8 0x460DF709D4DBF187 DUP11 DUP3 ADD MSTORE DUP10 DUP2 MSTORE PUSH2 0x41C1 JUMP JUMPDEST PUSH2 0x2C63 DUP11 MLOAD PUSH8 0x2B23B5FDF398D50 DUP11 DUP3 ADD MSTORE DUP10 DUP2 MSTORE PUSH2 0x41C1 JUMP JUMPDEST SWAP2 PUSH2 0x4AC3 DUP10 MLOAD PUSH8 0xC15641C67E22ECF6 DUP10 DUP3 ADD MSTORE DUP9 DUP2 MSTORE PUSH2 0x41C1 JUMP JUMPDEST PUSH2 0x2C63 DUP10 MLOAD PUSH8 0xA527B50ADF727C04 DUP10 DUP3 ADD MSTORE DUP9 DUP2 MSTORE PUSH2 0x41C1 JUMP JUMPDEST PUSH2 0x4AF7 DUP9 MLOAD PUSH8 0xDAEA89A6324AD31C DUP9 DUP3 ADD MSTORE DUP8 DUP2 MSTORE PUSH2 0x41C1 JUMP JUMPDEST PUSH2 0x4B11 DUP9 MLOAD PUSH8 0x7C21B085B3E4BCC0 DUP9 DUP3 ADD MSTORE DUP8 DUP2 MSTORE PUSH2 0x41C1 JUMP JUMPDEST DUP1 DUP3 GT DUP1 ISZERO PUSH2 0x4BBD JUMPI JUMPDEST DUP1 PUSH2 0x4B97 JUMPI JUMPDEST ISZERO PUSH2 0x4B8F JUMPI POP SWAP1 JUMPDEST PUSH2 0x4B43 DUP8 MLOAD PUSH8 0x73C962773EB181F5 DUP8 DUP3 ADD MSTORE DUP7 DUP2 MSTORE PUSH2 0x41C1 JUMP JUMPDEST PUSH2 0x48EE DUP8 MLOAD PUSH8 0xC63BFD15DE6467A2 DUP8 DUP3 ADD MSTORE DUP7 DUP2 MSTORE PUSH2 0x41C1 JUMP JUMPDEST DIV SWAP3 PUSH2 0x4B79 DUP2 MLOAD PUSH8 0x3DD04F0713116362 DUP5 DUP3 ADD MSTORE DUP4 DUP2 MSTORE PUSH2 0x41C1 JUMP JUMPDEST MLOAD SWAP1 PUSH8 0x31171B87078AC22D DUP2 DUP4 ADD MSTORE DUP2 MSTORE PUSH2 0x41C1 JUMP JUMPDEST SWAP1 POP SWAP1 PUSH2 0x4B29 JUMP JUMPDEST POP DUP8 MLOAD PUSH8 0xC467989EB0BD03E5 PUSH1 0xC0 SHL DUP8 DUP3 ADD MSTORE DUP7 DUP2 MSTORE PUSH2 0x4BB6 SWAP1 PUSH2 0x41C1 JUMP JUMPDEST PUSH1 0x1 PUSH2 0x4B21 JUMP JUMPDEST POP DUP8 MLOAD PUSH8 0x195D80366DA500A1 PUSH1 0xC3 SHL DUP8 DUP3 ADD MSTORE DUP7 DUP2 MSTORE PUSH2 0x4BDC SWAP1 PUSH2 0x41C1 JUMP JUMPDEST PUSH1 0x0 PUSH2 0x4B1B JUMP JUMPDEST PUSH1 0x40 DUP1 MLOAD PUSH2 0x4C02 PUSH1 0x20 SWAP2 PUSH8 0xAD5FEA6D9C273C52 DUP4 DUP3 ADD MSTORE DUP3 DUP2 MSTORE PUSH2 0x41C1 JUMP JUMPDEST PUSH2 0x4C1C DUP3 MLOAD PUSH8 0xF62DC0C483B7AD8F DUP4 DUP3 ADD MSTORE DUP3 DUP2 MSTORE PUSH2 0x41C1 JUMP JUMPDEST PUSH2 0x4C36 DUP3 MLOAD PUSH8 0x9EBE53FC414BB4C3 DUP4 DUP3 ADD MSTORE DUP3 DUP2 MSTORE PUSH2 0x41C1 JUMP JUMPDEST PUSH1 0x0 SWAP3 PUSH1 0x1 DUP1 PUSH1 0xA0 SHL SUB AND DUP4 MSTORE PUSH1 0xE DUP2 MSTORE DUP2 DUP4 KECCAK256 SWAP3 PUSH2 0x4C65 DUP4 MLOAD PUSH8 0x6BC86DB466034ACE DUP5 DUP3 ADD MSTORE DUP4 DUP2 MSTORE PUSH2 0x41C1 JUMP JUMPDEST PUSH2 0x4C7F DUP4 MLOAD PUSH8 0x3D4B0FCE3C4759AF DUP5 DUP3 ADD MSTORE DUP4 DUP2 MSTORE PUSH2 0x41C1 JUMP JUMPDEST PUSH2 0x2710 PUSH2 0x4C9C DUP5 MLOAD PUSH8 0x41C01297B865C857 DUP6 DUP3 ADD MSTORE DUP5 DUP2 MSTORE PUSH2 0x41C1 JUMP JUMPDEST PUSH2 0x4CB6 DUP5 MLOAD PUSH8 0x319AF96DF9EB9980 DUP6 DUP3 ADD MSTORE DUP5 DUP2 MSTORE PUSH2 0x41C1 JUMP JUMPDEST PUSH1 0x2 DUP6 ADD SLOAD DUP1 ISZERO ISZERO SWAP1 DUP2 PUSH2 0x501E JUMPI JUMPDEST POP ISZERO PUSH2 0x4FFF JUMPI POP PUSH2 0x4CE6 DUP4 MLOAD PUSH8 0xD0BC65E2352F4FE5 DUP5 DUP3 ADD MSTORE DUP4 DUP2 MSTORE PUSH2 0x41C1 JUMP JUMPDEST PUSH2 0x4D00 DUP4 MLOAD PUSH8 0x396B45856D467AEF DUP5 DUP3 ADD MSTORE DUP4 DUP2 MSTORE PUSH2 0x41C1 JUMP JUMPDEST PUSH2 0x3A98 JUMPDEST PUSH2 0x4D1E DUP5 MLOAD PUSH8 0x129F9150746471B3 DUP6 DUP3 ADD MSTORE DUP5 DUP2 MSTORE PUSH2 0x41C1 JUMP JUMPDEST PUSH2 0x4D38 DUP5 MLOAD PUSH8 0xC1A6135892BB8392 DUP6 DUP3 ADD MSTORE DUP5 DUP2 MSTORE PUSH2 0x41C1 JUMP JUMPDEST PUSH1 0x1 DUP6 ADD SLOAD DUP1 ISZERO ISZERO SWAP1 DUP2 PUSH2 0x4FE8 JUMPI JUMPDEST POP ISZERO PUSH2 0x4FC9 JUMPI PUSH2 0x4D67 DUP5 MLOAD PUSH8 0xFDBD14692EDCF25 DUP6 DUP3 ADD MSTORE DUP5 DUP2 MSTORE PUSH2 0x41C1 JUMP JUMPDEST PUSH2 0x4D81 DUP5 MLOAD PUSH8 0x9B7F32CD73564107 DUP6 DUP3 ADD MSTORE DUP5 DUP2 MSTORE PUSH2 0x41C1 JUMP JUMPDEST PUSH2 0x2710 DUP2 ADD DUP1 SWAP2 GT PUSH2 0x4FB5 JUMPI JUMPDEST PUSH2 0x4DA8 DUP5 MLOAD PUSH8 0x291272A7F8A6C7B7 DUP6 DUP3 ADD MSTORE DUP5 DUP2 MSTORE PUSH2 0x41C1 JUMP JUMPDEST PUSH2 0x4DC2 DUP5 MLOAD PUSH8 0xFE0BE66F11CDA923 DUP6 DUP3 ADD MSTORE DUP5 DUP2 MSTORE PUSH2 0x41C1 JUMP JUMPDEST DUP5 SLOAD SWAP1 PUSH2 0x3E8 SWAP2 DUP3 DUP2 MUL SWAP3 DUP2 DUP5 DIV EQ SWAP1 ISZERO OR ISZERO PUSH2 0x4FA1 JUMPI PUSH2 0x4DF3 DUP6 MLOAD PUSH8 0x601550B4F5707333 DUP7 DUP3 ADD MSTORE DUP6 DUP2 MSTORE PUSH2 0x41C1 JUMP JUMPDEST PUSH2 0x4E0D DUP6 MLOAD PUSH8 0x39D76F42160B2D50 DUP7 DUP3 ADD MSTORE DUP6 DUP2 MSTORE PUSH2 0x41C1 JUMP JUMPDEST DUP2 ISZERO PUSH2 0x4F7D JUMPI PUSH1 0x3 SWAP2 PUSH2 0x4E4E SWAP2 PUSH2 0x4E34 DUP8 MLOAD PUSH8 0x1D92A4E4089A2DB8 DUP9 DUP3 ADD MSTORE DUP8 DUP2 MSTORE PUSH2 0x41C1 JUMP JUMPDEST PUSH2 0x47A4 DUP8 MLOAD PUSH8 0xE37FA76E7F4EEF57 DUP9 DUP3 ADD MSTORE DUP8 DUP2 MSTORE PUSH2 0x41C1 JUMP JUMPDEST SWAP5 JUMPDEST PUSH2 0x4E6A DUP6 MLOAD PUSH8 0x7975233312424768 DUP7 DUP3 ADD MSTORE DUP6 DUP2 MSTORE PUSH2 0x41C1 JUMP JUMPDEST PUSH2 0x4E84 DUP6 MLOAD PUSH8 0x52B37C985A35EEA8 DUP7 DUP3 ADD MSTORE DUP6 DUP2 MSTORE PUSH2 0x41C1 JUMP JUMPDEST ADD SLOAD SWAP1 PUSH2 0x1F4 SWAP2 DUP3 DUP2 MUL SWAP3 DUP2 DUP5 DIV EQ SWAP1 ISZERO OR ISZERO PUSH2 0x4F69 JUMPI POP PUSH2 0x4EB6 DUP4 MLOAD PUSH8 0xB4C0B4926D6F1633 DUP5 DUP3 ADD MSTORE DUP4 DUP2 MSTORE PUSH2 0x41C1 JUMP JUMPDEST PUSH2 0x4ED0 DUP4 MLOAD PUSH8 0x6F826C5FB102114D DUP5 DUP3 ADD MSTORE DUP4 DUP2 MSTORE PUSH2 0x41C1 JUMP JUMPDEST DUP1 ISZERO PUSH2 0x4F45 JUMPI PUSH2 0x4F13 SWAP1 DUP4 SWAP5 PUSH2 0x4EF9 PUSH2 0x456E SWAP6 MLOAD PUSH8 0xA6E02478D938D5E3 DUP7 DUP3 ADD MSTORE DUP6 DUP2 MSTORE PUSH2 0x41C1 JUMP JUMPDEST PUSH2 0x47A4 DUP7 MLOAD PUSH8 0xCAF8E6D0AAC3B507 DUP7 DUP3 ADD MSTORE DUP6 DUP2 MSTORE PUSH2 0x41C1 JUMP JUMPDEST SWAP3 JUMPDEST PUSH2 0x4F2F DUP2 MLOAD PUSH8 0xB01B6DCB6E01BFF9 DUP5 DUP3 ADD MSTORE DUP4 DUP2 MSTORE PUSH2 0x41C1 JUMP JUMPDEST MLOAD SWAP1 PUSH8 0x907996CAB204506F DUP2 DUP4 ADD MSTORE DUP2 MSTORE PUSH2 0x41C1 JUMP JUMPDEST POP DUP2 PUSH2 0x4F64 PUSH2 0x456E SWAP4 MLOAD PUSH8 0xEF4699A1EB53716D DUP5 DUP3 ADD MSTORE DUP4 DUP2 MSTORE PUSH2 0x41C1 JUMP JUMPDEST PUSH2 0x4F15 JUMP JUMPDEST PUSH4 0x4E487B71 PUSH1 0xE0 SHL DUP2 MSTORE PUSH1 0x11 PUSH1 0x4 MSTORE PUSH1 0x24 SWAP1 REVERT JUMPDEST SWAP5 PUSH1 0x3 SWAP2 POP PUSH2 0x4F9C DUP6 MLOAD PUSH8 0x3BD6BD9077BB500E DUP7 DUP3 ADD MSTORE DUP6 DUP2 MSTORE PUSH2 0x41C1 JUMP JUMPDEST PUSH2 0x4E50 JUMP JUMPDEST PUSH4 0x4E487B71 PUSH1 0xE0 SHL DUP4 MSTORE PUSH1 0x11 PUSH1 0x4 MSTORE PUSH1 0x24 DUP4 REVERT JUMPDEST PUSH4 0x4E487B71 PUSH1 0xE0 SHL DUP3 MSTORE PUSH1 0x11 PUSH1 0x4 MSTORE PUSH1 0x24 DUP3 REVERT JUMPDEST PUSH2 0x4FE3 DUP5 MLOAD PUSH8 0x9C1AE8E140AA7E13 DUP6 DUP3 ADD MSTORE DUP5 DUP2 MSTORE PUSH2 0x41C1 JUMP JUMPDEST PUSH2 0x4D8E JUMP JUMPDEST PUSH3 0x278D00 SWAP2 POP PUSH2 0x4FF8 SWAP1 TIMESTAMP PUSH2 0x42E4 JUMP JUMPDEST LT CODESIZE PUSH2 0x4D47 JUMP JUMPDEST PUSH2 0x5019 DUP5 MLOAD PUSH8 0x80AD2DC9039C4890 DUP6 DUP3 ADD MSTORE DUP5 DUP2 MSTORE PUSH2 0x41C1 JUMP JUMPDEST PUSH2 0x4D04 JUMP JUMPDEST PUSH3 0x93A80 SWAP2 POP PUSH2 0x502E SWAP1 TIMESTAMP PUSH2 0x42E4 JUMP JUMPDEST LT CODESIZE PUSH2 0x4CC5 JUMP JUMPDEST PUSH1 0x40 DUP1 MLOAD SWAP2 PUSH2 0x5055 PUSH1 0x20 SWAP4 PUSH8 0xA8C51886A7FE69A3 DUP6 DUP3 ADD MSTORE DUP5 DUP2 MSTORE PUSH2 0x41C1 JUMP JUMPDEST PUSH2 0x506F DUP3 MLOAD PUSH8 0xFBDDB7CC13265B69 DUP6 DUP3 ADD MSTORE DUP5 DUP2 MSTORE PUSH2 0x41C1 JUMP JUMPDEST PUSH2 0x5089 DUP3 MLOAD PUSH8 0xB7C0A631CCB59F04 DUP6 DUP3 ADD MSTORE DUP5 DUP2 MSTORE PUSH2 0x41C1 JUMP JUMPDEST PUSH1 0x1 PUSH1 0x1 PUSH1 0xA0 SHL SUB AND PUSH1 0x0 SWAP1 DUP2 MSTORE PUSH1 0xF DUP4 MSTORE DUP2 SWAP1 KECCAK256 DUP2 MLOAD PUSH8 0x4CD01494D657536E DUP2 DUP6 ADD MSTORE DUP4 DUP2 MSTORE PUSH2 0x50B9 SWAP1 PUSH2 0x41C1 JUMP JUMPDEST PUSH2 0x50D3 DUP3 MLOAD PUSH8 0xA6BA598A4FBC55B1 DUP6 DUP3 ADD MSTORE DUP5 DUP2 MSTORE PUSH2 0x41C1 JUMP JUMPDEST DUP1 SLOAD DUP1 PUSH2 0x512B JUMPI POP POP SWAP1 DUP2 PUSH2 0x50FB PUSH2 0x456E SWAP4 MLOAD PUSH8 0xEF5E380149FA9CF1 DUP5 DUP3 ADD MSTORE DUP4 DUP2 MSTORE PUSH2 0x41C1 JUMP JUMPDEST PUSH2 0x5115 DUP2 MLOAD PUSH8 0x53D1F64CADDB15FC DUP5 DUP3 ADD MSTORE DUP4 DUP2 MSTORE PUSH2 0x41C1 JUMP JUMPDEST MLOAD SWAP1 PUSH8 0xCFF5B33215366FB3 DUP2 DUP4 ADD MSTORE DUP2 MSTORE PUSH2 0x41C1 JUMP JUMPDEST PUSH2 0x5148 DUP4 SWAP6 SWAP3 SWAP6 MLOAD PUSH8 0x75D43ED5AD700B0 DUP7 DUP3 ADD MSTORE DUP6 DUP2 MSTORE PUSH2 0x41C1 JUMP JUMPDEST PUSH2 0x5162 DUP4 MLOAD PUSH8 0x8820D5173C75AC40 DUP7 DUP3 ADD MSTORE DUP6 DUP2 MSTORE PUSH2 0x41C1 JUMP JUMPDEST PUSH2 0x517C DUP4 MLOAD PUSH8 0x7C4C53C2A1F6777F DUP7 DUP3 ADD MSTORE DUP6 DUP2 MSTORE PUSH2 0x41C1 JUMP JUMPDEST DUP2 DUP2 LT PUSH2 0x5218 JUMPI POP SWAP3 PUSH2 0x51C7 PUSH2 0x438F SWAP5 PUSH2 0x51A6 DUP5 MLOAD PUSH8 0x1BFB0EA6EAEF28DB DUP8 DUP3 ADD MSTORE DUP7 DUP2 MSTORE PUSH2 0x41C1 JUMP JUMPDEST PUSH2 0x51C0 DUP5 MLOAD PUSH8 0xA17A609F314C2BD8 DUP8 DUP3 ADD MSTORE DUP7 DUP2 MSTORE PUSH2 0x41C1 JUMP JUMPDEST DUP3 SLOAD PUSH2 0x42E4 JUMP JUMPDEST DUP2 SSTORE PUSH2 0x51E3 DUP3 MLOAD PUSH8 0xADBD2B5F550AE79D DUP6 DUP3 ADD MSTORE DUP5 DUP2 MSTORE PUSH2 0x41C1 JUMP JUMPDEST PUSH1 0x1 TIMESTAMP SWAP2 ADD SSTORE PUSH2 0x5202 DUP2 MLOAD PUSH7 0x5167FE5504AADE DUP5 DUP3 ADD MSTORE DUP4 DUP2 MSTORE PUSH2 0x41C1 JUMP JUMPDEST MLOAD SWAP1 PUSH8 0x898048C462070511 DUP2 DUP4 ADD MSTORE DUP2 MSTORE PUSH2 0x41C1 JUMP JUMPDEST PUSH2 0x52A4 SWAP1 DUP4 SWAP3 PUSH2 0x523C PUSH2 0x456E SWAP7 SWAP6 MLOAD PUSH8 0xFC9866B8D841AE9E DUP8 DUP3 ADD MSTORE DUP7 DUP2 MSTORE PUSH2 0x41C1 JUMP JUMPDEST PUSH2 0x5256 DUP5 MLOAD PUSH8 0x2D7F7F1C93E975EF DUP8 DUP3 ADD MSTORE DUP7 DUP2 MSTORE PUSH2 0x41C1 JUMP JUMPDEST PUSH2 0x5270 DUP5 MLOAD PUSH8 0xF04BF01EFFE109DA DUP8 DUP3 ADD MSTORE DUP7 DUP2 MSTORE PUSH2 0x41C1 JUMP JUMPDEST PUSH2 0x528A DUP5 MLOAD PUSH8 0x716FEE29F60074AB DUP8 DUP3 ADD MSTORE DUP7 DUP2 MSTORE PUSH2 0x41C1 JUMP JUMPDEST PUSH2 0x1A31 DUP5 MLOAD PUSH8 0x821AE5367C7D43D3 DUP8 DUP3 ADD MSTORE DUP7 DUP2 MSTORE PUSH2 0x41C1 JUMP JUMPDEST SWAP4 PUSH2 0x52BF DUP3 MLOAD PUSH8 0x812229E29209299D DUP6 DUP3 ADD MSTORE DUP5 DUP2 MSTORE PUSH2 0x41C1 JUMP JUMPDEST PUSH1 0x0 DUP2 SSTORE PUSH2 0x52DD DUP3 MLOAD PUSH8 0x1A0AA602668AE038 DUP6 DUP3 ADD MSTORE DUP5 DUP2 MSTORE PUSH2 0x41C1 JUMP JUMPDEST PUSH1 0x1 TIMESTAMP SWAP2 ADD SSTORE PUSH2 0x52FD DUP2 MLOAD PUSH8 0x3B407E1C1483EA14 DUP5 DUP3 ADD MSTORE DUP4 DUP2 MSTORE PUSH2 0x41C1 JUMP JUMPDEST MLOAD SWAP1 PUSH8 0xF621164F2998CB80 DUP2 DUP4 ADD MSTORE DUP2 MSTORE PUSH2 0x41C1 JUMP INVALID 0x4A 0xB2 0x2C ISZERO EQ 0x4E 0xE7 0xDD SWAP3 PREVRANDAO 0x22 0xED SWAP12 MLOAD 0xB2 PUSH9 0xD04702767F298FFB54 PUSH21 0x9F6BAF0E5DC5A26469706673582212209AC2A661BA PUSH32 0x174A59DB84B0F6B386EA3B6D8A5B3EE32917990278D2C491C99464736F6C6343 STOP ADDMOD EQ STOP CALLER "},"methodIdentifiers":{"allowance(address,address)":"dd62ed3e","applyCredits(address,uint256)":"6be14a33","applyRiskAdjustments(uint256,address,address)":"3cbf9342","approve(address,uint256)":"095ea7b3","balanceOf(address)":"70a08231","calculateRiskFactor(address)":"6b6ef953","calculateTieredFee(uint256)":"e06a7a10","checkHalfLifeExpiry(address)":"508c0634","decimals()":"313ce567","flagAbnormalTransaction(address)":"6e2fae47","getAvailableCredits(address)":"b065a8e5","halfLifeDuration()":"4c915d18","inactivityResetPeriod()":"03833501","incentiveCredits(address)":"0c27ab5a","maxHalfLifeDuration()":"c750f203","minHalfLifeDuration()":"800753cf","name()":"06fdde03","owner()":"8da5cb5b","renounceOwnership()":"715018a6","reverseTransfer(address,address,uint256)":"f0e6ea8d","rollingAverages(address)":"08d887d0","setHalfLifeDuration(uint256)":"0f3f0803","setInactivityResetPeriod(uint256)":"6cd9ca14","setMaxHalfLifeDuration(uint256)":"57fe51d2","setMinHalfLifeDuration(uint256)":"76223a27","setTreasuryAddress(address)":"6605bfda","symbol()":"95d89b41","totalSupply()":"18160ddd","transactionCountBetween(address,address)":"8ffa15d4","transfer(address,uint256)":"a9059cbb","transferData(address)":"62d3f814","transferFrom(address,address,uint256)":"23b872dd","transferOwnership(address)":"f2fde38b","treasuryAddress()":"c5f956af","walletRiskProfiles(address)":"3d8d1dce"}}}}}