{"contracts/T3Token.sol":{"T3Token":{"abi":[{"inputs":[{"internalType":"address","name":"initialOwner","type":"address"},{"internalType":"address","name":"_treasuryAddress","type":"address"}],"stateMutability":"nonpayable","type":"constructor"},{"inputs":[{"internalType":"address","name":"spender","type":"address"},{"internalType":"uint256","name":"allowance","type":"uint256"},{"internalType":"uint256","name":"needed","type":"uint256"}],"name":"ERC20InsufficientAllowance","type":"error"},{"inputs":[{"internalType":"address","name":"sender","type":"address"},{"internalType":"uint256","name":"balance","type":"uint256"},{"internalType":"uint256","name":"needed","type":"uint256"}],"name":"ERC20InsufficientBalance","type":"error"},{"inputs":[{"internalType":"address","name":"approver","type":"address"}],"name":"ERC20InvalidApprover","type":"error"},{"inputs":[{"internalType":"address","name":"receiver","type":"address"}],"name":"ERC20InvalidReceiver","type":"error"},{"inputs":[{"internalType":"address","name":"sender","type":"address"}],"name":"ERC20InvalidSender","type":"error"},{"inputs":[{"internalType":"address","name":"spender","type":"address"}],"name":"ERC20InvalidSpender","type":"error"},{"inputs":[{"internalType":"address","name":"owner","type":"address"}],"name":"OwnableInvalidOwner","type":"error"},{"inputs":[{"internalType":"address","name":"account","type":"address"}],"name":"OwnableUnauthorizedAccount","type":"error"},{"anonymous":false,"inputs":[{"indexed":true,"internalType":"address","name":"owner","type":"address"},{"indexed":true,"internalType":"address","name":"spender","type":"address"},{"indexed":false,"internalType":"uint256","name":"value","type":"uint256"}],"name":"Approval","type":"event"},{"anonymous":false,"inputs":[{"indexed":true,"internalType":"address","name":"wallet","type":"address"},{"indexed":false,"internalType":"uint256","name":"timestamp","type":"uint256"}],"name":"HalfLifeExpired","type":"event"},{"anonymous":false,"inputs":[{"indexed":true,"internalType":"address","name":"wallet","type":"address"},{"indexed":false,"internalType":"uint256","name":"amount","type":"uint256"}],"name":"LoyaltyRefundProcessed","type":"event"},{"anonymous":false,"inputs":[{"indexed":true,"internalType":"address","name":"previousOwner","type":"address"},{"indexed":true,"internalType":"address","name":"newOwner","type":"address"}],"name":"OwnershipTransferred","type":"event"},{"anonymous":false,"inputs":[{"indexed":true,"internalType":"address","name":"wallet","type":"address"},{"indexed":false,"internalType":"uint256","name":"newRiskFactor","type":"uint256"}],"name":"RiskFactorUpdated","type":"event"},{"anonymous":false,"inputs":[{"indexed":true,"internalType":"address","name":"from","type":"address"},{"indexed":true,"internalType":"address","name":"to","type":"address"},{"indexed":false,"internalType":"uint256","name":"value","type":"uint256"}],"name":"Transfer","type":"event"},{"anonymous":false,"inputs":[{"indexed":true,"internalType":"address","name":"from","type":"address"},{"indexed":true,"internalType":"address","name":"to","type":"address"},{"indexed":false,"internalType":"uint256","name":"amount","type":"uint256"}],"name":"TransferReversed","type":"event"},{"anonymous":false,"inputs":[{"indexed":true,"internalType":"address","name":"from","type":"address"},{"indexed":true,"internalType":"address","name":"to","type":"address"},{"indexed":false,"internalType":"uint256","name":"amount","type":"uint256"},{"indexed":false,"internalType":"uint256","name":"fee","type":"uint256"}],"name":"TransferWithFee","type":"event"},{"inputs":[{"internalType":"address","name":"owner","type":"address"},{"internalType":"address","name":"spender","type":"address"}],"name":"allowance","outputs":[{"internalType":"uint256","name":"","type":"uint256"}],"stateMutability":"view","type":"function"},{"inputs":[{"internalType":"address","name":"wallet","type":"address"},{"internalType":"uint256","name":"fee","type":"uint256"}],"name":"applyCredits","outputs":[{"internalType":"uint256","name":"","type":"uint256"}],"stateMutability":"nonpayable","type":"function"},{"inputs":[{"internalType":"uint256","name":"baseFee","type":"uint256"},{"internalType":"address","name":"sender","type":"address"},{"internalType":"address","name":"recipient","type":"address"}],"name":"applyRiskAdjustments","outputs":[{"internalType":"uint256","name":"","type":"uint256"}],"stateMutability":"view","type":"function"},{"inputs":[{"internalType":"address","name":"spender","type":"address"},{"internalType":"uint256","name":"value","type":"uint256"}],"name":"approve","outputs":[{"internalType":"bool","name":"","type":"bool"}],"stateMutability":"nonpayable","type":"function"},{"inputs":[{"internalType":"address","name":"account","type":"address"}],"name":"balanceOf","outputs":[{"internalType":"uint256","name":"","type":"uint256"}],"stateMutability":"view","type":"function"},{"inputs":[{"internalType":"address","name":"wallet","type":"address"}],"name":"calculateRiskFactor","outputs":[{"internalType":"uint256","name":"","type":"uint256"}],"stateMutability":"view","type":"function"},{"inputs":[{"internalType":"uint256","name":"amount","type":"uint256"}],"name":"calculateTieredFee","outputs":[{"internalType":"uint256","name":"","type":"uint256"}],"stateMutability":"view","type":"function"},{"inputs":[{"internalType":"address","name":"wallet","type":"address"}],"name":"checkHalfLifeExpiry","outputs":[],"stateMutability":"nonpayable","type":"function"},{"inputs":[],"name":"decimals","outputs":[{"internalType":"uint8","name":"","type":"uint8"}],"stateMutability":"view","type":"function"},{"inputs":[{"internalType":"address","name":"wallet","type":"address"}],"name":"flagAbnormalTransaction","outputs":[],"stateMutability":"nonpayable","type":"function"},{"inputs":[{"internalType":"address","name":"wallet","type":"address"}],"name":"getAvailableCredits","outputs":[{"internalType":"uint256","name":"","type":"uint256"}],"stateMutability":"view","type":"function"},{"inputs":[],"name":"halfLifeDuration","outputs":[{"internalType":"uint256","name":"","type":"uint256"}],"stateMutability":"view","type":"function"},{"inputs":[],"name":"inactivityResetPeriod","outputs":[{"internalType":"uint256","name":"","type":"uint256"}],"stateMutability":"view","type":"function"},{"inputs":[{"internalType":"address","name":"","type":"address"}],"name":"incentiveCredits","outputs":[{"internalType":"uint256","name":"amount","type":"uint256"},{"internalType":"uint256","name":"lastUpdated","type":"uint256"}],"stateMutability":"view","type":"function"},{"inputs":[],"name":"maxHalfLifeDuration","outputs":[{"internalType":"uint256","name":"","type":"uint256"}],"stateMutability":"view","type":"function"},{"inputs":[],"name":"minHalfLifeDuration","outputs":[{"internalType":"uint256","name":"","type":"uint256"}],"stateMutability":"view","type":"function"},{"inputs":[],"name":"name","outputs":[{"internalType":"string","name":"","type":"string"}],"stateMutability":"view","type":"function"},{"inputs":[],"name":"owner","outputs":[{"internalType":"address","name":"","type":"address"}],"stateMutability":"view","type":"function"},{"inputs":[],"name":"renounceOwnership","outputs":[],"stateMutability":"nonpayable","type":"function"},{"inputs":[{"internalType":"address","name":"from","type":"address"},{"internalType":"address","name":"to","type":"address"},{"internalType":"uint256","name":"amount","type":"uint256"}],"name":"reverseTransfer","outputs":[],"stateMutability":"nonpayable","type":"function"},{"inputs":[{"internalType":"address","name":"","type":"address"}],"name":"rollingAverages","outputs":[{"internalType":"uint256","name":"totalAmount","type":"uint256"},{"internalType":"uint256","name":"count","type":"uint256"},{"internalType":"uint256","name":"lastUpdated","type":"uint256"}],"stateMutability":"view","type":"function"},{"inputs":[{"internalType":"uint256","name":"_halfLifeDuration","type":"uint256"}],"name":"setHalfLifeDuration","outputs":[],"stateMutability":"nonpayable","type":"function"},{"inputs":[{"internalType":"uint256","name":"_inactivityResetPeriod","type":"uint256"}],"name":"setInactivityResetPeriod","outputs":[],"stateMutability":"nonpayable","type":"function"},{"inputs":[{"internalType":"uint256","name":"_maxHalfLifeDuration","type":"uint256"}],"name":"setMaxHalfLifeDuration","outputs":[],"stateMutability":"nonpayable","type":"function"},{"inputs":[{"internalType":"uint256","name":"_minHalfLifeDuration","type":"uint256"}],"name":"setMinHalfLifeDuration","outputs":[],"stateMutability":"nonpayable","type":"function"},{"inputs":[{"internalType":"address","name":"_treasuryAddress","type":"address"}],"name":"setTreasuryAddress","outputs":[],"stateMutability":"nonpayable","type":"function"},{"inputs":[],"name":"symbol","outputs":[{"internalType":"string","name":"","type":"string"}],"stateMutability":"view","type":"function"},{"inputs":[],"name":"totalSupply","outputs":[{"internalType":"uint256","name":"","type":"uint256"}],"stateMutability":"view","type":"function"},{"inputs":[{"internalType":"address","name":"","type":"address"},{"internalType":"address","name":"","type":"address"}],"name":"transactionCountBetween","outputs":[{"internalType":"uint256","name":"","type":"uint256"}],"stateMutability":"view","type":"function"},{"inputs":[{"internalType":"address","name":"recipient","type":"address"},{"internalType":"uint256","name":"amount","type":"uint256"}],"name":"transfer","outputs":[{"internalType":"bool","name":"","type":"bool"}],"stateMutability":"nonpayable","type":"function"},{"inputs":[{"internalType":"address","name":"","type":"address"}],"name":"transferData","outputs":[{"internalType":"uint256","name":"commitWindowEnd","type":"uint256"},{"internalType":"uint256","name":"halfLifeDuration","type":"uint256"},{"internalType":"address","name":"originator","type":"address"},{"internalType":"uint256","name":"transferCount","type":"uint256"},{"internalType":"bytes32","name":"reversalHash","type":"bytes32"},{"internalType":"uint256","name":"feeAmount","type":"uint256"},{"internalType":"bool","name":"isReversed","type":"bool"}],"stateMutability":"view","type":"function"},{"inputs":[{"internalType":"address","name":"from","type":"address"},{"internalType":"address","name":"to","type":"address"},{"internalType":"uint256","name":"value","type":"uint256"}],"name":"transferFrom","outputs":[{"internalType":"bool","name":"","type":"bool"}],"stateMutability":"nonpayable","type":"function"},{"inputs":[{"internalType":"address","name":"newOwner","type":"address"}],"name":"transferOwnership","outputs":[],"stateMutability":"nonpayable","type":"function"},{"inputs":[],"name":"treasuryAddress","outputs":[{"internalType":"address","name":"","type":"address"}],"stateMutability":"view","type":"function"},{"inputs":[{"internalType":"address","name":"","type":"address"}],"name":"walletRiskProfiles","outputs":[{"internalType":"uint256","name":"reversalCount","type":"uint256"},{"internalType":"uint256","name":"lastReversal","type":"uint256"},{"internalType":"uint256","name":"creationTime","type":"uint256"},{"internalType":"uint256","name":"abnormalTxCount","type":"uint256"}],"stateMutability":"view","type":"function"}],"evm":{"bytecode":{"linkReferences":{},"object":"6080346200049d576001600160401b0390620023bc90601f19601f388490038181018316840190868211858310176200039f57808591604097889485528339810103126200049d576200005283620004c2565b91620000626020809501620004c2565b906200006d620004a2565b96600d88526c2a199029ba30b13632b1b7b4b760991b8689015262000091620004a2565b976002895261543360f01b878a01528051908282116200039f5760039182546001928382811c9216801562000492575b8b8310146200047c57818984931162000426575b508a90898311600114620003c157600092620003b5575b505060001982851b1c191690821b1782555b89519283116200039f576004998a548281811c9116801562000394575b8a8210146200037f5787811162000334575b508890878511600114620002cb5784955090849291600095620002bf575b50501b92600019911b1c19161786555b6001600160a01b03928316928315620002a8576005549060018060a01b03199285848416176005558582895194167f8be0079c531659141344cd1fd0a4f28419497f9722a3daafe3b4186f6b6457e0600080a3610e106006556102586007556201518060085562278d006009551692831562000268575050600a541617600a5560025469d3c21bcecceda10000009485820180921162000253575060007fddf252ad1be2c89b69c2b068fc378daa952ba7f163c4a11628f55a4df523b3ef84600e969785946002558484528382528884208181540190558851908152a36000525242600282600020015551611ee49081620004d88239f35b601190634e487b7160e01b6000525260246000fd5b62461bcd60e51b825281880186905260248201527f547265617375727920616464726573732063616e6e6f74206265207a65726f00604482015260649150fd5b8551631e4fbdf760e01b8152600081890152602490fd5b0151935038806200014b565b9291948416928b600052848a6000209460005b8c898383106200031c575050501062000301575b50505050811b0186556200015b565b01519060f884600019921b161c1916905538808080620002f2565b868601518955909701969485019488935001620002de565b8b600052896000208880870160051c8201928c881062000375575b0160051c019083905b828110620003685750506200012d565b6000815501839062000358565b925081926200034f565b60228c634e487b7160e01b6000525260246000fd5b90607f16906200011b565b634e487b7160e01b600052604160045260246000fd5b015190503880620000ec565b908785941691866000528c600020928d6000905b8282106200040e5750508411620003f5575b505050811b018255620000fe565b015160001983871b60f8161c19169055388080620003e7565b83850151865588979095019493840193018e620003d5565b909150846000528a6000208980850160051c8201928d861062000472575b918691869594930160051c01915b82811062000462575050620000d5565b6000815585945086910162000452565b9250819262000444565b634e487b7160e01b600052602260045260246000fd5b91607f1691620000c1565b600080fd5b60408051919082016001600160401b038111838210176200039f57604052565b51906001600160a01b03821682036200049d5756fe608080604052600436101561001357600080fd5b60003560e01c90816303833501146119d75750806306fdde031461191957806308d887d0146118c8578063095ea7b3146118425780630c27ab5a146117ff5780630f3f08031461176257806318160ddd1461174457806323b872dd1461165d578063313ce567146116415780633cbf9342146116055780633d8d1dce146115a95780634c915d181461158b578063508c0634146112dc57806357fe51d21461127957806362d3f814146111f65780636605bfda146111695780636b6ef953146111465780636be14a331461111f5780636cd9ca14146110b35780636e2fae471461102657806370a0823114610fec578063715018a614610f8f57806376223a2714610ee8578063800753cf14610eca5780638da5cb5b14610ea15780638ffa15d414610e5057806395d89b4114610d4b578063a9059cbb14610616578063b065a8e5146105dc578063c5f956af146105b3578063c750f20314610595578063dd62ed3e14610544578063e06a7a101461051e578063f0e6ea8d1461022e5763f2fde38b146101a057600080fd5b34610229576020366003190112610229576101b9611a3b565b6101c1611a9c565b6001600160a01b0390811690811561021057600554826001600160601b0360a01b821617600555167f8be0079c531659141344cd1fd0a4f28419497f9722a3daafe3b4186f6b6457e0600080a3005b604051631e4fbdf760e01b815260006004820152602490fd5b600080fd5b346102295761023c36611a67565b90916001600160a01b03918282169190338390036104cd5782600052602091600b8352604060002080544210156104955760028101548787169616860361044457846000526000845282604060002054106103ff57600601805460ff81166103ba579661036592849260017f55608e3380952b490f6dc0b1b0bcf7a16177fe10590cf1599b7a84f430b70e3798999a60ff191617905587600052600e86526040600020600281018054156103b1575b506102f68154611bdc565b815560014291015588868961030a84611d22565b604051908152600080516020611e8f833981519152928391a281600052600e88526040600020600281018054156103a8575b506103478154611bdc565b81556001429101558761035985611d22565b604051908152a2611aea565b83600052600b825261039f604060002060066000918281558260018201558260028201558260038201558260048201558260058201550155565b604051908152a3005b4290558c61033c565b4290558a6102eb565b60405162461bcd60e51b815260048101869052601960248201527f5472616e7366657220616c7265616479207265766572736564000000000000006044820152606490fd5b60405162461bcd60e51b815260048101859052601f60248201527f496e73756666696369656e742062616c616e636520746f2072657665727365006044820152606490fd5b60405162461bcd60e51b815260048101859052602360248201527f526576657273616c206d75737420676f206261636b20746f206f726967696e616044820152623a37b960e91b6064820152608490fd5b60405162461bcd60e51b815260048101859052601060248201526f12185b19931a599948195e1c1a5c995960821b6044820152606490fd5b60405162461bcd60e51b815260206004820152602360248201527f4f6e6c792072656365697665722063616e20696e6974696174652072657665726044820152621cd85b60ea1b6064820152608490fd5b3461022957602036600319011261022957602061053c600435611beb565b604051908152f35b346102295760403660031901126102295761055d611a3b565b610565611a51565b9060018060a01b038091166000526001602052604060002091166000526020526020604060002054604051908152f35b34610229576000366003190112610229576020600854604051908152f35b3461022957600036600319011261022957600a546040516001600160a01b039091168152602090f35b34610229576020366003190112610229576001600160a01b036105fd611a3b565b16600052600f6020526020604060002054604051908152f35b346102295760403660031901126102295761062f611a3b565b6001600160a01b03811615610d065760243515610caf5733600052600e6020526002604060002001805415610ca6575b5061066933611d22565b604051908152600080516020611e8f833981519152908160203392a26001600160a01b0382166000908152600e60205260409020600201805415610c9d575b506106b282611d22565b6040519081526001600160a01b0383169190602090a233600052600b6020526040600020805442109081610c82575b50610c18576107046106fe82336106f9602435611beb565b611cee565b33611e33565b906101f48060243502906024358204036109f7576127109004808311610c10575b506001821080610c04575b610bfb575b6024358211610bf1575b61074b82602435611bcf565b91610757838333611aea565b80610ad9575b33600052600d602052604060002060018060a01b03831660005260205260406000206107898154611bdc565b905560065433600052600d602052604060002060018060a01b03841660005260205260406000205480158015610a97575b505033600052600c60205260406000206001810154908115908115610a28575b50505060075490818110600014610a0d57505b6107f78142611baf565b6001600160a01b0384166000908152600b60205260409020600301546001810181116109f75760405190602082013360601b81526001600160601b03198760601b16603484015260243560488401526048835282608081011067ffffffffffffffff6080850111176109e15760808301604052825190206080830161016084011067ffffffffffffffff610160850111176109e1576006936101608401604052608084015260a0830194855260c0830191338352600160e085019101815261010084019182526101208401928784526101408501966000885260018060a01b038a16600052600b602052608060406000209601518655516001860155600285019060018060a01b039051166001600160601b0360a01b825416179055516003840155516004830155516005820155019051151560ff80198354169116179055600c602052604060002060016002820191825480151590816109cc575b506109bd575b6109666024358254611baf565b8155016109738154611bdc565b9055429055604051928352602083015260018060a01b0316907f98bc3fe7d138931a49691b623c256b8812f2a3d7f9b25ba7098c82538977a5d060403392a3602060405160018152f35b60008155600082820155610959565b6109d7915042611bcf565b6009541087610953565b634e487b7160e01b600052604160045260246000fd5b634e487b7160e01b600052601160045260246000fd5b9050600854808211610a20575b506107ed565b905084610a1a565b549081156107da57610a815704600a810290808204600a14901517156109f75760243511610a59575b8480806107da565b8060011b90808204600214901517610a5157634e487b7160e01b600052601160045260246000fd5b634e487b7160e01b600052601260045260246000fd5b600a8202918204600a1417156109f757605a811115610ad45750605a5b60640390606482116109f757606491610acc91611bbc565b0484806107ba565b610ab4565b8060011c80610b6b575b610b2890610b238360021c9133600052600f6020526040600020610b08848254611baf565b905533600052600f6020524260016040600020015584611bcf565b611bcf565b60018060a01b038316600052600f602052610b496040600020918254611baf565b905560018060a01b038216600052600f6020524260016040600020015561075d565b600a546001600160a01b0316908115610bd857610b2891610b8e82600254611baf565b600255806000526000602052604060002082815401905560007fddf252ad1be2c89b69c2b068fc378daa952ba7f163c4a11628f55a4df523b3ef6020604051858152a39050610ae3565b60405163ec442f0560e01b815260006004820152602490fd5b602435915061073f565b60019150610735565b50600160243511610730565b915082610725565b608460405162461bcd60e51b815260206004820152604060248201527f43616e6e6f74207472616e7366657220647572696e672048616c664c6966652060448201527f706572696f6420657863657074206261636b20746f206f726967696e61746f726064820152fd5b600201546001600160a01b03838116911614159050826106e1565b429055826106a8565b4290558161065f565b60405162461bcd60e51b815260206004820152602960248201527f5472616e7366657220616d6f756e74206d7573742062652067726561746572206044820152687468616e207a65726f60b81b6064820152608490fd5b60405162461bcd60e51b815260206004820152601860248201527f5472616e7366657220746f207a65726f206164647265737300000000000000006044820152606490fd5b3461022957600036600319011261022957604051600090600454600181811c90808316928315610e46575b6020938484108114610e3057838652908115610e105750600114610db5575b610db184610da581880382611ac8565b604051918291826119f2565b0390f35b600460009081529294507f8a35acfbc15ff81a39ae7d344fd709f28e8600b4aa8c65c6b64bfe7fe36bd19b5b828410610dfd5750505081610db193610da59282010193610d95565b8054858501870152928501928101610de1565b60ff1916858501525050151560051b8201019150610da581610db1610d95565b634e487b7160e01b600052602260045260246000fd5b91607f1691610d76565b3461022957604036600319011261022957610e69611a3b565b610e71611a51565b9060018060a01b03809116600052600d602052604060002091166000526020526020604060002054604051908152f35b34610229576000366003190112610229576005546040516001600160a01b039091168152602090f35b34610229576000366003190112610229576020600754604051908152f35b3461022957602036600319011261022957600435610f04611a9c565b8015610f53576006548111610f1857600755005b60405162461bcd60e51b8152602060048201526013602482015272135a5b88195e18d959591cc8191959985d5b1d606a1b6044820152606490fd5b60405162461bcd60e51b81526020600482015260146024820152734d696e206d75737420626520706f73697469766560601b6044820152606490fd5b3461022957600036600319011261022957610fa8611a9c565b600580546001600160a01b031981169091556000906001600160a01b03167f8be0079c531659141344cd1fd0a4f28419497f9722a3daafe3b4186f6b6457e08280a3005b34610229576020366003190112610229576001600160a01b0361100d611a3b565b1660005260006020526020604060002054604051908152f35b3461022957602036600319011261022957611085611042611a3b565b61104a611a9c565b600080516020611e8f833981519152602060018060a01b03831693849384600052600e835260026040600020018054156110aa575b50611d22565b604051908152a2600052600e60205260036040600020016110a68154611bdc565b9055005b4290558661107f565b34610229576020366003190112610229576004356110cf611a9c565b80156110da57600955005b60405162461bcd60e51b815260206004820152601760248201527f506572696f64206d75737420626520706f7369746976650000000000000000006044820152606490fd5b3461022957604036600319011261022957602061053c61113d611a3b565b60243590611e33565b3461022957602036600319011261022957602061053c611164611a3b565b611d22565b3461022957602036600319011261022957611182611a3b565b61118a611a9c565b6001600160a01b031680156111b1576001600160601b0360a01b600a541617600a55600080f35b60405162461bcd60e51b815260206004820152601f60248201527f547265617375727920616464726573732063616e6e6f74206265207a65726f006044820152606490fd5b346102295760203660031901126102295760e06001600160a01b038061121a611a3b565b16600052600b602052604060002090815491600181015491600282015416600382015460048301549160ff600660058601549501541694604051968752602087015260408601526060850152608084015260a0830152151560c0820152f35b3461022957602036600319011261022957600435611295611a9c565b60065481106112a357600855005b60405162461bcd60e51b815260206004820152601160248201527013585e0818995b1bddc8191959985d5b1d607a1b6044820152606490fd5b3461022957602080600319360112610229576112f6611a3b565b6001600160a01b038082166000818152600b8552604090208054919493909180156115465742106115015760ff6006830154166114c45791600282866113838796828860057f23bd7f8191a147e373def338d5a76dce96b4d2f7d15a43eca83e3ee6e75061439b9901548061141f575b5050600052600e8752846040600020018054156114165750611d22565b604051908152600080516020611e8f833981519152958691a20154169081600052600e8352600260406000200180541561140d575b50826113c383611d22565b604051908152a282600052600b8152611404604060002060066000918281558260018201558260028201558260038201558260048201558260058201550155565b604051428152a2005b429055856113b8565b4290558a61107f565b60031c80156113665781908989890181815416600052600f84526040600020611449848254611baf565b905581815416600052600f845242600160406000200155856000526040600020611474848254611baf565b905585600052600f84524260016040600020015554166040518281527ffdfa38dc30c58b0662200654ef296c1527abbf34b03b2f908af130d2a35db878948591a2604051908152a282878c611366565b60405162461bcd60e51b8152600481018590526015602482015274151c985b9cd9995c881dd85cc81c995d995c9cd959605a1b6044820152606490fd5b60405162461bcd60e51b815260048101859052601860248201527f48616c664c696665206e6f7420657870697265642079657400000000000000006044820152606490fd5b60405162461bcd60e51b815260048101869052601760248201527f4e6f20616374697665207472616e7366657220646174610000000000000000006044820152606490fd5b34610229576000366003190112610229576020600654604051908152f35b34610229576020366003190112610229576001600160a01b036115ca611a3b565b16600052600e602052608060406000208054906001810154906003600282015491015491604051938452602084015260408301526060820152f35b346102295760603660031901126102295761161e611a51565b604435906001600160a01b03821682036102295760209161053c91600435611cee565b3461022957600036600319011261022957602060405160128152f35b346102295761166b36611a67565b9060018060a01b038316928360005260016020526040600020336000526020526040600020549360001985106116b2575b506116a79350611aea565b602060405160018152f35b83851061171e5780156117055733156116ec576116a79484916000526001602052604060002033600052602052036040600020558461169c565b604051634a1406b160e11b815260006004820152602490fd5b60405163e602df0560e01b815260006004820152602490fd5b604051637dc7a0d960e11b81523360048201526024810186905260448101859052606490fd5b34610229576000366003190112610229576020600254604051908152f35b346102295760203660031901126102295760043561177e611a9c565b60075481106117ca57600854811161179557600655005b60405162461bcd60e51b815260206004820152600d60248201526c41626f7665206d6178696d756d60981b6044820152606490fd5b60405162461bcd60e51b815260206004820152600d60248201526c42656c6f77206d696e696d756d60981b6044820152606490fd5b34610229576020366003190112610229576001600160a01b03611820611a3b565b16600052600f6020526040806000206001815491015482519182526020820152f35b346102295760403660031901126102295761185b611a3b565b602435903315611705576001600160a01b03169081156116ec57336000526001602052604060002082600052602052806040600020556040519081527f8c5be1e5ebec7d5bd14f71427d1e84f3dd0314c0f7b2291e5b200ac8c7c3b92560203392a3602060405160018152f35b34610229576020366003190112610229576001600160a01b036118e9611a3b565b16600052600c60205260606040600020805490600260018201549101549060405192835260208301526040820152f35b3461022957600036600319011261022957604051600090600354600181811c908083169283156119cd575b6020938484108114610e3057838652908115610e10575060011461197257610db184610da581880382611ac8565b600360009081529294507fc2575a0e9e593c00f959f8c92f12db2869c3395a3b0502d05e2516446f71f85b5b8284106119ba5750505081610db193610da59282010193610d95565b805485850187015292850192810161199e565b91607f1691611944565b34610229576000366003190112610229576020906009548152f35b6020808252825181830181905290939260005b828110611a2757505060409293506000838284010152601f8019910116010190565b818101860151848201604001528501611a05565b600435906001600160a01b038216820361022957565b602435906001600160a01b038216820361022957565b6060906003190112610229576001600160a01b0390600435828116810361022957916024359081168103610229579060443590565b6005546001600160a01b03163303611ab057565b60405163118cdaa760e01b8152336004820152602490fd5b90601f8019910116810190811067ffffffffffffffff8211176109e157604052565b916001600160a01b03808416928315611b965716928315610bd85760009083825281602052604082205490838210611b64575091604082827fddf252ad1be2c89b69c2b068fc378daa952ba7f163c4a11628f55a4df523b3ef958760209652828652038282205586815220818154019055604051908152a3565b60405163391434e360e21b81526001600160a01b03919091166004820152602481019190915260448101839052606490fd5b604051634b637e8f60e11b815260006004820152602490fd5b919082018092116109f757565b818102929181159184041417156109f757565b919082039182116109f757565b60001981146109f75760010190565b8015611ce857600090670de0b6b3a7640000818362989680935b611c11575b5050505090565b6000949192939450611c238185611bcf565b908410611ce0578015611ce05784919080841115611cd25790611c4a82611c619395611bcf565b935b611c5a612710978892611bbc565b0490611baf565b93600a908185029085158680840485148217156109f75784840414159081611cc9575b50611ca057509104928315611c9b57829192611c05565b611c0a565b9392959450505080611cb4575b8293611c0a565b611cc193611c5a91611bbc565b803880611cad565b90501538611c84565b50600092611c619190611c4c565b819450611c0a565b50600090565b61271092611d07611d01611d1694611d22565b91611d22565b80821115611d1a575090611bbc565b0490565b905090611bbc565b6001600160a01b03166000908152600e602052604081206002810154919291612710908015159081611e1c575b50611e13575b60018201548015159081611dfc575b50611ddb575b8154906103e891828102928184041490151715611dc757600391611d8d91611baf565b910154906101f491828102928184041490151715611db357611db0929350611baf565b90565b634e487b7160e01b84526011600452602484fd5b634e487b7160e01b85526011600452602485fd5b612710810180911115611d6a57634e487b7160e01b84526011600452602484fd5b62278d009150611e0c9042611bcf565b1038611d64565b50613a98611d55565b62093a809150611e2c9042611bcf565b1038611d4f565b60018060a01b0316600052600f60205260406000209081548015611e8857818110611e715750611e64908254611bcf565b8155600142910155600090565b611e7a91611bcf565b906000815560014291015590565b5090509056fe4ab22c15144ee7dd924422ed9b51b268d04702767f298ffb54749f6baf0e5dc5a26469706673582212205c44b9aaef64d7f86f4770fe3c7b2d6b12e70adcfdb2f3558d8f445c792d423e64736f6c63430008140033","opcodes":"PUSH1 0x80 CALLVALUE PUSH3 0x49D JUMPI PUSH1 0x1 PUSH1 0x1 PUSH1 0x40 SHL SUB SWAP1 PUSH3 0x23BC SWAP1 PUSH1 0x1F NOT PUSH1 0x1F CODESIZE DUP5 SWAP1 SUB DUP2 DUP2 ADD DUP4 AND DUP5 ADD SWAP1 DUP7 DUP3 GT DUP6 DUP4 LT OR PUSH3 0x39F JUMPI DUP1 DUP6 SWAP2 PUSH1 0x40 SWAP8 DUP9 SWAP5 DUP6 MSTORE DUP4 CODECOPY DUP2 ADD SUB SLT PUSH3 0x49D JUMPI PUSH3 0x52 DUP4 PUSH3 0x4C2 JUMP JUMPDEST SWAP2 PUSH3 0x62 PUSH1 0x20 DUP1 SWAP6 ADD PUSH3 0x4C2 JUMP JUMPDEST SWAP1 PUSH3 0x6D PUSH3 0x4A2 JUMP JUMPDEST SWAP7 PUSH1 0xD DUP9 MSTORE PUSH13 0x2A199029BA30B13632B1B7B4B7 PUSH1 0x99 SHL DUP7 DUP10 ADD MSTORE PUSH3 0x91 PUSH3 0x4A2 JUMP JUMPDEST SWAP8 PUSH1 0x2 DUP10 MSTORE PUSH2 0x5433 PUSH1 0xF0 SHL DUP8 DUP11 ADD MSTORE DUP1 MLOAD SWAP1 DUP3 DUP3 GT PUSH3 0x39F JUMPI PUSH1 0x3 SWAP2 DUP3 SLOAD PUSH1 0x1 SWAP3 DUP4 DUP3 DUP2 SHR SWAP3 AND DUP1 ISZERO PUSH3 0x492 JUMPI JUMPDEST DUP12 DUP4 LT EQ PUSH3 0x47C JUMPI DUP2 DUP10 DUP5 SWAP4 GT PUSH3 0x426 JUMPI JUMPDEST POP DUP11 SWAP1 DUP10 DUP4 GT PUSH1 0x1 EQ PUSH3 0x3C1 JUMPI PUSH1 0x0 SWAP3 PUSH3 0x3B5 JUMPI JUMPDEST POP POP PUSH1 0x0 NOT DUP3 DUP6 SHL SHR NOT AND SWAP1 DUP3 SHL OR DUP3 SSTORE JUMPDEST DUP10 MLOAD SWAP3 DUP4 GT PUSH3 0x39F JUMPI PUSH1 0x4 SWAP10 DUP11 SLOAD DUP3 DUP2 DUP2 SHR SWAP2 AND DUP1 ISZERO PUSH3 0x394 JUMPI JUMPDEST DUP11 DUP3 LT EQ PUSH3 0x37F JUMPI DUP8 DUP2 GT PUSH3 0x334 JUMPI JUMPDEST POP DUP9 SWAP1 DUP8 DUP6 GT PUSH1 0x1 EQ PUSH3 0x2CB JUMPI DUP5 SWAP6 POP SWAP1 DUP5 SWAP3 SWAP2 PUSH1 0x0 SWAP6 PUSH3 0x2BF JUMPI JUMPDEST POP POP SHL SWAP3 PUSH1 0x0 NOT SWAP2 SHL SHR NOT AND OR DUP7 SSTORE JUMPDEST PUSH1 0x1 PUSH1 0x1 PUSH1 0xA0 SHL SUB SWAP3 DUP4 AND SWAP3 DUP4 ISZERO PUSH3 0x2A8 JUMPI PUSH1 0x5 SLOAD SWAP1 PUSH1 0x1 DUP1 PUSH1 0xA0 SHL SUB NOT SWAP3 DUP6 DUP5 DUP5 AND OR PUSH1 0x5 SSTORE DUP6 DUP3 DUP10 MLOAD SWAP5 AND PUSH32 0x8BE0079C531659141344CD1FD0A4F28419497F9722A3DAAFE3B4186F6B6457E0 PUSH1 0x0 DUP1 LOG3 PUSH2 0xE10 PUSH1 0x6 SSTORE PUSH2 0x258 PUSH1 0x7 SSTORE PUSH3 0x15180 PUSH1 0x8 SSTORE PUSH3 0x278D00 PUSH1 0x9 SSTORE AND SWAP3 DUP4 ISZERO PUSH3 0x268 JUMPI POP POP PUSH1 0xA SLOAD AND OR PUSH1 0xA SSTORE PUSH1 0x2 SLOAD PUSH10 0xD3C21BCECCEDA1000000 SWAP5 DUP6 DUP3 ADD DUP1 SWAP3 GT PUSH3 0x253 JUMPI POP PUSH1 0x0 PUSH32 0xDDF252AD1BE2C89B69C2B068FC378DAA952BA7F163C4A11628F55A4DF523B3EF DUP5 PUSH1 0xE SWAP7 SWAP8 DUP6 SWAP5 PUSH1 0x2 SSTORE DUP5 DUP5 MSTORE DUP4 DUP3 MSTORE DUP9 DUP5 KECCAK256 DUP2 DUP2 SLOAD ADD SWAP1 SSTORE DUP9 MLOAD SWAP1 DUP2 MSTORE LOG3 PUSH1 0x0 MSTORE MSTORE TIMESTAMP PUSH1 0x2 DUP3 PUSH1 0x0 KECCAK256 ADD SSTORE MLOAD PUSH2 0x1EE4 SWAP1 DUP2 PUSH3 0x4D8 DUP3 CODECOPY RETURN JUMPDEST PUSH1 0x11 SWAP1 PUSH4 0x4E487B71 PUSH1 0xE0 SHL PUSH1 0x0 MSTORE MSTORE PUSH1 0x24 PUSH1 0x0 REVERT JUMPDEST PUSH3 0x461BCD PUSH1 0xE5 SHL DUP3 MSTORE DUP2 DUP9 ADD DUP7 SWAP1 MSTORE PUSH1 0x24 DUP3 ADD MSTORE PUSH32 0x547265617375727920616464726573732063616E6E6F74206265207A65726F00 PUSH1 0x44 DUP3 ADD MSTORE PUSH1 0x64 SWAP2 POP REVERT JUMPDEST DUP6 MLOAD PUSH4 0x1E4FBDF7 PUSH1 0xE0 SHL DUP2 MSTORE PUSH1 0x0 DUP2 DUP10 ADD MSTORE PUSH1 0x24 SWAP1 REVERT JUMPDEST ADD MLOAD SWAP4 POP CODESIZE DUP1 PUSH3 0x14B JUMP JUMPDEST SWAP3 SWAP2 SWAP5 DUP5 AND SWAP3 DUP12 PUSH1 0x0 MSTORE DUP5 DUP11 PUSH1 0x0 KECCAK256 SWAP5 PUSH1 0x0 JUMPDEST DUP13 DUP10 DUP4 DUP4 LT PUSH3 0x31C JUMPI POP POP POP LT PUSH3 0x301 JUMPI JUMPDEST POP POP POP POP DUP2 SHL ADD DUP7 SSTORE PUSH3 0x15B JUMP JUMPDEST ADD MLOAD SWAP1 PUSH1 0xF8 DUP5 PUSH1 0x0 NOT SWAP3 SHL AND SHR NOT AND SWAP1 SSTORE CODESIZE DUP1 DUP1 DUP1 PUSH3 0x2F2 JUMP JUMPDEST DUP7 DUP7 ADD MLOAD DUP10 SSTORE SWAP1 SWAP8 ADD SWAP7 SWAP5 DUP6 ADD SWAP5 DUP9 SWAP4 POP ADD PUSH3 0x2DE JUMP JUMPDEST DUP12 PUSH1 0x0 MSTORE DUP10 PUSH1 0x0 KECCAK256 DUP9 DUP1 DUP8 ADD PUSH1 0x5 SHR DUP3 ADD SWAP3 DUP13 DUP9 LT PUSH3 0x375 JUMPI JUMPDEST ADD PUSH1 0x5 SHR ADD SWAP1 DUP4 SWAP1 JUMPDEST DUP3 DUP2 LT PUSH3 0x368 JUMPI POP POP PUSH3 0x12D JUMP JUMPDEST PUSH1 0x0 DUP2 SSTORE ADD DUP4 SWAP1 PUSH3 0x358 JUMP JUMPDEST SWAP3 POP DUP2 SWAP3 PUSH3 0x34F JUMP JUMPDEST PUSH1 0x22 DUP13 PUSH4 0x4E487B71 PUSH1 0xE0 SHL PUSH1 0x0 MSTORE MSTORE PUSH1 0x24 PUSH1 0x0 REVERT JUMPDEST SWAP1 PUSH1 0x7F AND SWAP1 PUSH3 0x11B JUMP JUMPDEST PUSH4 0x4E487B71 PUSH1 0xE0 SHL PUSH1 0x0 MSTORE PUSH1 0x41 PUSH1 0x4 MSTORE PUSH1 0x24 PUSH1 0x0 REVERT JUMPDEST ADD MLOAD SWAP1 POP CODESIZE DUP1 PUSH3 0xEC JUMP JUMPDEST SWAP1 DUP8 DUP6 SWAP5 AND SWAP2 DUP7 PUSH1 0x0 MSTORE DUP13 PUSH1 0x0 KECCAK256 SWAP3 DUP14 PUSH1 0x0 SWAP1 JUMPDEST DUP3 DUP3 LT PUSH3 0x40E JUMPI POP POP DUP5 GT PUSH3 0x3F5 JUMPI JUMPDEST POP POP POP DUP2 SHL ADD DUP3 SSTORE PUSH3 0xFE JUMP JUMPDEST ADD MLOAD PUSH1 0x0 NOT DUP4 DUP8 SHL PUSH1 0xF8 AND SHR NOT AND SWAP1 SSTORE CODESIZE DUP1 DUP1 PUSH3 0x3E7 JUMP JUMPDEST DUP4 DUP6 ADD MLOAD DUP7 SSTORE DUP9 SWAP8 SWAP1 SWAP6 ADD SWAP5 SWAP4 DUP5 ADD SWAP4 ADD DUP15 PUSH3 0x3D5 JUMP JUMPDEST SWAP1 SWAP2 POP DUP5 PUSH1 0x0 MSTORE DUP11 PUSH1 0x0 KECCAK256 DUP10 DUP1 DUP6 ADD PUSH1 0x5 SHR DUP3 ADD SWAP3 DUP14 DUP7 LT PUSH3 0x472 JUMPI JUMPDEST SWAP2 DUP7 SWAP2 DUP7 SWAP6 SWAP5 SWAP4 ADD PUSH1 0x5 SHR ADD SWAP2 JUMPDEST DUP3 DUP2 LT PUSH3 0x462 JUMPI POP POP PUSH3 0xD5 JUMP JUMPDEST PUSH1 0x0 DUP2 SSTORE DUP6 SWAP5 POP DUP7 SWAP2 ADD PUSH3 0x452 JUMP JUMPDEST SWAP3 POP DUP2 SWAP3 PUSH3 0x444 JUMP JUMPDEST PUSH4 0x4E487B71 PUSH1 0xE0 SHL PUSH1 0x0 MSTORE PUSH1 0x22 PUSH1 0x4 MSTORE PUSH1 0x24 PUSH1 0x0 REVERT JUMPDEST SWAP2 PUSH1 0x7F AND SWAP2 PUSH3 0xC1 JUMP JUMPDEST PUSH1 0x0 DUP1 REVERT JUMPDEST PUSH1 0x40 DUP1 MLOAD SWAP2 SWAP1 DUP3 ADD PUSH1 0x1 PUSH1 0x1 PUSH1 0x40 SHL SUB DUP2 GT DUP4 DUP3 LT OR PUSH3 0x39F JUMPI PUSH1 0x40 MSTORE JUMP JUMPDEST MLOAD SWAP1 PUSH1 0x1 PUSH1 0x1 PUSH1 0xA0 SHL SUB DUP3 AND DUP3 SUB PUSH3 0x49D JUMPI JUMP INVALID PUSH1 0x80 DUP1 PUSH1 0x40 MSTORE PUSH1 0x4 CALLDATASIZE LT ISZERO PUSH2 0x13 JUMPI PUSH1 0x0 DUP1 REVERT JUMPDEST PUSH1 0x0 CALLDATALOAD PUSH1 0xE0 SHR SWAP1 DUP2 PUSH4 0x3833501 EQ PUSH2 0x19D7 JUMPI POP DUP1 PUSH4 0x6FDDE03 EQ PUSH2 0x1919 JUMPI DUP1 PUSH4 0x8D887D0 EQ PUSH2 0x18C8 JUMPI DUP1 PUSH4 0x95EA7B3 EQ PUSH2 0x1842 JUMPI DUP1 PUSH4 0xC27AB5A EQ PUSH2 0x17FF JUMPI DUP1 PUSH4 0xF3F0803 EQ PUSH2 0x1762 JUMPI DUP1 PUSH4 0x18160DDD EQ PUSH2 0x1744 JUMPI DUP1 PUSH4 0x23B872DD EQ PUSH2 0x165D JUMPI DUP1 PUSH4 0x313CE567 EQ PUSH2 0x1641 JUMPI DUP1 PUSH4 0x3CBF9342 EQ PUSH2 0x1605 JUMPI DUP1 PUSH4 0x3D8D1DCE EQ PUSH2 0x15A9 JUMPI DUP1 PUSH4 0x4C915D18 EQ PUSH2 0x158B JUMPI DUP1 PUSH4 0x508C0634 EQ PUSH2 0x12DC JUMPI DUP1 PUSH4 0x57FE51D2 EQ PUSH2 0x1279 JUMPI DUP1 PUSH4 0x62D3F814 EQ PUSH2 0x11F6 JUMPI DUP1 PUSH4 0x6605BFDA EQ PUSH2 0x1169 JUMPI DUP1 PUSH4 0x6B6EF953 EQ PUSH2 0x1146 JUMPI DUP1 PUSH4 0x6BE14A33 EQ PUSH2 0x111F JUMPI DUP1 PUSH4 0x6CD9CA14 EQ PUSH2 0x10B3 JUMPI DUP1 PUSH4 0x6E2FAE47 EQ PUSH2 0x1026 JUMPI DUP1 PUSH4 0x70A08231 EQ PUSH2 0xFEC JUMPI DUP1 PUSH4 0x715018A6 EQ PUSH2 0xF8F JUMPI DUP1 PUSH4 0x76223A27 EQ PUSH2 0xEE8 JUMPI DUP1 PUSH4 0x800753CF EQ PUSH2 0xECA JUMPI DUP1 PUSH4 0x8DA5CB5B EQ PUSH2 0xEA1 JUMPI DUP1 PUSH4 0x8FFA15D4 EQ PUSH2 0xE50 JUMPI DUP1 PUSH4 0x95D89B41 EQ PUSH2 0xD4B JUMPI DUP1 PUSH4 0xA9059CBB EQ PUSH2 0x616 JUMPI DUP1 PUSH4 0xB065A8E5 EQ PUSH2 0x5DC JUMPI DUP1 PUSH4 0xC5F956AF EQ PUSH2 0x5B3 JUMPI DUP1 PUSH4 0xC750F203 EQ PUSH2 0x595 JUMPI DUP1 PUSH4 0xDD62ED3E EQ PUSH2 0x544 JUMPI DUP1 PUSH4 0xE06A7A10 EQ PUSH2 0x51E JUMPI DUP1 PUSH4 0xF0E6EA8D EQ PUSH2 0x22E JUMPI PUSH4 0xF2FDE38B EQ PUSH2 0x1A0 JUMPI PUSH1 0x0 DUP1 REVERT JUMPDEST CALLVALUE PUSH2 0x229 JUMPI PUSH1 0x20 CALLDATASIZE PUSH1 0x3 NOT ADD SLT PUSH2 0x229 JUMPI PUSH2 0x1B9 PUSH2 0x1A3B JUMP JUMPDEST PUSH2 0x1C1 PUSH2 0x1A9C JUMP JUMPDEST PUSH1 0x1 PUSH1 0x1 PUSH1 0xA0 SHL SUB SWAP1 DUP2 AND SWAP1 DUP2 ISZERO PUSH2 0x210 JUMPI PUSH1 0x5 SLOAD DUP3 PUSH1 0x1 PUSH1 0x1 PUSH1 0x60 SHL SUB PUSH1 0xA0 SHL DUP3 AND OR PUSH1 0x5 SSTORE AND PUSH32 0x8BE0079C531659141344CD1FD0A4F28419497F9722A3DAAFE3B4186F6B6457E0 PUSH1 0x0 DUP1 LOG3 STOP JUMPDEST PUSH1 0x40 MLOAD PUSH4 0x1E4FBDF7 PUSH1 0xE0 SHL DUP2 MSTORE PUSH1 0x0 PUSH1 0x4 DUP3 ADD MSTORE PUSH1 0x24 SWAP1 REVERT JUMPDEST PUSH1 0x0 DUP1 REVERT JUMPDEST CALLVALUE PUSH2 0x229 JUMPI PUSH2 0x23C CALLDATASIZE PUSH2 0x1A67 JUMP JUMPDEST SWAP1 SWAP2 PUSH1 0x1 PUSH1 0x1 PUSH1 0xA0 SHL SUB SWAP2 DUP3 DUP3 AND SWAP2 SWAP1 CALLER DUP4 SWAP1 SUB PUSH2 0x4CD JUMPI DUP3 PUSH1 0x0 MSTORE PUSH1 0x20 SWAP2 PUSH1 0xB DUP4 MSTORE PUSH1 0x40 PUSH1 0x0 KECCAK256 DUP1 SLOAD TIMESTAMP LT ISZERO PUSH2 0x495 JUMPI PUSH1 0x2 DUP2 ADD SLOAD DUP8 DUP8 AND SWAP7 AND DUP7 SUB PUSH2 0x444 JUMPI DUP5 PUSH1 0x0 MSTORE PUSH1 0x0 DUP5 MSTORE DUP3 PUSH1 0x40 PUSH1 0x0 KECCAK256 SLOAD LT PUSH2 0x3FF JUMPI PUSH1 0x6 ADD DUP1 SLOAD PUSH1 0xFF DUP2 AND PUSH2 0x3BA JUMPI SWAP7 PUSH2 0x365 SWAP3 DUP5 SWAP3 PUSH1 0x1 PUSH32 0x55608E3380952B490F6DC0B1B0BCF7A16177FE10590CF1599B7A84F430B70E37 SWAP9 SWAP10 SWAP11 PUSH1 0xFF NOT AND OR SWAP1 SSTORE DUP8 PUSH1 0x0 MSTORE PUSH1 0xE DUP7 MSTORE PUSH1 0x40 PUSH1 0x0 KECCAK256 PUSH1 0x2 DUP2 ADD DUP1 SLOAD ISZERO PUSH2 0x3B1 JUMPI JUMPDEST POP PUSH2 0x2F6 DUP2 SLOAD PUSH2 0x1BDC JUMP JUMPDEST DUP2 SSTORE PUSH1 0x1 TIMESTAMP SWAP2 ADD SSTORE DUP9 DUP7 DUP10 PUSH2 0x30A DUP5 PUSH2 0x1D22 JUMP JUMPDEST PUSH1 0x40 MLOAD SWAP1 DUP2 MSTORE PUSH1 0x0 DUP1 MLOAD PUSH1 0x20 PUSH2 0x1E8F DUP4 CODECOPY DUP2 MLOAD SWAP2 MSTORE SWAP3 DUP4 SWAP2 LOG2 DUP2 PUSH1 0x0 MSTORE PUSH1 0xE DUP9 MSTORE PUSH1 0x40 PUSH1 0x0 KECCAK256 PUSH1 0x2 DUP2 ADD DUP1 SLOAD ISZERO PUSH2 0x3A8 JUMPI JUMPDEST POP PUSH2 0x347 DUP2 SLOAD PUSH2 0x1BDC JUMP JUMPDEST DUP2 SSTORE PUSH1 0x1 TIMESTAMP SWAP2 ADD SSTORE DUP8 PUSH2 0x359 DUP6 PUSH2 0x1D22 JUMP JUMPDEST PUSH1 0x40 MLOAD SWAP1 DUP2 MSTORE LOG2 PUSH2 0x1AEA JUMP JUMPDEST DUP4 PUSH1 0x0 MSTORE PUSH1 0xB DUP3 MSTORE PUSH2 0x39F PUSH1 0x40 PUSH1 0x0 KECCAK256 PUSH1 0x6 PUSH1 0x0 SWAP2 DUP3 DUP2 SSTORE DUP3 PUSH1 0x1 DUP3 ADD SSTORE DUP3 PUSH1 0x2 DUP3 ADD SSTORE DUP3 PUSH1 0x3 DUP3 ADD SSTORE DUP3 PUSH1 0x4 DUP3 ADD SSTORE DUP3 PUSH1 0x5 DUP3 ADD SSTORE ADD SSTORE JUMP JUMPDEST PUSH1 0x40 MLOAD SWAP1 DUP2 MSTORE LOG3 STOP JUMPDEST TIMESTAMP SWAP1 SSTORE DUP13 PUSH2 0x33C JUMP JUMPDEST TIMESTAMP SWAP1 SSTORE DUP11 PUSH2 0x2EB JUMP JUMPDEST PUSH1 0x40 MLOAD PUSH3 0x461BCD PUSH1 0xE5 SHL DUP2 MSTORE PUSH1 0x4 DUP2 ADD DUP7 SWAP1 MSTORE PUSH1 0x19 PUSH1 0x24 DUP3 ADD MSTORE PUSH32 0x5472616E7366657220616C726561647920726576657273656400000000000000 PUSH1 0x44 DUP3 ADD MSTORE PUSH1 0x64 SWAP1 REVERT JUMPDEST PUSH1 0x40 MLOAD PUSH3 0x461BCD PUSH1 0xE5 SHL DUP2 MSTORE PUSH1 0x4 DUP2 ADD DUP6 SWAP1 MSTORE PUSH1 0x1F PUSH1 0x24 DUP3 ADD MSTORE PUSH32 0x496E73756666696369656E742062616C616E636520746F207265766572736500 PUSH1 0x44 DUP3 ADD MSTORE PUSH1 0x64 SWAP1 REVERT JUMPDEST PUSH1 0x40 MLOAD PUSH3 0x461BCD PUSH1 0xE5 SHL DUP2 MSTORE PUSH1 0x4 DUP2 ADD DUP6 SWAP1 MSTORE PUSH1 0x23 PUSH1 0x24 DUP3 ADD MSTORE PUSH32 0x526576657273616C206D75737420676F206261636B20746F206F726967696E61 PUSH1 0x44 DUP3 ADD MSTORE PUSH3 0x3A37B9 PUSH1 0xE9 SHL PUSH1 0x64 DUP3 ADD MSTORE PUSH1 0x84 SWAP1 REVERT JUMPDEST PUSH1 0x40 MLOAD PUSH3 0x461BCD PUSH1 0xE5 SHL DUP2 MSTORE PUSH1 0x4 DUP2 ADD DUP6 SWAP1 MSTORE PUSH1 0x10 PUSH1 0x24 DUP3 ADD MSTORE PUSH16 0x12185B19931A599948195E1C1A5C9959 PUSH1 0x82 SHL PUSH1 0x44 DUP3 ADD MSTORE PUSH1 0x64 SWAP1 REVERT JUMPDEST PUSH1 0x40 MLOAD PUSH3 0x461BCD PUSH1 0xE5 SHL DUP2 MSTORE PUSH1 0x20 PUSH1 0x4 DUP3 ADD MSTORE PUSH1 0x23 PUSH1 0x24 DUP3 ADD MSTORE PUSH32 0x4F6E6C792072656365697665722063616E20696E697469617465207265766572 PUSH1 0x44 DUP3 ADD MSTORE PUSH3 0x1CD85B PUSH1 0xEA SHL PUSH1 0x64 DUP3 ADD MSTORE PUSH1 0x84 SWAP1 REVERT JUMPDEST CALLVALUE PUSH2 0x229 JUMPI PUSH1 0x20 CALLDATASIZE PUSH1 0x3 NOT ADD SLT PUSH2 0x229 JUMPI PUSH1 0x20 PUSH2 0x53C PUSH1 0x4 CALLDATALOAD PUSH2 0x1BEB JUMP JUMPDEST PUSH1 0x40 MLOAD SWAP1 DUP2 MSTORE RETURN JUMPDEST CALLVALUE PUSH2 0x229 JUMPI PUSH1 0x40 CALLDATASIZE PUSH1 0x3 NOT ADD SLT PUSH2 0x229 JUMPI PUSH2 0x55D PUSH2 0x1A3B JUMP JUMPDEST PUSH2 0x565 PUSH2 0x1A51 JUMP JUMPDEST SWAP1 PUSH1 0x1 DUP1 PUSH1 0xA0 SHL SUB DUP1 SWAP2 AND PUSH1 0x0 MSTORE PUSH1 0x1 PUSH1 0x20 MSTORE PUSH1 0x40 PUSH1 0x0 KECCAK256 SWAP2 AND PUSH1 0x0 MSTORE PUSH1 0x20 MSTORE PUSH1 0x20 PUSH1 0x40 PUSH1 0x0 KECCAK256 SLOAD PUSH1 0x40 MLOAD SWAP1 DUP2 MSTORE RETURN JUMPDEST CALLVALUE PUSH2 0x229 JUMPI PUSH1 0x0 CALLDATASIZE PUSH1 0x3 NOT ADD SLT PUSH2 0x229 JUMPI PUSH1 0x20 PUSH1 0x8 SLOAD PUSH1 0x40 MLOAD SWAP1 DUP2 MSTORE RETURN JUMPDEST CALLVALUE PUSH2 0x229 JUMPI PUSH1 0x0 CALLDATASIZE PUSH1 0x3 NOT ADD SLT PUSH2 0x229 JUMPI PUSH1 0xA SLOAD PUSH1 0x40 MLOAD PUSH1 0x1 PUSH1 0x1 PUSH1 0xA0 SHL SUB SWAP1 SWAP2 AND DUP2 MSTORE PUSH1 0x20 SWAP1 RETURN JUMPDEST CALLVALUE PUSH2 0x229 JUMPI PUSH1 0x20 CALLDATASIZE PUSH1 0x3 NOT ADD SLT PUSH2 0x229 JUMPI PUSH1 0x1 PUSH1 0x1 PUSH1 0xA0 SHL SUB PUSH2 0x5FD PUSH2 0x1A3B JUMP JUMPDEST AND PUSH1 0x0 MSTORE PUSH1 0xF PUSH1 0x20 MSTORE PUSH1 0x20 PUSH1 0x40 PUSH1 0x0 KECCAK256 SLOAD PUSH1 0x40 MLOAD SWAP1 DUP2 MSTORE RETURN JUMPDEST CALLVALUE PUSH2 0x229 JUMPI PUSH1 0x40 CALLDATASIZE PUSH1 0x3 NOT ADD SLT PUSH2 0x229 JUMPI PUSH2 0x62F PUSH2 0x1A3B JUMP JUMPDEST PUSH1 0x1 PUSH1 0x1 PUSH1 0xA0 SHL SUB DUP2 AND ISZERO PUSH2 0xD06 JUMPI PUSH1 0x24 CALLDATALOAD ISZERO PUSH2 0xCAF JUMPI CALLER PUSH1 0x0 MSTORE PUSH1 0xE PUSH1 0x20 MSTORE PUSH1 0x2 PUSH1 0x40 PUSH1 0x0 KECCAK256 ADD DUP1 SLOAD ISZERO PUSH2 0xCA6 JUMPI JUMPDEST POP PUSH2 0x669 CALLER PUSH2 0x1D22 JUMP JUMPDEST PUSH1 0x40 MLOAD SWAP1 DUP2 MSTORE PUSH1 0x0 DUP1 MLOAD PUSH1 0x20 PUSH2 0x1E8F DUP4 CODECOPY DUP2 MLOAD SWAP2 MSTORE SWAP1 DUP2 PUSH1 0x20 CALLER SWAP3 LOG2 PUSH1 0x1 PUSH1 0x1 PUSH1 0xA0 SHL SUB DUP3 AND PUSH1 0x0 SWAP1 DUP2 MSTORE PUSH1 0xE PUSH1 0x20 MSTORE PUSH1 0x40 SWAP1 KECCAK256 PUSH1 0x2 ADD DUP1 SLOAD ISZERO PUSH2 0xC9D JUMPI JUMPDEST POP PUSH2 0x6B2 DUP3 PUSH2 0x1D22 JUMP JUMPDEST PUSH1 0x40 MLOAD SWAP1 DUP2 MSTORE PUSH1 0x1 PUSH1 0x1 PUSH1 0xA0 SHL SUB DUP4 AND SWAP2 SWAP1 PUSH1 0x20 SWAP1 LOG2 CALLER PUSH1 0x0 MSTORE PUSH1 0xB PUSH1 0x20 MSTORE PUSH1 0x40 PUSH1 0x0 KECCAK256 DUP1 SLOAD TIMESTAMP LT SWAP1 DUP2 PUSH2 0xC82 JUMPI JUMPDEST POP PUSH2 0xC18 JUMPI PUSH2 0x704 PUSH2 0x6FE DUP3 CALLER PUSH2 0x6F9 PUSH1 0x24 CALLDATALOAD PUSH2 0x1BEB JUMP JUMPDEST PUSH2 0x1CEE JUMP JUMPDEST CALLER PUSH2 0x1E33 JUMP JUMPDEST SWAP1 PUSH2 0x1F4 DUP1 PUSH1 0x24 CALLDATALOAD MUL SWAP1 PUSH1 0x24 CALLDATALOAD DUP3 DIV SUB PUSH2 0x9F7 JUMPI PUSH2 0x2710 SWAP1 DIV DUP1 DUP4 GT PUSH2 0xC10 JUMPI JUMPDEST POP PUSH1 0x1 DUP3 LT DUP1 PUSH2 0xC04 JUMPI JUMPDEST PUSH2 0xBFB JUMPI JUMPDEST PUSH1 0x24 CALLDATALOAD DUP3 GT PUSH2 0xBF1 JUMPI JUMPDEST PUSH2 0x74B DUP3 PUSH1 0x24 CALLDATALOAD PUSH2 0x1BCF JUMP JUMPDEST SWAP2 PUSH2 0x757 DUP4 DUP4 CALLER PUSH2 0x1AEA JUMP JUMPDEST DUP1 PUSH2 0xAD9 JUMPI JUMPDEST CALLER PUSH1 0x0 MSTORE PUSH1 0xD PUSH1 0x20 MSTORE PUSH1 0x40 PUSH1 0x0 KECCAK256 PUSH1 0x1 DUP1 PUSH1 0xA0 SHL SUB DUP4 AND PUSH1 0x0 MSTORE PUSH1 0x20 MSTORE PUSH1 0x40 PUSH1 0x0 KECCAK256 PUSH2 0x789 DUP2 SLOAD PUSH2 0x1BDC JUMP JUMPDEST SWAP1 SSTORE PUSH1 0x6 SLOAD CALLER PUSH1 0x0 MSTORE PUSH1 0xD PUSH1 0x20 MSTORE PUSH1 0x40 PUSH1 0x0 KECCAK256 PUSH1 0x1 DUP1 PUSH1 0xA0 SHL SUB DUP5 AND PUSH1 0x0 MSTORE PUSH1 0x20 MSTORE PUSH1 0x40 PUSH1 0x0 KECCAK256 SLOAD DUP1 ISZERO DUP1 ISZERO PUSH2 0xA97 JUMPI JUMPDEST POP POP CALLER PUSH1 0x0 MSTORE PUSH1 0xC PUSH1 0x20 MSTORE PUSH1 0x40 PUSH1 0x0 KECCAK256 PUSH1 0x1 DUP2 ADD SLOAD SWAP1 DUP2 ISZERO SWAP1 DUP2 ISZERO PUSH2 0xA28 JUMPI JUMPDEST POP POP POP PUSH1 0x7 SLOAD SWAP1 DUP2 DUP2 LT PUSH1 0x0 EQ PUSH2 0xA0D JUMPI POP JUMPDEST PUSH2 0x7F7 DUP2 TIMESTAMP PUSH2 0x1BAF JUMP JUMPDEST PUSH1 0x1 PUSH1 0x1 PUSH1 0xA0 SHL SUB DUP5 AND PUSH1 0x0 SWAP1 DUP2 MSTORE PUSH1 0xB PUSH1 0x20 MSTORE PUSH1 0x40 SWAP1 KECCAK256 PUSH1 0x3 ADD SLOAD PUSH1 0x1 DUP2 ADD DUP2 GT PUSH2 0x9F7 JUMPI PUSH1 0x40 MLOAD SWAP1 PUSH1 0x20 DUP3 ADD CALLER PUSH1 0x60 SHL DUP2 MSTORE PUSH1 0x1 PUSH1 0x1 PUSH1 0x60 SHL SUB NOT DUP8 PUSH1 0x60 SHL AND PUSH1 0x34 DUP5 ADD MSTORE PUSH1 0x24 CALLDATALOAD PUSH1 0x48 DUP5 ADD MSTORE PUSH1 0x48 DUP4 MSTORE DUP3 PUSH1 0x80 DUP2 ADD LT PUSH8 0xFFFFFFFFFFFFFFFF PUSH1 0x80 DUP6 ADD GT OR PUSH2 0x9E1 JUMPI PUSH1 0x80 DUP4 ADD PUSH1 0x40 MSTORE DUP3 MLOAD SWAP1 KECCAK256 PUSH1 0x80 DUP4 ADD PUSH2 0x160 DUP5 ADD LT PUSH8 0xFFFFFFFFFFFFFFFF PUSH2 0x160 DUP6 ADD GT OR PUSH2 0x9E1 JUMPI PUSH1 0x6 SWAP4 PUSH2 0x160 DUP5 ADD PUSH1 0x40 MSTORE PUSH1 0x80 DUP5 ADD MSTORE PUSH1 0xA0 DUP4 ADD SWAP5 DUP6 MSTORE PUSH1 0xC0 DUP4 ADD SWAP2 CALLER DUP4 MSTORE PUSH1 0x1 PUSH1 0xE0 DUP6 ADD SWAP2 ADD DUP2 MSTORE PUSH2 0x100 DUP5 ADD SWAP2 DUP3 MSTORE PUSH2 0x120 DUP5 ADD SWAP3 DUP8 DUP5 MSTORE PUSH2 0x140 DUP6 ADD SWAP7 PUSH1 0x0 DUP9 MSTORE PUSH1 0x1 DUP1 PUSH1 0xA0 SHL SUB DUP11 AND PUSH1 0x0 MSTORE PUSH1 0xB PUSH1 0x20 MSTORE PUSH1 0x80 PUSH1 0x40 PUSH1 0x0 KECCAK256 SWAP7 ADD MLOAD DUP7 SSTORE MLOAD PUSH1 0x1 DUP7 ADD SSTORE PUSH1 0x2 DUP6 ADD SWAP1 PUSH1 0x1 DUP1 PUSH1 0xA0 SHL SUB SWAP1 MLOAD AND PUSH1 0x1 PUSH1 0x1 PUSH1 0x60 SHL SUB PUSH1 0xA0 SHL DUP3 SLOAD AND OR SWAP1 SSTORE MLOAD PUSH1 0x3 DUP5 ADD SSTORE MLOAD PUSH1 0x4 DUP4 ADD SSTORE MLOAD PUSH1 0x5 DUP3 ADD SSTORE ADD SWAP1 MLOAD ISZERO ISZERO PUSH1 0xFF DUP1 NOT DUP4 SLOAD AND SWAP2 AND OR SWAP1 SSTORE PUSH1 0xC PUSH1 0x20 MSTORE PUSH1 0x40 PUSH1 0x0 KECCAK256 PUSH1 0x1 PUSH1 0x2 DUP3 ADD SWAP2 DUP3 SLOAD DUP1 ISZERO ISZERO SWAP1 DUP2 PUSH2 0x9CC JUMPI JUMPDEST POP PUSH2 0x9BD JUMPI JUMPDEST PUSH2 0x966 PUSH1 0x24 CALLDATALOAD DUP3 SLOAD PUSH2 0x1BAF JUMP JUMPDEST DUP2 SSTORE ADD PUSH2 0x973 DUP2 SLOAD PUSH2 0x1BDC JUMP JUMPDEST SWAP1 SSTORE TIMESTAMP SWAP1 SSTORE PUSH1 0x40 MLOAD SWAP3 DUP4 MSTORE PUSH1 0x20 DUP4 ADD MSTORE PUSH1 0x1 DUP1 PUSH1 0xA0 SHL SUB AND SWAP1 PUSH32 0x98BC3FE7D138931A49691B623C256B8812F2A3D7F9B25BA7098C82538977A5D0 PUSH1 0x40 CALLER SWAP3 LOG3 PUSH1 0x20 PUSH1 0x40 MLOAD PUSH1 0x1 DUP2 MSTORE RETURN JUMPDEST PUSH1 0x0 DUP2 SSTORE PUSH1 0x0 DUP3 DUP3 ADD SSTORE PUSH2 0x959 JUMP JUMPDEST PUSH2 0x9D7 SWAP2 POP TIMESTAMP PUSH2 0x1BCF JUMP JUMPDEST PUSH1 0x9 SLOAD LT DUP8 PUSH2 0x953 JUMP JUMPDEST PUSH4 0x4E487B71 PUSH1 0xE0 SHL PUSH1 0x0 MSTORE PUSH1 0x41 PUSH1 0x4 MSTORE PUSH1 0x24 PUSH1 0x0 REVERT JUMPDEST PUSH4 0x4E487B71 PUSH1 0xE0 SHL PUSH1 0x0 MSTORE PUSH1 0x11 PUSH1 0x4 MSTORE PUSH1 0x24 PUSH1 0x0 REVERT JUMPDEST SWAP1 POP PUSH1 0x8 SLOAD DUP1 DUP3 GT PUSH2 0xA20 JUMPI JUMPDEST POP PUSH2 0x7ED JUMP JUMPDEST SWAP1 POP DUP5 PUSH2 0xA1A JUMP JUMPDEST SLOAD SWAP1 DUP2 ISZERO PUSH2 0x7DA JUMPI PUSH2 0xA81 JUMPI DIV PUSH1 0xA DUP2 MUL SWAP1 DUP1 DUP3 DIV PUSH1 0xA EQ SWAP1 ISZERO OR ISZERO PUSH2 0x9F7 JUMPI PUSH1 0x24 CALLDATALOAD GT PUSH2 0xA59 JUMPI JUMPDEST DUP5 DUP1 DUP1 PUSH2 0x7DA JUMP JUMPDEST DUP1 PUSH1 0x1 SHL SWAP1 DUP1 DUP3 DIV PUSH1 0x2 EQ SWAP1 ISZERO OR PUSH2 0xA51 JUMPI PUSH4 0x4E487B71 PUSH1 0xE0 SHL PUSH1 0x0 MSTORE PUSH1 0x11 PUSH1 0x4 MSTORE PUSH1 0x24 PUSH1 0x0 REVERT JUMPDEST PUSH4 0x4E487B71 PUSH1 0xE0 SHL PUSH1 0x0 MSTORE PUSH1 0x12 PUSH1 0x4 MSTORE PUSH1 0x24 PUSH1 0x0 REVERT JUMPDEST PUSH1 0xA DUP3 MUL SWAP2 DUP3 DIV PUSH1 0xA EQ OR ISZERO PUSH2 0x9F7 JUMPI PUSH1 0x5A DUP2 GT ISZERO PUSH2 0xAD4 JUMPI POP PUSH1 0x5A JUMPDEST PUSH1 0x64 SUB SWAP1 PUSH1 0x64 DUP3 GT PUSH2 0x9F7 JUMPI PUSH1 0x64 SWAP2 PUSH2 0xACC SWAP2 PUSH2 0x1BBC JUMP JUMPDEST DIV DUP5 DUP1 PUSH2 0x7BA JUMP JUMPDEST PUSH2 0xAB4 JUMP JUMPDEST DUP1 PUSH1 0x1 SHR DUP1 PUSH2 0xB6B JUMPI JUMPDEST PUSH2 0xB28 SWAP1 PUSH2 0xB23 DUP4 PUSH1 0x2 SHR SWAP2 CALLER PUSH1 0x0 MSTORE PUSH1 0xF PUSH1 0x20 MSTORE PUSH1 0x40 PUSH1 0x0 KECCAK256 PUSH2 0xB08 DUP5 DUP3 SLOAD PUSH2 0x1BAF JUMP JUMPDEST SWAP1 SSTORE CALLER PUSH1 0x0 MSTORE PUSH1 0xF PUSH1 0x20 MSTORE TIMESTAMP PUSH1 0x1 PUSH1 0x40 PUSH1 0x0 KECCAK256 ADD SSTORE DUP5 PUSH2 0x1BCF JUMP JUMPDEST PUSH2 0x1BCF JUMP JUMPDEST PUSH1 0x1 DUP1 PUSH1 0xA0 SHL SUB DUP4 AND PUSH1 0x0 MSTORE PUSH1 0xF PUSH1 0x20 MSTORE PUSH2 0xB49 PUSH1 0x40 PUSH1 0x0 KECCAK256 SWAP2 DUP3 SLOAD PUSH2 0x1BAF JUMP JUMPDEST SWAP1 SSTORE PUSH1 0x1 DUP1 PUSH1 0xA0 SHL SUB DUP3 AND PUSH1 0x0 MSTORE PUSH1 0xF PUSH1 0x20 MSTORE TIMESTAMP PUSH1 0x1 PUSH1 0x40 PUSH1 0x0 KECCAK256 ADD SSTORE PUSH2 0x75D JUMP JUMPDEST PUSH1 0xA SLOAD PUSH1 0x1 PUSH1 0x1 PUSH1 0xA0 SHL SUB AND SWAP1 DUP2 ISZERO PUSH2 0xBD8 JUMPI PUSH2 0xB28 SWAP2 PUSH2 0xB8E DUP3 PUSH1 0x2 SLOAD PUSH2 0x1BAF JUMP JUMPDEST PUSH1 0x2 SSTORE DUP1 PUSH1 0x0 MSTORE PUSH1 0x0 PUSH1 0x20 MSTORE PUSH1 0x40 PUSH1 0x0 KECCAK256 DUP3 DUP2 SLOAD ADD SWAP1 SSTORE PUSH1 0x0 PUSH32 0xDDF252AD1BE2C89B69C2B068FC378DAA952BA7F163C4A11628F55A4DF523B3EF PUSH1 0x20 PUSH1 0x40 MLOAD DUP6 DUP2 MSTORE LOG3 SWAP1 POP PUSH2 0xAE3 JUMP JUMPDEST PUSH1 0x40 MLOAD PUSH4 0xEC442F05 PUSH1 0xE0 SHL DUP2 MSTORE PUSH1 0x0 PUSH1 0x4 DUP3 ADD MSTORE PUSH1 0x24 SWAP1 REVERT JUMPDEST PUSH1 0x24 CALLDATALOAD SWAP2 POP PUSH2 0x73F JUMP JUMPDEST PUSH1 0x1 SWAP2 POP PUSH2 0x735 JUMP JUMPDEST POP PUSH1 0x1 PUSH1 0x24 CALLDATALOAD GT PUSH2 0x730 JUMP JUMPDEST SWAP2 POP DUP3 PUSH2 0x725 JUMP JUMPDEST PUSH1 0x84 PUSH1 0x40 MLOAD PUSH3 0x461BCD PUSH1 0xE5 SHL DUP2 MSTORE PUSH1 0x20 PUSH1 0x4 DUP3 ADD MSTORE PUSH1 0x40 PUSH1 0x24 DUP3 ADD MSTORE PUSH32 0x43616E6E6F74207472616E7366657220647572696E672048616C664C69666520 PUSH1 0x44 DUP3 ADD MSTORE PUSH32 0x706572696F6420657863657074206261636B20746F206F726967696E61746F72 PUSH1 0x64 DUP3 ADD MSTORE REVERT JUMPDEST PUSH1 0x2 ADD SLOAD PUSH1 0x1 PUSH1 0x1 PUSH1 0xA0 SHL SUB DUP4 DUP2 AND SWAP2 AND EQ ISZERO SWAP1 POP DUP3 PUSH2 0x6E1 JUMP JUMPDEST TIMESTAMP SWAP1 SSTORE DUP3 PUSH2 0x6A8 JUMP JUMPDEST TIMESTAMP SWAP1 SSTORE DUP2 PUSH2 0x65F JUMP JUMPDEST PUSH1 0x40 MLOAD PUSH3 0x461BCD PUSH1 0xE5 SHL DUP2 MSTORE PUSH1 0x20 PUSH1 0x4 DUP3 ADD MSTORE PUSH1 0x29 PUSH1 0x24 DUP3 ADD MSTORE PUSH32 0x5472616E7366657220616D6F756E74206D757374206265206772656174657220 PUSH1 0x44 DUP3 ADD MSTORE PUSH9 0x7468616E207A65726F PUSH1 0xB8 SHL PUSH1 0x64 DUP3 ADD MSTORE PUSH1 0x84 SWAP1 REVERT JUMPDEST PUSH1 0x40 MLOAD PUSH3 0x461BCD PUSH1 0xE5 SHL DUP2 MSTORE PUSH1 0x20 PUSH1 0x4 DUP3 ADD MSTORE PUSH1 0x18 PUSH1 0x24 DUP3 ADD MSTORE PUSH32 0x5472616E7366657220746F207A65726F20616464726573730000000000000000 PUSH1 0x44 DUP3 ADD MSTORE PUSH1 0x64 SWAP1 REVERT JUMPDEST CALLVALUE PUSH2 0x229 JUMPI PUSH1 0x0 CALLDATASIZE PUSH1 0x3 NOT ADD SLT PUSH2 0x229 JUMPI PUSH1 0x40 MLOAD PUSH1 0x0 SWAP1 PUSH1 0x4 SLOAD PUSH1 0x1 DUP2 DUP2 SHR SWAP1 DUP1 DUP4 AND SWAP3 DUP4 ISZERO PUSH2 0xE46 JUMPI JUMPDEST PUSH1 0x20 SWAP4 DUP5 DUP5 LT DUP2 EQ PUSH2 0xE30 JUMPI DUP4 DUP7 MSTORE SWAP1 DUP2 ISZERO PUSH2 0xE10 JUMPI POP PUSH1 0x1 EQ PUSH2 0xDB5 JUMPI JUMPDEST PUSH2 0xDB1 DUP5 PUSH2 0xDA5 DUP2 DUP9 SUB DUP3 PUSH2 0x1AC8 JUMP JUMPDEST PUSH1 0x40 MLOAD SWAP2 DUP3 SWAP2 DUP3 PUSH2 0x19F2 JUMP JUMPDEST SUB SWAP1 RETURN JUMPDEST PUSH1 0x4 PUSH1 0x0 SWAP1 DUP2 MSTORE SWAP3 SWAP5 POP PUSH32 0x8A35ACFBC15FF81A39AE7D344FD709F28E8600B4AA8C65C6B64BFE7FE36BD19B JUMPDEST DUP3 DUP5 LT PUSH2 0xDFD JUMPI POP POP POP DUP2 PUSH2 0xDB1 SWAP4 PUSH2 0xDA5 SWAP3 DUP3 ADD ADD SWAP4 PUSH2 0xD95 JUMP JUMPDEST DUP1 SLOAD DUP6 DUP6 ADD DUP8 ADD MSTORE SWAP3 DUP6 ADD SWAP3 DUP2 ADD PUSH2 0xDE1 JUMP JUMPDEST PUSH1 0xFF NOT AND DUP6 DUP6 ADD MSTORE POP POP ISZERO ISZERO PUSH1 0x5 SHL DUP3 ADD ADD SWAP2 POP PUSH2 0xDA5 DUP2 PUSH2 0xDB1 PUSH2 0xD95 JUMP JUMPDEST PUSH4 0x4E487B71 PUSH1 0xE0 SHL PUSH1 0x0 MSTORE PUSH1 0x22 PUSH1 0x4 MSTORE PUSH1 0x24 PUSH1 0x0 REVERT JUMPDEST SWAP2 PUSH1 0x7F AND SWAP2 PUSH2 0xD76 JUMP JUMPDEST CALLVALUE PUSH2 0x229 JUMPI PUSH1 0x40 CALLDATASIZE PUSH1 0x3 NOT ADD SLT PUSH2 0x229 JUMPI PUSH2 0xE69 PUSH2 0x1A3B JUMP JUMPDEST PUSH2 0xE71 PUSH2 0x1A51 JUMP JUMPDEST SWAP1 PUSH1 0x1 DUP1 PUSH1 0xA0 SHL SUB DUP1 SWAP2 AND PUSH1 0x0 MSTORE PUSH1 0xD PUSH1 0x20 MSTORE PUSH1 0x40 PUSH1 0x0 KECCAK256 SWAP2 AND PUSH1 0x0 MSTORE PUSH1 0x20 MSTORE PUSH1 0x20 PUSH1 0x40 PUSH1 0x0 KECCAK256 SLOAD PUSH1 0x40 MLOAD SWAP1 DUP2 MSTORE RETURN JUMPDEST CALLVALUE PUSH2 0x229 JUMPI PUSH1 0x0 CALLDATASIZE PUSH1 0x3 NOT ADD SLT PUSH2 0x229 JUMPI PUSH1 0x5 SLOAD PUSH1 0x40 MLOAD PUSH1 0x1 PUSH1 0x1 PUSH1 0xA0 SHL SUB SWAP1 SWAP2 AND DUP2 MSTORE PUSH1 0x20 SWAP1 RETURN JUMPDEST CALLVALUE PUSH2 0x229 JUMPI PUSH1 0x0 CALLDATASIZE PUSH1 0x3 NOT ADD SLT PUSH2 0x229 JUMPI PUSH1 0x20 PUSH1 0x7 SLOAD PUSH1 0x40 MLOAD SWAP1 DUP2 MSTORE RETURN JUMPDEST CALLVALUE PUSH2 0x229 JUMPI PUSH1 0x20 CALLDATASIZE PUSH1 0x3 NOT ADD SLT PUSH2 0x229 JUMPI PUSH1 0x4 CALLDATALOAD PUSH2 0xF04 PUSH2 0x1A9C JUMP JUMPDEST DUP1 ISZERO PUSH2 0xF53 JUMPI PUSH1 0x6 SLOAD DUP2 GT PUSH2 0xF18 JUMPI PUSH1 0x7 SSTORE STOP JUMPDEST PUSH1 0x40 MLOAD PUSH3 0x461BCD PUSH1 0xE5 SHL DUP2 MSTORE PUSH1 0x20 PUSH1 0x4 DUP3 ADD MSTORE PUSH1 0x13 PUSH1 0x24 DUP3 ADD MSTORE PUSH19 0x135A5B88195E18D959591CC8191959985D5B1D PUSH1 0x6A SHL PUSH1 0x44 DUP3 ADD MSTORE PUSH1 0x64 SWAP1 REVERT JUMPDEST PUSH1 0x40 MLOAD PUSH3 0x461BCD PUSH1 0xE5 SHL DUP2 MSTORE PUSH1 0x20 PUSH1 0x4 DUP3 ADD MSTORE PUSH1 0x14 PUSH1 0x24 DUP3 ADD MSTORE PUSH20 0x4D696E206D75737420626520706F736974697665 PUSH1 0x60 SHL PUSH1 0x44 DUP3 ADD MSTORE PUSH1 0x64 SWAP1 REVERT JUMPDEST CALLVALUE PUSH2 0x229 JUMPI PUSH1 0x0 CALLDATASIZE PUSH1 0x3 NOT ADD SLT PUSH2 0x229 JUMPI PUSH2 0xFA8 PUSH2 0x1A9C JUMP JUMPDEST PUSH1 0x5 DUP1 SLOAD PUSH1 0x1 PUSH1 0x1 PUSH1 0xA0 SHL SUB NOT DUP2 AND SWAP1 SWAP2 SSTORE PUSH1 0x0 SWAP1 PUSH1 0x1 PUSH1 0x1 PUSH1 0xA0 SHL SUB AND PUSH32 0x8BE0079C531659141344CD1FD0A4F28419497F9722A3DAAFE3B4186F6B6457E0 DUP3 DUP1 LOG3 STOP JUMPDEST CALLVALUE PUSH2 0x229 JUMPI PUSH1 0x20 CALLDATASIZE PUSH1 0x3 NOT ADD SLT PUSH2 0x229 JUMPI PUSH1 0x1 PUSH1 0x1 PUSH1 0xA0 SHL SUB PUSH2 0x100D PUSH2 0x1A3B JUMP JUMPDEST AND PUSH1 0x0 MSTORE PUSH1 0x0 PUSH1 0x20 MSTORE PUSH1 0x20 PUSH1 0x40 PUSH1 0x0 KECCAK256 SLOAD PUSH1 0x40 MLOAD SWAP1 DUP2 MSTORE RETURN JUMPDEST CALLVALUE PUSH2 0x229 JUMPI PUSH1 0x20 CALLDATASIZE PUSH1 0x3 NOT ADD SLT PUSH2 0x229 JUMPI PUSH2 0x1085 PUSH2 0x1042 PUSH2 0x1A3B JUMP JUMPDEST PUSH2 0x104A PUSH2 0x1A9C JUMP JUMPDEST PUSH1 0x0 DUP1 MLOAD PUSH1 0x20 PUSH2 0x1E8F DUP4 CODECOPY DUP2 MLOAD SWAP2 MSTORE PUSH1 0x20 PUSH1 0x1 DUP1 PUSH1 0xA0 SHL SUB DUP4 AND SWAP4 DUP5 SWAP4 DUP5 PUSH1 0x0 MSTORE PUSH1 0xE DUP4 MSTORE PUSH1 0x2 PUSH1 0x40 PUSH1 0x0 KECCAK256 ADD DUP1 SLOAD ISZERO PUSH2 0x10AA JUMPI JUMPDEST POP PUSH2 0x1D22 JUMP JUMPDEST PUSH1 0x40 MLOAD SWAP1 DUP2 MSTORE LOG2 PUSH1 0x0 MSTORE PUSH1 0xE PUSH1 0x20 MSTORE PUSH1 0x3 PUSH1 0x40 PUSH1 0x0 KECCAK256 ADD PUSH2 0x10A6 DUP2 SLOAD PUSH2 0x1BDC JUMP JUMPDEST SWAP1 SSTORE STOP JUMPDEST TIMESTAMP SWAP1 SSTORE DUP7 PUSH2 0x107F JUMP JUMPDEST CALLVALUE PUSH2 0x229 JUMPI PUSH1 0x20 CALLDATASIZE PUSH1 0x3 NOT ADD SLT PUSH2 0x229 JUMPI PUSH1 0x4 CALLDATALOAD PUSH2 0x10CF PUSH2 0x1A9C JUMP JUMPDEST DUP1 ISZERO PUSH2 0x10DA JUMPI PUSH1 0x9 SSTORE STOP JUMPDEST PUSH1 0x40 MLOAD PUSH3 0x461BCD PUSH1 0xE5 SHL DUP2 MSTORE PUSH1 0x20 PUSH1 0x4 DUP3 ADD MSTORE PUSH1 0x17 PUSH1 0x24 DUP3 ADD MSTORE PUSH32 0x506572696F64206D75737420626520706F736974697665000000000000000000 PUSH1 0x44 DUP3 ADD MSTORE PUSH1 0x64 SWAP1 REVERT JUMPDEST CALLVALUE PUSH2 0x229 JUMPI PUSH1 0x40 CALLDATASIZE PUSH1 0x3 NOT ADD SLT PUSH2 0x229 JUMPI PUSH1 0x20 PUSH2 0x53C PUSH2 0x113D PUSH2 0x1A3B JUMP JUMPDEST PUSH1 0x24 CALLDATALOAD SWAP1 PUSH2 0x1E33 JUMP JUMPDEST CALLVALUE PUSH2 0x229 JUMPI PUSH1 0x20 CALLDATASIZE PUSH1 0x3 NOT ADD SLT PUSH2 0x229 JUMPI PUSH1 0x20 PUSH2 0x53C PUSH2 0x1164 PUSH2 0x1A3B JUMP JUMPDEST PUSH2 0x1D22 JUMP JUMPDEST CALLVALUE PUSH2 0x229 JUMPI PUSH1 0x20 CALLDATASIZE PUSH1 0x3 NOT ADD SLT PUSH2 0x229 JUMPI PUSH2 0x1182 PUSH2 0x1A3B JUMP JUMPDEST PUSH2 0x118A PUSH2 0x1A9C JUMP JUMPDEST PUSH1 0x1 PUSH1 0x1 PUSH1 0xA0 SHL SUB AND DUP1 ISZERO PUSH2 0x11B1 JUMPI PUSH1 0x1 PUSH1 0x1 PUSH1 0x60 SHL SUB PUSH1 0xA0 SHL PUSH1 0xA SLOAD AND OR PUSH1 0xA SSTORE PUSH1 0x0 DUP1 RETURN JUMPDEST PUSH1 0x40 MLOAD PUSH3 0x461BCD PUSH1 0xE5 SHL DUP2 MSTORE PUSH1 0x20 PUSH1 0x4 DUP3 ADD MSTORE PUSH1 0x1F PUSH1 0x24 DUP3 ADD MSTORE PUSH32 0x547265617375727920616464726573732063616E6E6F74206265207A65726F00 PUSH1 0x44 DUP3 ADD MSTORE PUSH1 0x64 SWAP1 REVERT JUMPDEST CALLVALUE PUSH2 0x229 JUMPI PUSH1 0x20 CALLDATASIZE PUSH1 0x3 NOT ADD SLT PUSH2 0x229 JUMPI PUSH1 0xE0 PUSH1 0x1 PUSH1 0x1 PUSH1 0xA0 SHL SUB DUP1 PUSH2 0x121A PUSH2 0x1A3B JUMP JUMPDEST AND PUSH1 0x0 MSTORE PUSH1 0xB PUSH1 0x20 MSTORE PUSH1 0x40 PUSH1 0x0 KECCAK256 SWAP1 DUP2 SLOAD SWAP2 PUSH1 0x1 DUP2 ADD SLOAD SWAP2 PUSH1 0x2 DUP3 ADD SLOAD AND PUSH1 0x3 DUP3 ADD SLOAD PUSH1 0x4 DUP4 ADD SLOAD SWAP2 PUSH1 0xFF PUSH1 0x6 PUSH1 0x5 DUP7 ADD SLOAD SWAP6 ADD SLOAD AND SWAP5 PUSH1 0x40 MLOAD SWAP7 DUP8 MSTORE PUSH1 0x20 DUP8 ADD MSTORE PUSH1 0x40 DUP7 ADD MSTORE PUSH1 0x60 DUP6 ADD MSTORE PUSH1 0x80 DUP5 ADD MSTORE PUSH1 0xA0 DUP4 ADD MSTORE ISZERO ISZERO PUSH1 0xC0 DUP3 ADD MSTORE RETURN JUMPDEST CALLVALUE PUSH2 0x229 JUMPI PUSH1 0x20 CALLDATASIZE PUSH1 0x3 NOT ADD SLT PUSH2 0x229 JUMPI PUSH1 0x4 CALLDATALOAD PUSH2 0x1295 PUSH2 0x1A9C JUMP JUMPDEST PUSH1 0x6 SLOAD DUP2 LT PUSH2 0x12A3 JUMPI PUSH1 0x8 SSTORE STOP JUMPDEST PUSH1 0x40 MLOAD PUSH3 0x461BCD PUSH1 0xE5 SHL DUP2 MSTORE PUSH1 0x20 PUSH1 0x4 DUP3 ADD MSTORE PUSH1 0x11 PUSH1 0x24 DUP3 ADD MSTORE PUSH17 0x13585E0818995B1BDDC8191959985D5B1D PUSH1 0x7A SHL PUSH1 0x44 DUP3 ADD MSTORE PUSH1 0x64 SWAP1 REVERT JUMPDEST CALLVALUE PUSH2 0x229 JUMPI PUSH1 0x20 DUP1 PUSH1 0x3 NOT CALLDATASIZE ADD SLT PUSH2 0x229 JUMPI PUSH2 0x12F6 PUSH2 0x1A3B JUMP JUMPDEST PUSH1 0x1 PUSH1 0x1 PUSH1 0xA0 SHL SUB DUP1 DUP3 AND PUSH1 0x0 DUP2 DUP2 MSTORE PUSH1 0xB DUP6 MSTORE PUSH1 0x40 SWAP1 KECCAK256 DUP1 SLOAD SWAP2 SWAP5 SWAP4 SWAP1 SWAP2 DUP1 ISZERO PUSH2 0x1546 JUMPI TIMESTAMP LT PUSH2 0x1501 JUMPI PUSH1 0xFF PUSH1 0x6 DUP4 ADD SLOAD AND PUSH2 0x14C4 JUMPI SWAP2 PUSH1 0x2 DUP3 DUP7 PUSH2 0x1383 DUP8 SWAP7 DUP3 DUP9 PUSH1 0x5 PUSH32 0x23BD7F8191A147E373DEF338D5A76DCE96B4D2F7D15A43ECA83E3EE6E7506143 SWAP12 SWAP10 ADD SLOAD DUP1 PUSH2 0x141F JUMPI JUMPDEST POP POP PUSH1 0x0 MSTORE PUSH1 0xE DUP8 MSTORE DUP5 PUSH1 0x40 PUSH1 0x0 KECCAK256 ADD DUP1 SLOAD ISZERO PUSH2 0x1416 JUMPI POP PUSH2 0x1D22 JUMP JUMPDEST PUSH1 0x40 MLOAD SWAP1 DUP2 MSTORE PUSH1 0x0 DUP1 MLOAD PUSH1 0x20 PUSH2 0x1E8F DUP4 CODECOPY DUP2 MLOAD SWAP2 MSTORE SWAP6 DUP7 SWAP2 LOG2 ADD SLOAD AND SWAP1 DUP2 PUSH1 0x0 MSTORE PUSH1 0xE DUP4 MSTORE PUSH1 0x2 PUSH1 0x40 PUSH1 0x0 KECCAK256 ADD DUP1 SLOAD ISZERO PUSH2 0x140D JUMPI JUMPDEST POP DUP3 PUSH2 0x13C3 DUP4 PUSH2 0x1D22 JUMP JUMPDEST PUSH1 0x40 MLOAD SWAP1 DUP2 MSTORE LOG2 DUP3 PUSH1 0x0 MSTORE PUSH1 0xB DUP2 MSTORE PUSH2 0x1404 PUSH1 0x40 PUSH1 0x0 KECCAK256 PUSH1 0x6 PUSH1 0x0 SWAP2 DUP3 DUP2 SSTORE DUP3 PUSH1 0x1 DUP3 ADD SSTORE DUP3 PUSH1 0x2 DUP3 ADD SSTORE DUP3 PUSH1 0x3 DUP3 ADD SSTORE DUP3 PUSH1 0x4 DUP3 ADD SSTORE DUP3 PUSH1 0x5 DUP3 ADD SSTORE ADD SSTORE JUMP JUMPDEST PUSH1 0x40 MLOAD TIMESTAMP DUP2 MSTORE LOG2 STOP JUMPDEST TIMESTAMP SWAP1 SSTORE DUP6 PUSH2 0x13B8 JUMP JUMPDEST TIMESTAMP SWAP1 SSTORE DUP11 PUSH2 0x107F JUMP JUMPDEST PUSH1 0x3 SHR DUP1 ISZERO PUSH2 0x1366 JUMPI DUP2 SWAP1 DUP10 DUP10 DUP10 ADD DUP2 DUP2 SLOAD AND PUSH1 0x0 MSTORE PUSH1 0xF DUP5 MSTORE PUSH1 0x40 PUSH1 0x0 KECCAK256 PUSH2 0x1449 DUP5 DUP3 SLOAD PUSH2 0x1BAF JUMP JUMPDEST SWAP1 SSTORE DUP2 DUP2 SLOAD AND PUSH1 0x0 MSTORE PUSH1 0xF DUP5 MSTORE TIMESTAMP PUSH1 0x1 PUSH1 0x40 PUSH1 0x0 KECCAK256 ADD SSTORE DUP6 PUSH1 0x0 MSTORE PUSH1 0x40 PUSH1 0x0 KECCAK256 PUSH2 0x1474 DUP5 DUP3 SLOAD PUSH2 0x1BAF JUMP JUMPDEST SWAP1 SSTORE DUP6 PUSH1 0x0 MSTORE PUSH1 0xF DUP5 MSTORE TIMESTAMP PUSH1 0x1 PUSH1 0x40 PUSH1 0x0 KECCAK256 ADD SSTORE SLOAD AND PUSH1 0x40 MLOAD DUP3 DUP2 MSTORE PUSH32 0xFDFA38DC30C58B0662200654EF296C1527ABBF34B03B2F908AF130D2A35DB878 SWAP5 DUP6 SWAP2 LOG2 PUSH1 0x40 MLOAD SWAP1 DUP2 MSTORE LOG2 DUP3 DUP8 DUP13 PUSH2 0x1366 JUMP JUMPDEST PUSH1 0x40 MLOAD PUSH3 0x461BCD PUSH1 0xE5 SHL DUP2 MSTORE PUSH1 0x4 DUP2 ADD DUP6 SWAP1 MSTORE PUSH1 0x15 PUSH1 0x24 DUP3 ADD MSTORE PUSH21 0x151C985B9CD9995C881DD85CC81C995D995C9CD959 PUSH1 0x5A SHL PUSH1 0x44 DUP3 ADD MSTORE PUSH1 0x64 SWAP1 REVERT JUMPDEST PUSH1 0x40 MLOAD PUSH3 0x461BCD PUSH1 0xE5 SHL DUP2 MSTORE PUSH1 0x4 DUP2 ADD DUP6 SWAP1 MSTORE PUSH1 0x18 PUSH1 0x24 DUP3 ADD MSTORE PUSH32 0x48616C664C696665206E6F742065787069726564207965740000000000000000 PUSH1 0x44 DUP3 ADD MSTORE PUSH1 0x64 SWAP1 REVERT JUMPDEST PUSH1 0x40 MLOAD PUSH3 0x461BCD PUSH1 0xE5 SHL DUP2 MSTORE PUSH1 0x4 DUP2 ADD DUP7 SWAP1 MSTORE PUSH1 0x17 PUSH1 0x24 DUP3 ADD MSTORE PUSH32 0x4E6F20616374697665207472616E736665722064617461000000000000000000 PUSH1 0x44 DUP3 ADD MSTORE PUSH1 0x64 SWAP1 REVERT JUMPDEST CALLVALUE PUSH2 0x229 JUMPI PUSH1 0x0 CALLDATASIZE PUSH1 0x3 NOT ADD SLT PUSH2 0x229 JUMPI PUSH1 0x20 PUSH1 0x6 SLOAD PUSH1 0x40 MLOAD SWAP1 DUP2 MSTORE RETURN JUMPDEST CALLVALUE PUSH2 0x229 JUMPI PUSH1 0x20 CALLDATASIZE PUSH1 0x3 NOT ADD SLT PUSH2 0x229 JUMPI PUSH1 0x1 PUSH1 0x1 PUSH1 0xA0 SHL SUB PUSH2 0x15CA PUSH2 0x1A3B JUMP JUMPDEST AND PUSH1 0x0 MSTORE PUSH1 0xE PUSH1 0x20 MSTORE PUSH1 0x80 PUSH1 0x40 PUSH1 0x0 KECCAK256 DUP1 SLOAD SWAP1 PUSH1 0x1 DUP2 ADD SLOAD SWAP1 PUSH1 0x3 PUSH1 0x2 DUP3 ADD SLOAD SWAP2 ADD SLOAD SWAP2 PUSH1 0x40 MLOAD SWAP4 DUP5 MSTORE PUSH1 0x20 DUP5 ADD MSTORE PUSH1 0x40 DUP4 ADD MSTORE PUSH1 0x60 DUP3 ADD MSTORE RETURN JUMPDEST CALLVALUE PUSH2 0x229 JUMPI PUSH1 0x60 CALLDATASIZE PUSH1 0x3 NOT ADD SLT PUSH2 0x229 JUMPI PUSH2 0x161E PUSH2 0x1A51 JUMP JUMPDEST PUSH1 0x44 CALLDATALOAD SWAP1 PUSH1 0x1 PUSH1 0x1 PUSH1 0xA0 SHL SUB DUP3 AND DUP3 SUB PUSH2 0x229 JUMPI PUSH1 0x20 SWAP2 PUSH2 0x53C SWAP2 PUSH1 0x4 CALLDATALOAD PUSH2 0x1CEE JUMP JUMPDEST CALLVALUE PUSH2 0x229 JUMPI PUSH1 0x0 CALLDATASIZE PUSH1 0x3 NOT ADD SLT PUSH2 0x229 JUMPI PUSH1 0x20 PUSH1 0x40 MLOAD PUSH1 0x12 DUP2 MSTORE RETURN JUMPDEST CALLVALUE PUSH2 0x229 JUMPI PUSH2 0x166B CALLDATASIZE PUSH2 0x1A67 JUMP JUMPDEST SWAP1 PUSH1 0x1 DUP1 PUSH1 0xA0 SHL SUB DUP4 AND SWAP3 DUP4 PUSH1 0x0 MSTORE PUSH1 0x1 PUSH1 0x20 MSTORE PUSH1 0x40 PUSH1 0x0 KECCAK256 CALLER PUSH1 0x0 MSTORE PUSH1 0x20 MSTORE PUSH1 0x40 PUSH1 0x0 KECCAK256 SLOAD SWAP4 PUSH1 0x0 NOT DUP6 LT PUSH2 0x16B2 JUMPI JUMPDEST POP PUSH2 0x16A7 SWAP4 POP PUSH2 0x1AEA JUMP JUMPDEST PUSH1 0x20 PUSH1 0x40 MLOAD PUSH1 0x1 DUP2 MSTORE RETURN JUMPDEST DUP4 DUP6 LT PUSH2 0x171E JUMPI DUP1 ISZERO PUSH2 0x1705 JUMPI CALLER ISZERO PUSH2 0x16EC JUMPI PUSH2 0x16A7 SWAP5 DUP5 SWAP2 PUSH1 0x0 MSTORE PUSH1 0x1 PUSH1 0x20 MSTORE PUSH1 0x40 PUSH1 0x0 KECCAK256 CALLER PUSH1 0x0 MSTORE PUSH1 0x20 MSTORE SUB PUSH1 0x40 PUSH1 0x0 KECCAK256 SSTORE DUP5 PUSH2 0x169C JUMP JUMPDEST PUSH1 0x40 MLOAD PUSH4 0x4A1406B1 PUSH1 0xE1 SHL DUP2 MSTORE PUSH1 0x0 PUSH1 0x4 DUP3 ADD MSTORE PUSH1 0x24 SWAP1 REVERT JUMPDEST PUSH1 0x40 MLOAD PUSH4 0xE602DF05 PUSH1 0xE0 SHL DUP2 MSTORE PUSH1 0x0 PUSH1 0x4 DUP3 ADD MSTORE PUSH1 0x24 SWAP1 REVERT JUMPDEST PUSH1 0x40 MLOAD PUSH4 0x7DC7A0D9 PUSH1 0xE1 SHL DUP2 MSTORE CALLER PUSH1 0x4 DUP3 ADD MSTORE PUSH1 0x24 DUP2 ADD DUP7 SWAP1 MSTORE PUSH1 0x44 DUP2 ADD DUP6 SWAP1 MSTORE PUSH1 0x64 SWAP1 REVERT JUMPDEST CALLVALUE PUSH2 0x229 JUMPI PUSH1 0x0 CALLDATASIZE PUSH1 0x3 NOT ADD SLT PUSH2 0x229 JUMPI PUSH1 0x20 PUSH1 0x2 SLOAD PUSH1 0x40 MLOAD SWAP1 DUP2 MSTORE RETURN JUMPDEST CALLVALUE PUSH2 0x229 JUMPI PUSH1 0x20 CALLDATASIZE PUSH1 0x3 NOT ADD SLT PUSH2 0x229 JUMPI PUSH1 0x4 CALLDATALOAD PUSH2 0x177E PUSH2 0x1A9C JUMP JUMPDEST PUSH1 0x7 SLOAD DUP2 LT PUSH2 0x17CA JUMPI PUSH1 0x8 SLOAD DUP2 GT PUSH2 0x1795 JUMPI PUSH1 0x6 SSTORE STOP JUMPDEST PUSH1 0x40 MLOAD PUSH3 0x461BCD PUSH1 0xE5 SHL DUP2 MSTORE PUSH1 0x20 PUSH1 0x4 DUP3 ADD MSTORE PUSH1 0xD PUSH1 0x24 DUP3 ADD MSTORE PUSH13 0x41626F7665206D6178696D756D PUSH1 0x98 SHL PUSH1 0x44 DUP3 ADD MSTORE PUSH1 0x64 SWAP1 REVERT JUMPDEST PUSH1 0x40 MLOAD PUSH3 0x461BCD PUSH1 0xE5 SHL DUP2 MSTORE PUSH1 0x20 PUSH1 0x4 DUP3 ADD MSTORE PUSH1 0xD PUSH1 0x24 DUP3 ADD MSTORE PUSH13 0x42656C6F77206D696E696D756D PUSH1 0x98 SHL PUSH1 0x44 DUP3 ADD MSTORE PUSH1 0x64 SWAP1 REVERT JUMPDEST CALLVALUE PUSH2 0x229 JUMPI PUSH1 0x20 CALLDATASIZE PUSH1 0x3 NOT ADD SLT PUSH2 0x229 JUMPI PUSH1 0x1 PUSH1 0x1 PUSH1 0xA0 SHL SUB PUSH2 0x1820 PUSH2 0x1A3B JUMP JUMPDEST AND PUSH1 0x0 MSTORE PUSH1 0xF PUSH1 0x20 MSTORE PUSH1 0x40 DUP1 PUSH1 0x0 KECCAK256 PUSH1 0x1 DUP2 SLOAD SWAP2 ADD SLOAD DUP3 MLOAD SWAP2 DUP3 MSTORE PUSH1 0x20 DUP3 ADD MSTORE RETURN JUMPDEST CALLVALUE PUSH2 0x229 JUMPI PUSH1 0x40 CALLDATASIZE PUSH1 0x3 NOT ADD SLT PUSH2 0x229 JUMPI PUSH2 0x185B PUSH2 0x1A3B JUMP JUMPDEST PUSH1 0x24 CALLDATALOAD SWAP1 CALLER ISZERO PUSH2 0x1705 JUMPI PUSH1 0x1 PUSH1 0x1 PUSH1 0xA0 SHL SUB AND SWAP1 DUP2 ISZERO PUSH2 0x16EC JUMPI CALLER PUSH1 0x0 MSTORE PUSH1 0x1 PUSH1 0x20 MSTORE PUSH1 0x40 PUSH1 0x0 KECCAK256 DUP3 PUSH1 0x0 MSTORE PUSH1 0x20 MSTORE DUP1 PUSH1 0x40 PUSH1 0x0 KECCAK256 SSTORE PUSH1 0x40 MLOAD SWAP1 DUP2 MSTORE PUSH32 0x8C5BE1E5EBEC7D5BD14F71427D1E84F3DD0314C0F7B2291E5B200AC8C7C3B925 PUSH1 0x20 CALLER SWAP3 LOG3 PUSH1 0x20 PUSH1 0x40 MLOAD PUSH1 0x1 DUP2 MSTORE RETURN JUMPDEST CALLVALUE PUSH2 0x229 JUMPI PUSH1 0x20 CALLDATASIZE PUSH1 0x3 NOT ADD SLT PUSH2 0x229 JUMPI PUSH1 0x1 PUSH1 0x1 PUSH1 0xA0 SHL SUB PUSH2 0x18E9 PUSH2 0x1A3B JUMP JUMPDEST AND PUSH1 0x0 MSTORE PUSH1 0xC PUSH1 0x20 MSTORE PUSH1 0x60 PUSH1 0x40 PUSH1 0x0 KECCAK256 DUP1 SLOAD SWAP1 PUSH1 0x2 PUSH1 0x1 DUP3 ADD SLOAD SWAP2 ADD SLOAD SWAP1 PUSH1 0x40 MLOAD SWAP3 DUP4 MSTORE PUSH1 0x20 DUP4 ADD MSTORE PUSH1 0x40 DUP3 ADD MSTORE RETURN JUMPDEST CALLVALUE PUSH2 0x229 JUMPI PUSH1 0x0 CALLDATASIZE PUSH1 0x3 NOT ADD SLT PUSH2 0x229 JUMPI PUSH1 0x40 MLOAD PUSH1 0x0 SWAP1 PUSH1 0x3 SLOAD PUSH1 0x1 DUP2 DUP2 SHR SWAP1 DUP1 DUP4 AND SWAP3 DUP4 ISZERO PUSH2 0x19CD JUMPI JUMPDEST PUSH1 0x20 SWAP4 DUP5 DUP5 LT DUP2 EQ PUSH2 0xE30 JUMPI DUP4 DUP7 MSTORE SWAP1 DUP2 ISZERO PUSH2 0xE10 JUMPI POP PUSH1 0x1 EQ PUSH2 0x1972 JUMPI PUSH2 0xDB1 DUP5 PUSH2 0xDA5 DUP2 DUP9 SUB DUP3 PUSH2 0x1AC8 JUMP JUMPDEST PUSH1 0x3 PUSH1 0x0 SWAP1 DUP2 MSTORE SWAP3 SWAP5 POP PUSH32 0xC2575A0E9E593C00F959F8C92F12DB2869C3395A3B0502D05E2516446F71F85B JUMPDEST DUP3 DUP5 LT PUSH2 0x19BA JUMPI POP POP POP DUP2 PUSH2 0xDB1 SWAP4 PUSH2 0xDA5 SWAP3 DUP3 ADD ADD SWAP4 PUSH2 0xD95 JUMP JUMPDEST DUP1 SLOAD DUP6 DUP6 ADD DUP8 ADD MSTORE SWAP3 DUP6 ADD SWAP3 DUP2 ADD PUSH2 0x199E JUMP JUMPDEST SWAP2 PUSH1 0x7F AND SWAP2 PUSH2 0x1944 JUMP JUMPDEST CALLVALUE PUSH2 0x229 JUMPI PUSH1 0x0 CALLDATASIZE PUSH1 0x3 NOT ADD SLT PUSH2 0x229 JUMPI PUSH1 0x20 SWAP1 PUSH1 0x9 SLOAD DUP2 MSTORE RETURN JUMPDEST PUSH1 0x20 DUP1 DUP3 MSTORE DUP3 MLOAD DUP2 DUP4 ADD DUP2 SWAP1 MSTORE SWAP1 SWAP4 SWAP3 PUSH1 0x0 JUMPDEST DUP3 DUP2 LT PUSH2 0x1A27 JUMPI POP POP PUSH1 0x40 SWAP3 SWAP4 POP PUSH1 0x0 DUP4 DUP3 DUP5 ADD ADD MSTORE PUSH1 0x1F DUP1 NOT SWAP2 ADD AND ADD ADD SWAP1 JUMP JUMPDEST DUP2 DUP2 ADD DUP7 ADD MLOAD DUP5 DUP3 ADD PUSH1 0x40 ADD MSTORE DUP6 ADD PUSH2 0x1A05 JUMP JUMPDEST PUSH1 0x4 CALLDATALOAD SWAP1 PUSH1 0x1 PUSH1 0x1 PUSH1 0xA0 SHL SUB DUP3 AND DUP3 SUB PUSH2 0x229 JUMPI JUMP JUMPDEST PUSH1 0x24 CALLDATALOAD SWAP1 PUSH1 0x1 PUSH1 0x1 PUSH1 0xA0 SHL SUB DUP3 AND DUP3 SUB PUSH2 0x229 JUMPI JUMP JUMPDEST PUSH1 0x60 SWAP1 PUSH1 0x3 NOT ADD SLT PUSH2 0x229 JUMPI PUSH1 0x1 PUSH1 0x1 PUSH1 0xA0 SHL SUB SWAP1 PUSH1 0x4 CALLDATALOAD DUP3 DUP2 AND DUP2 SUB PUSH2 0x229 JUMPI SWAP2 PUSH1 0x24 CALLDATALOAD SWAP1 DUP2 AND DUP2 SUB PUSH2 0x229 JUMPI SWAP1 PUSH1 0x44 CALLDATALOAD SWAP1 JUMP JUMPDEST PUSH1 0x5 SLOAD PUSH1 0x1 PUSH1 0x1 PUSH1 0xA0 SHL SUB AND CALLER SUB PUSH2 0x1AB0 JUMPI JUMP JUMPDEST PUSH1 0x40 MLOAD PUSH4 0x118CDAA7 PUSH1 0xE0 SHL DUP2 MSTORE CALLER PUSH1 0x4 DUP3 ADD MSTORE PUSH1 0x24 SWAP1 REVERT JUMPDEST SWAP1 PUSH1 0x1F DUP1 NOT SWAP2 ADD AND DUP2 ADD SWAP1 DUP2 LT PUSH8 0xFFFFFFFFFFFFFFFF DUP3 GT OR PUSH2 0x9E1 JUMPI PUSH1 0x40 MSTORE JUMP JUMPDEST SWAP2 PUSH1 0x1 PUSH1 0x1 PUSH1 0xA0 SHL SUB DUP1 DUP5 AND SWAP3 DUP4 ISZERO PUSH2 0x1B96 JUMPI AND SWAP3 DUP4 ISZERO PUSH2 0xBD8 JUMPI PUSH1 0x0 SWAP1 DUP4 DUP3 MSTORE DUP2 PUSH1 0x20 MSTORE PUSH1 0x40 DUP3 KECCAK256 SLOAD SWAP1 DUP4 DUP3 LT PUSH2 0x1B64 JUMPI POP SWAP2 PUSH1 0x40 DUP3 DUP3 PUSH32 0xDDF252AD1BE2C89B69C2B068FC378DAA952BA7F163C4A11628F55A4DF523B3EF SWAP6 DUP8 PUSH1 0x20 SWAP7 MSTORE DUP3 DUP7 MSTORE SUB DUP3 DUP3 KECCAK256 SSTORE DUP7 DUP2 MSTORE KECCAK256 DUP2 DUP2 SLOAD ADD SWAP1 SSTORE PUSH1 0x40 MLOAD SWAP1 DUP2 MSTORE LOG3 JUMP JUMPDEST PUSH1 0x40 MLOAD PUSH4 0x391434E3 PUSH1 0xE2 SHL DUP2 MSTORE PUSH1 0x1 PUSH1 0x1 PUSH1 0xA0 SHL SUB SWAP2 SWAP1 SWAP2 AND PUSH1 0x4 DUP3 ADD MSTORE PUSH1 0x24 DUP2 ADD SWAP2 SWAP1 SWAP2 MSTORE PUSH1 0x44 DUP2 ADD DUP4 SWAP1 MSTORE PUSH1 0x64 SWAP1 REVERT JUMPDEST PUSH1 0x40 MLOAD PUSH4 0x4B637E8F PUSH1 0xE1 SHL DUP2 MSTORE PUSH1 0x0 PUSH1 0x4 DUP3 ADD MSTORE PUSH1 0x24 SWAP1 REVERT JUMPDEST SWAP2 SWAP1 DUP3 ADD DUP1 SWAP3 GT PUSH2 0x9F7 JUMPI JUMP JUMPDEST DUP2 DUP2 MUL SWAP3 SWAP2 DUP2 ISZERO SWAP2 DUP5 DIV EQ OR ISZERO PUSH2 0x9F7 JUMPI JUMP JUMPDEST SWAP2 SWAP1 DUP3 SUB SWAP2 DUP3 GT PUSH2 0x9F7 JUMPI JUMP JUMPDEST PUSH1 0x0 NOT DUP2 EQ PUSH2 0x9F7 JUMPI PUSH1 0x1 ADD SWAP1 JUMP JUMPDEST DUP1 ISZERO PUSH2 0x1CE8 JUMPI PUSH1 0x0 SWAP1 PUSH8 0xDE0B6B3A7640000 DUP2 DUP4 PUSH3 0x989680 SWAP4 JUMPDEST PUSH2 0x1C11 JUMPI JUMPDEST POP POP POP POP SWAP1 JUMP JUMPDEST PUSH1 0x0 SWAP5 SWAP2 SWAP3 SWAP4 SWAP5 POP PUSH2 0x1C23 DUP2 DUP6 PUSH2 0x1BCF JUMP JUMPDEST SWAP1 DUP5 LT PUSH2 0x1CE0 JUMPI DUP1 ISZERO PUSH2 0x1CE0 JUMPI DUP5 SWAP2 SWAP1 DUP1 DUP5 GT ISZERO PUSH2 0x1CD2 JUMPI SWAP1 PUSH2 0x1C4A DUP3 PUSH2 0x1C61 SWAP4 SWAP6 PUSH2 0x1BCF JUMP JUMPDEST SWAP4 JUMPDEST PUSH2 0x1C5A PUSH2 0x2710 SWAP8 DUP9 SWAP3 PUSH2 0x1BBC JUMP JUMPDEST DIV SWAP1 PUSH2 0x1BAF JUMP JUMPDEST SWAP4 PUSH1 0xA SWAP1 DUP2 DUP6 MUL SWAP1 DUP6 ISZERO DUP7 DUP1 DUP5 DIV DUP6 EQ DUP3 OR ISZERO PUSH2 0x9F7 JUMPI DUP5 DUP5 DIV EQ ISZERO SWAP1 DUP2 PUSH2 0x1CC9 JUMPI JUMPDEST POP PUSH2 0x1CA0 JUMPI POP SWAP2 DIV SWAP3 DUP4 ISZERO PUSH2 0x1C9B JUMPI DUP3 SWAP2 SWAP3 PUSH2 0x1C05 JUMP JUMPDEST PUSH2 0x1C0A JUMP JUMPDEST SWAP4 SWAP3 SWAP6 SWAP5 POP POP POP DUP1 PUSH2 0x1CB4 JUMPI JUMPDEST DUP3 SWAP4 PUSH2 0x1C0A JUMP JUMPDEST PUSH2 0x1CC1 SWAP4 PUSH2 0x1C5A SWAP2 PUSH2 0x1BBC JUMP JUMPDEST DUP1 CODESIZE DUP1 PUSH2 0x1CAD JUMP JUMPDEST SWAP1 POP ISZERO CODESIZE PUSH2 0x1C84 JUMP JUMPDEST POP PUSH1 0x0 SWAP3 PUSH2 0x1C61 SWAP2 SWAP1 PUSH2 0x1C4C JUMP JUMPDEST DUP2 SWAP5 POP PUSH2 0x1C0A JUMP JUMPDEST POP PUSH1 0x0 SWAP1 JUMP JUMPDEST PUSH2 0x2710 SWAP3 PUSH2 0x1D07 PUSH2 0x1D01 PUSH2 0x1D16 SWAP5 PUSH2 0x1D22 JUMP JUMPDEST SWAP2 PUSH2 0x1D22 JUMP JUMPDEST DUP1 DUP3 GT ISZERO PUSH2 0x1D1A JUMPI POP SWAP1 PUSH2 0x1BBC JUMP JUMPDEST DIV SWAP1 JUMP JUMPDEST SWAP1 POP SWAP1 PUSH2 0x1BBC JUMP JUMPDEST PUSH1 0x1 PUSH1 0x1 PUSH1 0xA0 SHL SUB AND PUSH1 0x0 SWAP1 DUP2 MSTORE PUSH1 0xE PUSH1 0x20 MSTORE PUSH1 0x40 DUP2 KECCAK256 PUSH1 0x2 DUP2 ADD SLOAD SWAP2 SWAP3 SWAP2 PUSH2 0x2710 SWAP1 DUP1 ISZERO ISZERO SWAP1 DUP2 PUSH2 0x1E1C JUMPI JUMPDEST POP PUSH2 0x1E13 JUMPI JUMPDEST PUSH1 0x1 DUP3 ADD SLOAD DUP1 ISZERO ISZERO SWAP1 DUP2 PUSH2 0x1DFC JUMPI JUMPDEST POP PUSH2 0x1DDB JUMPI JUMPDEST DUP2 SLOAD SWAP1 PUSH2 0x3E8 SWAP2 DUP3 DUP2 MUL SWAP3 DUP2 DUP5 DIV EQ SWAP1 ISZERO OR ISZERO PUSH2 0x1DC7 JUMPI PUSH1 0x3 SWAP2 PUSH2 0x1D8D SWAP2 PUSH2 0x1BAF JUMP JUMPDEST SWAP2 ADD SLOAD SWAP1 PUSH2 0x1F4 SWAP2 DUP3 DUP2 MUL SWAP3 DUP2 DUP5 DIV EQ SWAP1 ISZERO OR ISZERO PUSH2 0x1DB3 JUMPI PUSH2 0x1DB0 SWAP3 SWAP4 POP PUSH2 0x1BAF JUMP JUMPDEST SWAP1 JUMP JUMPDEST PUSH4 0x4E487B71 PUSH1 0xE0 SHL DUP5 MSTORE PUSH1 0x11 PUSH1 0x4 MSTORE PUSH1 0x24 DUP5 REVERT JUMPDEST PUSH4 0x4E487B71 PUSH1 0xE0 SHL DUP6 MSTORE PUSH1 0x11 PUSH1 0x4 MSTORE PUSH1 0x24 DUP6 REVERT JUMPDEST PUSH2 0x2710 DUP2 ADD DUP1 SWAP2 GT ISZERO PUSH2 0x1D6A JUMPI PUSH4 0x4E487B71 PUSH1 0xE0 SHL DUP5 MSTORE PUSH1 0x11 PUSH1 0x4 MSTORE PUSH1 0x24 DUP5 REVERT JUMPDEST PUSH3 0x278D00 SWAP2 POP PUSH2 0x1E0C SWAP1 TIMESTAMP PUSH2 0x1BCF JUMP JUMPDEST LT CODESIZE PUSH2 0x1D64 JUMP JUMPDEST POP PUSH2 0x3A98 PUSH2 0x1D55 JUMP JUMPDEST PUSH3 0x93A80 SWAP2 POP PUSH2 0x1E2C SWAP1 TIMESTAMP PUSH2 0x1BCF JUMP JUMPDEST LT CODESIZE PUSH2 0x1D4F JUMP JUMPDEST PUSH1 0x1 DUP1 PUSH1 0xA0 SHL SUB AND PUSH1 0x0 MSTORE PUSH1 0xF PUSH1 0x20 MSTORE PUSH1 0x40 PUSH1 0x0 KECCAK256 SWAP1 DUP2 SLOAD DUP1 ISZERO PUSH2 0x1E88 JUMPI DUP2 DUP2 LT PUSH2 0x1E71 JUMPI POP PUSH2 0x1E64 SWAP1 DUP3 SLOAD PUSH2 0x1BCF JUMP JUMPDEST DUP2 SSTORE PUSH1 0x1 TIMESTAMP SWAP2 ADD SSTORE PUSH1 0x0 SWAP1 JUMP JUMPDEST PUSH2 0x1E7A SWAP2 PUSH2 0x1BCF JUMP JUMPDEST SWAP1 PUSH1 0x0 DUP2 SSTORE PUSH1 0x1 TIMESTAMP SWAP2 ADD SSTORE SWAP1 JUMP JUMPDEST POP SWAP1 POP SWAP1 JUMP INVALID 0x4A 0xB2 0x2C ISZERO EQ 0x4E 0xE7 0xDD SWAP3 PREVRANDAO 0x22 0xED SWAP12 MLOAD 0xB2 PUSH9 0xD04702767F298FFB54 PUSH21 0x9F6BAF0E5DC5A26469706673582212205C44B9AAEF PUSH5 0xD7F86F4770 INVALID EXTCODECOPY PUSH28 0x2D6B12E70ADCFDB2F3558D8F445C792D423E64736F6C634300081400 CALLER "},"methodIdentifiers":{"allowance(address,address)":"dd62ed3e","applyCredits(address,uint256)":"6be14a33","applyRiskAdjustments(uint256,address,address)":"3cbf9342","approve(address,uint256)":"095ea7b3","balanceOf(address)":"70a08231","calculateRiskFactor(address)":"6b6ef953","calculateTieredFee(uint256)":"e06a7a10","checkHalfLifeExpiry(address)":"508c0634","decimals()":"313ce567","flagAbnormalTransaction(address)":"6e2fae47","getAvailableCredits(address)":"b065a8e5","halfLifeDuration()":"4c915d18","inactivityResetPeriod()":"03833501","incentiveCredits(address)":"0c27ab5a","maxHalfLifeDuration()":"c750f203","minHalfLifeDuration()":"800753cf","name()":"06fdde03","owner()":"8da5cb5b","renounceOwnership()":"715018a6","reverseTransfer(address,address,uint256)":"f0e6ea8d","rollingAverages(address)":"08d887d0","setHalfLifeDuration(uint256)":"0f3f0803","setInactivityResetPeriod(uint256)":"6cd9ca14","setMaxHalfLifeDuration(uint256)":"57fe51d2","setMinHalfLifeDuration(uint256)":"76223a27","setTreasuryAddress(address)":"6605bfda","symbol()":"95d89b41","totalSupply()":"18160ddd","transactionCountBetween(address,address)":"8ffa15d4","transfer(address,uint256)":"a9059cbb","transferData(address)":"62d3f814","transferFrom(address,address,uint256)":"23b872dd","transferOwnership(address)":"f2fde38b","treasuryAddress()":"c5f956af","walletRiskProfiles(address)":"3d8d1dce"}}}}}