{"contracts/T3Token.sol":{"T3Token":{"abi":[{"inputs":[{"internalType":"address","name":"initialAdmin","type":"address"},{"internalType":"address","name":"_treasuryAddress","type":"address"}],"stateMutability":"nonpayable","type":"constructor"},{"inputs":[],"name":"AccessControlBadConfirmation","type":"error"},{"inputs":[{"internalType":"address","name":"account","type":"address"},{"internalType":"bytes32","name":"neededRole","type":"bytes32"}],"name":"AccessControlUnauthorizedAccount","type":"error"},{"inputs":[{"internalType":"address","name":"spender","type":"address"},{"internalType":"uint256","name":"allowance","type":"uint256"},{"internalType":"uint256","name":"needed","type":"uint256"}],"name":"ERC20InsufficientAllowance","type":"error"},{"inputs":[{"internalType":"address","name":"sender","type":"address"},{"internalType":"uint256","name":"balance","type":"uint256"},{"internalType":"uint256","name":"needed","type":"uint256"}],"name":"ERC20InsufficientBalance","type":"error"},{"inputs":[{"internalType":"address","name":"approver","type":"address"}],"name":"ERC20InvalidApprover","type":"error"},{"inputs":[{"internalType":"address","name":"receiver","type":"address"}],"name":"ERC20InvalidReceiver","type":"error"},{"inputs":[{"internalType":"address","name":"sender","type":"address"}],"name":"ERC20InvalidSender","type":"error"},{"inputs":[{"internalType":"address","name":"spender","type":"address"}],"name":"ERC20InvalidSpender","type":"error"},{"inputs":[],"name":"EnforcedPause","type":"error"},{"inputs":[],"name":"ExpectedPause","type":"error"},{"anonymous":false,"inputs":[{"indexed":true,"internalType":"address","name":"owner","type":"address"},{"indexed":true,"internalType":"address","name":"spender","type":"address"},{"indexed":false,"internalType":"uint256","name":"value","type":"uint256"}],"name":"Approval","type":"event"},{"anonymous":false,"inputs":[{"indexed":true,"internalType":"address","name":"wallet","type":"address"},{"indexed":false,"internalType":"uint256","name":"timestamp","type":"uint256"}],"name":"HalfLifeExpired","type":"event"},{"anonymous":false,"inputs":[{"indexed":true,"internalType":"address","name":"debtor","type":"address"},{"indexed":true,"internalType":"address","name":"creditor","type":"address"},{"indexed":false,"internalType":"uint256","name":"amountCleared","type":"uint256"}],"name":"InterbankLiabilityCleared","type":"event"},{"anonymous":false,"inputs":[{"indexed":true,"internalType":"address","name":"debtor","type":"address"},{"indexed":true,"internalType":"address","name":"creditor","type":"address"},{"indexed":false,"internalType":"uint256","name":"amount","type":"uint256"}],"name":"InterbankLiabilityRecorded","type":"event"},{"anonymous":false,"inputs":[{"indexed":true,"internalType":"address","name":"wallet","type":"address"},{"indexed":false,"internalType":"uint256","name":"amount","type":"uint256"}],"name":"LoyaltyRefundProcessed","type":"event"},{"anonymous":false,"inputs":[{"indexed":false,"internalType":"address","name":"account","type":"address"}],"name":"Paused","type":"event"},{"anonymous":false,"inputs":[{"indexed":true,"internalType":"address","name":"wallet","type":"address"},{"indexed":false,"internalType":"uint256","name":"newRiskFactor","type":"uint256"}],"name":"RiskFactorUpdated","type":"event"},{"anonymous":false,"inputs":[{"indexed":true,"internalType":"bytes32","name":"role","type":"bytes32"},{"indexed":true,"internalType":"bytes32","name":"previousAdminRole","type":"bytes32"},{"indexed":true,"internalType":"bytes32","name":"newAdminRole","type":"bytes32"}],"name":"RoleAdminChanged","type":"event"},{"anonymous":false,"inputs":[{"indexed":true,"internalType":"bytes32","name":"role","type":"bytes32"},{"indexed":true,"internalType":"address","name":"account","type":"address"},{"indexed":true,"internalType":"address","name":"sender","type":"address"}],"name":"RoleGranted","type":"event"},{"anonymous":false,"inputs":[{"indexed":true,"internalType":"bytes32","name":"role","type":"bytes32"},{"indexed":true,"internalType":"address","name":"account","type":"address"},{"indexed":true,"internalType":"address","name":"sender","type":"address"}],"name":"RoleRevoked","type":"event"},{"anonymous":false,"inputs":[{"indexed":true,"internalType":"address","name":"minter","type":"address"},{"indexed":true,"internalType":"address","name":"recipient","type":"address"},{"indexed":false,"internalType":"uint256","name":"amount","type":"uint256"}],"name":"TokensMinted","type":"event"},{"anonymous":false,"inputs":[{"indexed":true,"internalType":"address","name":"from","type":"address"},{"indexed":true,"internalType":"address","name":"to","type":"address"},{"indexed":false,"internalType":"uint256","name":"value","type":"uint256"}],"name":"Transfer","type":"event"},{"anonymous":false,"inputs":[{"indexed":true,"internalType":"address","name":"from","type":"address"},{"indexed":true,"internalType":"address","name":"to","type":"address"},{"indexed":false,"internalType":"uint256","name":"amount","type":"uint256"}],"name":"TransferReversed","type":"event"},{"anonymous":false,"inputs":[{"indexed":true,"internalType":"address","name":"from","type":"address"},{"indexed":true,"internalType":"address","name":"to","type":"address"},{"indexed":false,"internalType":"uint256","name":"amount","type":"uint256"},{"indexed":false,"internalType":"uint256","name":"fee","type":"uint256"}],"name":"TransferWithFee","type":"event"},{"anonymous":false,"inputs":[{"indexed":false,"internalType":"address","name":"account","type":"address"}],"name":"Unpaused","type":"event"},{"inputs":[],"name":"ADMIN_ROLE","outputs":[{"internalType":"bytes32","name":"","type":"bytes32"}],"stateMutability":"view","type":"function"},{"inputs":[],"name":"BURNER_ROLE","outputs":[{"internalType":"bytes32","name":"","type":"bytes32"}],"stateMutability":"view","type":"function"},{"inputs":[],"name":"DEFAULT_ADMIN_ROLE","outputs":[{"internalType":"bytes32","name":"","type":"bytes32"}],"stateMutability":"view","type":"function"},{"inputs":[],"name":"MINTER_ROLE","outputs":[{"internalType":"bytes32","name":"","type":"bytes32"}],"stateMutability":"view","type":"function"},{"inputs":[],"name":"PAUSER_ROLE","outputs":[{"internalType":"bytes32","name":"","type":"bytes32"}],"stateMutability":"view","type":"function"},{"inputs":[{"internalType":"address","name":"owner","type":"address"},{"internalType":"address","name":"spender","type":"address"}],"name":"allowance","outputs":[{"internalType":"uint256","name":"","type":"uint256"}],"stateMutability":"view","type":"function"},{"inputs":[{"internalType":"address","name":"spender","type":"address"},{"internalType":"uint256","name":"value","type":"uint256"}],"name":"approve","outputs":[{"internalType":"bool","name":"","type":"bool"}],"stateMutability":"nonpayable","type":"function"},{"inputs":[{"internalType":"address","name":"account","type":"address"}],"name":"balanceOf","outputs":[{"internalType":"uint256","name":"","type":"uint256"}],"stateMutability":"view","type":"function"},{"inputs":[{"internalType":"uint256","name":"amount","type":"uint256"}],"name":"burn","outputs":[],"stateMutability":"nonpayable","type":"function"},{"inputs":[{"internalType":"address","name":"account","type":"address"},{"internalType":"uint256","name":"amount","type":"uint256"}],"name":"burnFrom","outputs":[],"stateMutability":"nonpayable","type":"function"},{"inputs":[{"internalType":"address","name":"wallet","type":"address"}],"name":"calculateRiskFactor","outputs":[{"internalType":"uint256","name":"","type":"uint256"}],"stateMutability":"view","type":"function"},{"inputs":[{"internalType":"address","name":"wallet","type":"address"}],"name":"checkHalfLifeExpiry","outputs":[],"stateMutability":"nonpayable","type":"function"},{"inputs":[{"internalType":"address","name":"debtor","type":"address"},{"internalType":"address","name":"creditor","type":"address"},{"internalType":"uint256","name":"amountToClear","type":"uint256"}],"name":"clearInterbankLiability","outputs":[],"stateMutability":"nonpayable","type":"function"},{"inputs":[],"name":"decimals","outputs":[{"internalType":"uint8","name":"","type":"uint8"}],"stateMutability":"view","type":"function"},{"inputs":[{"internalType":"address","name":"wallet","type":"address"}],"name":"flagAbnormalTransaction","outputs":[],"stateMutability":"nonpayable","type":"function"},{"inputs":[{"internalType":"address","name":"wallet","type":"address"}],"name":"getAvailableCredits","outputs":[{"internalType":"uint256","name":"","type":"uint256"}],"stateMutability":"view","type":"function"},{"inputs":[{"internalType":"bytes32","name":"role","type":"bytes32"}],"name":"getRoleAdmin","outputs":[{"internalType":"bytes32","name":"","type":"bytes32"}],"stateMutability":"view","type":"function"},{"inputs":[{"internalType":"bytes32","name":"role","type":"bytes32"},{"internalType":"address","name":"account","type":"address"}],"name":"grantRole","outputs":[],"stateMutability":"nonpayable","type":"function"},{"inputs":[],"name":"halfLifeDuration","outputs":[{"internalType":"uint256","name":"","type":"uint256"}],"stateMutability":"view","type":"function"},{"inputs":[{"internalType":"bytes32","name":"role","type":"bytes32"},{"internalType":"address","name":"account","type":"address"}],"name":"hasRole","outputs":[{"internalType":"bool","name":"","type":"bool"}],"stateMutability":"view","type":"function"},{"inputs":[],"name":"inactivityResetPeriod","outputs":[{"internalType":"uint256","name":"","type":"uint256"}],"stateMutability":"view","type":"function"},{"inputs":[{"internalType":"address","name":"","type":"address"}],"name":"incentiveCredits","outputs":[{"internalType":"uint256","name":"amount","type":"uint256"},{"internalType":"uint256","name":"lastUpdated","type":"uint256"}],"stateMutability":"view","type":"function"},{"inputs":[{"internalType":"address","name":"","type":"address"},{"internalType":"address","name":"","type":"address"}],"name":"interbankLiability","outputs":[{"internalType":"uint256","name":"","type":"uint256"}],"stateMutability":"view","type":"function"},{"inputs":[],"name":"maxHalfLifeDuration","outputs":[{"internalType":"uint256","name":"","type":"uint256"}],"stateMutability":"view","type":"function"},{"inputs":[],"name":"minHalfLifeDuration","outputs":[{"internalType":"uint256","name":"","type":"uint256"}],"stateMutability":"view","type":"function"},{"inputs":[{"internalType":"address","name":"recipient","type":"address"},{"internalType":"uint256","name":"amount","type":"uint256"}],"name":"mint","outputs":[],"stateMutability":"nonpayable","type":"function"},{"inputs":[{"internalType":"address","name":"","type":"address"}],"name":"mintedByMinter","outputs":[{"internalType":"uint256","name":"","type":"uint256"}],"stateMutability":"view","type":"function"},{"inputs":[],"name":"name","outputs":[{"internalType":"string","name":"","type":"string"}],"stateMutability":"view","type":"function"},{"inputs":[],"name":"pause","outputs":[],"stateMutability":"nonpayable","type":"function"},{"inputs":[],"name":"paused","outputs":[{"internalType":"bool","name":"","type":"bool"}],"stateMutability":"view","type":"function"},{"inputs":[{"internalType":"address","name":"debtor","type":"address"},{"internalType":"address","name":"creditor","type":"address"},{"internalType":"uint256","name":"amount","type":"uint256"}],"name":"recordInterbankLiability","outputs":[],"stateMutability":"nonpayable","type":"function"},{"inputs":[{"internalType":"bytes32","name":"role","type":"bytes32"},{"internalType":"address","name":"callerConfirmation","type":"address"}],"name":"renounceRole","outputs":[],"stateMutability":"nonpayable","type":"function"},{"inputs":[{"internalType":"address","name":"from","type":"address"},{"internalType":"address","name":"to","type":"address"},{"internalType":"uint256","name":"amount","type":"uint256"}],"name":"reverseTransfer","outputs":[],"stateMutability":"nonpayable","type":"function"},{"inputs":[{"internalType":"bytes32","name":"role","type":"bytes32"},{"internalType":"address","name":"account","type":"address"}],"name":"revokeRole","outputs":[],"stateMutability":"nonpayable","type":"function"},{"inputs":[{"internalType":"address","name":"","type":"address"}],"name":"rollingAverages","outputs":[{"internalType":"uint256","name":"totalAmount","type":"uint256"},{"internalType":"uint256","name":"count","type":"uint256"},{"internalType":"uint256","name":"lastUpdated","type":"uint256"}],"stateMutability":"view","type":"function"},{"inputs":[{"internalType":"uint256","name":"_halfLifeDuration","type":"uint256"}],"name":"setHalfLifeDuration","outputs":[],"stateMutability":"nonpayable","type":"function"},{"inputs":[{"internalType":"uint256","name":"_inactivityResetPeriod","type":"uint256"}],"name":"setInactivityResetPeriod","outputs":[],"stateMutability":"nonpayable","type":"function"},{"inputs":[{"internalType":"uint256","name":"_maxHalfLifeDuration","type":"uint256"}],"name":"setMaxHalfLifeDuration","outputs":[],"stateMutability":"nonpayable","type":"function"},{"inputs":[{"internalType":"uint256","name":"_minHalfLifeDuration","type":"uint256"}],"name":"setMinHalfLifeDuration","outputs":[],"stateMutability":"nonpayable","type":"function"},{"inputs":[{"internalType":"address","name":"_treasuryAddress","type":"address"}],"name":"setTreasuryAddress","outputs":[],"stateMutability":"nonpayable","type":"function"},{"inputs":[{"internalType":"bytes4","name":"interfaceId","type":"bytes4"}],"name":"supportsInterface","outputs":[{"internalType":"bool","name":"","type":"bool"}],"stateMutability":"view","type":"function"},{"inputs":[],"name":"symbol","outputs":[{"internalType":"string","name":"","type":"string"}],"stateMutability":"view","type":"function"},{"inputs":[],"name":"totalSupply","outputs":[{"internalType":"uint256","name":"","type":"uint256"}],"stateMutability":"view","type":"function"},{"inputs":[{"internalType":"address","name":"","type":"address"},{"internalType":"address","name":"","type":"address"}],"name":"transactionCountBetween","outputs":[{"internalType":"uint256","name":"","type":"uint256"}],"stateMutability":"view","type":"function"},{"inputs":[{"internalType":"address","name":"recipient","type":"address"},{"internalType":"uint256","name":"amount","type":"uint256"}],"name":"transfer","outputs":[{"internalType":"bool","name":"","type":"bool"}],"stateMutability":"nonpayable","type":"function"},{"inputs":[{"internalType":"address","name":"","type":"address"}],"name":"transferData","outputs":[{"internalType":"uint256","name":"commitWindowEnd","type":"uint256"},{"internalType":"uint256","name":"halfLifeDuration","type":"uint256"},{"internalType":"address","name":"originator","type":"address"},{"internalType":"uint256","name":"transferCount","type":"uint256"},{"internalType":"bytes32","name":"reversalHash","type":"bytes32"},{"internalType":"uint256","name":"feeAmount","type":"uint256"},{"internalType":"bool","name":"isReversed","type":"bool"}],"stateMutability":"view","type":"function"},{"inputs":[{"internalType":"address","name":"from","type":"address"},{"internalType":"address","name":"to","type":"address"},{"internalType":"uint256","name":"amount","type":"uint256"}],"name":"transferFrom","outputs":[{"internalType":"bool","name":"","type":"bool"}],"stateMutability":"nonpayable","type":"function"},{"inputs":[],"name":"treasuryAddress","outputs":[{"internalType":"address","name":"","type":"address"}],"stateMutability":"view","type":"function"},{"inputs":[],"name":"unpause","outputs":[],"stateMutability":"nonpayable","type":"function"},{"inputs":[{"internalType":"address","name":"","type":"address"}],"name":"walletRiskProfiles","outputs":[{"internalType":"uint256","name":"reversalCount","type":"uint256"},{"internalType":"uint256","name":"lastReversal","type":"uint256"},{"internalType":"uint256","name":"creationTime","type":"uint256"},{"internalType":"uint256","name":"abnormalTxCount","type":"uint256"}],"stateMutability":"view","type":"function"}],"evm":{"bytecode":{"linkReferences":{},"object":"6080346200064c576001600160401b03906200720890601f19601f388490038181018316840190868211858310176200054e57808591604097889485528339810103126200064c5762000052836200066d565b906200006260208095016200066d565b92855196620000718862000651565b600d88526c2a199029ba30b13632b1b7b4b760991b86890152865197620000988962000651565b6002895261543360f01b878a01528051908282116200054e5760039182546001928382811c9216801562000641575b8b8310146200062b578188849311620005d5575b508a90888311600114620005705760009262000564575b505060001982851b1c191690821b1782555b89519283116200054e576004998a548281811c9116801562000543575b8a8210146200052e57868111620004e3575b5088908685116001146200047a57849550908492916000956200046e575b50501b92600019911b1c19161786555b610e106007556102586008556201518060095562278d00600a5562000197855167cb0fa503c396f02b8682015285815262000651565b620001b3855167da1d57766c43d3738682015285815262000651565b620001cf855167b8e0ea5a9f886eb18682015285815262000651565b620001eb855167a80d9d22f651fa9d8682015285815262000651565b6001600160a01b039283169081156200042d57506200021b855167d654e36a1723a2958682015285815262000651565b62000237855167a9c4527f3bbad73d8682015285815262000651565b60018060a01b0319600b541617600b5562000263845167a4b1bbdb0d1de5fa8582015284815262000651565b6200027f84516782c51e445c00407b8582015284815262000651565b6200028a8162000682565b50620002a7845167e8f480df3392c5fd8582015284815262000651565b620002c384516781fd570fa28927278582015284815262000651565b620002ce8162000703565b50620002eb845167584cc4fe4f256f688582015284815262000651565b620003078451676b294bcd85ce709c8582015284815262000651565b6200031281620007a6565b506200032f8451678679c9abc7c290398582015284815262000651565b6200034b84516752dda52291d0d60e8582015284815262000651565b168015620004165760ff60055416620004075760025469d3c21bcecceda100000094858201809211620003f2575060007fddf252ad1be2c89b69c2b068fc378daa952ba7f163c4a11628f55a4df523b3ef84600f969785946002558484528382528884208181540190558851908152a3620003d78451671da2bb914d7208f08482015283815262000651565b60005252426002826000200155516169a39081620008458239f35b601190634e487b7160e01b6000525260246000fd5b50505163d93c066560e01b8152fd5b825163ec442f0560e01b8152600081860152602490fd5b866064918688519262461bcd60e51b845283015260248201527f547265617375727920616464726573732063616e6e6f74206265207a65726f006044820152fd5b01519350388062000151565b9291948416928b600052848a6000209460005b8c89838310620004cb5750505010620004b0575b50505050811b01865562000161565b01519060f884600019921b161c1916905538808080620004a1565b8686015189559097019694850194889350016200048d565b8b600052896000208780870160051c8201928c881062000524575b0160051c019083905b8281106200051757505062000133565b6000815501839062000507565b92508192620004fe565b60228c634e487b7160e01b6000525260246000fd5b90607f169062000121565b634e487b7160e01b600052604160045260246000fd5b015190503880620000f2565b908785941691866000528c600020928d6000905b828210620005bd5750508411620005a4575b505050811b01825562000104565b015160001983871b60f8161c1916905538808062000596565b83850151865588979095019493840193018e62000584565b909150846000528a6000208880850160051c8201928d861062000621575b918691869594930160051c01915b82811062000611575050620000db565b6000815585945086910162000601565b92508192620005f3565b634e487b7160e01b600052602260045260246000fd5b91607f1691620000c7565b600080fd5b604081019081106001600160401b038211176200054e57604052565b51906001600160a01b03821682036200064c57565b6001600160a01b031660008181527f54cdd369e4e8a8515e52ca72ec816c2101831ad1f18bf44102ed171459c9b4f8602052604081205490919060ff16620006ff5781805260066020526040822081835260205260408220600160ff198254161790553391600080516020620071e88339815191528180a4600190565b5090565b6001600160a01b031660008181527f0c3bb05773fb95f6688e1e7d9c896674dccd66884026cf30a3d5e3a9bfecd81160205260408120549091907fa49807205ce4d355092ef5a8a18f56e8913cf4a201fbe287825b095693c217759060ff16620007a15780835260066020526040832082845260205260408320600160ff19825416179055600080516020620071e8833981519152339380a4600190565b505090565b6001600160a01b031660008181527fe09f975e15f8f53f24cbbc282b13c40b84df485fcdb8d3997fa103dc5a4ef84160205260408120549091907f65d7a28e3265b37a6474929f336521b332c1681b933f6cb9f3376673440d862a9060ff16620007a15780835260066020526040832082845260205260408320600160ff19825416179055600080516020620071e8833981519152339380a460019056fe6080806040526004908136101561001557600080fd5b60003560e01c90816301ffc9a714613fd9575080630383350114613fbb57806306fdde0314613ec657806308d887d014613e75578063095ea7b314613dbd5780630c27ab5a14613d7a5780630f3f080314613bec57806318160ddd14613bce57806323b872dd14613ab2578063248a9ca314613a84578063282c51f314613a495780632f2ff15d14613a0a578063313ce567146139ee57806336568abe146139aa5780633d8d1dce1461394e5780633f4ba83a1461387557806340c10f19146134dc57806342966c68146133b75780634c915d18146133995780634d8183cc14612f4d578063508c06341461244457806357fe51d21461233e5780635c975abb1461231b5780635ed61097146122ca57806362d3f814146122465780636605bfda146121155780636b6ef953146120ef5780636cd9ca1414611fe05780636e2fae4714611d5657806370a0823114611d1c57806375b238fc14611ce157806376223a2714611b4957806379cc6790146119da578063800753cf146119bc5780638456cb59146118f55780638ffa15d4146118a4578063905b7fcb1461186a57806391d148541461181d57806395d89b4114611717578063a217fddf146116fb578063a9059cbb14611279578063b065a8e51461120c578063c5f956af146111e3578063c750f203146111c5578063d53913931461118a578063d547741f14611149578063dd62ed3e146110f8578063dd7faab114610dbc578063e63ab1e914610d815763f0e6ea8d1461024757600080fd5b34610d7c57610255366140a0565b91929061027560405167445a3f55114169796020820152602081526142c8565b61027d615a20565b61029a6040516753e9833ee5c8cefc6020820152602081526142c8565b6102b760405167ef5e380149fa9cf16020820152602081526142c8565b6102d46040516753d1f64caddb15fc6020820152602081526142c8565b6102f160405167cff5b33215366fb36020820152602081526142c8565b61030e60405167075d43ed5ad700b06020820152602081526142c8565b6001600160a01b03918483163303610d2c5761033d604051678820d5173c75ac406020820152602081526142c8565b61035a604051677c4c53c2a1f6777f6020820152602081526142c8565b610377604051671bfb0ea6eaef28db6020820152602081526142c8565b828516600052600c60205260406000206103a460405167a17a609f314c2bd86020820152602081526142c8565b6103c160405167adbd2b5f550ae79d6020820152602081526142c8565b6103dd604051665167fe5504aade6020820152602081526142c8565b8054421015610cf55761040360405167898048c4620705116020820152602081526142c8565b61042060405167fc9866b8d841ae9e6020820152602081526142c8565b61043d604051672d7f7f1c93e975ef6020820152602081526142c8565b61045a60405167f04bf01effe109da6020820152602081526142c8565b8360028201541684841603610ca55761048660405167716fee29f60074ab6020820152602081526142c8565b6104a360405167821ae5367c7d43d36020820152602081526142c8565b6104c060405167812229e29209299d6020820152602081526142c8565b6104dd604051671a0aa602668ae0386020820152602081526142c8565b83861660005260006020528460406000205410610c6157600690610514604051673b407e1c1483ea146020820152602081526142c8565b61053160405167f621164f2998cb806020820152602081526142c8565b61054e604051673e8c91b9c62c80136020820152602081526142c8565b61056b60405167976ae90cc8864d3a6020820152602081526142c8565b01805460ff8116610c1d5760019061059660405167cddb68207dc5c3e46020820152602081526142c8565b6105b3604051671d4479520b0249856020820152602081526142c8565b60ff19161790556105d760405167815e880dd64153986020820152602081526142c8565b6105f460405167731de1608fbc40646020820152602081526142c8565b6106116040516739d76f42160b2d506020820152602081526142c8565b61062e604051671d92a4e4089a2db86020820152602081526142c8565b61064b60405167e37fa76e7f4eef576020820152602081526142c8565b828516600052600f6020526040600020610678604051673bd6bd9077bb500e6020820152602081526142c8565b6106956040516779752333124247686020820152602081526142c8565b600281018054610bfa576106bc6040516752b37c985a35eea86020820152602081526142c8565b6106d960405167b4c0b4926d6f16336020820152602081526142c8565b4290555b6106fa60405167a6e02478d938d5e36020820152602081526142c8565b61071760405167caf8e6d0aac3b5076020820152602081526142c8565b61073460405167ef4699a1eb53716d6020820152602081526142c8565b61075160405167b01b6dcb6e01bff96020820152602081526142c8565b61075b8154614425565b815561077a60405167907996cab204506f6020820152602081526142c8565b60014291015561079d60405167fbddb7cc13265b696020820152602081526142c8565b6107ba60405167b7c0a631ccb59f046020820152602081526142c8565b6107c385616180565b60405190815260008051602061692e833981519152602085881692a26107fc60405167f2e3495695dc523c6020820152602081526142c8565b610819604051672cc1e8375c87078e6020820152602081526142c8565b6108366040516739d76f42160b2d506020820152602081526142c8565b610853604051671d92a4e4089a2db86020820152602081526142c8565b61087060405167e37fa76e7f4eef576020820152602081526142c8565b828216600052600f602052604060002061089d604051673bd6bd9077bb500e6020820152602081526142c8565b6108ba6040516779752333124247686020820152602081526142c8565b600281018054610bd7576108e16040516752b37c985a35eea86020820152602081526142c8565b6108fe60405167b4c0b4926d6f16336020820152602081526142c8565b4290555b61091f60405167a6e02478d938d5e36020820152602081526142c8565b61093c60405167caf8e6d0aac3b5076020820152602081526142c8565b61095960405167ef4699a1eb53716d6020820152602081526142c8565b61097660405167b01b6dcb6e01bff96020820152602081526142c8565b6109808154614425565b815561099f60405167907996cab204506f6020820152602081526142c8565b6001429101556109c260405167fbddb7cc13265b696020820152602081526142c8565b6109df60405167b7c0a631ccb59f046020820152602081526142c8565b6109e882616180565b60405190815260008051602061692e833981519152602085851692a2610a21604051670f84ef5719e151a26020820152602081526142c8565b610a3e60405167e374157375437cce6020820152602081526142c8565b82851615610bbf5782821615610ba757610a56615a20565b828516600052600060205260406000205490848210610b7357509180602092857f55608e3380952b490f6dc0b1b0bcf7a16177fe10590cf1599b7a84f430b70e3795838916600052600086520360406000205581811660005260406000208681540190556040518681528282169060008051602061694e83398151915286858b1692a3610af4604051673f156c28f7d1e53b868201528581526142c8565b818716600052600c8452610b30604060002060066000918281558260018201558260028201558260038201558260048201558260058201550155565b610b4b60405167eefb543efb4ea814868201528581526142c8565b610b666040516731a0bacd179c66ae868201528581526142c8565b60405195865216941692a3005b6040805163391434e360e21b81526001600160a01b0388169281019283526020830193909352810185905281906060010390fd5b60249060006040519163ec442f0560e01b8352820152fd5b602490600060405191634b637e8f60e11b8352820152fd5b50610bf5604051676f826c5fb102114d6020820152602081526142c8565b610902565b50610c18604051676f826c5fb102114d6020820152602081526142c8565b6106dd565b60405162461bcd60e51b8152602081850152601960248201527f5472616e7366657220616c7265616479207265766572736564000000000000006044820152606490fd5b60405162461bcd60e51b8152602081840152601f60248201527f496e73756666696369656e742062616c616e636520746f2072657665727365006044820152606490fd5b60405162461bcd60e51b8152602081840152602360248201527f526576657273616c206d75737420676f206261636b20746f206f726967696e616044820152623a37b960e91b6064820152608490fd5b60405162461bcd60e51b8152602081840152601060248201526f12185b19931a599948195e1c1a5c995960821b6044820152606490fd5b60849060206040519162461bcd60e51b8352820152602360248201527f4f6e6c792072656365697665722063616e20696e6974696174652072657665726044820152621cd85b60ea1b6064820152fd5b600080fd5b34610d7c576000366003190112610d7c5760206040517f65d7a28e3265b37a6474929f336521b332c1681b933f6cb9f3376673440d862a8152f35b5034610d7c57610dcb366140a0565b60409291925191610ded60209367ae0bb4141fd89680858201528481526142c8565b610df56140d5565b610e10604051674c6663939ee21b9c858201528481526142c8565b610e2b604051679f7fe60ec9d19801858201528481526142c8565b610e4660405167278122371f0525a3858201528481526142c8565b610e616040516742af15302ac51157858201528481526142c8565b610e7c60405167e7f269aeda2e94fd858201528481526142c8565b6001600160a01b0390811693610e93851515616849565b610eae6040516751c2299ed869cbce868201528581526142c8565b610ec9604051677ba4faa806112904868201528581526142c8565b610ee460405167bbf5aeba1e63046c868201528581526142c8565b610eff60405167e810589de6076c33868201528581526142c8565b1693610f0c851515616895565b610f27604051679d510105289babee858201528481526142c8565b610f426040516730a100d972047b94858201528481526142c8565b610f5d60405167b352b52e1c3a0fa4858201528481526142c8565b610f7860405167f40cb4744903fe9f858201528481526142c8565b610f84858514156168e1565b610f9f60405167bbc8e5986b48838e858201528481526142c8565b610fba60405167442b8a20a8435f0c858201528481526142c8565b610fd560405167ff393930e6f6c0c7858201528481526142c8565b610ff06040516762866f3aafd93a73858201528481526142c8565b81156110b45750907fbd91b9538487013e1f78426333a3445bdfcdece5d02e402f33f9e598122919f59161103560405167443a18c3da8eb940848201528381526142c8565b61105060405167905408f79704ec43848201528381526142c8565b836000526012825260406000208560005282526040600020611073828254614434565b9055611090604051677ee4bde7bed2dd40848201528381526142c8565b6110ab6040516794a41dfd06db7620848201528381526142c8565b604051908152a3005b60405162461bcd60e51b8152908101839052601760248201527f416d6f756e74206d75737420626520706f7369746976650000000000000000006044820152606490fd5b34610d7c576040366003190112610d7c57611111614074565b61111961408a565b9060018060a01b038091166000526001602052604060002091166000526020526020604060002054604051908152f35b5034610d7c576040366003190112610d7c57611188903561116861408a565b908060005260066020526111836001604060002001546141ab565b614251565b005b34610d7c576000366003190112610d7c5760206040517f9f2df0fed2c77648de5860a4cc508cd0818c85b8b8a1ab4ceeef8d981c8956a68152f35b34610d7c576000366003190112610d7c576020600954604051908152f35b34610d7c576000366003190112610d7c57600b546040516001600160a01b039091168152602090f35b34610d7c57602080600319360112610d7c57611226614074565b61124160405167ba9d57f6a7dcb3bb848201528381526142c8565b61125c604051679194e4b0be8c7a1f848201528381526142c8565b60018060a01b031660005260108152604060002054604051908152f35b34610d7c576040366003190112610d7c57611292614074565b604051906112b1602092675c1c76597c52c3a5848201528381526142c8565b6112cc6040516769614f0440e3ec49848201528381526142c8565b6112e760405167327b519340216d83848201528381526142c8565b61130260405167bf473e267d8dbe02848201528381526142c8565b61131d6040516706aaea9099cb00bc848201528381526142c8565b6040519061133b6739d76f42160b2d509283858201528481526142c8565b60405191611359671d92a4e4089a2db89384868201528581526142c8565b6040519061137767e37fa76e7f4eef579283878201528681526142c8565b33600052600f8552604060002091604051946113a3673bd6bd9077bb500e9687898201528881526142c8565b6002604051946113c367797523331242476896878b8201528a81526142c8565b0180546116da576113e56040516752b37c985a35eea88a8201528981526142c8565b61140060405167b4c0b4926d6f16338a8201528981526142c8565b4290555b866040519267a6e02478d938d5e3938483820152828152611424906142c8565b6040519767caf8e6d0aac3b507988984820152838152611443906142c8565b6040519067a8c51886a7fe69a3918285820152848152611462906142c8565b6040519267fbddb7cc13265b69938486820152858152611481906142c8565b6040519567b7c0a631ccb59f049687878201528681526114a0906142c8565b6114a933616180565b98604051998a5260008051602061692e833981519152998a883392a26040516722012570fb3de105888201528781526114e1906142c8565b604051677a20d6d35068ee55888201528781526114fd906142c8565b6040519087820152868152611511906142c8565b6040519086820152858152611525906142c8565b6040519085820152848152611539906142c8565b600160a01b6001900389169788600052600f85526040600020916040519086820152858152611567906142c8565b604051908582015284815261157b906142c8565b6002019081541560001461167a9a6115e96116299861161997611609966115f9956116b9576115bb6040516752b37c985a35eea8848201528381526142c8565b6115d660405167b4c0b4926d6f1633848201528381526142c8565b4290555b604051918183015281526142c8565b604051908d8201528c81526142c8565b604051908b8201528a81526142c8565b60405190898201528881526142c8565b60405190878201528681526142c8565b8461163384616180565b604051908152a2611655604051672b34a5fb928e4ee5858201528481526142c8565b61167060405167398f235f253f63d7858201528481526142c8565b6024359033614441565b61169560405167ef8f3f7056dbe271838201528281526142c8565b6116b060405167cbc690c58c066790838201528281526142c8565b60405160018152f35b506116d5604051676f826c5fb102114d838201528281526142c8565b6115da565b506116f6604051676f826c5fb102114d898201528881526142c8565b611404565b34610d7c576000366003190112610d7c57602060405160008152f35b5034610d7c576000366003190112610d7c57604051600091805490600182811c91818416938415611813575b60209485851081146117fe578487529081156117dc5750600114611782575b61177e85611772818903826142fa565b6040519182918261402b565b0390f35b60009081529294507f8a35acfbc15ff81a39ae7d344fd709f28e8600b4aa8c65c6b64bfe7fe36bd19b5b8284106117c9575050508161177e93611772928201019338611762565b80548585018701529285019281016117ac565b60ff191686860152505050151560051b82010191506117728161177e38611762565b602283634e487b7160e01b6000525260246000fd5b92607f1692611743565b5034610d7c576040366003190112610d7c5761183761408a565b9035600052600660205260406000209060018060a01b0316600052602052602060ff604060002054166040519015158152f35b34610d7c576020366003190112610d7c576001600160a01b0361188b614074565b1660005260116020526020604060002054604051908152f35b34610d7c576040366003190112610d7c576118bd614074565b6118c561408a565b9060018060a01b03809116600052600e602052604060002091166000526020526020604060002054604051908152f35b34610d7c576000366003190112610d7c577f62e78cea01bee320cd4e420270b5ea74000d11b0c9f74754ebdbfc544b05a2586040516119456020916788d23a38c63c6aec838201528281526142c8565b61194d61414f565b611968604051672ddebab7f655373a838201528281526142c8565b6119836040516752af9d7784eef285838201528281526142c8565b61199e604051671b64424a14c30ca4838201528281526142c8565b6119a6615a20565b600160ff196005541617600555604051338152a1005b34610d7c576000366003190112610d7c576020600854604051908152f35b34610d7c576040366003190112610d7c576111886119f6614074565b60243590611b44604051611a1b60209167880fd0d2ad36c7e6838201528281526142c8565b611a23615a20565b611a3e60405167967fca4f7bc72b0b838201528281526142c8565b611a5960405167fc578be9b62df778838201528281526142c8565b611a7460405167fa1f8e5d61d4b42a838201528281526142c8565b611a8f6040516706f28c013d5499fd838201528281526142c8565b611aaa60405167db9568627a60c91d838201528281526142c8565b611ab584151561674f565b611ad06040516720ffa0c3aa082123838201528281526142c8565b611aeb604051676c1df6e0565aff67838201528281526142c8565b611b066040516702e8a0537c36802d838201528281526142c8565b611b1184338561431c565b611b2c604051676e4d33ad1e43e42d838201528281526142c8565b6040519067bbc804128d1c08228183015281526142c8565b61679b565b5034610d7c57602080600319360112610d7c57813591611b7a604051673ec710f05dfe9826848201528381526142c8565b611b826140d5565b611b9d60405167878326d1e838aab2848201528381526142c8565b611bb86040516750eb2d8e26ed63b7848201528381526142c8565b611bd3604051676a843e43d3d19269848201528381526142c8565b611bee604051672b46ab474944969d848201528381526142c8565b8215611ca857611c0f60405167fb8b43eab98cb2c7848201528381526142c8565b611c2a604051672b26011cc4d60675848201528381526142c8565b611c456040516787e93e875e9b4e9e848201528381526142c8565b6007548311611c705750611c6b906040519067fede06ce44e0f65d8183015281526142c8565b600855005b6064916040519162461bcd60e51b83528201526013602482015272135a5b88195e18d959591cc8191959985d5b1d606a1b6044820152fd5b6064916040519162461bcd60e51b835282015260146024820152734d696e206d75737420626520706f73697469766560601b6044820152fd5b34610d7c576000366003190112610d7c5760206040517fa49807205ce4d355092ef5a8a18f56e8913cf4a201fbe287825b095693c217758152f35b34610d7c576020366003190112610d7c576001600160a01b03611d3d614074565b1660005260006020526020604060002054604051908152f35b34610d7c57602080600319360112610d7c57600f90611f83611d76614074565b611d9160405167c12f8c9c729851e4858201528481526142c8565b611d996140d5565b611db460405167e32a1aedadab31a9858201528481526142c8565b611dcf60405167daace93ead4bd0ae858201528481526142c8565b611dea6040516743e93df93016c6c3858201528481526142c8565b611e0560405167cfad6c48f3a1f5d8858201528481526142c8565b611e206040516739d76f42160b2d50858201528481526142c8565b611e3b604051671d92a4e4089a2db8858201528481526142c8565b611e5660405167e37fa76e7f4eef57858201528481526142c8565b60008051602061692e8339815191528360018060a01b0383169384938460005287835260026040600020611e9b604051673bd6bd9077bb500e878201528681526142c8565b611eb6604051677975233312424768878201528681526142c8565b018054611fbf57611ed86040516752b37c985a35eea8868201528581526142c8565b611ef360405167b4c0b4926d6f1633868201528581526142c8565b4290555b611f1260405167a6e02478d938d5e3858201528481526142c8565b611f2d60405167caf8e6d0aac3b507858201528481526142c8565b611f4860405167a8c51886a7fe69a3858201528481526142c8565b611f6360405167fbddb7cc13265b69858201528481526142c8565b611f7e60405167b7c0a631ccb59f04858201528481526142c8565b616180565b604051908152a2611fa56040516789a6ffb4bc8a99c4848201528381526142c8565b600052526003604060002001611fbb8154614425565b9055005b50611fdb604051676f826c5fb102114d858201528481526142c8565b611ef7565b5034610d7c57602080600319360112610d7c5781359161201160405167eefd7faf8576dc21848201528381526142c8565b6120196140d5565b612034604051676a6ba60dc167c7e4848201528381526142c8565b61204f6040516753b9b18dae5faf8f848201528381526142c8565b61206a60405167116df1fdc6bce889848201528381526142c8565b6120856040516782a52b4f1ae118a8848201528381526142c8565b82156120ad57506120a890604051906731d0b53fee2bb0b18183015281526142c8565b600a55005b6064916040519162461bcd60e51b8352820152601760248201527f506572696f64206d75737420626520706f7369746976650000000000000000006044820152fd5b34610d7c576020366003190112610d7c57602061210d611f7e614074565b604051908152f35b5034610d7c57602080600319360112610d7c57612130614074565b61214b604051675b612a70588afc5d848201528381526142c8565b6121536140d5565b61216e604051673a18ce53bc119cb9848201528381526142c8565b612189604051672d90c910f830cb34848201528381526142c8565b6121a460405167a3a1f5ea7f5a7ccb848201528381526142c8565b6121bf60405167b291ed991ac9572a848201528381526142c8565b6001600160a01b031691821561220457506121ec906040519067b613fe43419a48d38183015281526142c8565b6001600160601b0360a01b600b541617600b55600080f35b6064916040519162461bcd60e51b8352820152601f60248201527f547265617375727920616464726573732063616e6e6f74206265207a65726f006044820152fd5b5034610d7c576020366003190112610d7c5760e0906001600160a01b038061226c614074565b16600052600c6020526040600020805492600182015492600283015416906003830154908301549160ff600660058601549501541694604051968752602087015260408601526060850152608084015260a0830152151560c0820152f35b34610d7c576040366003190112610d7c576122e3614074565b6122eb61408a565b9060018060a01b038091166000526012602052604060002091166000526020526020604060002054604051908152f35b34610d7c576000366003190112610d7c57602060ff600554166040519015158152f35b5034610d7c57602080600319360112610d7c5781359161236f60405167c1d4db27733deade848201528381526142c8565b6123776140d5565b612392604051673f71e24ee9e3c601848201528381526142c8565b6123ad60405167f40fdec6121ad049848201528381526142c8565b6123c86040516794e8e700ed64784a848201528381526142c8565b6123e3604051679841bcd657877d45848201528381526142c8565b600754831061240e57506124099060405190675434cca35c1559c98183015281526142c8565b600955005b6064916040519162461bcd60e51b8352820152601160248201527013585e0818995b1bddc8191959985d5b1d607a1b6044820152fd5b5034610d7c576020366003190112610d7c5761245e614074565b9061247c6040516791e05d030980850e6020820152602081526142c8565b612484615a20565b6124a160405167a37edccea2c8fcc86020820152602081526142c8565b6124be604051679e1d9a052563c9276020820152602081526142c8565b6124db60405167931389147291891e6020820152602081526142c8565b6124f860405167eb42c7021465f90c6020820152602081526142c8565b60018060a01b038216600052600c60205260406000209061252c60405167c7ccf7653182d0946020820152602081526142c8565b61254960405167eae5d45c9708ae436020820152602081526142c8565b61256660405167e47592b00a504c756020820152602081526142c8565b81548015612f095761258b604051674a47c952c926f9b26020820152602081526142c8565b6125a860405167b0967a3931fed0336020820152602081526142c8565b6125c560405167bceb9cfe903c79686020820152602081526142c8565b6125e260405167c2121d5acef1289c6020820152602081526142c8565b4210612ec5576126056040516765c757c5522f01806020820152602081526142c8565b6126226040516705ab89ecfb39c1c56020820152602081526142c8565b61263f6040516754f796635b310cc06020820152602081526142c8565b61265c604051672b7db0ed5744c9a76020820152602081526142c8565b60ff600683015416612e895750612686604051674fd96e3fce133b296020820152602081526142c8565b6126a36040516735a23ce870a5d1d56020820152602081526142c8565b6126c060405167dfe92852a44f84116020820152602081526142c8565b60058101546126e260405167d1958a37b3ffce606020820152602081526142c8565b6126ff604051675ef94af5ee2c84256020820152602081526142c8565b8015612e6b57612722604051674947b166bc32a4416020820152602081526142c8565b61273f604051677c1cf24f6315d1c86020820152602081526142c8565b61275c60405167ed96aae4c1ea001a6020820152602081526142c8565b60031c61277c604051675b16286902afcec56020820152602081526142c8565b6127996040516794873d77dcc850426020820152602081526142c8565b8015612e48576127bc6040516794b88b16a0d308d66020820152602081526142c8565b6127d9604051676f02c2eaba4d2ce56020820152602081526142c8565b60206002830160018060a01b03815416600052601082526040600020612800848254614434565b905561281d60405167469b1e74b43ee8fa848201528381526142c8565b60018060a01b0381541660005260108252426001604060002001556128536040516710f36bd42a9aa072848201528381526142c8565b60018060a01b038516600052601082526040600020612873848254614434565b90556128906040516702ce534d50dd2d9e848201528381526142c8565b60018060a01b03851660005260108252426001604060002001556128c560405167a9e8fa354c8973a4848201528381526142c8565b6128e060405167dde50ab956edfc42848201528381526142c8565b546040518381527ffdfa38dc30c58b0662200654ef296c1527abbf34b03b2f908af130d2a35db878926001600160a01b03909216918391a261293560405167b8bae17b737befad6020820152602081526142c8565b612952604051675482d927c8246d276020820152602081526142c8565b6040519182526001600160a01b03841691602090a25b612985604051679a893b8fb44b5f536020820152602081526142c8565b6129a260405167e954b48192f36d436020820152602081526142c8565b6129bf6040516739d76f42160b2d506020820152602081526142c8565b6129dc604051671d92a4e4089a2db86020820152602081526142c8565b6129f960405167e37fa76e7f4eef576020820152602081526142c8565b60018060a01b038216600052600f60205260026040600020612a2e604051673bd6bd9077bb500e6020820152602081526142c8565b612a4b6040516779752333124247686020820152602081526142c8565b018054612e2557612a6f6040516752b37c985a35eea86020820152602081526142c8565b612a8c60405167b4c0b4926d6f16336020820152602081526142c8565b4290555b612aad60405167a6e02478d938d5e36020820152602081526142c8565b612aca60405167caf8e6d0aac3b5076020820152602081526142c8565b612ae760405167a8c51886a7fe69a36020820152602081526142c8565b612b0460405167fbddb7cc13265b696020820152602081526142c8565b612b2160405167b7c0a631ccb59f046020820152602081526142c8565b612b2a82616180565b6040519081526001600160a01b0383169060008051602061692e83398151915290602090a2612b6c60405167a67ab7d3d90973406020820152602081526142c8565b612b8960405167e535ac6447162a5b6020820152602081526142c8565b600260018060a01b0391015416612bb36040516739d76f42160b2d506020820152602081526142c8565b612bd0604051671d92a4e4089a2db86020820152602081526142c8565b612bed60405167e37fa76e7f4eef576020820152602081526142c8565b80600052600f60205260026040600020612c1a604051673bd6bd9077bb500e6020820152602081526142c8565b612c376040516779752333124247686020820152602081526142c8565b018054612e0257612c5b6040516752b37c985a35eea86020820152602081526142c8565b612c7860405167b4c0b4926d6f16336020820152602081526142c8565b4290555b612c9960405167a6e02478d938d5e36020820152602081526142c8565b612cb660405167caf8e6d0aac3b5076020820152602081526142c8565b612cd360405167a8c51886a7fe69a36020820152602081526142c8565b612cf060405167fbddb7cc13265b696020820152602081526142c8565b612d0d60405167b7c0a631ccb59f046020820152602081526142c8565b60008051602061692e8339815191526020612d2783616180565b604051908152a2612d4b604051675f9c278e70471f766020820152602081526142c8565b60018060a01b038116600052600c602052612d8e604060002060066000918281558260018201558260028201558260038201558260048201558260058201550155565b612dab604051673e780238272d7db36020820152602081526142c8565b612dc8604051675602f8f30b8375b16020820152602081526142c8565b6040514281526001600160a01b03909116907f23bd7f8191a147e373def338d5a76dce96b4d2f7d15a43eca83e3ee6e750614390602090a2005b50612e20604051676f826c5fb102114d6020820152602081526142c8565b612c7c565b50612e43604051676f826c5fb102114d6020820152602081526142c8565b612a90565b50612e666040516705b2ba6d4df24aa66020820152602081526142c8565b612968565b50612e6660405167578cb93d818313236020820152602081526142c8565b60649060206040519162461bcd60e51b83528201526015602482015274151c985b9cd9995c881dd85cc81c995d995c9cd959605a1b6044820152fd5b60649060206040519162461bcd60e51b8352820152601860248201527f48616c664c696665206e6f7420657870697265642079657400000000000000006044820152fd5b60405162461bcd60e51b8152602081840152601760248201527f4e6f20616374697665207472616e7366657220646174610000000000000000006044820152606490fd5b5034610d7c57612f5c366140a0565b60409291925191612f7e602093675cfdebc2cf5c0a9c858201528481526142c8565b612f866140d5565b612fa160405167415750aff30cff25858201528481526142c8565b612fbc604051676e0664d55c437d03858201528481526142c8565b612fd7604051675c2d86db51d816c6858201528481526142c8565b612ff2604051674ac3b031ed1c7e4d858201528481526142c8565b61300d604051677bae3ac58ebaba55858201528481526142c8565b6001600160a01b0390811693613024851515616849565b61303f60405167184da28c83184a45868201528581526142c8565b61305a6040516794d5ef299c86069a868201528581526142c8565b613075604051674be5dd573fc7e464868201528581526142c8565b613090604051678c3cc096d9e93863868201528581526142c8565b169361309d851515616895565b6130b8604051674b2331900b32f954858201528481526142c8565b6130d3604051679acbef12ece4622a858201528481526142c8565b6130ee6040516760dea768a6f253fc858201528481526142c8565b6131096040516773416037dd79fb2f858201528481526142c8565b613115858514156168e1565b613130604051672f9ff88c02d35a6d858201528481526142c8565b61314b60405167ccf3e6a1faa26328858201528481526142c8565b613166604051677d7e45270f34e167858201528481526142c8565b61318160405167d5addc88854a894a858201528481526142c8565b8115613357576131a260405167a10f2530e2834575858201528481526142c8565b6131bd60405167c5c1493f6e3ce697858201528481526142c8565b6131d86040516782eb721f0500b511858201528481526142c8565b836000526012835260406000208560005283526040600020549061320d60405167a109dc0763d3be09868201528581526142c8565b613228604051670d7b747caf0b2f84868201528581526142c8565b61324360405167dece18d831396f73868201528581526142c8565b8183116132fd5750906132ae817f59ee8f52c52e61b33b5c6a4f2311c6855f389b6d4667bc980aaa3eb4fa8d7b7f949361328e6040516727630211ed80e7dd878201528681526142c8565b6132a960405167760812f099bfabce878201528681526142c8565b614418565b846000526012835260406000208660005283526040600020556132e26040516784b97f48fd6a4378848201528381526142c8565b6110ab60405167fbc30ee90b394731848201528381526142c8565b60405162461bcd60e51b8152908101849052602d60248201527f416d6f756e7420746f20636c6561722065786365656473206f75747374616e6460448201526c696e67206c696162696c69747960981b6064820152608490fd5b60649083806040519262461bcd60e51b845283015260248201527f416d6f756e7420746f20636c656172206d75737420626520706f7369746976656044820152fd5b34610d7c576000366003190112610d7c576020600754604051908152f35b5034610d7c57602080600319360112610d7c576134d66111889235916133ee604051678192ec99bba5f17a838201528281526142c8565b6133f6615a20565b61341160405167ac964f9f48be321b838201528281526142c8565b61342c60405167ff4efb30c1f3912d838201528281526142c8565b61344760405167331c4595f4b238aa838201528281526142c8565b613462604051675da452f1a94e4f3e838201528281526142c8565b61347d604051678c8c80d8169893c9838201528281526142c8565b61348883151561674f565b6134a360405167963f218a55a18eb3838201528281526142c8565b6134be60405167870b9021026c53bb838201528281526142c8565b60405190676d8fecc0bc0d95a58183015281526142c8565b3361679b565b5034610d7c576040366003190112610d7c576134f6614074565b602435906040519061351960209267f37a14223fe06bd6848201528381526142c8565b613521615a20565b61353c6040516707565acaa002c7a8848201528381526142c8565b613557604051677a23ef64b8ebcd69848201528381526142c8565b7f9f2df0fed2c77648de5860a4cc508cd0818c85b8b8a1ab4ceeef8d981c8956a68060005260068352604060002033600052835260ff604060002054161561385657506135b560405167f8a7bbcf4d652fbc848201528381526142c8565b6135d060405167959a7e59ff621999848201528381526142c8565b6135eb604051672a43cfe6b2a63410848201528381526142c8565b61360660405167ee1c905e9c887ba9848201528381526142c8565b61362160405167ef27ac6466cb7987848201528381526142c8565b6001600160a01b0381169384156138125761364d6040516743cf5c08b2473d67858201528481526142c8565b61366860405167cc5b6035195ea573858201528481526142c8565b6136836040516794adf9a95d499211858201528481526142c8565b61369e60405167e18876fd71183a47858201528481526142c8565b83156137ce575090613758837fbf67ec129007be07f346d9d2933215293a6612ce7ff17d6b479a5a5cae72890c936136e7604051674dba28e26972a384868201528581526142c8565b6137026040516733113d25ab4214d6868201528581526142c8565b61371d60405167ebab3920e59021f5868201528581526142c8565b61373860405167ddc7e3ab884c02ff868201528581526142c8565b61375360405167e2f2c1a118cc887d868201528581526142c8565b6166e2565b613773604051674ed5e76a20cfe3d0838201528281526142c8565b3360005260118152604060002061378b848254614434565b90556137a8604051677f0d1230e3b5409b838201528281526142c8565b6137c36040516715b6fb34a88e8b03838201528281526142c8565b6040519283523392a3005b60405162461bcd60e51b8152908101839052601c60248201527f4d696e7420616d6f756e74206d75737420626520706f736974697665000000006044820152606490fd5b60405162461bcd60e51b8152908101839052601860248201527f4d696e7420746f20746865207a65726f206164647265737300000000000000006044820152606490fd5b60405163e2517d3f60e01b815233818701526024810191909152604490fd5b5034610d7c576000366003190112610d7c576040516138a560209167a2808356548b83da838201528281526142c8565b6138ad61414f565b6138c860405167f87bc9cafb4f10dd838201528281526142c8565b6138e360405167eb2e5c77ddc7c809838201528281526142c8565b6138fe60405167c2e386bde33438f0838201528281526142c8565b60055460ff81161561393d5760ff19166005556040513381527f5db9ee0a495bf2e6ff9c91a7834c1ba4fdd244a5e8aa4e537bd38aeae4b073aa9250a1005b604051638dfc202b60e01b81528390fd5b34610d7c576020366003190112610d7c576001600160a01b0361396f614074565b16600052600f602052608060406000208054906001810154906003600282015491015491604051938452602084015260408301526060820152f35b5034610d7c576040366003190112610d7c576139c461408a565b336001600160a01b038216036139de576111889135614251565b5060405163334bd91960e11b8152fd5b34610d7c576000366003190112610d7c57602060405160128152f35b5034610d7c576040366003190112610d7c576111889035613a2961408a565b90806000526006602052613a446001604060002001546141ab565b6141d1565b34610d7c576000366003190112610d7c5760206040517f3c11d16cbaffd01df69ce1c404f6340ee057498f5f00246190ea54220576a8488152f35b5034610d7c576020366003190112610d7c573560005260066020526020600160406000200154604051908152f35b34610d7c57613b98613ac3366140a0565b9060409392935193613ae66020956730ee23e052e3309e878201528681526142c8565b613b0160405167c0ac2266b34cc662878201528681526142c8565b613b1c60405167bc5a05c46c7ccb67878201528681526142c8565b613b3760405167e0339ef1b8914977878201528681526142c8565b613b52604051673cce19b4be2d7389878201528681526142c8565b613b5d83338361431c565b613b7860405167e163fac916a91dd1878201528681526142c8565b613b93604051678fa58aa905dd56d7878201528681526142c8565b614441565b613bb360405167ea99e8ca80445183838201528281526142c8565b6116b060405167fb2bf86867451410838201528281526142c8565b34610d7c576000366003190112610d7c576020600254604051908152f35b5034610d7c57602080600319360112610d7c57813591613c1d604051678b75d6b9167f826c848201528381526142c8565b613c256140d5565b613c40604051673074562c516ab394848201528381526142c8565b613c5b6040516725efebd4294a91ff848201528381526142c8565b613c766040516740940c7eb8d89029848201528381526142c8565b613c9160405167a15640bc1a0d4898848201528381526142c8565b6008548310613d4857613cb560405167d31789ad8931e34d848201528381526142c8565b613cd060405167e2fb91a51f2ce0fa848201528381526142c8565b613ceb604051674934b1871e9ec234848201528381526142c8565b6009548311613d165750613d119060405190675bb5733a7d1ba2798183015281526142c8565b600755005b6064916040519162461bcd60e51b8352820152600d60248201526c41626f7665206d6178696d756d60981b6044820152fd5b6064916040519162461bcd60e51b8352820152600d60248201526c42656c6f77206d696e696d756d60981b6044820152fd5b34610d7c576020366003190112610d7c576001600160a01b03613d9b614074565b1660005260106020526040806000206001815491015482519182526020820152f35b5034610d7c576040366003190112610d7c57613dd7614074565b602435903315613e5d576001600160a01b0316918215613e455750336000526001602052604060002082600052602052806040600020556040519081527f8c5be1e5ebec7d5bd14f71427d1e84f3dd0314c0f7b2291e5b200ac8c7c3b92560203392a3602060405160018152f35b602490600060405191634a1406b160e11b8352820152fd5b60405163e602df0560e01b8152600081850152602490fd5b34610d7c576020366003190112610d7c576001600160a01b03613e96614074565b16600052600d60205260606040600020805490600260018201549101549060405192835260208301526040820152f35b5034610d7c576000366003190112610d7c57604051600091600354600181811c918181168015613fb1575b6020948585108214613f9c5750838652908115613f7c5750600114613f21575b61177e84611772818803826142fa565b600360009081529294507fc2575a0e9e593c00f959f8c92f12db2869c3395a3b0502d05e2516446f71f85b5b828410613f69575050508161177e936117729282010193613f11565b8054858501870152928501928101613f4d565b60ff1916858501525050151560051b82010191506117728161177e613f11565b602290634e487b7160e01b6000525260246000fd5b92607f1692613ef1565b34610d7c576000366003190112610d7c576020600a54604051908152f35b8234610d7c576020366003190112610d7c57359063ffffffff60e01b8216809203610d7c57602091637965db0b60e01b811490811561401a575b5015158152f35b6301ffc9a760e01b14905083614013565b6020808252825181830181905290939260005b82811061406057505060409293506000838284010152601f8019910116010190565b81810186015184820160400152850161403e565b600435906001600160a01b0382168203610d7c57565b602435906001600160a01b0382168203610d7c57565b6060906003190112610d7c576001600160a01b03906004358281168103610d7c57916024359081168103610d7c579060443590565b3360009081527f0c3bb05773fb95f6688e1e7d9c896674dccd66884026cf30a3d5e3a9bfecd81160205260409020547fa49807205ce4d355092ef5a8a18f56e8913cf4a201fbe287825b095693c217759060ff16156141315750565b6044906040519063e2517d3f60e01b82523360048301526024820152fd5b3360009081527fe09f975e15f8f53f24cbbc282b13c40b84df485fcdb8d3997fa103dc5a4ef84160205260409020547f65d7a28e3265b37a6474929f336521b332c1681b933f6cb9f3376673440d862a9060ff16156141315750565b80600052600660205260406000203360005260205260ff60406000205416156141315750565b906000918083526006602052604083209160018060a01b03169182845260205260ff6040842054161560001461424c5780835260066020526040832082845260205260408320600160ff198254161790557f2f8788117e7eff1d82e926ec794901d17c78024a50270940304540a733656f0d339380a4600190565b505090565b906000918083526006602052604083209160018060a01b03169182845260205260ff60408420541660001461424c578083526006602052604083208284526020526040832060ff1981541690557ff6391f5c32d9c69d2a47ea670b442974b53935d1edc7fd64eb21e047a839171b339380a4600190565b6040810190811067ffffffffffffffff8211176142e457604052565b634e487b7160e01b600052604160045260246000fd5b90601f8019910116810190811067ffffffffffffffff8211176142e457604052565b9160018060a01b03809316916000938385526001602052604093848620918316918287526020528486205492600019841061435b575b50505050505050565b8484106143bf575080156143a757811561438f57855260016020528385209085526020520391205538808080808080614352565b8451634a1406b160e11b815260048101879052602490fd5b845163e602df0560e01b815260048101879052602490fd5b8551637dc7a0d960e11b81526001600160a01b039190911660048201526024810184905260448101859052606490fd5b8181029291811591840414171561440257565b634e487b7160e01b600052601160045260246000fd5b9190820391821161440257565b60001981146144025760010190565b9190820180921161440257565b9161445f60405167579d6a626afc646f6020820152602081526142c8565b61447c60405167aaf7e5c1e9647c0c6020820152602081526142c8565b614499604051679543b4fe232940e66020820152602081526142c8565b6144b6604051673b3f8e68560b36496020820152602081526142c8565b6001600160a01b038216156159db576144e260405167c4a83df4307d59fc6020820152602081526142c8565b6144ff60405167cb5c61a20cda9c7e6020820152602081526142c8565b61451c6040516772bb4f6a78c4451e6020820152602081526142c8565b61453960405167a3c9f4cbc4de368f6020820152602081526142c8565b80156159845761455c604051671ed304a0e0fac7246020820152602081526142c8565b61457960405167cb3ea6a4e0a867006020820152602081526142c8565b61459660405167cd9dff8743eee2b36020820152602081526142c8565b6001600160a01b0383166000908152600c60205260409020805442109081615969575b5015614680576145dc60405167bf27f1b29e7bcf6f6020820152602081526142c8565b6145f960405167e4b0018ebf77b06f6020820152602081526142c8565b61461660405167d2dd6cc958dec2436020820152602081526142c8565b608460405162461bcd60e51b815260206004820152604060248201527f43616e6e6f74207472616e7366657220647572696e672048616c664c6966652060448201527f706572696f6420657863657074206261636b20746f206f726967696e61746f726064820152fd5b61469d604051673af87a8d18229c446020820152602081526142c8565b6146ba60405167a0ec3376260c17ac6020820152602081526142c8565b6146d76040516796cb02c9750660dd6020820152602081526142c8565b6146e081615a3e565b6146fd604051678b7bf52d533fa2986020820152602081526142c8565b61471a60405167a0e5cb6e013cdc1c6020820152602081526142c8565b614737604051673412aea162dabe536020820152602081526142c8565b614754604051677a9beca78e58693e6020820152602081526142c8565b614771604051679f41100959775aeb6020820152602081526142c8565b61489b61477d85616180565b61479a60405167dbc75bbeb7baf2336020820152602081526142c8565b6147b76040516772937c617501f32c6020820152602081526142c8565b6147c085616180565b6147dd60405167823df8bb018ba3056020820152602081526142c8565b6147fa604051679ee5ad823b89d2aa6020820152602081526142c8565b8082118015615941575b80615919575b156159115750915b61482f60405167fd7e522419ca628a6020820152602081526142c8565b61484c60405167f9b4cab5590ff9c06020820152602081526142c8565b61485a6127109384926143ef565b0461487860405167bda1d49c0f6439976020820152602081526142c8565b6148956040516779b5bcbf0c08e6876020820152602081526142c8565b85616451565b906148b9604051670bdd4f25a88b96126020820152602081526142c8565b6148d660405167adebbaf6283618b76020820152602081526142c8565b81906148f560405167cbb7eb4de0c6cff36020820152602081526142c8565b61491260405167c93fd33f29accd416020820152602081526142c8565b6101f484026101f319858204016144025704809261494360405167f9c503ef7052cd7a6020820152602081526142c8565b61496060405167baef6d0d2422d8ae6020820152602081526142c8565b11156158ed575061498460405167c0b2451cb348006a6020820152602081526142c8565b6149a160405167749b69aee185f5036020820152602081526142c8565b6149be60405167eab672de8e8c16166020820152602081526142c8565b6149db60405167ccda08abd4cc59f66020820152602081526142c8565b6149f8604051679ed178346904d3206020820152602081526142c8565b60018110806158e3575b156158c15750614a2560405167bf78c79c711198df6020820152602081526142c8565b60015b614a4560405167d6474b54a918e6ed6020820152602081526142c8565b614a62604051679d4697db806186936020820152602081526142c8565b8181111561589e5750614a88604051672ba3c243663bfbd26020820152602081526142c8565b805b614aa7604051671dc47d0ac46d03356020820152602081526142c8565b614ac460405167b6994b0b680ec0dd6020820152602081526142c8565b614ace8282614418565b92614aec60405167c479f1d9cde5106b6020820152602081526142c8565b614b096040516747e4c937fb02a18a6020820152602081526142c8565b614b11615a20565b6001600160a01b03851661582f57614b2b84600254614434565b6002555b6001600160a01b03818116600081815260208181526040918290208054890190559051878152919288169160008051602061694e8339815191529190a3614b8960405167145f6e3f903a8d6c6020820152602081526142c8565b614ba660405167123b8d06aeaa16db6020820152602081526142c8565b821561580d57614bc960405167236e5ede190f443d6020820152602081526142c8565b614be660405167f2ebc718efff90836020820152602081526142c8565b614c0360405167863346ce4936d9596020820152602081526142c8565b614c2060405167544ad5232c1f1ba66020820152602081526142c8565b614c3d6040516711d4bcddf71d5c9a6020820152602081526142c8565b614c5a604051678d1a316bede48fd96020820152602081526142c8565b614dec8360011c614c7e6040516761b239133ec954ee6020820152602081526142c8565b614c9b60405167482b9fee438ed9cb6020820152602081526142c8565b80156157eb57614cbe6040516757a2b0f7f66560486020820152602081526142c8565b614cdb60405167fcedb089ca49eb266020820152602081526142c8565b600b54614cf29082906001600160a01b03166166e2565b614d0f60405167a39303225f22fcf16020820152602081526142c8565b614d2c60405167a8c4e81d2e0df1646020820152602081526142c8565b6132a98560021c91614d5160405167e739ff3f0295c8ae6020820152602081526142c8565b60018060a01b03891660005260106020526040600020614d72848254614434565b9055614d91604051677d5092e63fcb287f6020820152602081526142c8565b60018060a01b038916600052601060205242600160406000200155614dc9604051671a5552cd34f027366020820152602081526142c8565b614de66040516742c16a190da098396020820152602081526142c8565b86614418565b614e0960405167be9170d5967fe50e6020820152602081526142c8565b60018060a01b0382166000526010602052614e2a6040600020918254614434565b9055614e496040516774be09f95cb5afc66020820152602081526142c8565b60018060a01b0381166000526010602052426001604060002001555b614e8260405167971ae187876a134c6020820152602081526142c8565b6001600160a01b038581166000908152600e602090815260408083209385168352929052208054614eb290614425565b9055614ed1604051679dc850d02a28b6126020820152602081526142c8565b614eee60405167549b709bef3daab56020820152602081526142c8565b614f0b60405167b19ed8c37f889d656020820152602081526142c8565b614f28604051674b24489668391bff6020820152602081526142c8565b614f4560405167b5201afe1c71d6596020820152602081526142c8565b600754614f656040516758a42af4aac43ebf6020820152602081526142c8565b614f82604051673c2e5cd7dc3c2e176020820152602081526142c8565b60018060a01b038616600052600e602052604060002060018060a01b038316600052602052604060002054614fca604051675bd7cb4f0f45cf156020820152602081526142c8565b614fe7604051671f3406b13e9a71346020820152602081526142c8565b8015806157c75761500b60405167a55b05ea151c80a36020820152602081526142c8565b615028604051671e707f0609ef4ee26020820152602081526142c8565b6150456040516783281294ef9c808c6020820152602081526142c8565b600a8202918204600a14171561440257605a8111801561579f575b80615777575b156157725750605a5b61508c604051676e944265029f383a6020820152602081526142c8565b6064039060648211614402576064916150a4916143ef565b045b6150c360405167e9dec1c2850540cf6020820152602081526142c8565b6150e060405167a2146dea2604361c6020820152602081526142c8565b60018060a01b038616600052600d602052604060002061511360405167460df709d4dbf1876020820152602081526142c8565b6151306040516702b23b5fdf398d506020820152602081526142c8565b600181015490811590816157525761515b60405167c15641c67e22ecf66020820152602081526142c8565b61517860405167a527b50adf727c046020820152602081526142c8565b61519560405167daea89a6324ad31c6020820152602081526142c8565b54908115615732576151ba604051677c21b085b3e4bcc06020820152602081526142c8565b6151d760405167caec01b36d2805086020820152602081526142c8565b6151f460405167c467989eb0bd03e56020820152602081526142c8565b61571c57046152166040516773c962773eb181f56020820152602081526142c8565b61523360405167c63bfd15de6467a26020820152602081526142c8565b600a810290808204600a1490151715614402578311156156fa5761526a604051673dd04f07131163626020820152602081526142c8565b8060011b9080820460021490151715614402575b61529b604051679ebe53fc414bb4c36020820152602081526142c8565b6152b8604051676bc86db466034ace6020820152602081526142c8565b600854908181101561566957506152e2604051673d4b0fce3c4759af6020820152602081526142c8565b925b6153016040516780ad2dc9039c48906020820152602081526142c8565b61531e60405167129f9150746471b36020820152602081526142c8565b61533b604051673f0e5da6a5b6c5c16020820152602081526142c8565b6153458442614434565b9260018060a01b038316600052600c60205260036040600020015494600186018611614402576040519460208601956001600160601b0319808b60601b1688528660601b1660348201528360488201526048815267ffffffffffffffff96816080810110886080840111176142e4576080820160405281519020966080820161016083011090610160830111176142e4577f98bc3fe7d138931a49691b623c256b8812f2a3d7f9b25ba7098c82538977a5d09760409760069361016084018a52608084015260a0830194855260c083019160018060a01b038d168352600160e085019101815261010084019182526101208401928884526101408501966000885260018060a01b038b16600052600c60205260808c6000209601518655516001860155600285019060018060a01b039051166001600160601b0360a01b825416179055516003840155516004830155516005820155019051151560ff801983541691161790556154c784516751fc128d9e54f5416020820152602081526142c8565b6154e3845167e46675f3defee88e6020820152602081526142c8565b6154ff845167c1a6135892bb83926020820152602081526142c8565b61551b8451670fdbd14692edcf256020820152602081526142c8565b6155378451679b7f32cd735641076020820152602081526142c8565b60018060a01b038316600052600d60205260018460002061556a8651679c1ae8e140aa7e136020820152602081526142c8565b615586865167291272a7f8a6c7b76020820152602081526142c8565b6155ce600282019384548015159081615654575b5015615633576155bc885167fe0be66f11cda9236020820152602081526142c8565b600083556000848401555b8254614434565b8155016155db8154614425565b90554290556155fc835167717e6e7169c0ba946020820152602081526142c8565b6156188351675f30b3a5700c853a6020820152602081526142c8565b825194855260208501526001600160a01b03908116941692a3565b61564f885167601550b4f57073336020820152602081526142c8565b6155c7565b61565f915042614418565b600a54103861559a565b90506156886040516741c01297b865c8576020820152602081526142c8565b6156a560405167319af96df9eb99806020820152602081526142c8565b60095490818111156156d557506156cf60405167d0bc65e2352f4fe56020820152602081526142c8565b926152e4565b9390506156f560405167396b45856d467aef6020820152602081526142c8565b6152e4565b6157176040516731171b87078ac22d6020820152602081526142c8565b61527e565b634e487b7160e01b600052601260045260246000fd5b50505061571760405167ad5fea6d9c273c526020820152602081526142c8565b50505061571760405167f62dc0c483b7ad8f6020820152602081526142c8565b61506f565b5061579860405167312dafaab5ce361960c21b6020820152602081526142c8565b6001615066565b506157c060405167e400e4957c58931960c01b6020820152602081526142c8565b6000615060565b50506157e66040516740dea02acd3d65146020820152602081526142c8565b6150a6565b61580860405167b394e2ac30bcf9746020820152602081526142c8565b614cf2565b61582a60405167aa15aeb9a744a1cc6020820152602081526142c8565b614e65565b6001600160a01b03851660009081526020819052604090205484811061586e57849060018060a01b038716600052600060205203604060002055614b2f565b60405163391434e360e21b81526001600160a01b0387166004820152602481019190915260448101859052606490fd5b906158bc60405167ebd16ef657b3f1d36020820152602081526142c8565b614a8a565b6158de60405167948df8d9b92216ac6020820152602081526142c8565b614a28565b5060018211614a02565b905061590c60405167a2fea3f252baa3766020820152602081526142c8565b614984565b905091614812565b5061593a6040516721f53f9f65959ce760c21b6020820152602081526142c8565b600161480a565b5061596260405167349797a2d583f11160c21b6020820152602081526142c8565b6000614804565b600201546001600160a01b03848116911614159050386145b9565b60405162461bcd60e51b815260206004820152602960248201527f5472616e7366657220616d6f756e74206d7573742062652067726561746572206044820152687468616e207a65726f60b81b6064820152608490fd5b60405162461bcd60e51b815260206004820152601860248201527f5472616e7366657220746f207a65726f206164647265737300000000000000006044820152606490fd5b60ff60055416615a2c57565b60405163d93c066560e01b8152600490fd5b6040805191615a5e6020936770a59a83e975b92a858201528481526142c8565b615a78825167668f115c10bd6955858201528481526142c8565b615a928251674e43078bfa115b05858201528481526142c8565b80615ad257509081615ab7615acd935167a6fb9721ffd86033848201528381526142c8565b519067872e4b2b9aea98698183015281526142c8565b600090565b615aec8251677c4813665181dedc858201528481526142c8565b615b068251671bfbb13a4b7e75b8858201528481526142c8565b615b20825167150a0c569abcf7ae858201528481526142c8565b615b3a82516772370d8ca6bfd9f2858201528481526142c8565b615b54825167db557d2e982521ed858201528481526142c8565b91615b6f82516746e0894b1893e2f0838201528281526142c8565b615b898251675a4b23a104783c66838201528281526142c8565b600091615ba681516798f22d1e032fd0bb848201528381526142c8565b615bc0815167e3b1812fac83af14848201528381526142c8565b670de0b6b3a764000093615be48251673b53657df17ca1cd858201528481526142c8565b615bfe825167908563eeaf119993858201528481526142c8565b8390615c1a8351673b98c14e84d27ce1868201528581526142c8565b615c34835167f267173894dd5b9e868201528581526142c8565b6298968091615c5384516711ea53bb7cf86bd9878201528681526142c8565b81615c6e8551673d80fc69d1ed2b93888201528781526142c8565b615caf575b505050615cac929350615c968151674120dac8f69da311848201528381526142c8565b5190671deb614ba6d3b9768183015281526142c8565b90565b615cc9845167c674fb8fde945e8f878201528681526142c8565b615ce3845167e6563b1b8eb40798878201528681526142c8565b615cfd8451670739e194fbf1cde5878201528681526142c8565b615d1784516748d44b55a7fc063a878201528681526142c8565b615d218188614418565b90615d3c855167487a193f1a384726888201528781526142c8565b615d56855167f7a10e6e03c6fef8888201528781526142c8565b871015615d8957505050615cac929350615d808151674ee3ce079208cdbd848201528381526142c8565b83923880615c73565b615da3845167cf53e2b0b759f0bd878201528681526142c8565b615dbd84516711b1e88929cd88e6878201528681526142c8565b615dd7845167e05663502ad8e696878201528681526142c8565b80615dff57505050615cac929350615d8081516763cddef929273df3848201528381526142c8565b948395615e1d84955167689e3408ceb7a8fa888201528781526142c8565b615e378751676eb7380220e698f8888201528781526142c8565b615e5187516791c54e7e14b7a779888201528781526142c8565b808311156161575790615e82615ee792615e7b89516778509701f1c064b58a8201528981526142c8565b8094614418565b925b615e9e8851674907e1ce09e68554898201528881526142c8565b615eb8885167fffab400c4981555898201528881526142c8565b615ec66127109687926143ef565b0490615ee28851670ff49a93f074dc41898201528881526142c8565b614434565b95615f0286516763422c7c89687586878201528681526142c8565b80615f1d87516767019452d609f939888201528781526142c8565b615f3787516751a19ada6e49534d888201528781526142c8565b600a9081810290801590808304841482171561440257615f678a5167f227d51fec2bc37b8b8201528a81526142c8565b615f818a516786fee8b2c264bc758b8201528a81526142c8565b8383041415908161614e575b501561607a57505050615fb0855167175efe265c24a456868201528581526142c8565b615fca855167ba31c821700df486868201528581526142c8565b615fe4855167b733384594a80a34868201528581526142c8565b8015616054579161603185969261603894616012615cac98516763e928cfdd29b8ee898201528881526142c8565b61602c89516715b2af2c3ace5c50898201528881526142c8565b6143ef565b0490614434565b925b615d80815167538bc729853e805e848201528381526142c8565b50505081616075615cac9351678ae8c5afa115a750848201528381526142c8565b61603a565b9091939796945061609b855167d52a8cc1e6a98117888201528781526142c8565b6160b5855167ea1f8811902f4791888201528781526142c8565b966160d08551673c3770425bf481e7888201528781526142c8565b04916160ec845167e41acf310b495469878201528681526142c8565b61610684516799b21578e33b93de878201528681526142c8565b8261612e57505050615cac929350615d80815167d51be13b83b82b0b848201528381526142c8565b816161498551676f12c1384a67aef2888201528781526142c8565b615c6e565b90501538615f8d565b5090615ee790616177875167c899cd4fc3429cdc888201528781526142c8565b91600092615e84565b6040908151906161a160209267ef8ba3719c1d4a52848201528381526142c8565b6161bb835167d94ffd960e5daa88848201528381526142c8565b6161d5835167fb3ee0b1331f5e7c848201528381526142c8565b6001600160a01b03166000908152600f8252828120835167a5e346c84ac247c381850152838152616205906142c8565b61621f845167a1a6c8a805e12d5f858201528481526142c8565b61271061623c855167cf6be71863726296868201528581526142c8565b6162568551670d487d121c726532868201528581526142c8565b6002820154801515908161643a575b501561641b5750616286845167556df496d88b322b858201528481526142c8565b613a985b6162a4855167c28bc3b1d763a64c868201528581526142c8565b6162be855167389acb82f04218dd868201528581526142c8565b60018201548015159081616404575b50156163e5576162ed855167a64b6e6073897a1d868201528581526142c8565b61271081018091116163d1575b616314855167a921cf7e3fd0c5fd868201528581526142c8565b8154906103e8918281029281840414901517156163bd5760039161633791614434565b91616352865167e3d1be3be2d16547878201528681526142c8565b0154916101f4928381029381850414901517156163a95750615cac929161637891614434565b926163938151675992e00687ca3e76848201528381526142c8565b519067cdb0ee10f4c9c15d8183015281526142c8565b634e487b7160e01b81526011600452602490fd5b634e487b7160e01b84526011600452602484fd5b634e487b7160e01b83526011600452602483fd5b6163ff8551670deefd87fe362bd2868201528581526142c8565b6162fa565b62278d0091506164149042614418565b10386162cd565b61643585516707d602c9934555e8868201528581526142c8565b61628a565b62093a80915061644a9042614418565b1038616265565b60408051916164716020936727348274f88c3005858201528481526142c8565b61648b825167b858556ccfe9bb19858201528481526142c8565b6164a58251678839b622453a12f0858201528481526142c8565b6001600160a01b0316600090815260108352819020815167bde9ed4428121f97818501528381526164d5906142c8565b6164ef8251677363a306d628ac0a858201528481526142c8565b80548061652d5750509081616517615cac935167308a2ec9783d40b4848201528381526142c8565b519067bdc0314b1bf9cb688183015281526142c8565b61654a839592955167500244f8a871914b868201528581526142c8565b616564835167396e7f587b2f920e868201528581526142c8565b61657e835167ad0de8eb650e0bd6868201528581526142c8565b81811061661b5750926165c9615acd946165a88451670bd3cb7f74470103878201528681526142c8565b6165c2845167572fc01744f07603878201528681526142c8565b8254614418565b81556165e5825167c665e927b0c6882d858201528481526142c8565b6001429101556166058151673202bd016e9d7d15848201528381526142c8565b519067e495120e371fa4758183015281526142c8565b61667390839261663f615cac9695516715b52406ce520c28878201528681526142c8565b616659845167ace441909b614728878201528681526142c8565b6132a9845167419239a1cb6f5eb9878201528681526142c8565b9361668e825167173476b9d81bd2ce858201528481526142c8565b600081556166ac82516704a372cb91cfde80858201528481526142c8565b6001429101556166cc8151678b2be7130c5972a9848201528381526142c8565b519067e3e8e7a30efc61038183015281526142c8565b6001600160a01b03169081156167365760008051602061694e833981519152602060009261670e615a20565b61671a81600254614434565b60025584845283825260408420818154019055604051908152a3565b60405163ec442f0560e01b815260006004820152602490fd5b1561675657565b60405162461bcd60e51b815260206004820152601c60248201527f4275726e20616d6f756e74206d75737420626520706f736974697665000000006044820152606490fd5b906001600160a01b038216908115616830576167b5615a20565b600092828452836020526040842054908282106167fe57508160008051602061694e833981519152926020928587528684520360408620558060025403600255604051908152a3565b60405163391434e360e21b81526001600160a01b03919091166004820152602481019190915260448101829052606490fd5b604051634b637e8f60e11b815260006004820152602490fd5b1561685057565b60405162461bcd60e51b815260206004820152601d60248201527f446562746f722063616e6e6f74206265207a65726f20616464726573730000006044820152606490fd5b1561689c57565b60405162461bcd60e51b815260206004820152601f60248201527f4372656469746f722063616e6e6f74206265207a65726f2061646472657373006044820152606490fd5b156168e857565b60405162461bcd60e51b815260206004820152601960248201527f446562746f722063616e6e6f74206265206372656469746f72000000000000006044820152606490fdfe4ab22c15144ee7dd924422ed9b51b268d04702767f298ffb54749f6baf0e5dc5ddf252ad1be2c89b69c2b068fc378daa952ba7f163c4a11628f55a4df523b3efa264697066735822122013d240ecb2d1a39cdaa91186d49f81cb69b59dcd9f7193fb4de5790e37080c5864736f6c634300081400332f8788117e7eff1d82e926ec794901d17c78024a50270940304540a733656f0d","opcodes":"PUSH1 0x80 CALLVALUE PUSH3 0x64C JUMPI PUSH1 0x1 PUSH1 0x1 PUSH1 0x40 SHL SUB SWAP1 PUSH3 0x7208 SWAP1 PUSH1 0x1F NOT PUSH1 0x1F CODESIZE DUP5 SWAP1 SUB DUP2 DUP2 ADD DUP4 AND DUP5 ADD SWAP1 DUP7 DUP3 GT DUP6 DUP4 LT OR PUSH3 0x54E JUMPI DUP1 DUP6 SWAP2 PUSH1 0x40 SWAP8 DUP9 SWAP5 DUP6 MSTORE DUP4 CODECOPY DUP2 ADD SUB SLT PUSH3 0x64C JUMPI PUSH3 0x52 DUP4 PUSH3 0x66D JUMP JUMPDEST SWAP1 PUSH3 0x62 PUSH1 0x20 DUP1 SWAP6 ADD PUSH3 0x66D JUMP JUMPDEST SWAP3 DUP6 MLOAD SWAP7 PUSH3 0x71 DUP9 PUSH3 0x651 JUMP JUMPDEST PUSH1 0xD DUP9 MSTORE PUSH13 0x2A199029BA30B13632B1B7B4B7 PUSH1 0x99 SHL DUP7 DUP10 ADD MSTORE DUP7 MLOAD SWAP8 PUSH3 0x98 DUP10 PUSH3 0x651 JUMP JUMPDEST PUSH1 0x2 DUP10 MSTORE PUSH2 0x5433 PUSH1 0xF0 SHL DUP8 DUP11 ADD MSTORE DUP1 MLOAD SWAP1 DUP3 DUP3 GT PUSH3 0x54E JUMPI PUSH1 0x3 SWAP2 DUP3 SLOAD PUSH1 0x1 SWAP3 DUP4 DUP3 DUP2 SHR SWAP3 AND DUP1 ISZERO PUSH3 0x641 JUMPI JUMPDEST DUP12 DUP4 LT EQ PUSH3 0x62B JUMPI DUP2 DUP9 DUP5 SWAP4 GT PUSH3 0x5D5 JUMPI JUMPDEST POP DUP11 SWAP1 DUP9 DUP4 GT PUSH1 0x1 EQ PUSH3 0x570 JUMPI PUSH1 0x0 SWAP3 PUSH3 0x564 JUMPI JUMPDEST POP POP PUSH1 0x0 NOT DUP3 DUP6 SHL SHR NOT AND SWAP1 DUP3 SHL OR DUP3 SSTORE JUMPDEST DUP10 MLOAD SWAP3 DUP4 GT PUSH3 0x54E JUMPI PUSH1 0x4 SWAP10 DUP11 SLOAD DUP3 DUP2 DUP2 SHR SWAP2 AND DUP1 ISZERO PUSH3 0x543 JUMPI JUMPDEST DUP11 DUP3 LT EQ PUSH3 0x52E JUMPI DUP7 DUP2 GT PUSH3 0x4E3 JUMPI JUMPDEST POP DUP9 SWAP1 DUP7 DUP6 GT PUSH1 0x1 EQ PUSH3 0x47A JUMPI DUP5 SWAP6 POP SWAP1 DUP5 SWAP3 SWAP2 PUSH1 0x0 SWAP6 PUSH3 0x46E JUMPI JUMPDEST POP POP SHL SWAP3 PUSH1 0x0 NOT SWAP2 SHL SHR NOT AND OR DUP7 SSTORE JUMPDEST PUSH2 0xE10 PUSH1 0x7 SSTORE PUSH2 0x258 PUSH1 0x8 SSTORE PUSH3 0x15180 PUSH1 0x9 SSTORE PUSH3 0x278D00 PUSH1 0xA SSTORE PUSH3 0x197 DUP6 MLOAD PUSH8 0xCB0FA503C396F02B DUP7 DUP3 ADD MSTORE DUP6 DUP2 MSTORE PUSH3 0x651 JUMP JUMPDEST PUSH3 0x1B3 DUP6 MLOAD PUSH8 0xDA1D57766C43D373 DUP7 DUP3 ADD MSTORE DUP6 DUP2 MSTORE PUSH3 0x651 JUMP JUMPDEST PUSH3 0x1CF DUP6 MLOAD PUSH8 0xB8E0EA5A9F886EB1 DUP7 DUP3 ADD MSTORE DUP6 DUP2 MSTORE PUSH3 0x651 JUMP JUMPDEST PUSH3 0x1EB DUP6 MLOAD PUSH8 0xA80D9D22F651FA9D DUP7 DUP3 ADD MSTORE DUP6 DUP2 MSTORE PUSH3 0x651 JUMP JUMPDEST PUSH1 0x1 PUSH1 0x1 PUSH1 0xA0 SHL SUB SWAP3 DUP4 AND SWAP1 DUP2 ISZERO PUSH3 0x42D JUMPI POP PUSH3 0x21B DUP6 MLOAD PUSH8 0xD654E36A1723A295 DUP7 DUP3 ADD MSTORE DUP6 DUP2 MSTORE PUSH3 0x651 JUMP JUMPDEST PUSH3 0x237 DUP6 MLOAD PUSH8 0xA9C4527F3BBAD73D DUP7 DUP3 ADD MSTORE DUP6 DUP2 MSTORE PUSH3 0x651 JUMP JUMPDEST PUSH1 0x1 DUP1 PUSH1 0xA0 SHL SUB NOT PUSH1 0xB SLOAD AND OR PUSH1 0xB SSTORE PUSH3 0x263 DUP5 MLOAD PUSH8 0xA4B1BBDB0D1DE5FA DUP6 DUP3 ADD MSTORE DUP5 DUP2 MSTORE PUSH3 0x651 JUMP JUMPDEST PUSH3 0x27F DUP5 MLOAD PUSH8 0x82C51E445C00407B DUP6 DUP3 ADD MSTORE DUP5 DUP2 MSTORE PUSH3 0x651 JUMP JUMPDEST PUSH3 0x28A DUP2 PUSH3 0x682 JUMP JUMPDEST POP PUSH3 0x2A7 DUP5 MLOAD PUSH8 0xE8F480DF3392C5FD DUP6 DUP3 ADD MSTORE DUP5 DUP2 MSTORE PUSH3 0x651 JUMP JUMPDEST PUSH3 0x2C3 DUP5 MLOAD PUSH8 0x81FD570FA2892727 DUP6 DUP3 ADD MSTORE DUP5 DUP2 MSTORE PUSH3 0x651 JUMP JUMPDEST PUSH3 0x2CE DUP2 PUSH3 0x703 JUMP JUMPDEST POP PUSH3 0x2EB DUP5 MLOAD PUSH8 0x584CC4FE4F256F68 DUP6 DUP3 ADD MSTORE DUP5 DUP2 MSTORE PUSH3 0x651 JUMP JUMPDEST PUSH3 0x307 DUP5 MLOAD PUSH8 0x6B294BCD85CE709C DUP6 DUP3 ADD MSTORE DUP5 DUP2 MSTORE PUSH3 0x651 JUMP JUMPDEST PUSH3 0x312 DUP2 PUSH3 0x7A6 JUMP JUMPDEST POP PUSH3 0x32F DUP5 MLOAD PUSH8 0x8679C9ABC7C29039 DUP6 DUP3 ADD MSTORE DUP5 DUP2 MSTORE PUSH3 0x651 JUMP JUMPDEST PUSH3 0x34B DUP5 MLOAD PUSH8 0x52DDA52291D0D60E DUP6 DUP3 ADD MSTORE DUP5 DUP2 MSTORE PUSH3 0x651 JUMP JUMPDEST AND DUP1 ISZERO PUSH3 0x416 JUMPI PUSH1 0xFF PUSH1 0x5 SLOAD AND PUSH3 0x407 JUMPI PUSH1 0x2 SLOAD PUSH10 0xD3C21BCECCEDA1000000 SWAP5 DUP6 DUP3 ADD DUP1 SWAP3 GT PUSH3 0x3F2 JUMPI POP PUSH1 0x0 PUSH32 0xDDF252AD1BE2C89B69C2B068FC378DAA952BA7F163C4A11628F55A4DF523B3EF DUP5 PUSH1 0xF SWAP7 SWAP8 DUP6 SWAP5 PUSH1 0x2 SSTORE DUP5 DUP5 MSTORE DUP4 DUP3 MSTORE DUP9 DUP5 KECCAK256 DUP2 DUP2 SLOAD ADD SWAP1 SSTORE DUP9 MLOAD SWAP1 DUP2 MSTORE LOG3 PUSH3 0x3D7 DUP5 MLOAD PUSH8 0x1DA2BB914D7208F0 DUP5 DUP3 ADD MSTORE DUP4 DUP2 MSTORE PUSH3 0x651 JUMP JUMPDEST PUSH1 0x0 MSTORE MSTORE TIMESTAMP PUSH1 0x2 DUP3 PUSH1 0x0 KECCAK256 ADD SSTORE MLOAD PUSH2 0x69A3 SWAP1 DUP2 PUSH3 0x845 DUP3 CODECOPY RETURN JUMPDEST PUSH1 0x11 SWAP1 PUSH4 0x4E487B71 PUSH1 0xE0 SHL PUSH1 0x0 MSTORE MSTORE PUSH1 0x24 PUSH1 0x0 REVERT JUMPDEST POP POP MLOAD PUSH4 0xD93C0665 PUSH1 0xE0 SHL DUP2 MSTORE REVERT JUMPDEST DUP3 MLOAD PUSH4 0xEC442F05 PUSH1 0xE0 SHL DUP2 MSTORE PUSH1 0x0 DUP2 DUP7 ADD MSTORE PUSH1 0x24 SWAP1 REVERT JUMPDEST DUP7 PUSH1 0x64 SWAP2 DUP7 DUP9 MLOAD SWAP3 PUSH3 0x461BCD PUSH1 0xE5 SHL DUP5 MSTORE DUP4 ADD MSTORE PUSH1 0x24 DUP3 ADD MSTORE PUSH32 0x547265617375727920616464726573732063616E6E6F74206265207A65726F00 PUSH1 0x44 DUP3 ADD MSTORE REVERT JUMPDEST ADD MLOAD SWAP4 POP CODESIZE DUP1 PUSH3 0x151 JUMP JUMPDEST SWAP3 SWAP2 SWAP5 DUP5 AND SWAP3 DUP12 PUSH1 0x0 MSTORE DUP5 DUP11 PUSH1 0x0 KECCAK256 SWAP5 PUSH1 0x0 JUMPDEST DUP13 DUP10 DUP4 DUP4 LT PUSH3 0x4CB JUMPI POP POP POP LT PUSH3 0x4B0 JUMPI JUMPDEST POP POP POP POP DUP2 SHL ADD DUP7 SSTORE PUSH3 0x161 JUMP JUMPDEST ADD MLOAD SWAP1 PUSH1 0xF8 DUP5 PUSH1 0x0 NOT SWAP3 SHL AND SHR NOT AND SWAP1 SSTORE CODESIZE DUP1 DUP1 DUP1 PUSH3 0x4A1 JUMP JUMPDEST DUP7 DUP7 ADD MLOAD DUP10 SSTORE SWAP1 SWAP8 ADD SWAP7 SWAP5 DUP6 ADD SWAP5 DUP9 SWAP4 POP ADD PUSH3 0x48D JUMP JUMPDEST DUP12 PUSH1 0x0 MSTORE DUP10 PUSH1 0x0 KECCAK256 DUP8 DUP1 DUP8 ADD PUSH1 0x5 SHR DUP3 ADD SWAP3 DUP13 DUP9 LT PUSH3 0x524 JUMPI JUMPDEST ADD PUSH1 0x5 SHR ADD SWAP1 DUP4 SWAP1 JUMPDEST DUP3 DUP2 LT PUSH3 0x517 JUMPI POP POP PUSH3 0x133 JUMP JUMPDEST PUSH1 0x0 DUP2 SSTORE ADD DUP4 SWAP1 PUSH3 0x507 JUMP JUMPDEST SWAP3 POP DUP2 SWAP3 PUSH3 0x4FE JUMP JUMPDEST PUSH1 0x22 DUP13 PUSH4 0x4E487B71 PUSH1 0xE0 SHL PUSH1 0x0 MSTORE MSTORE PUSH1 0x24 PUSH1 0x0 REVERT JUMPDEST SWAP1 PUSH1 0x7F AND SWAP1 PUSH3 0x121 JUMP JUMPDEST PUSH4 0x4E487B71 PUSH1 0xE0 SHL PUSH1 0x0 MSTORE PUSH1 0x41 PUSH1 0x4 MSTORE PUSH1 0x24 PUSH1 0x0 REVERT JUMPDEST ADD MLOAD SWAP1 POP CODESIZE DUP1 PUSH3 0xF2 JUMP JUMPDEST SWAP1 DUP8 DUP6 SWAP5 AND SWAP2 DUP7 PUSH1 0x0 MSTORE DUP13 PUSH1 0x0 KECCAK256 SWAP3 DUP14 PUSH1 0x0 SWAP1 JUMPDEST DUP3 DUP3 LT PUSH3 0x5BD JUMPI POP POP DUP5 GT PUSH3 0x5A4 JUMPI JUMPDEST POP POP POP DUP2 SHL ADD DUP3 SSTORE PUSH3 0x104 JUMP JUMPDEST ADD MLOAD PUSH1 0x0 NOT DUP4 DUP8 SHL PUSH1 0xF8 AND SHR NOT AND SWAP1 SSTORE CODESIZE DUP1 DUP1 PUSH3 0x596 JUMP JUMPDEST DUP4 DUP6 ADD MLOAD DUP7 SSTORE DUP9 SWAP8 SWAP1 SWAP6 ADD SWAP5 SWAP4 DUP5 ADD SWAP4 ADD DUP15 PUSH3 0x584 JUMP JUMPDEST SWAP1 SWAP2 POP DUP5 PUSH1 0x0 MSTORE DUP11 PUSH1 0x0 KECCAK256 DUP9 DUP1 DUP6 ADD PUSH1 0x5 SHR DUP3 ADD SWAP3 DUP14 DUP7 LT PUSH3 0x621 JUMPI JUMPDEST SWAP2 DUP7 SWAP2 DUP7 SWAP6 SWAP5 SWAP4 ADD PUSH1 0x5 SHR ADD SWAP2 JUMPDEST DUP3 DUP2 LT PUSH3 0x611 JUMPI POP POP PUSH3 0xDB JUMP JUMPDEST PUSH1 0x0 DUP2 SSTORE DUP6 SWAP5 POP DUP7 SWAP2 ADD PUSH3 0x601 JUMP JUMPDEST SWAP3 POP DUP2 SWAP3 PUSH3 0x5F3 JUMP JUMPDEST PUSH4 0x4E487B71 PUSH1 0xE0 SHL PUSH1 0x0 MSTORE PUSH1 0x22 PUSH1 0x4 MSTORE PUSH1 0x24 PUSH1 0x0 REVERT JUMPDEST SWAP2 PUSH1 0x7F AND SWAP2 PUSH3 0xC7 JUMP JUMPDEST PUSH1 0x0 DUP1 REVERT JUMPDEST PUSH1 0x40 DUP2 ADD SWAP1 DUP2 LT PUSH1 0x1 PUSH1 0x1 PUSH1 0x40 SHL SUB DUP3 GT OR PUSH3 0x54E JUMPI PUSH1 0x40 MSTORE JUMP JUMPDEST MLOAD SWAP1 PUSH1 0x1 PUSH1 0x1 PUSH1 0xA0 SHL SUB DUP3 AND DUP3 SUB PUSH3 0x64C JUMPI JUMP JUMPDEST PUSH1 0x1 PUSH1 0x1 PUSH1 0xA0 SHL SUB AND PUSH1 0x0 DUP2 DUP2 MSTORE PUSH32 0x54CDD369E4E8A8515E52CA72EC816C2101831AD1F18BF44102ED171459C9B4F8 PUSH1 0x20 MSTORE PUSH1 0x40 DUP2 KECCAK256 SLOAD SWAP1 SWAP2 SWAP1 PUSH1 0xFF AND PUSH3 0x6FF JUMPI DUP2 DUP1 MSTORE PUSH1 0x6 PUSH1 0x20 MSTORE PUSH1 0x40 DUP3 KECCAK256 DUP2 DUP4 MSTORE PUSH1 0x20 MSTORE PUSH1 0x40 DUP3 KECCAK256 PUSH1 0x1 PUSH1 0xFF NOT DUP3 SLOAD AND OR SWAP1 SSTORE CALLER SWAP2 PUSH1 0x0 DUP1 MLOAD PUSH1 0x20 PUSH3 0x71E8 DUP4 CODECOPY DUP2 MLOAD SWAP2 MSTORE DUP2 DUP1 LOG4 PUSH1 0x1 SWAP1 JUMP JUMPDEST POP SWAP1 JUMP JUMPDEST PUSH1 0x1 PUSH1 0x1 PUSH1 0xA0 SHL SUB AND PUSH1 0x0 DUP2 DUP2 MSTORE PUSH32 0xC3BB05773FB95F6688E1E7D9C896674DCCD66884026CF30A3D5E3A9BFECD811 PUSH1 0x20 MSTORE PUSH1 0x40 DUP2 KECCAK256 SLOAD SWAP1 SWAP2 SWAP1 PUSH32 0xA49807205CE4D355092EF5A8A18F56E8913CF4A201FBE287825B095693C21775 SWAP1 PUSH1 0xFF AND PUSH3 0x7A1 JUMPI DUP1 DUP4 MSTORE PUSH1 0x6 PUSH1 0x20 MSTORE PUSH1 0x40 DUP4 KECCAK256 DUP3 DUP5 MSTORE PUSH1 0x20 MSTORE PUSH1 0x40 DUP4 KECCAK256 PUSH1 0x1 PUSH1 0xFF NOT DUP3 SLOAD AND OR SWAP1 SSTORE PUSH1 0x0 DUP1 MLOAD PUSH1 0x20 PUSH3 0x71E8 DUP4 CODECOPY DUP2 MLOAD SWAP2 MSTORE CALLER SWAP4 DUP1 LOG4 PUSH1 0x1 SWAP1 JUMP JUMPDEST POP POP SWAP1 JUMP JUMPDEST PUSH1 0x1 PUSH1 0x1 PUSH1 0xA0 SHL SUB AND PUSH1 0x0 DUP2 DUP2 MSTORE PUSH32 0xE09F975E15F8F53F24CBBC282B13C40B84DF485FCDB8D3997FA103DC5A4EF841 PUSH1 0x20 MSTORE PUSH1 0x40 DUP2 KECCAK256 SLOAD SWAP1 SWAP2 SWAP1 PUSH32 0x65D7A28E3265B37A6474929F336521B332C1681B933F6CB9F3376673440D862A SWAP1 PUSH1 0xFF AND PUSH3 0x7A1 JUMPI DUP1 DUP4 MSTORE PUSH1 0x6 PUSH1 0x20 MSTORE PUSH1 0x40 DUP4 KECCAK256 DUP3 DUP5 MSTORE PUSH1 0x20 MSTORE PUSH1 0x40 DUP4 KECCAK256 PUSH1 0x1 PUSH1 0xFF NOT DUP3 SLOAD AND OR SWAP1 SSTORE PUSH1 0x0 DUP1 MLOAD PUSH1 0x20 PUSH3 0x71E8 DUP4 CODECOPY DUP2 MLOAD SWAP2 MSTORE CALLER SWAP4 DUP1 LOG4 PUSH1 0x1 SWAP1 JUMP INVALID PUSH1 0x80 DUP1 PUSH1 0x40 MSTORE PUSH1 0x4 SWAP1 DUP2 CALLDATASIZE LT ISZERO PUSH2 0x15 JUMPI PUSH1 0x0 DUP1 REVERT JUMPDEST PUSH1 0x0 CALLDATALOAD PUSH1 0xE0 SHR SWAP1 DUP2 PUSH4 0x1FFC9A7 EQ PUSH2 0x3FD9 JUMPI POP DUP1 PUSH4 0x3833501 EQ PUSH2 0x3FBB JUMPI DUP1 PUSH4 0x6FDDE03 EQ PUSH2 0x3EC6 JUMPI DUP1 PUSH4 0x8D887D0 EQ PUSH2 0x3E75 JUMPI DUP1 PUSH4 0x95EA7B3 EQ PUSH2 0x3DBD JUMPI DUP1 PUSH4 0xC27AB5A EQ PUSH2 0x3D7A JUMPI DUP1 PUSH4 0xF3F0803 EQ PUSH2 0x3BEC JUMPI DUP1 PUSH4 0x18160DDD EQ PUSH2 0x3BCE JUMPI DUP1 PUSH4 0x23B872DD EQ PUSH2 0x3AB2 JUMPI DUP1 PUSH4 0x248A9CA3 EQ PUSH2 0x3A84 JUMPI DUP1 PUSH4 0x282C51F3 EQ PUSH2 0x3A49 JUMPI DUP1 PUSH4 0x2F2FF15D EQ PUSH2 0x3A0A JUMPI DUP1 PUSH4 0x313CE567 EQ PUSH2 0x39EE JUMPI DUP1 PUSH4 0x36568ABE EQ PUSH2 0x39AA JUMPI DUP1 PUSH4 0x3D8D1DCE EQ PUSH2 0x394E JUMPI DUP1 PUSH4 0x3F4BA83A EQ PUSH2 0x3875 JUMPI DUP1 PUSH4 0x40C10F19 EQ PUSH2 0x34DC JUMPI DUP1 PUSH4 0x42966C68 EQ PUSH2 0x33B7 JUMPI DUP1 PUSH4 0x4C915D18 EQ PUSH2 0x3399 JUMPI DUP1 PUSH4 0x4D8183CC EQ PUSH2 0x2F4D JUMPI DUP1 PUSH4 0x508C0634 EQ PUSH2 0x2444 JUMPI DUP1 PUSH4 0x57FE51D2 EQ PUSH2 0x233E JUMPI DUP1 PUSH4 0x5C975ABB EQ PUSH2 0x231B JUMPI DUP1 PUSH4 0x5ED61097 EQ PUSH2 0x22CA JUMPI DUP1 PUSH4 0x62D3F814 EQ PUSH2 0x2246 JUMPI DUP1 PUSH4 0x6605BFDA EQ PUSH2 0x2115 JUMPI DUP1 PUSH4 0x6B6EF953 EQ PUSH2 0x20EF JUMPI DUP1 PUSH4 0x6CD9CA14 EQ PUSH2 0x1FE0 JUMPI DUP1 PUSH4 0x6E2FAE47 EQ PUSH2 0x1D56 JUMPI DUP1 PUSH4 0x70A08231 EQ PUSH2 0x1D1C JUMPI DUP1 PUSH4 0x75B238FC EQ PUSH2 0x1CE1 JUMPI DUP1 PUSH4 0x76223A27 EQ PUSH2 0x1B49 JUMPI DUP1 PUSH4 0x79CC6790 EQ PUSH2 0x19DA JUMPI DUP1 PUSH4 0x800753CF EQ PUSH2 0x19BC JUMPI DUP1 PUSH4 0x8456CB59 EQ PUSH2 0x18F5 JUMPI DUP1 PUSH4 0x8FFA15D4 EQ PUSH2 0x18A4 JUMPI DUP1 PUSH4 0x905B7FCB EQ PUSH2 0x186A JUMPI DUP1 PUSH4 0x91D14854 EQ PUSH2 0x181D JUMPI DUP1 PUSH4 0x95D89B41 EQ PUSH2 0x1717 JUMPI DUP1 PUSH4 0xA217FDDF EQ PUSH2 0x16FB JUMPI DUP1 PUSH4 0xA9059CBB EQ PUSH2 0x1279 JUMPI DUP1 PUSH4 0xB065A8E5 EQ PUSH2 0x120C JUMPI DUP1 PUSH4 0xC5F956AF EQ PUSH2 0x11E3 JUMPI DUP1 PUSH4 0xC750F203 EQ PUSH2 0x11C5 JUMPI DUP1 PUSH4 0xD5391393 EQ PUSH2 0x118A JUMPI DUP1 PUSH4 0xD547741F EQ PUSH2 0x1149 JUMPI DUP1 PUSH4 0xDD62ED3E EQ PUSH2 0x10F8 JUMPI DUP1 PUSH4 0xDD7FAAB1 EQ PUSH2 0xDBC JUMPI DUP1 PUSH4 0xE63AB1E9 EQ PUSH2 0xD81 JUMPI PUSH4 0xF0E6EA8D EQ PUSH2 0x247 JUMPI PUSH1 0x0 DUP1 REVERT JUMPDEST CALLVALUE PUSH2 0xD7C JUMPI PUSH2 0x255 CALLDATASIZE PUSH2 0x40A0 JUMP JUMPDEST SWAP2 SWAP3 SWAP1 PUSH2 0x275 PUSH1 0x40 MLOAD PUSH8 0x445A3F5511416979 PUSH1 0x20 DUP3 ADD MSTORE PUSH1 0x20 DUP2 MSTORE PUSH2 0x42C8 JUMP JUMPDEST PUSH2 0x27D PUSH2 0x5A20 JUMP JUMPDEST PUSH2 0x29A PUSH1 0x40 MLOAD PUSH8 0x53E9833EE5C8CEFC PUSH1 0x20 DUP3 ADD MSTORE PUSH1 0x20 DUP2 MSTORE PUSH2 0x42C8 JUMP JUMPDEST PUSH2 0x2B7 PUSH1 0x40 MLOAD PUSH8 0xEF5E380149FA9CF1 PUSH1 0x20 DUP3 ADD MSTORE PUSH1 0x20 DUP2 MSTORE PUSH2 0x42C8 JUMP JUMPDEST PUSH2 0x2D4 PUSH1 0x40 MLOAD PUSH8 0x53D1F64CADDB15FC PUSH1 0x20 DUP3 ADD MSTORE PUSH1 0x20 DUP2 MSTORE PUSH2 0x42C8 JUMP JUMPDEST PUSH2 0x2F1 PUSH1 0x40 MLOAD PUSH8 0xCFF5B33215366FB3 PUSH1 0x20 DUP3 ADD MSTORE PUSH1 0x20 DUP2 MSTORE PUSH2 0x42C8 JUMP JUMPDEST PUSH2 0x30E PUSH1 0x40 MLOAD PUSH8 0x75D43ED5AD700B0 PUSH1 0x20 DUP3 ADD MSTORE PUSH1 0x20 DUP2 MSTORE PUSH2 0x42C8 JUMP JUMPDEST PUSH1 0x1 PUSH1 0x1 PUSH1 0xA0 SHL SUB SWAP2 DUP5 DUP4 AND CALLER SUB PUSH2 0xD2C JUMPI PUSH2 0x33D PUSH1 0x40 MLOAD PUSH8 0x8820D5173C75AC40 PUSH1 0x20 DUP3 ADD MSTORE PUSH1 0x20 DUP2 MSTORE PUSH2 0x42C8 JUMP JUMPDEST PUSH2 0x35A PUSH1 0x40 MLOAD PUSH8 0x7C4C53C2A1F6777F PUSH1 0x20 DUP3 ADD MSTORE PUSH1 0x20 DUP2 MSTORE PUSH2 0x42C8 JUMP JUMPDEST PUSH2 0x377 PUSH1 0x40 MLOAD PUSH8 0x1BFB0EA6EAEF28DB PUSH1 0x20 DUP3 ADD MSTORE PUSH1 0x20 DUP2 MSTORE PUSH2 0x42C8 JUMP JUMPDEST DUP3 DUP6 AND PUSH1 0x0 MSTORE PUSH1 0xC PUSH1 0x20 MSTORE PUSH1 0x40 PUSH1 0x0 KECCAK256 PUSH2 0x3A4 PUSH1 0x40 MLOAD PUSH8 0xA17A609F314C2BD8 PUSH1 0x20 DUP3 ADD MSTORE PUSH1 0x20 DUP2 MSTORE PUSH2 0x42C8 JUMP JUMPDEST PUSH2 0x3C1 PUSH1 0x40 MLOAD PUSH8 0xADBD2B5F550AE79D PUSH1 0x20 DUP3 ADD MSTORE PUSH1 0x20 DUP2 MSTORE PUSH2 0x42C8 JUMP JUMPDEST PUSH2 0x3DD PUSH1 0x40 MLOAD PUSH7 0x5167FE5504AADE PUSH1 0x20 DUP3 ADD MSTORE PUSH1 0x20 DUP2 MSTORE PUSH2 0x42C8 JUMP JUMPDEST DUP1 SLOAD TIMESTAMP LT ISZERO PUSH2 0xCF5 JUMPI PUSH2 0x403 PUSH1 0x40 MLOAD PUSH8 0x898048C462070511 PUSH1 0x20 DUP3 ADD MSTORE PUSH1 0x20 DUP2 MSTORE PUSH2 0x42C8 JUMP JUMPDEST PUSH2 0x420 PUSH1 0x40 MLOAD PUSH8 0xFC9866B8D841AE9E PUSH1 0x20 DUP3 ADD MSTORE PUSH1 0x20 DUP2 MSTORE PUSH2 0x42C8 JUMP JUMPDEST PUSH2 0x43D PUSH1 0x40 MLOAD PUSH8 0x2D7F7F1C93E975EF PUSH1 0x20 DUP3 ADD MSTORE PUSH1 0x20 DUP2 MSTORE PUSH2 0x42C8 JUMP JUMPDEST PUSH2 0x45A PUSH1 0x40 MLOAD PUSH8 0xF04BF01EFFE109DA PUSH1 0x20 DUP3 ADD MSTORE PUSH1 0x20 DUP2 MSTORE PUSH2 0x42C8 JUMP JUMPDEST DUP4 PUSH1 0x2 DUP3 ADD SLOAD AND DUP5 DUP5 AND SUB PUSH2 0xCA5 JUMPI PUSH2 0x486 PUSH1 0x40 MLOAD PUSH8 0x716FEE29F60074AB PUSH1 0x20 DUP3 ADD MSTORE PUSH1 0x20 DUP2 MSTORE PUSH2 0x42C8 JUMP JUMPDEST PUSH2 0x4A3 PUSH1 0x40 MLOAD PUSH8 0x821AE5367C7D43D3 PUSH1 0x20 DUP3 ADD MSTORE PUSH1 0x20 DUP2 MSTORE PUSH2 0x42C8 JUMP JUMPDEST PUSH2 0x4C0 PUSH1 0x40 MLOAD PUSH8 0x812229E29209299D PUSH1 0x20 DUP3 ADD MSTORE PUSH1 0x20 DUP2 MSTORE PUSH2 0x42C8 JUMP JUMPDEST PUSH2 0x4DD PUSH1 0x40 MLOAD PUSH8 0x1A0AA602668AE038 PUSH1 0x20 DUP3 ADD MSTORE PUSH1 0x20 DUP2 MSTORE PUSH2 0x42C8 JUMP JUMPDEST DUP4 DUP7 AND PUSH1 0x0 MSTORE PUSH1 0x0 PUSH1 0x20 MSTORE DUP5 PUSH1 0x40 PUSH1 0x0 KECCAK256 SLOAD LT PUSH2 0xC61 JUMPI PUSH1 0x6 SWAP1 PUSH2 0x514 PUSH1 0x40 MLOAD PUSH8 0x3B407E1C1483EA14 PUSH1 0x20 DUP3 ADD MSTORE PUSH1 0x20 DUP2 MSTORE PUSH2 0x42C8 JUMP JUMPDEST PUSH2 0x531 PUSH1 0x40 MLOAD PUSH8 0xF621164F2998CB80 PUSH1 0x20 DUP3 ADD MSTORE PUSH1 0x20 DUP2 MSTORE PUSH2 0x42C8 JUMP JUMPDEST PUSH2 0x54E PUSH1 0x40 MLOAD PUSH8 0x3E8C91B9C62C8013 PUSH1 0x20 DUP3 ADD MSTORE PUSH1 0x20 DUP2 MSTORE PUSH2 0x42C8 JUMP JUMPDEST PUSH2 0x56B PUSH1 0x40 MLOAD PUSH8 0x976AE90CC8864D3A PUSH1 0x20 DUP3 ADD MSTORE PUSH1 0x20 DUP2 MSTORE PUSH2 0x42C8 JUMP JUMPDEST ADD DUP1 SLOAD PUSH1 0xFF DUP2 AND PUSH2 0xC1D JUMPI PUSH1 0x1 SWAP1 PUSH2 0x596 PUSH1 0x40 MLOAD PUSH8 0xCDDB68207DC5C3E4 PUSH1 0x20 DUP3 ADD MSTORE PUSH1 0x20 DUP2 MSTORE PUSH2 0x42C8 JUMP JUMPDEST PUSH2 0x5B3 PUSH1 0x40 MLOAD PUSH8 0x1D4479520B024985 PUSH1 0x20 DUP3 ADD MSTORE PUSH1 0x20 DUP2 MSTORE PUSH2 0x42C8 JUMP JUMPDEST PUSH1 0xFF NOT AND OR SWAP1 SSTORE PUSH2 0x5D7 PUSH1 0x40 MLOAD PUSH8 0x815E880DD6415398 PUSH1 0x20 DUP3 ADD MSTORE PUSH1 0x20 DUP2 MSTORE PUSH2 0x42C8 JUMP JUMPDEST PUSH2 0x5F4 PUSH1 0x40 MLOAD PUSH8 0x731DE1608FBC4064 PUSH1 0x20 DUP3 ADD MSTORE PUSH1 0x20 DUP2 MSTORE PUSH2 0x42C8 JUMP JUMPDEST PUSH2 0x611 PUSH1 0x40 MLOAD PUSH8 0x39D76F42160B2D50 PUSH1 0x20 DUP3 ADD MSTORE PUSH1 0x20 DUP2 MSTORE PUSH2 0x42C8 JUMP JUMPDEST PUSH2 0x62E PUSH1 0x40 MLOAD PUSH8 0x1D92A4E4089A2DB8 PUSH1 0x20 DUP3 ADD MSTORE PUSH1 0x20 DUP2 MSTORE PUSH2 0x42C8 JUMP JUMPDEST PUSH2 0x64B PUSH1 0x40 MLOAD PUSH8 0xE37FA76E7F4EEF57 PUSH1 0x20 DUP3 ADD MSTORE PUSH1 0x20 DUP2 MSTORE PUSH2 0x42C8 JUMP JUMPDEST DUP3 DUP6 AND PUSH1 0x0 MSTORE PUSH1 0xF PUSH1 0x20 MSTORE PUSH1 0x40 PUSH1 0x0 KECCAK256 PUSH2 0x678 PUSH1 0x40 MLOAD PUSH8 0x3BD6BD9077BB500E PUSH1 0x20 DUP3 ADD MSTORE PUSH1 0x20 DUP2 MSTORE PUSH2 0x42C8 JUMP JUMPDEST PUSH2 0x695 PUSH1 0x40 MLOAD PUSH8 0x7975233312424768 PUSH1 0x20 DUP3 ADD MSTORE PUSH1 0x20 DUP2 MSTORE PUSH2 0x42C8 JUMP JUMPDEST PUSH1 0x2 DUP2 ADD DUP1 SLOAD PUSH2 0xBFA JUMPI PUSH2 0x6BC PUSH1 0x40 MLOAD PUSH8 0x52B37C985A35EEA8 PUSH1 0x20 DUP3 ADD MSTORE PUSH1 0x20 DUP2 MSTORE PUSH2 0x42C8 JUMP JUMPDEST PUSH2 0x6D9 PUSH1 0x40 MLOAD PUSH8 0xB4C0B4926D6F1633 PUSH1 0x20 DUP3 ADD MSTORE PUSH1 0x20 DUP2 MSTORE PUSH2 0x42C8 JUMP JUMPDEST TIMESTAMP SWAP1 SSTORE JUMPDEST PUSH2 0x6FA PUSH1 0x40 MLOAD PUSH8 0xA6E02478D938D5E3 PUSH1 0x20 DUP3 ADD MSTORE PUSH1 0x20 DUP2 MSTORE PUSH2 0x42C8 JUMP JUMPDEST PUSH2 0x717 PUSH1 0x40 MLOAD PUSH8 0xCAF8E6D0AAC3B507 PUSH1 0x20 DUP3 ADD MSTORE PUSH1 0x20 DUP2 MSTORE PUSH2 0x42C8 JUMP JUMPDEST PUSH2 0x734 PUSH1 0x40 MLOAD PUSH8 0xEF4699A1EB53716D PUSH1 0x20 DUP3 ADD MSTORE PUSH1 0x20 DUP2 MSTORE PUSH2 0x42C8 JUMP JUMPDEST PUSH2 0x751 PUSH1 0x40 MLOAD PUSH8 0xB01B6DCB6E01BFF9 PUSH1 0x20 DUP3 ADD MSTORE PUSH1 0x20 DUP2 MSTORE PUSH2 0x42C8 JUMP JUMPDEST PUSH2 0x75B DUP2 SLOAD PUSH2 0x4425 JUMP JUMPDEST DUP2 SSTORE PUSH2 0x77A PUSH1 0x40 MLOAD PUSH8 0x907996CAB204506F PUSH1 0x20 DUP3 ADD MSTORE PUSH1 0x20 DUP2 MSTORE PUSH2 0x42C8 JUMP JUMPDEST PUSH1 0x1 TIMESTAMP SWAP2 ADD SSTORE PUSH2 0x79D PUSH1 0x40 MLOAD PUSH8 0xFBDDB7CC13265B69 PUSH1 0x20 DUP3 ADD MSTORE PUSH1 0x20 DUP2 MSTORE PUSH2 0x42C8 JUMP JUMPDEST PUSH2 0x7BA PUSH1 0x40 MLOAD PUSH8 0xB7C0A631CCB59F04 PUSH1 0x20 DUP3 ADD MSTORE PUSH1 0x20 DUP2 MSTORE PUSH2 0x42C8 JUMP JUMPDEST PUSH2 0x7C3 DUP6 PUSH2 0x6180 JUMP JUMPDEST PUSH1 0x40 MLOAD SWAP1 DUP2 MSTORE PUSH1 0x0 DUP1 MLOAD PUSH1 0x20 PUSH2 0x692E DUP4 CODECOPY DUP2 MLOAD SWAP2 MSTORE PUSH1 0x20 DUP6 DUP9 AND SWAP3 LOG2 PUSH2 0x7FC PUSH1 0x40 MLOAD PUSH8 0xF2E3495695DC523C PUSH1 0x20 DUP3 ADD MSTORE PUSH1 0x20 DUP2 MSTORE PUSH2 0x42C8 JUMP JUMPDEST PUSH2 0x819 PUSH1 0x40 MLOAD PUSH8 0x2CC1E8375C87078E PUSH1 0x20 DUP3 ADD MSTORE PUSH1 0x20 DUP2 MSTORE PUSH2 0x42C8 JUMP JUMPDEST PUSH2 0x836 PUSH1 0x40 MLOAD PUSH8 0x39D76F42160B2D50 PUSH1 0x20 DUP3 ADD MSTORE PUSH1 0x20 DUP2 MSTORE PUSH2 0x42C8 JUMP JUMPDEST PUSH2 0x853 PUSH1 0x40 MLOAD PUSH8 0x1D92A4E4089A2DB8 PUSH1 0x20 DUP3 ADD MSTORE PUSH1 0x20 DUP2 MSTORE PUSH2 0x42C8 JUMP JUMPDEST PUSH2 0x870 PUSH1 0x40 MLOAD PUSH8 0xE37FA76E7F4EEF57 PUSH1 0x20 DUP3 ADD MSTORE PUSH1 0x20 DUP2 MSTORE PUSH2 0x42C8 JUMP JUMPDEST DUP3 DUP3 AND PUSH1 0x0 MSTORE PUSH1 0xF PUSH1 0x20 MSTORE PUSH1 0x40 PUSH1 0x0 KECCAK256 PUSH2 0x89D PUSH1 0x40 MLOAD PUSH8 0x3BD6BD9077BB500E PUSH1 0x20 DUP3 ADD MSTORE PUSH1 0x20 DUP2 MSTORE PUSH2 0x42C8 JUMP JUMPDEST PUSH2 0x8BA PUSH1 0x40 MLOAD PUSH8 0x7975233312424768 PUSH1 0x20 DUP3 ADD MSTORE PUSH1 0x20 DUP2 MSTORE PUSH2 0x42C8 JUMP JUMPDEST PUSH1 0x2 DUP2 ADD DUP1 SLOAD PUSH2 0xBD7 JUMPI PUSH2 0x8E1 PUSH1 0x40 MLOAD PUSH8 0x52B37C985A35EEA8 PUSH1 0x20 DUP3 ADD MSTORE PUSH1 0x20 DUP2 MSTORE PUSH2 0x42C8 JUMP JUMPDEST PUSH2 0x8FE PUSH1 0x40 MLOAD PUSH8 0xB4C0B4926D6F1633 PUSH1 0x20 DUP3 ADD MSTORE PUSH1 0x20 DUP2 MSTORE PUSH2 0x42C8 JUMP JUMPDEST TIMESTAMP SWAP1 SSTORE JUMPDEST PUSH2 0x91F PUSH1 0x40 MLOAD PUSH8 0xA6E02478D938D5E3 PUSH1 0x20 DUP3 ADD MSTORE PUSH1 0x20 DUP2 MSTORE PUSH2 0x42C8 JUMP JUMPDEST PUSH2 0x93C PUSH1 0x40 MLOAD PUSH8 0xCAF8E6D0AAC3B507 PUSH1 0x20 DUP3 ADD MSTORE PUSH1 0x20 DUP2 MSTORE PUSH2 0x42C8 JUMP JUMPDEST PUSH2 0x959 PUSH1 0x40 MLOAD PUSH8 0xEF4699A1EB53716D PUSH1 0x20 DUP3 ADD MSTORE PUSH1 0x20 DUP2 MSTORE PUSH2 0x42C8 JUMP JUMPDEST PUSH2 0x976 PUSH1 0x40 MLOAD PUSH8 0xB01B6DCB6E01BFF9 PUSH1 0x20 DUP3 ADD MSTORE PUSH1 0x20 DUP2 MSTORE PUSH2 0x42C8 JUMP JUMPDEST PUSH2 0x980 DUP2 SLOAD PUSH2 0x4425 JUMP JUMPDEST DUP2 SSTORE PUSH2 0x99F PUSH1 0x40 MLOAD PUSH8 0x907996CAB204506F PUSH1 0x20 DUP3 ADD MSTORE PUSH1 0x20 DUP2 MSTORE PUSH2 0x42C8 JUMP JUMPDEST PUSH1 0x1 TIMESTAMP SWAP2 ADD SSTORE PUSH2 0x9C2 PUSH1 0x40 MLOAD PUSH8 0xFBDDB7CC13265B69 PUSH1 0x20 DUP3 ADD MSTORE PUSH1 0x20 DUP2 MSTORE PUSH2 0x42C8 JUMP JUMPDEST PUSH2 0x9DF PUSH1 0x40 MLOAD PUSH8 0xB7C0A631CCB59F04 PUSH1 0x20 DUP3 ADD MSTORE PUSH1 0x20 DUP2 MSTORE PUSH2 0x42C8 JUMP JUMPDEST PUSH2 0x9E8 DUP3 PUSH2 0x6180 JUMP JUMPDEST PUSH1 0x40 MLOAD SWAP1 DUP2 MSTORE PUSH1 0x0 DUP1 MLOAD PUSH1 0x20 PUSH2 0x692E DUP4 CODECOPY DUP2 MLOAD SWAP2 MSTORE PUSH1 0x20 DUP6 DUP6 AND SWAP3 LOG2 PUSH2 0xA21 PUSH1 0x40 MLOAD PUSH8 0xF84EF5719E151A2 PUSH1 0x20 DUP3 ADD MSTORE PUSH1 0x20 DUP2 MSTORE PUSH2 0x42C8 JUMP JUMPDEST PUSH2 0xA3E PUSH1 0x40 MLOAD PUSH8 0xE374157375437CCE PUSH1 0x20 DUP3 ADD MSTORE PUSH1 0x20 DUP2 MSTORE PUSH2 0x42C8 JUMP JUMPDEST DUP3 DUP6 AND ISZERO PUSH2 0xBBF JUMPI DUP3 DUP3 AND ISZERO PUSH2 0xBA7 JUMPI PUSH2 0xA56 PUSH2 0x5A20 JUMP JUMPDEST DUP3 DUP6 AND PUSH1 0x0 MSTORE PUSH1 0x0 PUSH1 0x20 MSTORE PUSH1 0x40 PUSH1 0x0 KECCAK256 SLOAD SWAP1 DUP5 DUP3 LT PUSH2 0xB73 JUMPI POP SWAP2 DUP1 PUSH1 0x20 SWAP3 DUP6 PUSH32 0x55608E3380952B490F6DC0B1B0BCF7A16177FE10590CF1599B7A84F430B70E37 SWAP6 DUP4 DUP10 AND PUSH1 0x0 MSTORE PUSH1 0x0 DUP7 MSTORE SUB PUSH1 0x40 PUSH1 0x0 KECCAK256 SSTORE DUP2 DUP2 AND PUSH1 0x0 MSTORE PUSH1 0x40 PUSH1 0x0 KECCAK256 DUP7 DUP2 SLOAD ADD SWAP1 SSTORE PUSH1 0x40 MLOAD DUP7 DUP2 MSTORE DUP3 DUP3 AND SWAP1 PUSH1 0x0 DUP1 MLOAD PUSH1 0x20 PUSH2 0x694E DUP4 CODECOPY DUP2 MLOAD SWAP2 MSTORE DUP7 DUP6 DUP12 AND SWAP3 LOG3 PUSH2 0xAF4 PUSH1 0x40 MLOAD PUSH8 0x3F156C28F7D1E53B DUP7 DUP3 ADD MSTORE DUP6 DUP2 MSTORE PUSH2 0x42C8 JUMP JUMPDEST DUP2 DUP8 AND PUSH1 0x0 MSTORE PUSH1 0xC DUP5 MSTORE PUSH2 0xB30 PUSH1 0x40 PUSH1 0x0 KECCAK256 PUSH1 0x6 PUSH1 0x0 SWAP2 DUP3 DUP2 SSTORE DUP3 PUSH1 0x1 DUP3 ADD SSTORE DUP3 PUSH1 0x2 DUP3 ADD SSTORE DUP3 PUSH1 0x3 DUP3 ADD SSTORE DUP3 PUSH1 0x4 DUP3 ADD SSTORE DUP3 PUSH1 0x5 DUP3 ADD SSTORE ADD SSTORE JUMP JUMPDEST PUSH2 0xB4B PUSH1 0x40 MLOAD PUSH8 0xEEFB543EFB4EA814 DUP7 DUP3 ADD MSTORE DUP6 DUP2 MSTORE PUSH2 0x42C8 JUMP JUMPDEST PUSH2 0xB66 PUSH1 0x40 MLOAD PUSH8 0x31A0BACD179C66AE DUP7 DUP3 ADD MSTORE DUP6 DUP2 MSTORE PUSH2 0x42C8 JUMP JUMPDEST PUSH1 0x40 MLOAD SWAP6 DUP7 MSTORE AND SWAP5 AND SWAP3 LOG3 STOP JUMPDEST PUSH1 0x40 DUP1 MLOAD PUSH4 0x391434E3 PUSH1 0xE2 SHL DUP2 MSTORE PUSH1 0x1 PUSH1 0x1 PUSH1 0xA0 SHL SUB DUP9 AND SWAP3 DUP2 ADD SWAP3 DUP4 MSTORE PUSH1 0x20 DUP4 ADD SWAP4 SWAP1 SWAP4 MSTORE DUP2 ADD DUP6 SWAP1 MSTORE DUP2 SWAP1 PUSH1 0x60 ADD SUB SWAP1 REVERT JUMPDEST PUSH1 0x24 SWAP1 PUSH1 0x0 PUSH1 0x40 MLOAD SWAP2 PUSH4 0xEC442F05 PUSH1 0xE0 SHL DUP4 MSTORE DUP3 ADD MSTORE REVERT JUMPDEST PUSH1 0x24 SWAP1 PUSH1 0x0 PUSH1 0x40 MLOAD SWAP2 PUSH4 0x4B637E8F PUSH1 0xE1 SHL DUP4 MSTORE DUP3 ADD MSTORE REVERT JUMPDEST POP PUSH2 0xBF5 PUSH1 0x40 MLOAD PUSH8 0x6F826C5FB102114D PUSH1 0x20 DUP3 ADD MSTORE PUSH1 0x20 DUP2 MSTORE PUSH2 0x42C8 JUMP JUMPDEST PUSH2 0x902 JUMP JUMPDEST POP PUSH2 0xC18 PUSH1 0x40 MLOAD PUSH8 0x6F826C5FB102114D PUSH1 0x20 DUP3 ADD MSTORE PUSH1 0x20 DUP2 MSTORE PUSH2 0x42C8 JUMP JUMPDEST PUSH2 0x6DD JUMP JUMPDEST PUSH1 0x40 MLOAD PUSH3 0x461BCD PUSH1 0xE5 SHL DUP2 MSTORE PUSH1 0x20 DUP2 DUP6 ADD MSTORE PUSH1 0x19 PUSH1 0x24 DUP3 ADD MSTORE PUSH32 0x5472616E7366657220616C726561647920726576657273656400000000000000 PUSH1 0x44 DUP3 ADD MSTORE PUSH1 0x64 SWAP1 REVERT JUMPDEST PUSH1 0x40 MLOAD PUSH3 0x461BCD PUSH1 0xE5 SHL DUP2 MSTORE PUSH1 0x20 DUP2 DUP5 ADD MSTORE PUSH1 0x1F PUSH1 0x24 DUP3 ADD MSTORE PUSH32 0x496E73756666696369656E742062616C616E636520746F207265766572736500 PUSH1 0x44 DUP3 ADD MSTORE PUSH1 0x64 SWAP1 REVERT JUMPDEST PUSH1 0x40 MLOAD PUSH3 0x461BCD PUSH1 0xE5 SHL DUP2 MSTORE PUSH1 0x20 DUP2 DUP5 ADD MSTORE PUSH1 0x23 PUSH1 0x24 DUP3 ADD MSTORE PUSH32 0x526576657273616C206D75737420676F206261636B20746F206F726967696E61 PUSH1 0x44 DUP3 ADD MSTORE PUSH3 0x3A37B9 PUSH1 0xE9 SHL PUSH1 0x64 DUP3 ADD MSTORE PUSH1 0x84 SWAP1 REVERT JUMPDEST PUSH1 0x40 MLOAD PUSH3 0x461BCD PUSH1 0xE5 SHL DUP2 MSTORE PUSH1 0x20 DUP2 DUP5 ADD MSTORE PUSH1 0x10 PUSH1 0x24 DUP3 ADD MSTORE PUSH16 0x12185B19931A599948195E1C1A5C9959 PUSH1 0x82 SHL PUSH1 0x44 DUP3 ADD MSTORE PUSH1 0x64 SWAP1 REVERT JUMPDEST PUSH1 0x84 SWAP1 PUSH1 0x20 PUSH1 0x40 MLOAD SWAP2 PUSH3 0x461BCD PUSH1 0xE5 SHL DUP4 MSTORE DUP3 ADD MSTORE PUSH1 0x23 PUSH1 0x24 DUP3 ADD MSTORE PUSH32 0x4F6E6C792072656365697665722063616E20696E697469617465207265766572 PUSH1 0x44 DUP3 ADD MSTORE PUSH3 0x1CD85B PUSH1 0xEA SHL PUSH1 0x64 DUP3 ADD MSTORE REVERT JUMPDEST PUSH1 0x0 DUP1 REVERT JUMPDEST CALLVALUE PUSH2 0xD7C JUMPI PUSH1 0x0 CALLDATASIZE PUSH1 0x3 NOT ADD SLT PUSH2 0xD7C JUMPI PUSH1 0x20 PUSH1 0x40 MLOAD PUSH32 0x65D7A28E3265B37A6474929F336521B332C1681B933F6CB9F3376673440D862A DUP2 MSTORE RETURN JUMPDEST POP CALLVALUE PUSH2 0xD7C JUMPI PUSH2 0xDCB CALLDATASIZE PUSH2 0x40A0 JUMP JUMPDEST PUSH1 0x40 SWAP3 SWAP2 SWAP3 MLOAD SWAP2 PUSH2 0xDED PUSH1 0x20 SWAP4 PUSH8 0xAE0BB4141FD89680 DUP6 DUP3 ADD MSTORE DUP5 DUP2 MSTORE PUSH2 0x42C8 JUMP JUMPDEST PUSH2 0xDF5 PUSH2 0x40D5 JUMP JUMPDEST PUSH2 0xE10 PUSH1 0x40 MLOAD PUSH8 0x4C6663939EE21B9C DUP6 DUP3 ADD MSTORE DUP5 DUP2 MSTORE PUSH2 0x42C8 JUMP JUMPDEST PUSH2 0xE2B PUSH1 0x40 MLOAD PUSH8 0x9F7FE60EC9D19801 DUP6 DUP3 ADD MSTORE DUP5 DUP2 MSTORE PUSH2 0x42C8 JUMP JUMPDEST PUSH2 0xE46 PUSH1 0x40 MLOAD PUSH8 0x278122371F0525A3 DUP6 DUP3 ADD MSTORE DUP5 DUP2 MSTORE PUSH2 0x42C8 JUMP JUMPDEST PUSH2 0xE61 PUSH1 0x40 MLOAD PUSH8 0x42AF15302AC51157 DUP6 DUP3 ADD MSTORE DUP5 DUP2 MSTORE PUSH2 0x42C8 JUMP JUMPDEST PUSH2 0xE7C PUSH1 0x40 MLOAD PUSH8 0xE7F269AEDA2E94FD DUP6 DUP3 ADD MSTORE DUP5 DUP2 MSTORE PUSH2 0x42C8 JUMP JUMPDEST PUSH1 0x1 PUSH1 0x1 PUSH1 0xA0 SHL SUB SWAP1 DUP2 AND SWAP4 PUSH2 0xE93 DUP6 ISZERO ISZERO PUSH2 0x6849 JUMP JUMPDEST PUSH2 0xEAE PUSH1 0x40 MLOAD PUSH8 0x51C2299ED869CBCE DUP7 DUP3 ADD MSTORE DUP6 DUP2 MSTORE PUSH2 0x42C8 JUMP JUMPDEST PUSH2 0xEC9 PUSH1 0x40 MLOAD PUSH8 0x7BA4FAA806112904 DUP7 DUP3 ADD MSTORE DUP6 DUP2 MSTORE PUSH2 0x42C8 JUMP JUMPDEST PUSH2 0xEE4 PUSH1 0x40 MLOAD PUSH8 0xBBF5AEBA1E63046C DUP7 DUP3 ADD MSTORE DUP6 DUP2 MSTORE PUSH2 0x42C8 JUMP JUMPDEST PUSH2 0xEFF PUSH1 0x40 MLOAD PUSH8 0xE810589DE6076C33 DUP7 DUP3 ADD MSTORE DUP6 DUP2 MSTORE PUSH2 0x42C8 JUMP JUMPDEST AND SWAP4 PUSH2 0xF0C DUP6 ISZERO ISZERO PUSH2 0x6895 JUMP JUMPDEST PUSH2 0xF27 PUSH1 0x40 MLOAD PUSH8 0x9D510105289BABEE DUP6 DUP3 ADD MSTORE DUP5 DUP2 MSTORE PUSH2 0x42C8 JUMP JUMPDEST PUSH2 0xF42 PUSH1 0x40 MLOAD PUSH8 0x30A100D972047B94 DUP6 DUP3 ADD MSTORE DUP5 DUP2 MSTORE PUSH2 0x42C8 JUMP JUMPDEST PUSH2 0xF5D PUSH1 0x40 MLOAD PUSH8 0xB352B52E1C3A0FA4 DUP6 DUP3 ADD MSTORE DUP5 DUP2 MSTORE PUSH2 0x42C8 JUMP JUMPDEST PUSH2 0xF78 PUSH1 0x40 MLOAD PUSH8 0xF40CB4744903FE9F DUP6 DUP3 ADD MSTORE DUP5 DUP2 MSTORE PUSH2 0x42C8 JUMP JUMPDEST PUSH2 0xF84 DUP6 DUP6 EQ ISZERO PUSH2 0x68E1 JUMP JUMPDEST PUSH2 0xF9F PUSH1 0x40 MLOAD PUSH8 0xBBC8E5986B48838E DUP6 DUP3 ADD MSTORE DUP5 DUP2 MSTORE PUSH2 0x42C8 JUMP JUMPDEST PUSH2 0xFBA PUSH1 0x40 MLOAD PUSH8 0x442B8A20A8435F0C DUP6 DUP3 ADD MSTORE DUP5 DUP2 MSTORE PUSH2 0x42C8 JUMP JUMPDEST PUSH2 0xFD5 PUSH1 0x40 MLOAD PUSH8 0xFF393930E6F6C0C7 DUP6 DUP3 ADD MSTORE DUP5 DUP2 MSTORE PUSH2 0x42C8 JUMP JUMPDEST PUSH2 0xFF0 PUSH1 0x40 MLOAD PUSH8 0x62866F3AAFD93A73 DUP6 DUP3 ADD MSTORE DUP5 DUP2 MSTORE PUSH2 0x42C8 JUMP JUMPDEST DUP2 ISZERO PUSH2 0x10B4 JUMPI POP SWAP1 PUSH32 0xBD91B9538487013E1F78426333A3445BDFCDECE5D02E402F33F9E598122919F5 SWAP2 PUSH2 0x1035 PUSH1 0x40 MLOAD PUSH8 0x443A18C3DA8EB940 DUP5 DUP3 ADD MSTORE DUP4 DUP2 MSTORE PUSH2 0x42C8 JUMP JUMPDEST PUSH2 0x1050 PUSH1 0x40 MLOAD PUSH8 0x905408F79704EC43 DUP5 DUP3 ADD MSTORE DUP4 DUP2 MSTORE PUSH2 0x42C8 JUMP JUMPDEST DUP4 PUSH1 0x0 MSTORE PUSH1 0x12 DUP3 MSTORE PUSH1 0x40 PUSH1 0x0 KECCAK256 DUP6 PUSH1 0x0 MSTORE DUP3 MSTORE PUSH1 0x40 PUSH1 0x0 KECCAK256 PUSH2 0x1073 DUP3 DUP3 SLOAD PUSH2 0x4434 JUMP JUMPDEST SWAP1 SSTORE PUSH2 0x1090 PUSH1 0x40 MLOAD PUSH8 0x7EE4BDE7BED2DD40 DUP5 DUP3 ADD MSTORE DUP4 DUP2 MSTORE PUSH2 0x42C8 JUMP JUMPDEST PUSH2 0x10AB PUSH1 0x40 MLOAD PUSH8 0x94A41DFD06DB7620 DUP5 DUP3 ADD MSTORE DUP4 DUP2 MSTORE PUSH2 0x42C8 JUMP JUMPDEST PUSH1 0x40 MLOAD SWAP1 DUP2 MSTORE LOG3 STOP JUMPDEST PUSH1 0x40 MLOAD PUSH3 0x461BCD PUSH1 0xE5 SHL DUP2 MSTORE SWAP1 DUP2 ADD DUP4 SWAP1 MSTORE PUSH1 0x17 PUSH1 0x24 DUP3 ADD MSTORE PUSH32 0x416D6F756E74206D75737420626520706F736974697665000000000000000000 PUSH1 0x44 DUP3 ADD MSTORE PUSH1 0x64 SWAP1 REVERT JUMPDEST CALLVALUE PUSH2 0xD7C JUMPI PUSH1 0x40 CALLDATASIZE PUSH1 0x3 NOT ADD SLT PUSH2 0xD7C JUMPI PUSH2 0x1111 PUSH2 0x4074 JUMP JUMPDEST PUSH2 0x1119 PUSH2 0x408A JUMP JUMPDEST SWAP1 PUSH1 0x1 DUP1 PUSH1 0xA0 SHL SUB DUP1 SWAP2 AND PUSH1 0x0 MSTORE PUSH1 0x1 PUSH1 0x20 MSTORE PUSH1 0x40 PUSH1 0x0 KECCAK256 SWAP2 AND PUSH1 0x0 MSTORE PUSH1 0x20 MSTORE PUSH1 0x20 PUSH1 0x40 PUSH1 0x0 KECCAK256 SLOAD PUSH1 0x40 MLOAD SWAP1 DUP2 MSTORE RETURN JUMPDEST POP CALLVALUE PUSH2 0xD7C JUMPI PUSH1 0x40 CALLDATASIZE PUSH1 0x3 NOT ADD SLT PUSH2 0xD7C JUMPI PUSH2 0x1188 SWAP1 CALLDATALOAD PUSH2 0x1168 PUSH2 0x408A JUMP JUMPDEST SWAP1 DUP1 PUSH1 0x0 MSTORE PUSH1 0x6 PUSH1 0x20 MSTORE PUSH2 0x1183 PUSH1 0x1 PUSH1 0x40 PUSH1 0x0 KECCAK256 ADD SLOAD PUSH2 0x41AB JUMP JUMPDEST PUSH2 0x4251 JUMP JUMPDEST STOP JUMPDEST CALLVALUE PUSH2 0xD7C JUMPI PUSH1 0x0 CALLDATASIZE PUSH1 0x3 NOT ADD SLT PUSH2 0xD7C JUMPI PUSH1 0x20 PUSH1 0x40 MLOAD PUSH32 0x9F2DF0FED2C77648DE5860A4CC508CD0818C85B8B8A1AB4CEEEF8D981C8956A6 DUP2 MSTORE RETURN JUMPDEST CALLVALUE PUSH2 0xD7C JUMPI PUSH1 0x0 CALLDATASIZE PUSH1 0x3 NOT ADD SLT PUSH2 0xD7C JUMPI PUSH1 0x20 PUSH1 0x9 SLOAD PUSH1 0x40 MLOAD SWAP1 DUP2 MSTORE RETURN JUMPDEST CALLVALUE PUSH2 0xD7C JUMPI PUSH1 0x0 CALLDATASIZE PUSH1 0x3 NOT ADD SLT PUSH2 0xD7C JUMPI PUSH1 0xB SLOAD PUSH1 0x40 MLOAD PUSH1 0x1 PUSH1 0x1 PUSH1 0xA0 SHL SUB SWAP1 SWAP2 AND DUP2 MSTORE PUSH1 0x20 SWAP1 RETURN JUMPDEST CALLVALUE PUSH2 0xD7C JUMPI PUSH1 0x20 DUP1 PUSH1 0x3 NOT CALLDATASIZE ADD SLT PUSH2 0xD7C JUMPI PUSH2 0x1226 PUSH2 0x4074 JUMP JUMPDEST PUSH2 0x1241 PUSH1 0x40 MLOAD PUSH8 0xBA9D57F6A7DCB3BB DUP5 DUP3 ADD MSTORE DUP4 DUP2 MSTORE PUSH2 0x42C8 JUMP JUMPDEST PUSH2 0x125C PUSH1 0x40 MLOAD PUSH8 0x9194E4B0BE8C7A1F DUP5 DUP3 ADD MSTORE DUP4 DUP2 MSTORE PUSH2 0x42C8 JUMP JUMPDEST PUSH1 0x1 DUP1 PUSH1 0xA0 SHL SUB AND PUSH1 0x0 MSTORE PUSH1 0x10 DUP2 MSTORE PUSH1 0x40 PUSH1 0x0 KECCAK256 SLOAD PUSH1 0x40 MLOAD SWAP1 DUP2 MSTORE RETURN JUMPDEST CALLVALUE PUSH2 0xD7C JUMPI PUSH1 0x40 CALLDATASIZE PUSH1 0x3 NOT ADD SLT PUSH2 0xD7C JUMPI PUSH2 0x1292 PUSH2 0x4074 JUMP JUMPDEST PUSH1 0x40 MLOAD SWAP1 PUSH2 0x12B1 PUSH1 0x20 SWAP3 PUSH8 0x5C1C76597C52C3A5 DUP5 DUP3 ADD MSTORE DUP4 DUP2 MSTORE PUSH2 0x42C8 JUMP JUMPDEST PUSH2 0x12CC PUSH1 0x40 MLOAD PUSH8 0x69614F0440E3EC49 DUP5 DUP3 ADD MSTORE DUP4 DUP2 MSTORE PUSH2 0x42C8 JUMP JUMPDEST PUSH2 0x12E7 PUSH1 0x40 MLOAD PUSH8 0x327B519340216D83 DUP5 DUP3 ADD MSTORE DUP4 DUP2 MSTORE PUSH2 0x42C8 JUMP JUMPDEST PUSH2 0x1302 PUSH1 0x40 MLOAD PUSH8 0xBF473E267D8DBE02 DUP5 DUP3 ADD MSTORE DUP4 DUP2 MSTORE PUSH2 0x42C8 JUMP JUMPDEST PUSH2 0x131D PUSH1 0x40 MLOAD PUSH8 0x6AAEA9099CB00BC DUP5 DUP3 ADD MSTORE DUP4 DUP2 MSTORE PUSH2 0x42C8 JUMP JUMPDEST PUSH1 0x40 MLOAD SWAP1 PUSH2 0x133B PUSH8 0x39D76F42160B2D50 SWAP3 DUP4 DUP6 DUP3 ADD MSTORE DUP5 DUP2 MSTORE PUSH2 0x42C8 JUMP JUMPDEST PUSH1 0x40 MLOAD SWAP2 PUSH2 0x1359 PUSH8 0x1D92A4E4089A2DB8 SWAP4 DUP5 DUP7 DUP3 ADD MSTORE DUP6 DUP2 MSTORE PUSH2 0x42C8 JUMP JUMPDEST PUSH1 0x40 MLOAD SWAP1 PUSH2 0x1377 PUSH8 0xE37FA76E7F4EEF57 SWAP3 DUP4 DUP8 DUP3 ADD MSTORE DUP7 DUP2 MSTORE PUSH2 0x42C8 JUMP JUMPDEST CALLER PUSH1 0x0 MSTORE PUSH1 0xF DUP6 MSTORE PUSH1 0x40 PUSH1 0x0 KECCAK256 SWAP2 PUSH1 0x40 MLOAD SWAP5 PUSH2 0x13A3 PUSH8 0x3BD6BD9077BB500E SWAP7 DUP8 DUP10 DUP3 ADD MSTORE DUP9 DUP2 MSTORE PUSH2 0x42C8 JUMP JUMPDEST PUSH1 0x2 PUSH1 0x40 MLOAD SWAP5 PUSH2 0x13C3 PUSH8 0x7975233312424768 SWAP7 DUP8 DUP12 DUP3 ADD MSTORE DUP11 DUP2 MSTORE PUSH2 0x42C8 JUMP JUMPDEST ADD DUP1 SLOAD PUSH2 0x16DA JUMPI PUSH2 0x13E5 PUSH1 0x40 MLOAD PUSH8 0x52B37C985A35EEA8 DUP11 DUP3 ADD MSTORE DUP10 DUP2 MSTORE PUSH2 0x42C8 JUMP JUMPDEST PUSH2 0x1400 PUSH1 0x40 MLOAD PUSH8 0xB4C0B4926D6F1633 DUP11 DUP3 ADD MSTORE DUP10 DUP2 MSTORE PUSH2 0x42C8 JUMP JUMPDEST TIMESTAMP SWAP1 SSTORE JUMPDEST DUP7 PUSH1 0x40 MLOAD SWAP3 PUSH8 0xA6E02478D938D5E3 SWAP4 DUP5 DUP4 DUP3 ADD MSTORE DUP3 DUP2 MSTORE PUSH2 0x1424 SWAP1 PUSH2 0x42C8 JUMP JUMPDEST PUSH1 0x40 MLOAD SWAP8 PUSH8 0xCAF8E6D0AAC3B507 SWAP9 DUP10 DUP5 DUP3 ADD MSTORE DUP4 DUP2 MSTORE PUSH2 0x1443 SWAP1 PUSH2 0x42C8 JUMP JUMPDEST PUSH1 0x40 MLOAD SWAP1 PUSH8 0xA8C51886A7FE69A3 SWAP2 DUP3 DUP6 DUP3 ADD MSTORE DUP5 DUP2 MSTORE PUSH2 0x1462 SWAP1 PUSH2 0x42C8 JUMP JUMPDEST PUSH1 0x40 MLOAD SWAP3 PUSH8 0xFBDDB7CC13265B69 SWAP4 DUP5 DUP7 DUP3 ADD MSTORE DUP6 DUP2 MSTORE PUSH2 0x1481 SWAP1 PUSH2 0x42C8 JUMP JUMPDEST PUSH1 0x40 MLOAD SWAP6 PUSH8 0xB7C0A631CCB59F04 SWAP7 DUP8 DUP8 DUP3 ADD MSTORE DUP7 DUP2 MSTORE PUSH2 0x14A0 SWAP1 PUSH2 0x42C8 JUMP JUMPDEST PUSH2 0x14A9 CALLER PUSH2 0x6180 JUMP JUMPDEST SWAP9 PUSH1 0x40 MLOAD SWAP10 DUP11 MSTORE PUSH1 0x0 DUP1 MLOAD PUSH1 0x20 PUSH2 0x692E DUP4 CODECOPY DUP2 MLOAD SWAP2 MSTORE SWAP10 DUP11 DUP9 CALLER SWAP3 LOG2 PUSH1 0x40 MLOAD PUSH8 0x22012570FB3DE105 DUP9 DUP3 ADD MSTORE DUP8 DUP2 MSTORE PUSH2 0x14E1 SWAP1 PUSH2 0x42C8 JUMP JUMPDEST PUSH1 0x40 MLOAD PUSH8 0x7A20D6D35068EE55 DUP9 DUP3 ADD MSTORE DUP8 DUP2 MSTORE PUSH2 0x14FD SWAP1 PUSH2 0x42C8 JUMP JUMPDEST PUSH1 0x40 MLOAD SWAP1 DUP8 DUP3 ADD MSTORE DUP7 DUP2 MSTORE PUSH2 0x1511 SWAP1 PUSH2 0x42C8 JUMP JUMPDEST PUSH1 0x40 MLOAD SWAP1 DUP7 DUP3 ADD MSTORE DUP6 DUP2 MSTORE PUSH2 0x1525 SWAP1 PUSH2 0x42C8 JUMP JUMPDEST PUSH1 0x40 MLOAD SWAP1 DUP6 DUP3 ADD MSTORE DUP5 DUP2 MSTORE PUSH2 0x1539 SWAP1 PUSH2 0x42C8 JUMP JUMPDEST PUSH1 0x1 PUSH1 0xA0 SHL PUSH1 0x1 SWAP1 SUB DUP10 AND SWAP8 DUP9 PUSH1 0x0 MSTORE PUSH1 0xF DUP6 MSTORE PUSH1 0x40 PUSH1 0x0 KECCAK256 SWAP2 PUSH1 0x40 MLOAD SWAP1 DUP7 DUP3 ADD MSTORE DUP6 DUP2 MSTORE PUSH2 0x1567 SWAP1 PUSH2 0x42C8 JUMP JUMPDEST PUSH1 0x40 MLOAD SWAP1 DUP6 DUP3 ADD MSTORE DUP5 DUP2 MSTORE PUSH2 0x157B SWAP1 PUSH2 0x42C8 JUMP JUMPDEST PUSH1 0x2 ADD SWAP1 DUP2 SLOAD ISZERO PUSH1 0x0 EQ PUSH2 0x167A SWAP11 PUSH2 0x15E9 PUSH2 0x1629 SWAP9 PUSH2 0x1619 SWAP8 PUSH2 0x1609 SWAP7 PUSH2 0x15F9 SWAP6 PUSH2 0x16B9 JUMPI PUSH2 0x15BB PUSH1 0x40 MLOAD PUSH8 0x52B37C985A35EEA8 DUP5 DUP3 ADD MSTORE DUP4 DUP2 MSTORE PUSH2 0x42C8 JUMP JUMPDEST PUSH2 0x15D6 PUSH1 0x40 MLOAD PUSH8 0xB4C0B4926D6F1633 DUP5 DUP3 ADD MSTORE DUP4 DUP2 MSTORE PUSH2 0x42C8 JUMP JUMPDEST TIMESTAMP SWAP1 SSTORE JUMPDEST PUSH1 0x40 MLOAD SWAP2 DUP2 DUP4 ADD MSTORE DUP2 MSTORE PUSH2 0x42C8 JUMP JUMPDEST PUSH1 0x40 MLOAD SWAP1 DUP14 DUP3 ADD MSTORE DUP13 DUP2 MSTORE PUSH2 0x42C8 JUMP JUMPDEST PUSH1 0x40 MLOAD SWAP1 DUP12 DUP3 ADD MSTORE DUP11 DUP2 MSTORE PUSH2 0x42C8 JUMP JUMPDEST PUSH1 0x40 MLOAD SWAP1 DUP10 DUP3 ADD MSTORE DUP9 DUP2 MSTORE PUSH2 0x42C8 JUMP JUMPDEST PUSH1 0x40 MLOAD SWAP1 DUP8 DUP3 ADD MSTORE DUP7 DUP2 MSTORE PUSH2 0x42C8 JUMP JUMPDEST DUP5 PUSH2 0x1633 DUP5 PUSH2 0x6180 JUMP JUMPDEST PUSH1 0x40 MLOAD SWAP1 DUP2 MSTORE LOG2 PUSH2 0x1655 PUSH1 0x40 MLOAD PUSH8 0x2B34A5FB928E4EE5 DUP6 DUP3 ADD MSTORE DUP5 DUP2 MSTORE PUSH2 0x42C8 JUMP JUMPDEST PUSH2 0x1670 PUSH1 0x40 MLOAD PUSH8 0x398F235F253F63D7 DUP6 DUP3 ADD MSTORE DUP5 DUP2 MSTORE PUSH2 0x42C8 JUMP JUMPDEST PUSH1 0x24 CALLDATALOAD SWAP1 CALLER PUSH2 0x4441 JUMP JUMPDEST PUSH2 0x1695 PUSH1 0x40 MLOAD PUSH8 0xEF8F3F7056DBE271 DUP4 DUP3 ADD MSTORE DUP3 DUP2 MSTORE PUSH2 0x42C8 JUMP JUMPDEST PUSH2 0x16B0 PUSH1 0x40 MLOAD PUSH8 0xCBC690C58C066790 DUP4 DUP3 ADD MSTORE DUP3 DUP2 MSTORE PUSH2 0x42C8 JUMP JUMPDEST PUSH1 0x40 MLOAD PUSH1 0x1 DUP2 MSTORE RETURN JUMPDEST POP PUSH2 0x16D5 PUSH1 0x40 MLOAD PUSH8 0x6F826C5FB102114D DUP4 DUP3 ADD MSTORE DUP3 DUP2 MSTORE PUSH2 0x42C8 JUMP JUMPDEST PUSH2 0x15DA JUMP JUMPDEST POP PUSH2 0x16F6 PUSH1 0x40 MLOAD PUSH8 0x6F826C5FB102114D DUP10 DUP3 ADD MSTORE DUP9 DUP2 MSTORE PUSH2 0x42C8 JUMP JUMPDEST PUSH2 0x1404 JUMP JUMPDEST CALLVALUE PUSH2 0xD7C JUMPI PUSH1 0x0 CALLDATASIZE PUSH1 0x3 NOT ADD SLT PUSH2 0xD7C JUMPI PUSH1 0x20 PUSH1 0x40 MLOAD PUSH1 0x0 DUP2 MSTORE RETURN JUMPDEST POP CALLVALUE PUSH2 0xD7C JUMPI PUSH1 0x0 CALLDATASIZE PUSH1 0x3 NOT ADD SLT PUSH2 0xD7C JUMPI PUSH1 0x40 MLOAD PUSH1 0x0 SWAP2 DUP1 SLOAD SWAP1 PUSH1 0x1 DUP3 DUP2 SHR SWAP2 DUP2 DUP5 AND SWAP4 DUP5 ISZERO PUSH2 0x1813 JUMPI JUMPDEST PUSH1 0x20 SWAP5 DUP6 DUP6 LT DUP2 EQ PUSH2 0x17FE JUMPI DUP5 DUP8 MSTORE SWAP1 DUP2 ISZERO PUSH2 0x17DC JUMPI POP PUSH1 0x1 EQ PUSH2 0x1782 JUMPI JUMPDEST PUSH2 0x177E DUP6 PUSH2 0x1772 DUP2 DUP10 SUB DUP3 PUSH2 0x42FA JUMP JUMPDEST PUSH1 0x40 MLOAD SWAP2 DUP3 SWAP2 DUP3 PUSH2 0x402B JUMP JUMPDEST SUB SWAP1 RETURN JUMPDEST PUSH1 0x0 SWAP1 DUP2 MSTORE SWAP3 SWAP5 POP PUSH32 0x8A35ACFBC15FF81A39AE7D344FD709F28E8600B4AA8C65C6B64BFE7FE36BD19B JUMPDEST DUP3 DUP5 LT PUSH2 0x17C9 JUMPI POP POP POP DUP2 PUSH2 0x177E SWAP4 PUSH2 0x1772 SWAP3 DUP3 ADD ADD SWAP4 CODESIZE PUSH2 0x1762 JUMP JUMPDEST DUP1 SLOAD DUP6 DUP6 ADD DUP8 ADD MSTORE SWAP3 DUP6 ADD SWAP3 DUP2 ADD PUSH2 0x17AC JUMP JUMPDEST PUSH1 0xFF NOT AND DUP7 DUP7 ADD MSTORE POP POP POP ISZERO ISZERO PUSH1 0x5 SHL DUP3 ADD ADD SWAP2 POP PUSH2 0x1772 DUP2 PUSH2 0x177E CODESIZE PUSH2 0x1762 JUMP JUMPDEST PUSH1 0x22 DUP4 PUSH4 0x4E487B71 PUSH1 0xE0 SHL PUSH1 0x0 MSTORE MSTORE PUSH1 0x24 PUSH1 0x0 REVERT JUMPDEST SWAP3 PUSH1 0x7F AND SWAP3 PUSH2 0x1743 JUMP JUMPDEST POP CALLVALUE PUSH2 0xD7C JUMPI PUSH1 0x40 CALLDATASIZE PUSH1 0x3 NOT ADD SLT PUSH2 0xD7C JUMPI PUSH2 0x1837 PUSH2 0x408A JUMP JUMPDEST SWAP1 CALLDATALOAD PUSH1 0x0 MSTORE PUSH1 0x6 PUSH1 0x20 MSTORE PUSH1 0x40 PUSH1 0x0 KECCAK256 SWAP1 PUSH1 0x1 DUP1 PUSH1 0xA0 SHL SUB AND PUSH1 0x0 MSTORE PUSH1 0x20 MSTORE PUSH1 0x20 PUSH1 0xFF PUSH1 0x40 PUSH1 0x0 KECCAK256 SLOAD AND PUSH1 0x40 MLOAD SWAP1 ISZERO ISZERO DUP2 MSTORE RETURN JUMPDEST CALLVALUE PUSH2 0xD7C JUMPI PUSH1 0x20 CALLDATASIZE PUSH1 0x3 NOT ADD SLT PUSH2 0xD7C JUMPI PUSH1 0x1 PUSH1 0x1 PUSH1 0xA0 SHL SUB PUSH2 0x188B PUSH2 0x4074 JUMP JUMPDEST AND PUSH1 0x0 MSTORE PUSH1 0x11 PUSH1 0x20 MSTORE PUSH1 0x20 PUSH1 0x40 PUSH1 0x0 KECCAK256 SLOAD PUSH1 0x40 MLOAD SWAP1 DUP2 MSTORE RETURN JUMPDEST CALLVALUE PUSH2 0xD7C JUMPI PUSH1 0x40 CALLDATASIZE PUSH1 0x3 NOT ADD SLT PUSH2 0xD7C JUMPI PUSH2 0x18BD PUSH2 0x4074 JUMP JUMPDEST PUSH2 0x18C5 PUSH2 0x408A JUMP JUMPDEST SWAP1 PUSH1 0x1 DUP1 PUSH1 0xA0 SHL SUB DUP1 SWAP2 AND PUSH1 0x0 MSTORE PUSH1 0xE PUSH1 0x20 MSTORE PUSH1 0x40 PUSH1 0x0 KECCAK256 SWAP2 AND PUSH1 0x0 MSTORE PUSH1 0x20 MSTORE PUSH1 0x20 PUSH1 0x40 PUSH1 0x0 KECCAK256 SLOAD PUSH1 0x40 MLOAD SWAP1 DUP2 MSTORE RETURN JUMPDEST CALLVALUE PUSH2 0xD7C JUMPI PUSH1 0x0 CALLDATASIZE PUSH1 0x3 NOT ADD SLT PUSH2 0xD7C JUMPI PUSH32 0x62E78CEA01BEE320CD4E420270B5EA74000D11B0C9F74754EBDBFC544B05A258 PUSH1 0x40 MLOAD PUSH2 0x1945 PUSH1 0x20 SWAP2 PUSH8 0x88D23A38C63C6AEC DUP4 DUP3 ADD MSTORE DUP3 DUP2 MSTORE PUSH2 0x42C8 JUMP JUMPDEST PUSH2 0x194D PUSH2 0x414F JUMP JUMPDEST PUSH2 0x1968 PUSH1 0x40 MLOAD PUSH8 0x2DDEBAB7F655373A DUP4 DUP3 ADD MSTORE DUP3 DUP2 MSTORE PUSH2 0x42C8 JUMP JUMPDEST PUSH2 0x1983 PUSH1 0x40 MLOAD PUSH8 0x52AF9D7784EEF285 DUP4 DUP3 ADD MSTORE DUP3 DUP2 MSTORE PUSH2 0x42C8 JUMP JUMPDEST PUSH2 0x199E PUSH1 0x40 MLOAD PUSH8 0x1B64424A14C30CA4 DUP4 DUP3 ADD MSTORE DUP3 DUP2 MSTORE PUSH2 0x42C8 JUMP JUMPDEST PUSH2 0x19A6 PUSH2 0x5A20 JUMP JUMPDEST PUSH1 0x1 PUSH1 0xFF NOT PUSH1 0x5 SLOAD AND OR PUSH1 0x5 SSTORE PUSH1 0x40 MLOAD CALLER DUP2 MSTORE LOG1 STOP JUMPDEST CALLVALUE PUSH2 0xD7C JUMPI PUSH1 0x0 CALLDATASIZE PUSH1 0x3 NOT ADD SLT PUSH2 0xD7C JUMPI PUSH1 0x20 PUSH1 0x8 SLOAD PUSH1 0x40 MLOAD SWAP1 DUP2 MSTORE RETURN JUMPDEST CALLVALUE PUSH2 0xD7C JUMPI PUSH1 0x40 CALLDATASIZE PUSH1 0x3 NOT ADD SLT PUSH2 0xD7C JUMPI PUSH2 0x1188 PUSH2 0x19F6 PUSH2 0x4074 JUMP JUMPDEST PUSH1 0x24 CALLDATALOAD SWAP1 PUSH2 0x1B44 PUSH1 0x40 MLOAD PUSH2 0x1A1B PUSH1 0x20 SWAP2 PUSH8 0x880FD0D2AD36C7E6 DUP4 DUP3 ADD MSTORE DUP3 DUP2 MSTORE PUSH2 0x42C8 JUMP JUMPDEST PUSH2 0x1A23 PUSH2 0x5A20 JUMP JUMPDEST PUSH2 0x1A3E PUSH1 0x40 MLOAD PUSH8 0x967FCA4F7BC72B0B DUP4 DUP3 ADD MSTORE DUP3 DUP2 MSTORE PUSH2 0x42C8 JUMP JUMPDEST PUSH2 0x1A59 PUSH1 0x40 MLOAD PUSH8 0xFC578BE9B62DF778 DUP4 DUP3 ADD MSTORE DUP3 DUP2 MSTORE PUSH2 0x42C8 JUMP JUMPDEST PUSH2 0x1A74 PUSH1 0x40 MLOAD PUSH8 0xFA1F8E5D61D4B42A DUP4 DUP3 ADD MSTORE DUP3 DUP2 MSTORE PUSH2 0x42C8 JUMP JUMPDEST PUSH2 0x1A8F PUSH1 0x40 MLOAD PUSH8 0x6F28C013D5499FD DUP4 DUP3 ADD MSTORE DUP3 DUP2 MSTORE PUSH2 0x42C8 JUMP JUMPDEST PUSH2 0x1AAA PUSH1 0x40 MLOAD PUSH8 0xDB9568627A60C91D DUP4 DUP3 ADD MSTORE DUP3 DUP2 MSTORE PUSH2 0x42C8 JUMP JUMPDEST PUSH2 0x1AB5 DUP5 ISZERO ISZERO PUSH2 0x674F JUMP JUMPDEST PUSH2 0x1AD0 PUSH1 0x40 MLOAD PUSH8 0x20FFA0C3AA082123 DUP4 DUP3 ADD MSTORE DUP3 DUP2 MSTORE PUSH2 0x42C8 JUMP JUMPDEST PUSH2 0x1AEB PUSH1 0x40 MLOAD PUSH8 0x6C1DF6E0565AFF67 DUP4 DUP3 ADD MSTORE DUP3 DUP2 MSTORE PUSH2 0x42C8 JUMP JUMPDEST PUSH2 0x1B06 PUSH1 0x40 MLOAD PUSH8 0x2E8A0537C36802D DUP4 DUP3 ADD MSTORE DUP3 DUP2 MSTORE PUSH2 0x42C8 JUMP JUMPDEST PUSH2 0x1B11 DUP5 CALLER DUP6 PUSH2 0x431C JUMP JUMPDEST PUSH2 0x1B2C PUSH1 0x40 MLOAD PUSH8 0x6E4D33AD1E43E42D DUP4 DUP3 ADD MSTORE DUP3 DUP2 MSTORE PUSH2 0x42C8 JUMP JUMPDEST PUSH1 0x40 MLOAD SWAP1 PUSH8 0xBBC804128D1C0822 DUP2 DUP4 ADD MSTORE DUP2 MSTORE PUSH2 0x42C8 JUMP JUMPDEST PUSH2 0x679B JUMP JUMPDEST POP CALLVALUE PUSH2 0xD7C JUMPI PUSH1 0x20 DUP1 PUSH1 0x3 NOT CALLDATASIZE ADD SLT PUSH2 0xD7C JUMPI DUP2 CALLDATALOAD SWAP2 PUSH2 0x1B7A PUSH1 0x40 MLOAD PUSH8 0x3EC710F05DFE9826 DUP5 DUP3 ADD MSTORE DUP4 DUP2 MSTORE PUSH2 0x42C8 JUMP JUMPDEST PUSH2 0x1B82 PUSH2 0x40D5 JUMP JUMPDEST PUSH2 0x1B9D PUSH1 0x40 MLOAD PUSH8 0x878326D1E838AAB2 DUP5 DUP3 ADD MSTORE DUP4 DUP2 MSTORE PUSH2 0x42C8 JUMP JUMPDEST PUSH2 0x1BB8 PUSH1 0x40 MLOAD PUSH8 0x50EB2D8E26ED63B7 DUP5 DUP3 ADD MSTORE DUP4 DUP2 MSTORE PUSH2 0x42C8 JUMP JUMPDEST PUSH2 0x1BD3 PUSH1 0x40 MLOAD PUSH8 0x6A843E43D3D19269 DUP5 DUP3 ADD MSTORE DUP4 DUP2 MSTORE PUSH2 0x42C8 JUMP JUMPDEST PUSH2 0x1BEE PUSH1 0x40 MLOAD PUSH8 0x2B46AB474944969D DUP5 DUP3 ADD MSTORE DUP4 DUP2 MSTORE PUSH2 0x42C8 JUMP JUMPDEST DUP3 ISZERO PUSH2 0x1CA8 JUMPI PUSH2 0x1C0F PUSH1 0x40 MLOAD PUSH8 0xFB8B43EAB98CB2C7 DUP5 DUP3 ADD MSTORE DUP4 DUP2 MSTORE PUSH2 0x42C8 JUMP JUMPDEST PUSH2 0x1C2A PUSH1 0x40 MLOAD PUSH8 0x2B26011CC4D60675 DUP5 DUP3 ADD MSTORE DUP4 DUP2 MSTORE PUSH2 0x42C8 JUMP JUMPDEST PUSH2 0x1C45 PUSH1 0x40 MLOAD PUSH8 0x87E93E875E9B4E9E DUP5 DUP3 ADD MSTORE DUP4 DUP2 MSTORE PUSH2 0x42C8 JUMP JUMPDEST PUSH1 0x7 SLOAD DUP4 GT PUSH2 0x1C70 JUMPI POP PUSH2 0x1C6B SWAP1 PUSH1 0x40 MLOAD SWAP1 PUSH8 0xFEDE06CE44E0F65D DUP2 DUP4 ADD MSTORE DUP2 MSTORE PUSH2 0x42C8 JUMP JUMPDEST PUSH1 0x8 SSTORE STOP JUMPDEST PUSH1 0x64 SWAP2 PUSH1 0x40 MLOAD SWAP2 PUSH3 0x461BCD PUSH1 0xE5 SHL DUP4 MSTORE DUP3 ADD MSTORE PUSH1 0x13 PUSH1 0x24 DUP3 ADD MSTORE PUSH19 0x135A5B88195E18D959591CC8191959985D5B1D PUSH1 0x6A SHL PUSH1 0x44 DUP3 ADD MSTORE REVERT JUMPDEST PUSH1 0x64 SWAP2 PUSH1 0x40 MLOAD SWAP2 PUSH3 0x461BCD PUSH1 0xE5 SHL DUP4 MSTORE DUP3 ADD MSTORE PUSH1 0x14 PUSH1 0x24 DUP3 ADD MSTORE PUSH20 0x4D696E206D75737420626520706F736974697665 PUSH1 0x60 SHL PUSH1 0x44 DUP3 ADD MSTORE REVERT JUMPDEST CALLVALUE PUSH2 0xD7C JUMPI PUSH1 0x0 CALLDATASIZE PUSH1 0x3 NOT ADD SLT PUSH2 0xD7C JUMPI PUSH1 0x20 PUSH1 0x40 MLOAD PUSH32 0xA49807205CE4D355092EF5A8A18F56E8913CF4A201FBE287825B095693C21775 DUP2 MSTORE RETURN JUMPDEST CALLVALUE PUSH2 0xD7C JUMPI PUSH1 0x20 CALLDATASIZE PUSH1 0x3 NOT ADD SLT PUSH2 0xD7C JUMPI PUSH1 0x1 PUSH1 0x1 PUSH1 0xA0 SHL SUB PUSH2 0x1D3D PUSH2 0x4074 JUMP JUMPDEST AND PUSH1 0x0 MSTORE PUSH1 0x0 PUSH1 0x20 MSTORE PUSH1 0x20 PUSH1 0x40 PUSH1 0x0 KECCAK256 SLOAD PUSH1 0x40 MLOAD SWAP1 DUP2 MSTORE RETURN JUMPDEST CALLVALUE PUSH2 0xD7C JUMPI PUSH1 0x20 DUP1 PUSH1 0x3 NOT CALLDATASIZE ADD SLT PUSH2 0xD7C JUMPI PUSH1 0xF SWAP1 PUSH2 0x1F83 PUSH2 0x1D76 PUSH2 0x4074 JUMP JUMPDEST PUSH2 0x1D91 PUSH1 0x40 MLOAD PUSH8 0xC12F8C9C729851E4 DUP6 DUP3 ADD MSTORE DUP5 DUP2 MSTORE PUSH2 0x42C8 JUMP JUMPDEST PUSH2 0x1D99 PUSH2 0x40D5 JUMP JUMPDEST PUSH2 0x1DB4 PUSH1 0x40 MLOAD PUSH8 0xE32A1AEDADAB31A9 DUP6 DUP3 ADD MSTORE DUP5 DUP2 MSTORE PUSH2 0x42C8 JUMP JUMPDEST PUSH2 0x1DCF PUSH1 0x40 MLOAD PUSH8 0xDAACE93EAD4BD0AE DUP6 DUP3 ADD MSTORE DUP5 DUP2 MSTORE PUSH2 0x42C8 JUMP JUMPDEST PUSH2 0x1DEA PUSH1 0x40 MLOAD PUSH8 0x43E93DF93016C6C3 DUP6 DUP3 ADD MSTORE DUP5 DUP2 MSTORE PUSH2 0x42C8 JUMP JUMPDEST PUSH2 0x1E05 PUSH1 0x40 MLOAD PUSH8 0xCFAD6C48F3A1F5D8 DUP6 DUP3 ADD MSTORE DUP5 DUP2 MSTORE PUSH2 0x42C8 JUMP JUMPDEST PUSH2 0x1E20 PUSH1 0x40 MLOAD PUSH8 0x39D76F42160B2D50 DUP6 DUP3 ADD MSTORE DUP5 DUP2 MSTORE PUSH2 0x42C8 JUMP JUMPDEST PUSH2 0x1E3B PUSH1 0x40 MLOAD PUSH8 0x1D92A4E4089A2DB8 DUP6 DUP3 ADD MSTORE DUP5 DUP2 MSTORE PUSH2 0x42C8 JUMP JUMPDEST PUSH2 0x1E56 PUSH1 0x40 MLOAD PUSH8 0xE37FA76E7F4EEF57 DUP6 DUP3 ADD MSTORE DUP5 DUP2 MSTORE PUSH2 0x42C8 JUMP JUMPDEST PUSH1 0x0 DUP1 MLOAD PUSH1 0x20 PUSH2 0x692E DUP4 CODECOPY DUP2 MLOAD SWAP2 MSTORE DUP4 PUSH1 0x1 DUP1 PUSH1 0xA0 SHL SUB DUP4 AND SWAP4 DUP5 SWAP4 DUP5 PUSH1 0x0 MSTORE DUP8 DUP4 MSTORE PUSH1 0x2 PUSH1 0x40 PUSH1 0x0 KECCAK256 PUSH2 0x1E9B PUSH1 0x40 MLOAD PUSH8 0x3BD6BD9077BB500E DUP8 DUP3 ADD MSTORE DUP7 DUP2 MSTORE PUSH2 0x42C8 JUMP JUMPDEST PUSH2 0x1EB6 PUSH1 0x40 MLOAD PUSH8 0x7975233312424768 DUP8 DUP3 ADD MSTORE DUP7 DUP2 MSTORE PUSH2 0x42C8 JUMP JUMPDEST ADD DUP1 SLOAD PUSH2 0x1FBF JUMPI PUSH2 0x1ED8 PUSH1 0x40 MLOAD PUSH8 0x52B37C985A35EEA8 DUP7 DUP3 ADD MSTORE DUP6 DUP2 MSTORE PUSH2 0x42C8 JUMP JUMPDEST PUSH2 0x1EF3 PUSH1 0x40 MLOAD PUSH8 0xB4C0B4926D6F1633 DUP7 DUP3 ADD MSTORE DUP6 DUP2 MSTORE PUSH2 0x42C8 JUMP JUMPDEST TIMESTAMP SWAP1 SSTORE JUMPDEST PUSH2 0x1F12 PUSH1 0x40 MLOAD PUSH8 0xA6E02478D938D5E3 DUP6 DUP3 ADD MSTORE DUP5 DUP2 MSTORE PUSH2 0x42C8 JUMP JUMPDEST PUSH2 0x1F2D PUSH1 0x40 MLOAD PUSH8 0xCAF8E6D0AAC3B507 DUP6 DUP3 ADD MSTORE DUP5 DUP2 MSTORE PUSH2 0x42C8 JUMP JUMPDEST PUSH2 0x1F48 PUSH1 0x40 MLOAD PUSH8 0xA8C51886A7FE69A3 DUP6 DUP3 ADD MSTORE DUP5 DUP2 MSTORE PUSH2 0x42C8 JUMP JUMPDEST PUSH2 0x1F63 PUSH1 0x40 MLOAD PUSH8 0xFBDDB7CC13265B69 DUP6 DUP3 ADD MSTORE DUP5 DUP2 MSTORE PUSH2 0x42C8 JUMP JUMPDEST PUSH2 0x1F7E PUSH1 0x40 MLOAD PUSH8 0xB7C0A631CCB59F04 DUP6 DUP3 ADD MSTORE DUP5 DUP2 MSTORE PUSH2 0x42C8 JUMP JUMPDEST PUSH2 0x6180 JUMP JUMPDEST PUSH1 0x40 MLOAD SWAP1 DUP2 MSTORE LOG2 PUSH2 0x1FA5 PUSH1 0x40 MLOAD PUSH8 0x89A6FFB4BC8A99C4 DUP5 DUP3 ADD MSTORE DUP4 DUP2 MSTORE PUSH2 0x42C8 JUMP JUMPDEST PUSH1 0x0 MSTORE MSTORE PUSH1 0x3 PUSH1 0x40 PUSH1 0x0 KECCAK256 ADD PUSH2 0x1FBB DUP2 SLOAD PUSH2 0x4425 JUMP JUMPDEST SWAP1 SSTORE STOP JUMPDEST POP PUSH2 0x1FDB PUSH1 0x40 MLOAD PUSH8 0x6F826C5FB102114D DUP6 DUP3 ADD MSTORE DUP5 DUP2 MSTORE PUSH2 0x42C8 JUMP JUMPDEST PUSH2 0x1EF7 JUMP JUMPDEST POP CALLVALUE PUSH2 0xD7C JUMPI PUSH1 0x20 DUP1 PUSH1 0x3 NOT CALLDATASIZE ADD SLT PUSH2 0xD7C JUMPI DUP2 CALLDATALOAD SWAP2 PUSH2 0x2011 PUSH1 0x40 MLOAD PUSH8 0xEEFD7FAF8576DC21 DUP5 DUP3 ADD MSTORE DUP4 DUP2 MSTORE PUSH2 0x42C8 JUMP JUMPDEST PUSH2 0x2019 PUSH2 0x40D5 JUMP JUMPDEST PUSH2 0x2034 PUSH1 0x40 MLOAD PUSH8 0x6A6BA60DC167C7E4 DUP5 DUP3 ADD MSTORE DUP4 DUP2 MSTORE PUSH2 0x42C8 JUMP JUMPDEST PUSH2 0x204F PUSH1 0x40 MLOAD PUSH8 0x53B9B18DAE5FAF8F DUP5 DUP3 ADD MSTORE DUP4 DUP2 MSTORE PUSH2 0x42C8 JUMP JUMPDEST PUSH2 0x206A PUSH1 0x40 MLOAD PUSH8 0x116DF1FDC6BCE889 DUP5 DUP3 ADD MSTORE DUP4 DUP2 MSTORE PUSH2 0x42C8 JUMP JUMPDEST PUSH2 0x2085 PUSH1 0x40 MLOAD PUSH8 0x82A52B4F1AE118A8 DUP5 DUP3 ADD MSTORE DUP4 DUP2 MSTORE PUSH2 0x42C8 JUMP JUMPDEST DUP3 ISZERO PUSH2 0x20AD JUMPI POP PUSH2 0x20A8 SWAP1 PUSH1 0x40 MLOAD SWAP1 PUSH8 0x31D0B53FEE2BB0B1 DUP2 DUP4 ADD MSTORE DUP2 MSTORE PUSH2 0x42C8 JUMP JUMPDEST PUSH1 0xA SSTORE STOP JUMPDEST PUSH1 0x64 SWAP2 PUSH1 0x40 MLOAD SWAP2 PUSH3 0x461BCD PUSH1 0xE5 SHL DUP4 MSTORE DUP3 ADD MSTORE PUSH1 0x17 PUSH1 0x24 DUP3 ADD MSTORE PUSH32 0x506572696F64206D75737420626520706F736974697665000000000000000000 PUSH1 0x44 DUP3 ADD MSTORE REVERT JUMPDEST CALLVALUE PUSH2 0xD7C JUMPI PUSH1 0x20 CALLDATASIZE PUSH1 0x3 NOT ADD SLT PUSH2 0xD7C JUMPI PUSH1 0x20 PUSH2 0x210D PUSH2 0x1F7E PUSH2 0x4074 JUMP JUMPDEST PUSH1 0x40 MLOAD SWAP1 DUP2 MSTORE RETURN JUMPDEST POP CALLVALUE PUSH2 0xD7C JUMPI PUSH1 0x20 DUP1 PUSH1 0x3 NOT CALLDATASIZE ADD SLT PUSH2 0xD7C JUMPI PUSH2 0x2130 PUSH2 0x4074 JUMP JUMPDEST PUSH2 0x214B PUSH1 0x40 MLOAD PUSH8 0x5B612A70588AFC5D DUP5 DUP3 ADD MSTORE DUP4 DUP2 MSTORE PUSH2 0x42C8 JUMP JUMPDEST PUSH2 0x2153 PUSH2 0x40D5 JUMP JUMPDEST PUSH2 0x216E PUSH1 0x40 MLOAD PUSH8 0x3A18CE53BC119CB9 DUP5 DUP3 ADD MSTORE DUP4 DUP2 MSTORE PUSH2 0x42C8 JUMP JUMPDEST PUSH2 0x2189 PUSH1 0x40 MLOAD PUSH8 0x2D90C910F830CB34 DUP5 DUP3 ADD MSTORE DUP4 DUP2 MSTORE PUSH2 0x42C8 JUMP JUMPDEST PUSH2 0x21A4 PUSH1 0x40 MLOAD PUSH8 0xA3A1F5EA7F5A7CCB DUP5 DUP3 ADD MSTORE DUP4 DUP2 MSTORE PUSH2 0x42C8 JUMP JUMPDEST PUSH2 0x21BF PUSH1 0x40 MLOAD PUSH8 0xB291ED991AC9572A DUP5 DUP3 ADD MSTORE DUP4 DUP2 MSTORE PUSH2 0x42C8 JUMP JUMPDEST PUSH1 0x1 PUSH1 0x1 PUSH1 0xA0 SHL SUB AND SWAP2 DUP3 ISZERO PUSH2 0x2204 JUMPI POP PUSH2 0x21EC SWAP1 PUSH1 0x40 MLOAD SWAP1 PUSH8 0xB613FE43419A48D3 DUP2 DUP4 ADD MSTORE DUP2 MSTORE PUSH2 0x42C8 JUMP JUMPDEST PUSH1 0x1 PUSH1 0x1 PUSH1 0x60 SHL SUB PUSH1 0xA0 SHL PUSH1 0xB SLOAD AND OR PUSH1 0xB SSTORE PUSH1 0x0 DUP1 RETURN JUMPDEST PUSH1 0x64 SWAP2 PUSH1 0x40 MLOAD SWAP2 PUSH3 0x461BCD PUSH1 0xE5 SHL DUP4 MSTORE DUP3 ADD MSTORE PUSH1 0x1F PUSH1 0x24 DUP3 ADD MSTORE PUSH32 0x547265617375727920616464726573732063616E6E6F74206265207A65726F00 PUSH1 0x44 DUP3 ADD MSTORE REVERT JUMPDEST POP CALLVALUE PUSH2 0xD7C JUMPI PUSH1 0x20 CALLDATASIZE PUSH1 0x3 NOT ADD SLT PUSH2 0xD7C JUMPI PUSH1 0xE0 SWAP1 PUSH1 0x1 PUSH1 0x1 PUSH1 0xA0 SHL SUB DUP1 PUSH2 0x226C PUSH2 0x4074 JUMP JUMPDEST AND PUSH1 0x0 MSTORE PUSH1 0xC PUSH1 0x20 MSTORE PUSH1 0x40 PUSH1 0x0 KECCAK256 DUP1 SLOAD SWAP3 PUSH1 0x1 DUP3 ADD SLOAD SWAP3 PUSH1 0x2 DUP4 ADD SLOAD AND SWAP1 PUSH1 0x3 DUP4 ADD SLOAD SWAP1 DUP4 ADD SLOAD SWAP2 PUSH1 0xFF PUSH1 0x6 PUSH1 0x5 DUP7 ADD SLOAD SWAP6 ADD SLOAD AND SWAP5 PUSH1 0x40 MLOAD SWAP7 DUP8 MSTORE PUSH1 0x20 DUP8 ADD MSTORE PUSH1 0x40 DUP7 ADD MSTORE PUSH1 0x60 DUP6 ADD MSTORE PUSH1 0x80 DUP5 ADD MSTORE PUSH1 0xA0 DUP4 ADD MSTORE ISZERO ISZERO PUSH1 0xC0 DUP3 ADD MSTORE RETURN JUMPDEST CALLVALUE PUSH2 0xD7C JUMPI PUSH1 0x40 CALLDATASIZE PUSH1 0x3 NOT ADD SLT PUSH2 0xD7C JUMPI PUSH2 0x22E3 PUSH2 0x4074 JUMP JUMPDEST PUSH2 0x22EB PUSH2 0x408A JUMP JUMPDEST SWAP1 PUSH1 0x1 DUP1 PUSH1 0xA0 SHL SUB DUP1 SWAP2 AND PUSH1 0x0 MSTORE PUSH1 0x12 PUSH1 0x20 MSTORE PUSH1 0x40 PUSH1 0x0 KECCAK256 SWAP2 AND PUSH1 0x0 MSTORE PUSH1 0x20 MSTORE PUSH1 0x20 PUSH1 0x40 PUSH1 0x0 KECCAK256 SLOAD PUSH1 0x40 MLOAD SWAP1 DUP2 MSTORE RETURN JUMPDEST CALLVALUE PUSH2 0xD7C JUMPI PUSH1 0x0 CALLDATASIZE PUSH1 0x3 NOT ADD SLT PUSH2 0xD7C JUMPI PUSH1 0x20 PUSH1 0xFF PUSH1 0x5 SLOAD AND PUSH1 0x40 MLOAD SWAP1 ISZERO ISZERO DUP2 MSTORE RETURN JUMPDEST POP CALLVALUE PUSH2 0xD7C JUMPI PUSH1 0x20 DUP1 PUSH1 0x3 NOT CALLDATASIZE ADD SLT PUSH2 0xD7C JUMPI DUP2 CALLDATALOAD SWAP2 PUSH2 0x236F PUSH1 0x40 MLOAD PUSH8 0xC1D4DB27733DEADE DUP5 DUP3 ADD MSTORE DUP4 DUP2 MSTORE PUSH2 0x42C8 JUMP JUMPDEST PUSH2 0x2377 PUSH2 0x40D5 JUMP JUMPDEST PUSH2 0x2392 PUSH1 0x40 MLOAD PUSH8 0x3F71E24EE9E3C601 DUP5 DUP3 ADD MSTORE DUP4 DUP2 MSTORE PUSH2 0x42C8 JUMP JUMPDEST PUSH2 0x23AD PUSH1 0x40 MLOAD PUSH8 0xF40FDEC6121AD049 DUP5 DUP3 ADD MSTORE DUP4 DUP2 MSTORE PUSH2 0x42C8 JUMP JUMPDEST PUSH2 0x23C8 PUSH1 0x40 MLOAD PUSH8 0x94E8E700ED64784A DUP5 DUP3 ADD MSTORE DUP4 DUP2 MSTORE PUSH2 0x42C8 JUMP JUMPDEST PUSH2 0x23E3 PUSH1 0x40 MLOAD PUSH8 0x9841BCD657877D45 DUP5 DUP3 ADD MSTORE DUP4 DUP2 MSTORE PUSH2 0x42C8 JUMP JUMPDEST PUSH1 0x7 SLOAD DUP4 LT PUSH2 0x240E JUMPI POP PUSH2 0x2409 SWAP1 PUSH1 0x40 MLOAD SWAP1 PUSH8 0x5434CCA35C1559C9 DUP2 DUP4 ADD MSTORE DUP2 MSTORE PUSH2 0x42C8 JUMP JUMPDEST PUSH1 0x9 SSTORE STOP JUMPDEST PUSH1 0x64 SWAP2 PUSH1 0x40 MLOAD SWAP2 PUSH3 0x461BCD PUSH1 0xE5 SHL DUP4 MSTORE DUP3 ADD MSTORE PUSH1 0x11 PUSH1 0x24 DUP3 ADD MSTORE PUSH17 0x13585E0818995B1BDDC8191959985D5B1D PUSH1 0x7A SHL PUSH1 0x44 DUP3 ADD MSTORE REVERT JUMPDEST POP CALLVALUE PUSH2 0xD7C JUMPI PUSH1 0x20 CALLDATASIZE PUSH1 0x3 NOT ADD SLT PUSH2 0xD7C JUMPI PUSH2 0x245E PUSH2 0x4074 JUMP JUMPDEST SWAP1 PUSH2 0x247C PUSH1 0x40 MLOAD PUSH8 0x91E05D030980850E PUSH1 0x20 DUP3 ADD MSTORE PUSH1 0x20 DUP2 MSTORE PUSH2 0x42C8 JUMP JUMPDEST PUSH2 0x2484 PUSH2 0x5A20 JUMP JUMPDEST PUSH2 0x24A1 PUSH1 0x40 MLOAD PUSH8 0xA37EDCCEA2C8FCC8 PUSH1 0x20 DUP3 ADD MSTORE PUSH1 0x20 DUP2 MSTORE PUSH2 0x42C8 JUMP JUMPDEST PUSH2 0x24BE PUSH1 0x40 MLOAD PUSH8 0x9E1D9A052563C927 PUSH1 0x20 DUP3 ADD MSTORE PUSH1 0x20 DUP2 MSTORE PUSH2 0x42C8 JUMP JUMPDEST PUSH2 0x24DB PUSH1 0x40 MLOAD PUSH8 0x931389147291891E PUSH1 0x20 DUP3 ADD MSTORE PUSH1 0x20 DUP2 MSTORE PUSH2 0x42C8 JUMP JUMPDEST PUSH2 0x24F8 PUSH1 0x40 MLOAD PUSH8 0xEB42C7021465F90C PUSH1 0x20 DUP3 ADD MSTORE PUSH1 0x20 DUP2 MSTORE PUSH2 0x42C8 JUMP JUMPDEST PUSH1 0x1 DUP1 PUSH1 0xA0 SHL SUB DUP3 AND PUSH1 0x0 MSTORE PUSH1 0xC PUSH1 0x20 MSTORE PUSH1 0x40 PUSH1 0x0 KECCAK256 SWAP1 PUSH2 0x252C PUSH1 0x40 MLOAD PUSH8 0xC7CCF7653182D094 PUSH1 0x20 DUP3 ADD MSTORE PUSH1 0x20 DUP2 MSTORE PUSH2 0x42C8 JUMP JUMPDEST PUSH2 0x2549 PUSH1 0x40 MLOAD PUSH8 0xEAE5D45C9708AE43 PUSH1 0x20 DUP3 ADD MSTORE PUSH1 0x20 DUP2 MSTORE PUSH2 0x42C8 JUMP JUMPDEST PUSH2 0x2566 PUSH1 0x40 MLOAD PUSH8 0xE47592B00A504C75 PUSH1 0x20 DUP3 ADD MSTORE PUSH1 0x20 DUP2 MSTORE PUSH2 0x42C8 JUMP JUMPDEST DUP2 SLOAD DUP1 ISZERO PUSH2 0x2F09 JUMPI PUSH2 0x258B PUSH1 0x40 MLOAD PUSH8 0x4A47C952C926F9B2 PUSH1 0x20 DUP3 ADD MSTORE PUSH1 0x20 DUP2 MSTORE PUSH2 0x42C8 JUMP JUMPDEST PUSH2 0x25A8 PUSH1 0x40 MLOAD PUSH8 0xB0967A3931FED033 PUSH1 0x20 DUP3 ADD MSTORE PUSH1 0x20 DUP2 MSTORE PUSH2 0x42C8 JUMP JUMPDEST PUSH2 0x25C5 PUSH1 0x40 MLOAD PUSH8 0xBCEB9CFE903C7968 PUSH1 0x20 DUP3 ADD MSTORE PUSH1 0x20 DUP2 MSTORE PUSH2 0x42C8 JUMP JUMPDEST PUSH2 0x25E2 PUSH1 0x40 MLOAD PUSH8 0xC2121D5ACEF1289C PUSH1 0x20 DUP3 ADD MSTORE PUSH1 0x20 DUP2 MSTORE PUSH2 0x42C8 JUMP JUMPDEST TIMESTAMP LT PUSH2 0x2EC5 JUMPI PUSH2 0x2605 PUSH1 0x40 MLOAD PUSH8 0x65C757C5522F0180 PUSH1 0x20 DUP3 ADD MSTORE PUSH1 0x20 DUP2 MSTORE PUSH2 0x42C8 JUMP JUMPDEST PUSH2 0x2622 PUSH1 0x40 MLOAD PUSH8 0x5AB89ECFB39C1C5 PUSH1 0x20 DUP3 ADD MSTORE PUSH1 0x20 DUP2 MSTORE PUSH2 0x42C8 JUMP JUMPDEST PUSH2 0x263F PUSH1 0x40 MLOAD PUSH8 0x54F796635B310CC0 PUSH1 0x20 DUP3 ADD MSTORE PUSH1 0x20 DUP2 MSTORE PUSH2 0x42C8 JUMP JUMPDEST PUSH2 0x265C PUSH1 0x40 MLOAD PUSH8 0x2B7DB0ED5744C9A7 PUSH1 0x20 DUP3 ADD MSTORE PUSH1 0x20 DUP2 MSTORE PUSH2 0x42C8 JUMP JUMPDEST PUSH1 0xFF PUSH1 0x6 DUP4 ADD SLOAD AND PUSH2 0x2E89 JUMPI POP PUSH2 0x2686 PUSH1 0x40 MLOAD PUSH8 0x4FD96E3FCE133B29 PUSH1 0x20 DUP3 ADD MSTORE PUSH1 0x20 DUP2 MSTORE PUSH2 0x42C8 JUMP JUMPDEST PUSH2 0x26A3 PUSH1 0x40 MLOAD PUSH8 0x35A23CE870A5D1D5 PUSH1 0x20 DUP3 ADD MSTORE PUSH1 0x20 DUP2 MSTORE PUSH2 0x42C8 JUMP JUMPDEST PUSH2 0x26C0 PUSH1 0x40 MLOAD PUSH8 0xDFE92852A44F8411 PUSH1 0x20 DUP3 ADD MSTORE PUSH1 0x20 DUP2 MSTORE PUSH2 0x42C8 JUMP JUMPDEST PUSH1 0x5 DUP2 ADD SLOAD PUSH2 0x26E2 PUSH1 0x40 MLOAD PUSH8 0xD1958A37B3FFCE60 PUSH1 0x20 DUP3 ADD MSTORE PUSH1 0x20 DUP2 MSTORE PUSH2 0x42C8 JUMP JUMPDEST PUSH2 0x26FF PUSH1 0x40 MLOAD PUSH8 0x5EF94AF5EE2C8425 PUSH1 0x20 DUP3 ADD MSTORE PUSH1 0x20 DUP2 MSTORE PUSH2 0x42C8 JUMP JUMPDEST DUP1 ISZERO PUSH2 0x2E6B JUMPI PUSH2 0x2722 PUSH1 0x40 MLOAD PUSH8 0x4947B166BC32A441 PUSH1 0x20 DUP3 ADD MSTORE PUSH1 0x20 DUP2 MSTORE PUSH2 0x42C8 JUMP JUMPDEST PUSH2 0x273F PUSH1 0x40 MLOAD PUSH8 0x7C1CF24F6315D1C8 PUSH1 0x20 DUP3 ADD MSTORE PUSH1 0x20 DUP2 MSTORE PUSH2 0x42C8 JUMP JUMPDEST PUSH2 0x275C PUSH1 0x40 MLOAD PUSH8 0xED96AAE4C1EA001A PUSH1 0x20 DUP3 ADD MSTORE PUSH1 0x20 DUP2 MSTORE PUSH2 0x42C8 JUMP JUMPDEST PUSH1 0x3 SHR PUSH2 0x277C PUSH1 0x40 MLOAD PUSH8 0x5B16286902AFCEC5 PUSH1 0x20 DUP3 ADD MSTORE PUSH1 0x20 DUP2 MSTORE PUSH2 0x42C8 JUMP JUMPDEST PUSH2 0x2799 PUSH1 0x40 MLOAD PUSH8 0x94873D77DCC85042 PUSH1 0x20 DUP3 ADD MSTORE PUSH1 0x20 DUP2 MSTORE PUSH2 0x42C8 JUMP JUMPDEST DUP1 ISZERO PUSH2 0x2E48 JUMPI PUSH2 0x27BC PUSH1 0x40 MLOAD PUSH8 0x94B88B16A0D308D6 PUSH1 0x20 DUP3 ADD MSTORE PUSH1 0x20 DUP2 MSTORE PUSH2 0x42C8 JUMP JUMPDEST PUSH2 0x27D9 PUSH1 0x40 MLOAD PUSH8 0x6F02C2EABA4D2CE5 PUSH1 0x20 DUP3 ADD MSTORE PUSH1 0x20 DUP2 MSTORE PUSH2 0x42C8 JUMP JUMPDEST PUSH1 0x20 PUSH1 0x2 DUP4 ADD PUSH1 0x1 DUP1 PUSH1 0xA0 SHL SUB DUP2 SLOAD AND PUSH1 0x0 MSTORE PUSH1 0x10 DUP3 MSTORE PUSH1 0x40 PUSH1 0x0 KECCAK256 PUSH2 0x2800 DUP5 DUP3 SLOAD PUSH2 0x4434 JUMP JUMPDEST SWAP1 SSTORE PUSH2 0x281D PUSH1 0x40 MLOAD PUSH8 0x469B1E74B43EE8FA DUP5 DUP3 ADD MSTORE DUP4 DUP2 MSTORE PUSH2 0x42C8 JUMP JUMPDEST PUSH1 0x1 DUP1 PUSH1 0xA0 SHL SUB DUP2 SLOAD AND PUSH1 0x0 MSTORE PUSH1 0x10 DUP3 MSTORE TIMESTAMP PUSH1 0x1 PUSH1 0x40 PUSH1 0x0 KECCAK256 ADD SSTORE PUSH2 0x2853 PUSH1 0x40 MLOAD PUSH8 0x10F36BD42A9AA072 DUP5 DUP3 ADD MSTORE DUP4 DUP2 MSTORE PUSH2 0x42C8 JUMP JUMPDEST PUSH1 0x1 DUP1 PUSH1 0xA0 SHL SUB DUP6 AND PUSH1 0x0 MSTORE PUSH1 0x10 DUP3 MSTORE PUSH1 0x40 PUSH1 0x0 KECCAK256 PUSH2 0x2873 DUP5 DUP3 SLOAD PUSH2 0x4434 JUMP JUMPDEST SWAP1 SSTORE PUSH2 0x2890 PUSH1 0x40 MLOAD PUSH8 0x2CE534D50DD2D9E DUP5 DUP3 ADD MSTORE DUP4 DUP2 MSTORE PUSH2 0x42C8 JUMP JUMPDEST PUSH1 0x1 DUP1 PUSH1 0xA0 SHL SUB DUP6 AND PUSH1 0x0 MSTORE PUSH1 0x10 DUP3 MSTORE TIMESTAMP PUSH1 0x1 PUSH1 0x40 PUSH1 0x0 KECCAK256 ADD SSTORE PUSH2 0x28C5 PUSH1 0x40 MLOAD PUSH8 0xA9E8FA354C8973A4 DUP5 DUP3 ADD MSTORE DUP4 DUP2 MSTORE PUSH2 0x42C8 JUMP JUMPDEST PUSH2 0x28E0 PUSH1 0x40 MLOAD PUSH8 0xDDE50AB956EDFC42 DUP5 DUP3 ADD MSTORE DUP4 DUP2 MSTORE PUSH2 0x42C8 JUMP JUMPDEST SLOAD PUSH1 0x40 MLOAD DUP4 DUP2 MSTORE PUSH32 0xFDFA38DC30C58B0662200654EF296C1527ABBF34B03B2F908AF130D2A35DB878 SWAP3 PUSH1 0x1 PUSH1 0x1 PUSH1 0xA0 SHL SUB SWAP1 SWAP3 AND SWAP2 DUP4 SWAP2 LOG2 PUSH2 0x2935 PUSH1 0x40 MLOAD PUSH8 0xB8BAE17B737BEFAD PUSH1 0x20 DUP3 ADD MSTORE PUSH1 0x20 DUP2 MSTORE PUSH2 0x42C8 JUMP JUMPDEST PUSH2 0x2952 PUSH1 0x40 MLOAD PUSH8 0x5482D927C8246D27 PUSH1 0x20 DUP3 ADD MSTORE PUSH1 0x20 DUP2 MSTORE PUSH2 0x42C8 JUMP JUMPDEST PUSH1 0x40 MLOAD SWAP2 DUP3 MSTORE PUSH1 0x1 PUSH1 0x1 PUSH1 0xA0 SHL SUB DUP5 AND SWAP2 PUSH1 0x20 SWAP1 LOG2 JUMPDEST PUSH2 0x2985 PUSH1 0x40 MLOAD PUSH8 0x9A893B8FB44B5F53 PUSH1 0x20 DUP3 ADD MSTORE PUSH1 0x20 DUP2 MSTORE PUSH2 0x42C8 JUMP JUMPDEST PUSH2 0x29A2 PUSH1 0x40 MLOAD PUSH8 0xE954B48192F36D43 PUSH1 0x20 DUP3 ADD MSTORE PUSH1 0x20 DUP2 MSTORE PUSH2 0x42C8 JUMP JUMPDEST PUSH2 0x29BF PUSH1 0x40 MLOAD PUSH8 0x39D76F42160B2D50 PUSH1 0x20 DUP3 ADD MSTORE PUSH1 0x20 DUP2 MSTORE PUSH2 0x42C8 JUMP JUMPDEST PUSH2 0x29DC PUSH1 0x40 MLOAD PUSH8 0x1D92A4E4089A2DB8 PUSH1 0x20 DUP3 ADD MSTORE PUSH1 0x20 DUP2 MSTORE PUSH2 0x42C8 JUMP JUMPDEST PUSH2 0x29F9 PUSH1 0x40 MLOAD PUSH8 0xE37FA76E7F4EEF57 PUSH1 0x20 DUP3 ADD MSTORE PUSH1 0x20 DUP2 MSTORE PUSH2 0x42C8 JUMP JUMPDEST PUSH1 0x1 DUP1 PUSH1 0xA0 SHL SUB DUP3 AND PUSH1 0x0 MSTORE PUSH1 0xF PUSH1 0x20 MSTORE PUSH1 0x2 PUSH1 0x40 PUSH1 0x0 KECCAK256 PUSH2 0x2A2E PUSH1 0x40 MLOAD PUSH8 0x3BD6BD9077BB500E PUSH1 0x20 DUP3 ADD MSTORE PUSH1 0x20 DUP2 MSTORE PUSH2 0x42C8 JUMP JUMPDEST PUSH2 0x2A4B PUSH1 0x40 MLOAD PUSH8 0x7975233312424768 PUSH1 0x20 DUP3 ADD MSTORE PUSH1 0x20 DUP2 MSTORE PUSH2 0x42C8 JUMP JUMPDEST ADD DUP1 SLOAD PUSH2 0x2E25 JUMPI PUSH2 0x2A6F PUSH1 0x40 MLOAD PUSH8 0x52B37C985A35EEA8 PUSH1 0x20 DUP3 ADD MSTORE PUSH1 0x20 DUP2 MSTORE PUSH2 0x42C8 JUMP JUMPDEST PUSH2 0x2A8C PUSH1 0x40 MLOAD PUSH8 0xB4C0B4926D6F1633 PUSH1 0x20 DUP3 ADD MSTORE PUSH1 0x20 DUP2 MSTORE PUSH2 0x42C8 JUMP JUMPDEST TIMESTAMP SWAP1 SSTORE JUMPDEST PUSH2 0x2AAD PUSH1 0x40 MLOAD PUSH8 0xA6E02478D938D5E3 PUSH1 0x20 DUP3 ADD MSTORE PUSH1 0x20 DUP2 MSTORE PUSH2 0x42C8 JUMP JUMPDEST PUSH2 0x2ACA PUSH1 0x40 MLOAD PUSH8 0xCAF8E6D0AAC3B507 PUSH1 0x20 DUP3 ADD MSTORE PUSH1 0x20 DUP2 MSTORE PUSH2 0x42C8 JUMP JUMPDEST PUSH2 0x2AE7 PUSH1 0x40 MLOAD PUSH8 0xA8C51886A7FE69A3 PUSH1 0x20 DUP3 ADD MSTORE PUSH1 0x20 DUP2 MSTORE PUSH2 0x42C8 JUMP JUMPDEST PUSH2 0x2B04 PUSH1 0x40 MLOAD PUSH8 0xFBDDB7CC13265B69 PUSH1 0x20 DUP3 ADD MSTORE PUSH1 0x20 DUP2 MSTORE PUSH2 0x42C8 JUMP JUMPDEST PUSH2 0x2B21 PUSH1 0x40 MLOAD PUSH8 0xB7C0A631CCB59F04 PUSH1 0x20 DUP3 ADD MSTORE PUSH1 0x20 DUP2 MSTORE PUSH2 0x42C8 JUMP JUMPDEST PUSH2 0x2B2A DUP3 PUSH2 0x6180 JUMP JUMPDEST PUSH1 0x40 MLOAD SWAP1 DUP2 MSTORE PUSH1 0x1 PUSH1 0x1 PUSH1 0xA0 SHL SUB DUP4 AND SWAP1 PUSH1 0x0 DUP1 MLOAD PUSH1 0x20 PUSH2 0x692E DUP4 CODECOPY DUP2 MLOAD SWAP2 MSTORE SWAP1 PUSH1 0x20 SWAP1 LOG2 PUSH2 0x2B6C PUSH1 0x40 MLOAD PUSH8 0xA67AB7D3D9097340 PUSH1 0x20 DUP3 ADD MSTORE PUSH1 0x20 DUP2 MSTORE PUSH2 0x42C8 JUMP JUMPDEST PUSH2 0x2B89 PUSH1 0x40 MLOAD PUSH8 0xE535AC6447162A5B PUSH1 0x20 DUP3 ADD MSTORE PUSH1 0x20 DUP2 MSTORE PUSH2 0x42C8 JUMP JUMPDEST PUSH1 0x2 PUSH1 0x1 DUP1 PUSH1 0xA0 SHL SUB SWAP2 ADD SLOAD AND PUSH2 0x2BB3 PUSH1 0x40 MLOAD PUSH8 0x39D76F42160B2D50 PUSH1 0x20 DUP3 ADD MSTORE PUSH1 0x20 DUP2 MSTORE PUSH2 0x42C8 JUMP JUMPDEST PUSH2 0x2BD0 PUSH1 0x40 MLOAD PUSH8 0x1D92A4E4089A2DB8 PUSH1 0x20 DUP3 ADD MSTORE PUSH1 0x20 DUP2 MSTORE PUSH2 0x42C8 JUMP JUMPDEST PUSH2 0x2BED PUSH1 0x40 MLOAD PUSH8 0xE37FA76E7F4EEF57 PUSH1 0x20 DUP3 ADD MSTORE PUSH1 0x20 DUP2 MSTORE PUSH2 0x42C8 JUMP JUMPDEST DUP1 PUSH1 0x0 MSTORE PUSH1 0xF PUSH1 0x20 MSTORE PUSH1 0x2 PUSH1 0x40 PUSH1 0x0 KECCAK256 PUSH2 0x2C1A PUSH1 0x40 MLOAD PUSH8 0x3BD6BD9077BB500E PUSH1 0x20 DUP3 ADD MSTORE PUSH1 0x20 DUP2 MSTORE PUSH2 0x42C8 JUMP JUMPDEST PUSH2 0x2C37 PUSH1 0x40 MLOAD PUSH8 0x7975233312424768 PUSH1 0x20 DUP3 ADD MSTORE PUSH1 0x20 DUP2 MSTORE PUSH2 0x42C8 JUMP JUMPDEST ADD DUP1 SLOAD PUSH2 0x2E02 JUMPI PUSH2 0x2C5B PUSH1 0x40 MLOAD PUSH8 0x52B37C985A35EEA8 PUSH1 0x20 DUP3 ADD MSTORE PUSH1 0x20 DUP2 MSTORE PUSH2 0x42C8 JUMP JUMPDEST PUSH2 0x2C78 PUSH1 0x40 MLOAD PUSH8 0xB4C0B4926D6F1633 PUSH1 0x20 DUP3 ADD MSTORE PUSH1 0x20 DUP2 MSTORE PUSH2 0x42C8 JUMP JUMPDEST TIMESTAMP SWAP1 SSTORE JUMPDEST PUSH2 0x2C99 PUSH1 0x40 MLOAD PUSH8 0xA6E02478D938D5E3 PUSH1 0x20 DUP3 ADD MSTORE PUSH1 0x20 DUP2 MSTORE PUSH2 0x42C8 JUMP JUMPDEST PUSH2 0x2CB6 PUSH1 0x40 MLOAD PUSH8 0xCAF8E6D0AAC3B507 PUSH1 0x20 DUP3 ADD MSTORE PUSH1 0x20 DUP2 MSTORE PUSH2 0x42C8 JUMP JUMPDEST PUSH2 0x2CD3 PUSH1 0x40 MLOAD PUSH8 0xA8C51886A7FE69A3 PUSH1 0x20 DUP3 ADD MSTORE PUSH1 0x20 DUP2 MSTORE PUSH2 0x42C8 JUMP JUMPDEST PUSH2 0x2CF0 PUSH1 0x40 MLOAD PUSH8 0xFBDDB7CC13265B69 PUSH1 0x20 DUP3 ADD MSTORE PUSH1 0x20 DUP2 MSTORE PUSH2 0x42C8 JUMP JUMPDEST PUSH2 0x2D0D PUSH1 0x40 MLOAD PUSH8 0xB7C0A631CCB59F04 PUSH1 0x20 DUP3 ADD MSTORE PUSH1 0x20 DUP2 MSTORE PUSH2 0x42C8 JUMP JUMPDEST PUSH1 0x0 DUP1 MLOAD PUSH1 0x20 PUSH2 0x692E DUP4 CODECOPY DUP2 MLOAD SWAP2 MSTORE PUSH1 0x20 PUSH2 0x2D27 DUP4 PUSH2 0x6180 JUMP JUMPDEST PUSH1 0x40 MLOAD SWAP1 DUP2 MSTORE LOG2 PUSH2 0x2D4B PUSH1 0x40 MLOAD PUSH8 0x5F9C278E70471F76 PUSH1 0x20 DUP3 ADD MSTORE PUSH1 0x20 DUP2 MSTORE PUSH2 0x42C8 JUMP JUMPDEST PUSH1 0x1 DUP1 PUSH1 0xA0 SHL SUB DUP2 AND PUSH1 0x0 MSTORE PUSH1 0xC PUSH1 0x20 MSTORE PUSH2 0x2D8E PUSH1 0x40 PUSH1 0x0 KECCAK256 PUSH1 0x6 PUSH1 0x0 SWAP2 DUP3 DUP2 SSTORE DUP3 PUSH1 0x1 DUP3 ADD SSTORE DUP3 PUSH1 0x2 DUP3 ADD SSTORE DUP3 PUSH1 0x3 DUP3 ADD SSTORE DUP3 PUSH1 0x4 DUP3 ADD SSTORE DUP3 PUSH1 0x5 DUP3 ADD SSTORE ADD SSTORE JUMP JUMPDEST PUSH2 0x2DAB PUSH1 0x40 MLOAD PUSH8 0x3E780238272D7DB3 PUSH1 0x20 DUP3 ADD MSTORE PUSH1 0x20 DUP2 MSTORE PUSH2 0x42C8 JUMP JUMPDEST PUSH2 0x2DC8 PUSH1 0x40 MLOAD PUSH8 0x5602F8F30B8375B1 PUSH1 0x20 DUP3 ADD MSTORE PUSH1 0x20 DUP2 MSTORE PUSH2 0x42C8 JUMP JUMPDEST PUSH1 0x40 MLOAD TIMESTAMP DUP2 MSTORE PUSH1 0x1 PUSH1 0x1 PUSH1 0xA0 SHL SUB SWAP1 SWAP2 AND SWAP1 PUSH32 0x23BD7F8191A147E373DEF338D5A76DCE96B4D2F7D15A43ECA83E3EE6E7506143 SWAP1 PUSH1 0x20 SWAP1 LOG2 STOP JUMPDEST POP PUSH2 0x2E20 PUSH1 0x40 MLOAD PUSH8 0x6F826C5FB102114D PUSH1 0x20 DUP3 ADD MSTORE PUSH1 0x20 DUP2 MSTORE PUSH2 0x42C8 JUMP JUMPDEST PUSH2 0x2C7C JUMP JUMPDEST POP PUSH2 0x2E43 PUSH1 0x40 MLOAD PUSH8 0x6F826C5FB102114D PUSH1 0x20 DUP3 ADD MSTORE PUSH1 0x20 DUP2 MSTORE PUSH2 0x42C8 JUMP JUMPDEST PUSH2 0x2A90 JUMP JUMPDEST POP PUSH2 0x2E66 PUSH1 0x40 MLOAD PUSH8 0x5B2BA6D4DF24AA6 PUSH1 0x20 DUP3 ADD MSTORE PUSH1 0x20 DUP2 MSTORE PUSH2 0x42C8 JUMP JUMPDEST PUSH2 0x2968 JUMP JUMPDEST POP PUSH2 0x2E66 PUSH1 0x40 MLOAD PUSH8 0x578CB93D81831323 PUSH1 0x20 DUP3 ADD MSTORE PUSH1 0x20 DUP2 MSTORE PUSH2 0x42C8 JUMP JUMPDEST PUSH1 0x64 SWAP1 PUSH1 0x20 PUSH1 0x40 MLOAD SWAP2 PUSH3 0x461BCD PUSH1 0xE5 SHL DUP4 MSTORE DUP3 ADD MSTORE PUSH1 0x15 PUSH1 0x24 DUP3 ADD MSTORE PUSH21 0x151C985B9CD9995C881DD85CC81C995D995C9CD959 PUSH1 0x5A SHL PUSH1 0x44 DUP3 ADD MSTORE REVERT JUMPDEST PUSH1 0x64 SWAP1 PUSH1 0x20 PUSH1 0x40 MLOAD SWAP2 PUSH3 0x461BCD PUSH1 0xE5 SHL DUP4 MSTORE DUP3 ADD MSTORE PUSH1 0x18 PUSH1 0x24 DUP3 ADD MSTORE PUSH32 0x48616C664C696665206E6F742065787069726564207965740000000000000000 PUSH1 0x44 DUP3 ADD MSTORE REVERT JUMPDEST PUSH1 0x40 MLOAD PUSH3 0x461BCD PUSH1 0xE5 SHL DUP2 MSTORE PUSH1 0x20 DUP2 DUP5 ADD MSTORE PUSH1 0x17 PUSH1 0x24 DUP3 ADD MSTORE PUSH32 0x4E6F20616374697665207472616E736665722064617461000000000000000000 PUSH1 0x44 DUP3 ADD MSTORE PUSH1 0x64 SWAP1 REVERT JUMPDEST POP CALLVALUE PUSH2 0xD7C JUMPI PUSH2 0x2F5C CALLDATASIZE PUSH2 0x40A0 JUMP JUMPDEST PUSH1 0x40 SWAP3 SWAP2 SWAP3 MLOAD SWAP2 PUSH2 0x2F7E PUSH1 0x20 SWAP4 PUSH8 0x5CFDEBC2CF5C0A9C DUP6 DUP3 ADD MSTORE DUP5 DUP2 MSTORE PUSH2 0x42C8 JUMP JUMPDEST PUSH2 0x2F86 PUSH2 0x40D5 JUMP JUMPDEST PUSH2 0x2FA1 PUSH1 0x40 MLOAD PUSH8 0x415750AFF30CFF25 DUP6 DUP3 ADD MSTORE DUP5 DUP2 MSTORE PUSH2 0x42C8 JUMP JUMPDEST PUSH2 0x2FBC PUSH1 0x40 MLOAD PUSH8 0x6E0664D55C437D03 DUP6 DUP3 ADD MSTORE DUP5 DUP2 MSTORE PUSH2 0x42C8 JUMP JUMPDEST PUSH2 0x2FD7 PUSH1 0x40 MLOAD PUSH8 0x5C2D86DB51D816C6 DUP6 DUP3 ADD MSTORE DUP5 DUP2 MSTORE PUSH2 0x42C8 JUMP JUMPDEST PUSH2 0x2FF2 PUSH1 0x40 MLOAD PUSH8 0x4AC3B031ED1C7E4D DUP6 DUP3 ADD MSTORE DUP5 DUP2 MSTORE PUSH2 0x42C8 JUMP JUMPDEST PUSH2 0x300D PUSH1 0x40 MLOAD PUSH8 0x7BAE3AC58EBABA55 DUP6 DUP3 ADD MSTORE DUP5 DUP2 MSTORE PUSH2 0x42C8 JUMP JUMPDEST PUSH1 0x1 PUSH1 0x1 PUSH1 0xA0 SHL SUB SWAP1 DUP2 AND SWAP4 PUSH2 0x3024 DUP6 ISZERO ISZERO PUSH2 0x6849 JUMP JUMPDEST PUSH2 0x303F PUSH1 0x40 MLOAD PUSH8 0x184DA28C83184A45 DUP7 DUP3 ADD MSTORE DUP6 DUP2 MSTORE PUSH2 0x42C8 JUMP JUMPDEST PUSH2 0x305A PUSH1 0x40 MLOAD PUSH8 0x94D5EF299C86069A DUP7 DUP3 ADD MSTORE DUP6 DUP2 MSTORE PUSH2 0x42C8 JUMP JUMPDEST PUSH2 0x3075 PUSH1 0x40 MLOAD PUSH8 0x4BE5DD573FC7E464 DUP7 DUP3 ADD MSTORE DUP6 DUP2 MSTORE PUSH2 0x42C8 JUMP JUMPDEST PUSH2 0x3090 PUSH1 0x40 MLOAD PUSH8 0x8C3CC096D9E93863 DUP7 DUP3 ADD MSTORE DUP6 DUP2 MSTORE PUSH2 0x42C8 JUMP JUMPDEST AND SWAP4 PUSH2 0x309D DUP6 ISZERO ISZERO PUSH2 0x6895 JUMP JUMPDEST PUSH2 0x30B8 PUSH1 0x40 MLOAD PUSH8 0x4B2331900B32F954 DUP6 DUP3 ADD MSTORE DUP5 DUP2 MSTORE PUSH2 0x42C8 JUMP JUMPDEST PUSH2 0x30D3 PUSH1 0x40 MLOAD PUSH8 0x9ACBEF12ECE4622A DUP6 DUP3 ADD MSTORE DUP5 DUP2 MSTORE PUSH2 0x42C8 JUMP JUMPDEST PUSH2 0x30EE PUSH1 0x40 MLOAD PUSH8 0x60DEA768A6F253FC DUP6 DUP3 ADD MSTORE DUP5 DUP2 MSTORE PUSH2 0x42C8 JUMP JUMPDEST PUSH2 0x3109 PUSH1 0x40 MLOAD PUSH8 0x73416037DD79FB2F DUP6 DUP3 ADD MSTORE DUP5 DUP2 MSTORE PUSH2 0x42C8 JUMP JUMPDEST PUSH2 0x3115 DUP6 DUP6 EQ ISZERO PUSH2 0x68E1 JUMP JUMPDEST PUSH2 0x3130 PUSH1 0x40 MLOAD PUSH8 0x2F9FF88C02D35A6D DUP6 DUP3 ADD MSTORE DUP5 DUP2 MSTORE PUSH2 0x42C8 JUMP JUMPDEST PUSH2 0x314B PUSH1 0x40 MLOAD PUSH8 0xCCF3E6A1FAA26328 DUP6 DUP3 ADD MSTORE DUP5 DUP2 MSTORE PUSH2 0x42C8 JUMP JUMPDEST PUSH2 0x3166 PUSH1 0x40 MLOAD PUSH8 0x7D7E45270F34E167 DUP6 DUP3 ADD MSTORE DUP5 DUP2 MSTORE PUSH2 0x42C8 JUMP JUMPDEST PUSH2 0x3181 PUSH1 0x40 MLOAD PUSH8 0xD5ADDC88854A894A DUP6 DUP3 ADD MSTORE DUP5 DUP2 MSTORE PUSH2 0x42C8 JUMP JUMPDEST DUP2 ISZERO PUSH2 0x3357 JUMPI PUSH2 0x31A2 PUSH1 0x40 MLOAD PUSH8 0xA10F2530E2834575 DUP6 DUP3 ADD MSTORE DUP5 DUP2 MSTORE PUSH2 0x42C8 JUMP JUMPDEST PUSH2 0x31BD PUSH1 0x40 MLOAD PUSH8 0xC5C1493F6E3CE697 DUP6 DUP3 ADD MSTORE DUP5 DUP2 MSTORE PUSH2 0x42C8 JUMP JUMPDEST PUSH2 0x31D8 PUSH1 0x40 MLOAD PUSH8 0x82EB721F0500B511 DUP6 DUP3 ADD MSTORE DUP5 DUP2 MSTORE PUSH2 0x42C8 JUMP JUMPDEST DUP4 PUSH1 0x0 MSTORE PUSH1 0x12 DUP4 MSTORE PUSH1 0x40 PUSH1 0x0 KECCAK256 DUP6 PUSH1 0x0 MSTORE DUP4 MSTORE PUSH1 0x40 PUSH1 0x0 KECCAK256 SLOAD SWAP1 PUSH2 0x320D PUSH1 0x40 MLOAD PUSH8 0xA109DC0763D3BE09 DUP7 DUP3 ADD MSTORE DUP6 DUP2 MSTORE PUSH2 0x42C8 JUMP JUMPDEST PUSH2 0x3228 PUSH1 0x40 MLOAD PUSH8 0xD7B747CAF0B2F84 DUP7 DUP3 ADD MSTORE DUP6 DUP2 MSTORE PUSH2 0x42C8 JUMP JUMPDEST PUSH2 0x3243 PUSH1 0x40 MLOAD PUSH8 0xDECE18D831396F73 DUP7 DUP3 ADD MSTORE DUP6 DUP2 MSTORE PUSH2 0x42C8 JUMP JUMPDEST DUP2 DUP4 GT PUSH2 0x32FD JUMPI POP SWAP1 PUSH2 0x32AE DUP2 PUSH32 0x59EE8F52C52E61B33B5C6A4F2311C6855F389B6D4667BC980AAA3EB4FA8D7B7F SWAP5 SWAP4 PUSH2 0x328E PUSH1 0x40 MLOAD PUSH8 0x27630211ED80E7DD DUP8 DUP3 ADD MSTORE DUP7 DUP2 MSTORE PUSH2 0x42C8 JUMP JUMPDEST PUSH2 0x32A9 PUSH1 0x40 MLOAD PUSH8 0x760812F099BFABCE DUP8 DUP3 ADD MSTORE DUP7 DUP2 MSTORE PUSH2 0x42C8 JUMP JUMPDEST PUSH2 0x4418 JUMP JUMPDEST DUP5 PUSH1 0x0 MSTORE PUSH1 0x12 DUP4 MSTORE PUSH1 0x40 PUSH1 0x0 KECCAK256 DUP7 PUSH1 0x0 MSTORE DUP4 MSTORE PUSH1 0x40 PUSH1 0x0 KECCAK256 SSTORE PUSH2 0x32E2 PUSH1 0x40 MLOAD PUSH8 0x84B97F48FD6A4378 DUP5 DUP3 ADD MSTORE DUP4 DUP2 MSTORE PUSH2 0x42C8 JUMP JUMPDEST PUSH2 0x10AB PUSH1 0x40 MLOAD PUSH8 0xFBC30EE90B394731 DUP5 DUP3 ADD MSTORE DUP4 DUP2 MSTORE PUSH2 0x42C8 JUMP JUMPDEST PUSH1 0x40 MLOAD PUSH3 0x461BCD PUSH1 0xE5 SHL DUP2 MSTORE SWAP1 DUP2 ADD DUP5 SWAP1 MSTORE PUSH1 0x2D PUSH1 0x24 DUP3 ADD MSTORE PUSH32 0x416D6F756E7420746F20636C6561722065786365656473206F75747374616E64 PUSH1 0x44 DUP3 ADD MSTORE PUSH13 0x696E67206C696162696C697479 PUSH1 0x98 SHL PUSH1 0x64 DUP3 ADD MSTORE PUSH1 0x84 SWAP1 REVERT JUMPDEST PUSH1 0x64 SWAP1 DUP4 DUP1 PUSH1 0x40 MLOAD SWAP3 PUSH3 0x461BCD PUSH1 0xE5 SHL DUP5 MSTORE DUP4 ADD MSTORE PUSH1 0x24 DUP3 ADD MSTORE PUSH32 0x416D6F756E7420746F20636C656172206D75737420626520706F736974697665 PUSH1 0x44 DUP3 ADD MSTORE REVERT JUMPDEST CALLVALUE PUSH2 0xD7C JUMPI PUSH1 0x0 CALLDATASIZE PUSH1 0x3 NOT ADD SLT PUSH2 0xD7C JUMPI PUSH1 0x20 PUSH1 0x7 SLOAD PUSH1 0x40 MLOAD SWAP1 DUP2 MSTORE RETURN JUMPDEST POP CALLVALUE PUSH2 0xD7C JUMPI PUSH1 0x20 DUP1 PUSH1 0x3 NOT CALLDATASIZE ADD SLT PUSH2 0xD7C JUMPI PUSH2 0x34D6 PUSH2 0x1188 SWAP3 CALLDATALOAD SWAP2 PUSH2 0x33EE PUSH1 0x40 MLOAD PUSH8 0x8192EC99BBA5F17A DUP4 DUP3 ADD MSTORE DUP3 DUP2 MSTORE PUSH2 0x42C8 JUMP JUMPDEST PUSH2 0x33F6 PUSH2 0x5A20 JUMP JUMPDEST PUSH2 0x3411 PUSH1 0x40 MLOAD PUSH8 0xAC964F9F48BE321B DUP4 DUP3 ADD MSTORE DUP3 DUP2 MSTORE PUSH2 0x42C8 JUMP JUMPDEST PUSH2 0x342C PUSH1 0x40 MLOAD PUSH8 0xFF4EFB30C1F3912D DUP4 DUP3 ADD MSTORE DUP3 DUP2 MSTORE PUSH2 0x42C8 JUMP JUMPDEST PUSH2 0x3447 PUSH1 0x40 MLOAD PUSH8 0x331C4595F4B238AA DUP4 DUP3 ADD MSTORE DUP3 DUP2 MSTORE PUSH2 0x42C8 JUMP JUMPDEST PUSH2 0x3462 PUSH1 0x40 MLOAD PUSH8 0x5DA452F1A94E4F3E DUP4 DUP3 ADD MSTORE DUP3 DUP2 MSTORE PUSH2 0x42C8 JUMP JUMPDEST PUSH2 0x347D PUSH1 0x40 MLOAD PUSH8 0x8C8C80D8169893C9 DUP4 DUP3 ADD MSTORE DUP3 DUP2 MSTORE PUSH2 0x42C8 JUMP JUMPDEST PUSH2 0x3488 DUP4 ISZERO ISZERO PUSH2 0x674F JUMP JUMPDEST PUSH2 0x34A3 PUSH1 0x40 MLOAD PUSH8 0x963F218A55A18EB3 DUP4 DUP3 ADD MSTORE DUP3 DUP2 MSTORE PUSH2 0x42C8 JUMP JUMPDEST PUSH2 0x34BE PUSH1 0x40 MLOAD PUSH8 0x870B9021026C53BB DUP4 DUP3 ADD MSTORE DUP3 DUP2 MSTORE PUSH2 0x42C8 JUMP JUMPDEST PUSH1 0x40 MLOAD SWAP1 PUSH8 0x6D8FECC0BC0D95A5 DUP2 DUP4 ADD MSTORE DUP2 MSTORE PUSH2 0x42C8 JUMP JUMPDEST CALLER PUSH2 0x679B JUMP JUMPDEST POP CALLVALUE PUSH2 0xD7C JUMPI PUSH1 0x40 CALLDATASIZE PUSH1 0x3 NOT ADD SLT PUSH2 0xD7C JUMPI PUSH2 0x34F6 PUSH2 0x4074 JUMP JUMPDEST PUSH1 0x24 CALLDATALOAD SWAP1 PUSH1 0x40 MLOAD SWAP1 PUSH2 0x3519 PUSH1 0x20 SWAP3 PUSH8 0xF37A14223FE06BD6 DUP5 DUP3 ADD MSTORE DUP4 DUP2 MSTORE PUSH2 0x42C8 JUMP JUMPDEST PUSH2 0x3521 PUSH2 0x5A20 JUMP JUMPDEST PUSH2 0x353C PUSH1 0x40 MLOAD PUSH8 0x7565ACAA002C7A8 DUP5 DUP3 ADD MSTORE DUP4 DUP2 MSTORE PUSH2 0x42C8 JUMP JUMPDEST PUSH2 0x3557 PUSH1 0x40 MLOAD PUSH8 0x7A23EF64B8EBCD69 DUP5 DUP3 ADD MSTORE DUP4 DUP2 MSTORE PUSH2 0x42C8 JUMP JUMPDEST PUSH32 0x9F2DF0FED2C77648DE5860A4CC508CD0818C85B8B8A1AB4CEEEF8D981C8956A6 DUP1 PUSH1 0x0 MSTORE PUSH1 0x6 DUP4 MSTORE PUSH1 0x40 PUSH1 0x0 KECCAK256 CALLER PUSH1 0x0 MSTORE DUP4 MSTORE PUSH1 0xFF PUSH1 0x40 PUSH1 0x0 KECCAK256 SLOAD AND ISZERO PUSH2 0x3856 JUMPI POP PUSH2 0x35B5 PUSH1 0x40 MLOAD PUSH8 0xF8A7BBCF4D652FBC DUP5 DUP3 ADD MSTORE DUP4 DUP2 MSTORE PUSH2 0x42C8 JUMP JUMPDEST PUSH2 0x35D0 PUSH1 0x40 MLOAD PUSH8 0x959A7E59FF621999 DUP5 DUP3 ADD MSTORE DUP4 DUP2 MSTORE PUSH2 0x42C8 JUMP JUMPDEST PUSH2 0x35EB PUSH1 0x40 MLOAD PUSH8 0x2A43CFE6B2A63410 DUP5 DUP3 ADD MSTORE DUP4 DUP2 MSTORE PUSH2 0x42C8 JUMP JUMPDEST PUSH2 0x3606 PUSH1 0x40 MLOAD PUSH8 0xEE1C905E9C887BA9 DUP5 DUP3 ADD MSTORE DUP4 DUP2 MSTORE PUSH2 0x42C8 JUMP JUMPDEST PUSH2 0x3621 PUSH1 0x40 MLOAD PUSH8 0xEF27AC6466CB7987 DUP5 DUP3 ADD MSTORE DUP4 DUP2 MSTORE PUSH2 0x42C8 JUMP JUMPDEST PUSH1 0x1 PUSH1 0x1 PUSH1 0xA0 SHL SUB DUP2 AND SWAP4 DUP5 ISZERO PUSH2 0x3812 JUMPI PUSH2 0x364D PUSH1 0x40 MLOAD PUSH8 0x43CF5C08B2473D67 DUP6 DUP3 ADD MSTORE DUP5 DUP2 MSTORE PUSH2 0x42C8 JUMP JUMPDEST PUSH2 0x3668 PUSH1 0x40 MLOAD PUSH8 0xCC5B6035195EA573 DUP6 DUP3 ADD MSTORE DUP5 DUP2 MSTORE PUSH2 0x42C8 JUMP JUMPDEST PUSH2 0x3683 PUSH1 0x40 MLOAD PUSH8 0x94ADF9A95D499211 DUP6 DUP3 ADD MSTORE DUP5 DUP2 MSTORE PUSH2 0x42C8 JUMP JUMPDEST PUSH2 0x369E PUSH1 0x40 MLOAD PUSH8 0xE18876FD71183A47 DUP6 DUP3 ADD MSTORE DUP5 DUP2 MSTORE PUSH2 0x42C8 JUMP JUMPDEST DUP4 ISZERO PUSH2 0x37CE JUMPI POP SWAP1 PUSH2 0x3758 DUP4 PUSH32 0xBF67EC129007BE07F346D9D2933215293A6612CE7FF17D6B479A5A5CAE72890C SWAP4 PUSH2 0x36E7 PUSH1 0x40 MLOAD PUSH8 0x4DBA28E26972A384 DUP7 DUP3 ADD MSTORE DUP6 DUP2 MSTORE PUSH2 0x42C8 JUMP JUMPDEST PUSH2 0x3702 PUSH1 0x40 MLOAD PUSH8 0x33113D25AB4214D6 DUP7 DUP3 ADD MSTORE DUP6 DUP2 MSTORE PUSH2 0x42C8 JUMP JUMPDEST PUSH2 0x371D PUSH1 0x40 MLOAD PUSH8 0xEBAB3920E59021F5 DUP7 DUP3 ADD MSTORE DUP6 DUP2 MSTORE PUSH2 0x42C8 JUMP JUMPDEST PUSH2 0x3738 PUSH1 0x40 MLOAD PUSH8 0xDDC7E3AB884C02FF DUP7 DUP3 ADD MSTORE DUP6 DUP2 MSTORE PUSH2 0x42C8 JUMP JUMPDEST PUSH2 0x3753 PUSH1 0x40 MLOAD PUSH8 0xE2F2C1A118CC887D DUP7 DUP3 ADD MSTORE DUP6 DUP2 MSTORE PUSH2 0x42C8 JUMP JUMPDEST PUSH2 0x66E2 JUMP JUMPDEST PUSH2 0x3773 PUSH1 0x40 MLOAD PUSH8 0x4ED5E76A20CFE3D0 DUP4 DUP3 ADD MSTORE DUP3 DUP2 MSTORE PUSH2 0x42C8 JUMP JUMPDEST CALLER PUSH1 0x0 MSTORE PUSH1 0x11 DUP2 MSTORE PUSH1 0x40 PUSH1 0x0 KECCAK256 PUSH2 0x378B DUP5 DUP3 SLOAD PUSH2 0x4434 JUMP JUMPDEST SWAP1 SSTORE PUSH2 0x37A8 PUSH1 0x40 MLOAD PUSH8 0x7F0D1230E3B5409B DUP4 DUP3 ADD MSTORE DUP3 DUP2 MSTORE PUSH2 0x42C8 JUMP JUMPDEST PUSH2 0x37C3 PUSH1 0x40 MLOAD PUSH8 0x15B6FB34A88E8B03 DUP4 DUP3 ADD MSTORE DUP3 DUP2 MSTORE PUSH2 0x42C8 JUMP JUMPDEST PUSH1 0x40 MLOAD SWAP3 DUP4 MSTORE CALLER SWAP3 LOG3 STOP JUMPDEST PUSH1 0x40 MLOAD PUSH3 0x461BCD PUSH1 0xE5 SHL DUP2 MSTORE SWAP1 DUP2 ADD DUP4 SWAP1 MSTORE PUSH1 0x1C PUSH1 0x24 DUP3 ADD MSTORE PUSH32 0x4D696E7420616D6F756E74206D75737420626520706F73697469766500000000 PUSH1 0x44 DUP3 ADD MSTORE PUSH1 0x64 SWAP1 REVERT JUMPDEST PUSH1 0x40 MLOAD PUSH3 0x461BCD PUSH1 0xE5 SHL DUP2 MSTORE SWAP1 DUP2 ADD DUP4 SWAP1 MSTORE PUSH1 0x18 PUSH1 0x24 DUP3 ADD MSTORE PUSH32 0x4D696E7420746F20746865207A65726F20616464726573730000000000000000 PUSH1 0x44 DUP3 ADD MSTORE PUSH1 0x64 SWAP1 REVERT JUMPDEST PUSH1 0x40 MLOAD PUSH4 0xE2517D3F PUSH1 0xE0 SHL DUP2 MSTORE CALLER DUP2 DUP8 ADD MSTORE PUSH1 0x24 DUP2 ADD SWAP2 SWAP1 SWAP2 MSTORE PUSH1 0x44 SWAP1 REVERT JUMPDEST POP CALLVALUE PUSH2 0xD7C JUMPI PUSH1 0x0 CALLDATASIZE PUSH1 0x3 NOT ADD SLT PUSH2 0xD7C JUMPI PUSH1 0x40 MLOAD PUSH2 0x38A5 PUSH1 0x20 SWAP2 PUSH8 0xA2808356548B83DA DUP4 DUP3 ADD MSTORE DUP3 DUP2 MSTORE PUSH2 0x42C8 JUMP JUMPDEST PUSH2 0x38AD PUSH2 0x414F JUMP JUMPDEST PUSH2 0x38C8 PUSH1 0x40 MLOAD PUSH8 0xF87BC9CAFB4F10DD DUP4 DUP3 ADD MSTORE DUP3 DUP2 MSTORE PUSH2 0x42C8 JUMP JUMPDEST PUSH2 0x38E3 PUSH1 0x40 MLOAD PUSH8 0xEB2E5C77DDC7C809 DUP4 DUP3 ADD MSTORE DUP3 DUP2 MSTORE PUSH2 0x42C8 JUMP JUMPDEST PUSH2 0x38FE PUSH1 0x40 MLOAD PUSH8 0xC2E386BDE33438F0 DUP4 DUP3 ADD MSTORE DUP3 DUP2 MSTORE PUSH2 0x42C8 JUMP JUMPDEST PUSH1 0x5 SLOAD PUSH1 0xFF DUP2 AND ISZERO PUSH2 0x393D JUMPI PUSH1 0xFF NOT AND PUSH1 0x5 SSTORE PUSH1 0x40 MLOAD CALLER DUP2 MSTORE PUSH32 0x5DB9EE0A495BF2E6FF9C91A7834C1BA4FDD244A5E8AA4E537BD38AEAE4B073AA SWAP3 POP LOG1 STOP JUMPDEST PUSH1 0x40 MLOAD PUSH4 0x8DFC202B PUSH1 0xE0 SHL DUP2 MSTORE DUP4 SWAP1 REVERT JUMPDEST CALLVALUE PUSH2 0xD7C JUMPI PUSH1 0x20 CALLDATASIZE PUSH1 0x3 NOT ADD SLT PUSH2 0xD7C JUMPI PUSH1 0x1 PUSH1 0x1 PUSH1 0xA0 SHL SUB PUSH2 0x396F PUSH2 0x4074 JUMP JUMPDEST AND PUSH1 0x0 MSTORE PUSH1 0xF PUSH1 0x20 MSTORE PUSH1 0x80 PUSH1 0x40 PUSH1 0x0 KECCAK256 DUP1 SLOAD SWAP1 PUSH1 0x1 DUP2 ADD SLOAD SWAP1 PUSH1 0x3 PUSH1 0x2 DUP3 ADD SLOAD SWAP2 ADD SLOAD SWAP2 PUSH1 0x40 MLOAD SWAP4 DUP5 MSTORE PUSH1 0x20 DUP5 ADD MSTORE PUSH1 0x40 DUP4 ADD MSTORE PUSH1 0x60 DUP3 ADD MSTORE RETURN JUMPDEST POP CALLVALUE PUSH2 0xD7C JUMPI PUSH1 0x40 CALLDATASIZE PUSH1 0x3 NOT ADD SLT PUSH2 0xD7C JUMPI PUSH2 0x39C4 PUSH2 0x408A JUMP JUMPDEST CALLER PUSH1 0x1 PUSH1 0x1 PUSH1 0xA0 SHL SUB DUP3 AND SUB PUSH2 0x39DE JUMPI PUSH2 0x1188 SWAP2 CALLDATALOAD PUSH2 0x4251 JUMP JUMPDEST POP PUSH1 0x40 MLOAD PUSH4 0x334BD919 PUSH1 0xE1 SHL DUP2 MSTORE REVERT JUMPDEST CALLVALUE PUSH2 0xD7C JUMPI PUSH1 0x0 CALLDATASIZE PUSH1 0x3 NOT ADD SLT PUSH2 0xD7C JUMPI PUSH1 0x20 PUSH1 0x40 MLOAD PUSH1 0x12 DUP2 MSTORE RETURN JUMPDEST POP CALLVALUE PUSH2 0xD7C JUMPI PUSH1 0x40 CALLDATASIZE PUSH1 0x3 NOT ADD SLT PUSH2 0xD7C JUMPI PUSH2 0x1188 SWAP1 CALLDATALOAD PUSH2 0x3A29 PUSH2 0x408A JUMP JUMPDEST SWAP1 DUP1 PUSH1 0x0 MSTORE PUSH1 0x6 PUSH1 0x20 MSTORE PUSH2 0x3A44 PUSH1 0x1 PUSH1 0x40 PUSH1 0x0 KECCAK256 ADD SLOAD PUSH2 0x41AB JUMP JUMPDEST PUSH2 0x41D1 JUMP JUMPDEST CALLVALUE PUSH2 0xD7C JUMPI PUSH1 0x0 CALLDATASIZE PUSH1 0x3 NOT ADD SLT PUSH2 0xD7C JUMPI PUSH1 0x20 PUSH1 0x40 MLOAD PUSH32 0x3C11D16CBAFFD01DF69CE1C404F6340EE057498F5F00246190EA54220576A848 DUP2 MSTORE RETURN JUMPDEST POP CALLVALUE PUSH2 0xD7C JUMPI PUSH1 0x20 CALLDATASIZE PUSH1 0x3 NOT ADD SLT PUSH2 0xD7C JUMPI CALLDATALOAD PUSH1 0x0 MSTORE PUSH1 0x6 PUSH1 0x20 MSTORE PUSH1 0x20 PUSH1 0x1 PUSH1 0x40 PUSH1 0x0 KECCAK256 ADD SLOAD PUSH1 0x40 MLOAD SWAP1 DUP2 MSTORE RETURN JUMPDEST CALLVALUE PUSH2 0xD7C JUMPI PUSH2 0x3B98 PUSH2 0x3AC3 CALLDATASIZE PUSH2 0x40A0 JUMP JUMPDEST SWAP1 PUSH1 0x40 SWAP4 SWAP3 SWAP4 MLOAD SWAP4 PUSH2 0x3AE6 PUSH1 0x20 SWAP6 PUSH8 0x30EE23E052E3309E DUP8 DUP3 ADD MSTORE DUP7 DUP2 MSTORE PUSH2 0x42C8 JUMP JUMPDEST PUSH2 0x3B01 PUSH1 0x40 MLOAD PUSH8 0xC0AC2266B34CC662 DUP8 DUP3 ADD MSTORE DUP7 DUP2 MSTORE PUSH2 0x42C8 JUMP JUMPDEST PUSH2 0x3B1C PUSH1 0x40 MLOAD PUSH8 0xBC5A05C46C7CCB67 DUP8 DUP3 ADD MSTORE DUP7 DUP2 MSTORE PUSH2 0x42C8 JUMP JUMPDEST PUSH2 0x3B37 PUSH1 0x40 MLOAD PUSH8 0xE0339EF1B8914977 DUP8 DUP3 ADD MSTORE DUP7 DUP2 MSTORE PUSH2 0x42C8 JUMP JUMPDEST PUSH2 0x3B52 PUSH1 0x40 MLOAD PUSH8 0x3CCE19B4BE2D7389 DUP8 DUP3 ADD MSTORE DUP7 DUP2 MSTORE PUSH2 0x42C8 JUMP JUMPDEST PUSH2 0x3B5D DUP4 CALLER DUP4 PUSH2 0x431C JUMP JUMPDEST PUSH2 0x3B78 PUSH1 0x40 MLOAD PUSH8 0xE163FAC916A91DD1 DUP8 DUP3 ADD MSTORE DUP7 DUP2 MSTORE PUSH2 0x42C8 JUMP JUMPDEST PUSH2 0x3B93 PUSH1 0x40 MLOAD PUSH8 0x8FA58AA905DD56D7 DUP8 DUP3 ADD MSTORE DUP7 DUP2 MSTORE PUSH2 0x42C8 JUMP JUMPDEST PUSH2 0x4441 JUMP JUMPDEST PUSH2 0x3BB3 PUSH1 0x40 MLOAD PUSH8 0xEA99E8CA80445183 DUP4 DUP3 ADD MSTORE DUP3 DUP2 MSTORE PUSH2 0x42C8 JUMP JUMPDEST PUSH2 0x16B0 PUSH1 0x40 MLOAD PUSH8 0xFB2BF86867451410 DUP4 DUP3 ADD MSTORE DUP3 DUP2 MSTORE PUSH2 0x42C8 JUMP JUMPDEST CALLVALUE PUSH2 0xD7C JUMPI PUSH1 0x0 CALLDATASIZE PUSH1 0x3 NOT ADD SLT PUSH2 0xD7C JUMPI PUSH1 0x20 PUSH1 0x2 SLOAD PUSH1 0x40 MLOAD SWAP1 DUP2 MSTORE RETURN JUMPDEST POP CALLVALUE PUSH2 0xD7C JUMPI PUSH1 0x20 DUP1 PUSH1 0x3 NOT CALLDATASIZE ADD SLT PUSH2 0xD7C JUMPI DUP2 CALLDATALOAD SWAP2 PUSH2 0x3C1D PUSH1 0x40 MLOAD PUSH8 0x8B75D6B9167F826C DUP5 DUP3 ADD MSTORE DUP4 DUP2 MSTORE PUSH2 0x42C8 JUMP JUMPDEST PUSH2 0x3C25 PUSH2 0x40D5 JUMP JUMPDEST PUSH2 0x3C40 PUSH1 0x40 MLOAD PUSH8 0x3074562C516AB394 DUP5 DUP3 ADD MSTORE DUP4 DUP2 MSTORE PUSH2 0x42C8 JUMP JUMPDEST PUSH2 0x3C5B PUSH1 0x40 MLOAD PUSH8 0x25EFEBD4294A91FF DUP5 DUP3 ADD MSTORE DUP4 DUP2 MSTORE PUSH2 0x42C8 JUMP JUMPDEST PUSH2 0x3C76 PUSH1 0x40 MLOAD PUSH8 0x40940C7EB8D89029 DUP5 DUP3 ADD MSTORE DUP4 DUP2 MSTORE PUSH2 0x42C8 JUMP JUMPDEST PUSH2 0x3C91 PUSH1 0x40 MLOAD PUSH8 0xA15640BC1A0D4898 DUP5 DUP3 ADD MSTORE DUP4 DUP2 MSTORE PUSH2 0x42C8 JUMP JUMPDEST PUSH1 0x8 SLOAD DUP4 LT PUSH2 0x3D48 JUMPI PUSH2 0x3CB5 PUSH1 0x40 MLOAD PUSH8 0xD31789AD8931E34D DUP5 DUP3 ADD MSTORE DUP4 DUP2 MSTORE PUSH2 0x42C8 JUMP JUMPDEST PUSH2 0x3CD0 PUSH1 0x40 MLOAD PUSH8 0xE2FB91A51F2CE0FA DUP5 DUP3 ADD MSTORE DUP4 DUP2 MSTORE PUSH2 0x42C8 JUMP JUMPDEST PUSH2 0x3CEB PUSH1 0x40 MLOAD PUSH8 0x4934B1871E9EC234 DUP5 DUP3 ADD MSTORE DUP4 DUP2 MSTORE PUSH2 0x42C8 JUMP JUMPDEST PUSH1 0x9 SLOAD DUP4 GT PUSH2 0x3D16 JUMPI POP PUSH2 0x3D11 SWAP1 PUSH1 0x40 MLOAD SWAP1 PUSH8 0x5BB5733A7D1BA279 DUP2 DUP4 ADD MSTORE DUP2 MSTORE PUSH2 0x42C8 JUMP JUMPDEST PUSH1 0x7 SSTORE STOP JUMPDEST PUSH1 0x64 SWAP2 PUSH1 0x40 MLOAD SWAP2 PUSH3 0x461BCD PUSH1 0xE5 SHL DUP4 MSTORE DUP3 ADD MSTORE PUSH1 0xD PUSH1 0x24 DUP3 ADD MSTORE PUSH13 0x41626F7665206D6178696D756D PUSH1 0x98 SHL PUSH1 0x44 DUP3 ADD MSTORE REVERT JUMPDEST PUSH1 0x64 SWAP2 PUSH1 0x40 MLOAD SWAP2 PUSH3 0x461BCD PUSH1 0xE5 SHL DUP4 MSTORE DUP3 ADD MSTORE PUSH1 0xD PUSH1 0x24 DUP3 ADD MSTORE PUSH13 0x42656C6F77206D696E696D756D PUSH1 0x98 SHL PUSH1 0x44 DUP3 ADD MSTORE REVERT JUMPDEST CALLVALUE PUSH2 0xD7C JUMPI PUSH1 0x20 CALLDATASIZE PUSH1 0x3 NOT ADD SLT PUSH2 0xD7C JUMPI PUSH1 0x1 PUSH1 0x1 PUSH1 0xA0 SHL SUB PUSH2 0x3D9B PUSH2 0x4074 JUMP JUMPDEST AND PUSH1 0x0 MSTORE PUSH1 0x10 PUSH1 0x20 MSTORE PUSH1 0x40 DUP1 PUSH1 0x0 KECCAK256 PUSH1 0x1 DUP2 SLOAD SWAP2 ADD SLOAD DUP3 MLOAD SWAP2 DUP3 MSTORE PUSH1 0x20 DUP3 ADD MSTORE RETURN JUMPDEST POP CALLVALUE PUSH2 0xD7C JUMPI PUSH1 0x40 CALLDATASIZE PUSH1 0x3 NOT ADD SLT PUSH2 0xD7C JUMPI PUSH2 0x3DD7 PUSH2 0x4074 JUMP JUMPDEST PUSH1 0x24 CALLDATALOAD SWAP1 CALLER ISZERO PUSH2 0x3E5D JUMPI PUSH1 0x1 PUSH1 0x1 PUSH1 0xA0 SHL SUB AND SWAP2 DUP3 ISZERO PUSH2 0x3E45 JUMPI POP CALLER PUSH1 0x0 MSTORE PUSH1 0x1 PUSH1 0x20 MSTORE PUSH1 0x40 PUSH1 0x0 KECCAK256 DUP3 PUSH1 0x0 MSTORE PUSH1 0x20 MSTORE DUP1 PUSH1 0x40 PUSH1 0x0 KECCAK256 SSTORE PUSH1 0x40 MLOAD SWAP1 DUP2 MSTORE PUSH32 0x8C5BE1E5EBEC7D5BD14F71427D1E84F3DD0314C0F7B2291E5B200AC8C7C3B925 PUSH1 0x20 CALLER SWAP3 LOG3 PUSH1 0x20 PUSH1 0x40 MLOAD PUSH1 0x1 DUP2 MSTORE RETURN JUMPDEST PUSH1 0x24 SWAP1 PUSH1 0x0 PUSH1 0x40 MLOAD SWAP2 PUSH4 0x4A1406B1 PUSH1 0xE1 SHL DUP4 MSTORE DUP3 ADD MSTORE REVERT JUMPDEST PUSH1 0x40 MLOAD PUSH4 0xE602DF05 PUSH1 0xE0 SHL DUP2 MSTORE PUSH1 0x0 DUP2 DUP6 ADD MSTORE PUSH1 0x24 SWAP1 REVERT JUMPDEST CALLVALUE PUSH2 0xD7C JUMPI PUSH1 0x20 CALLDATASIZE PUSH1 0x3 NOT ADD SLT PUSH2 0xD7C JUMPI PUSH1 0x1 PUSH1 0x1 PUSH1 0xA0 SHL SUB PUSH2 0x3E96 PUSH2 0x4074 JUMP JUMPDEST AND PUSH1 0x0 MSTORE PUSH1 0xD PUSH1 0x20 MSTORE PUSH1 0x60 PUSH1 0x40 PUSH1 0x0 KECCAK256 DUP1 SLOAD SWAP1 PUSH1 0x2 PUSH1 0x1 DUP3 ADD SLOAD SWAP2 ADD SLOAD SWAP1 PUSH1 0x40 MLOAD SWAP3 DUP4 MSTORE PUSH1 0x20 DUP4 ADD MSTORE PUSH1 0x40 DUP3 ADD MSTORE RETURN JUMPDEST POP CALLVALUE PUSH2 0xD7C JUMPI PUSH1 0x0 CALLDATASIZE PUSH1 0x3 NOT ADD SLT PUSH2 0xD7C JUMPI PUSH1 0x40 MLOAD PUSH1 0x0 SWAP2 PUSH1 0x3 SLOAD PUSH1 0x1 DUP2 DUP2 SHR SWAP2 DUP2 DUP2 AND DUP1 ISZERO PUSH2 0x3FB1 JUMPI JUMPDEST PUSH1 0x20 SWAP5 DUP6 DUP6 LT DUP3 EQ PUSH2 0x3F9C JUMPI POP DUP4 DUP7 MSTORE SWAP1 DUP2 ISZERO PUSH2 0x3F7C JUMPI POP PUSH1 0x1 EQ PUSH2 0x3F21 JUMPI JUMPDEST PUSH2 0x177E DUP5 PUSH2 0x1772 DUP2 DUP9 SUB DUP3 PUSH2 0x42FA JUMP JUMPDEST PUSH1 0x3 PUSH1 0x0 SWAP1 DUP2 MSTORE SWAP3 SWAP5 POP PUSH32 0xC2575A0E9E593C00F959F8C92F12DB2869C3395A3B0502D05E2516446F71F85B JUMPDEST DUP3 DUP5 LT PUSH2 0x3F69 JUMPI POP POP POP DUP2 PUSH2 0x177E SWAP4 PUSH2 0x1772 SWAP3 DUP3 ADD ADD SWAP4 PUSH2 0x3F11 JUMP JUMPDEST DUP1 SLOAD DUP6 DUP6 ADD DUP8 ADD MSTORE SWAP3 DUP6 ADD SWAP3 DUP2 ADD PUSH2 0x3F4D JUMP JUMPDEST PUSH1 0xFF NOT AND DUP6 DUP6 ADD MSTORE POP POP ISZERO ISZERO PUSH1 0x5 SHL DUP3 ADD ADD SWAP2 POP PUSH2 0x1772 DUP2 PUSH2 0x177E PUSH2 0x3F11 JUMP JUMPDEST PUSH1 0x22 SWAP1 PUSH4 0x4E487B71 PUSH1 0xE0 SHL PUSH1 0x0 MSTORE MSTORE PUSH1 0x24 PUSH1 0x0 REVERT JUMPDEST SWAP3 PUSH1 0x7F AND SWAP3 PUSH2 0x3EF1 JUMP JUMPDEST CALLVALUE PUSH2 0xD7C JUMPI PUSH1 0x0 CALLDATASIZE PUSH1 0x3 NOT ADD SLT PUSH2 0xD7C JUMPI PUSH1 0x20 PUSH1 0xA SLOAD PUSH1 0x40 MLOAD SWAP1 DUP2 MSTORE RETURN JUMPDEST DUP3 CALLVALUE PUSH2 0xD7C JUMPI PUSH1 0x20 CALLDATASIZE PUSH1 0x3 NOT ADD SLT PUSH2 0xD7C JUMPI CALLDATALOAD SWAP1 PUSH4 0xFFFFFFFF PUSH1 0xE0 SHL DUP3 AND DUP1 SWAP3 SUB PUSH2 0xD7C JUMPI PUSH1 0x20 SWAP2 PUSH4 0x7965DB0B PUSH1 0xE0 SHL DUP2 EQ SWAP1 DUP2 ISZERO PUSH2 0x401A JUMPI JUMPDEST POP ISZERO ISZERO DUP2 MSTORE RETURN JUMPDEST PUSH4 0x1FFC9A7 PUSH1 0xE0 SHL EQ SWAP1 POP DUP4 PUSH2 0x4013 JUMP JUMPDEST PUSH1 0x20 DUP1 DUP3 MSTORE DUP3 MLOAD DUP2 DUP4 ADD DUP2 SWAP1 MSTORE SWAP1 SWAP4 SWAP3 PUSH1 0x0 JUMPDEST DUP3 DUP2 LT PUSH2 0x4060 JUMPI POP POP PUSH1 0x40 SWAP3 SWAP4 POP PUSH1 0x0 DUP4 DUP3 DUP5 ADD ADD MSTORE PUSH1 0x1F DUP1 NOT SWAP2 ADD AND ADD ADD SWAP1 JUMP JUMPDEST DUP2 DUP2 ADD DUP7 ADD MLOAD DUP5 DUP3 ADD PUSH1 0x40 ADD MSTORE DUP6 ADD PUSH2 0x403E JUMP JUMPDEST PUSH1 0x4 CALLDATALOAD SWAP1 PUSH1 0x1 PUSH1 0x1 PUSH1 0xA0 SHL SUB DUP3 AND DUP3 SUB PUSH2 0xD7C JUMPI JUMP JUMPDEST PUSH1 0x24 CALLDATALOAD SWAP1 PUSH1 0x1 PUSH1 0x1 PUSH1 0xA0 SHL SUB DUP3 AND DUP3 SUB PUSH2 0xD7C JUMPI JUMP JUMPDEST PUSH1 0x60 SWAP1 PUSH1 0x3 NOT ADD SLT PUSH2 0xD7C JUMPI PUSH1 0x1 PUSH1 0x1 PUSH1 0xA0 SHL SUB SWAP1 PUSH1 0x4 CALLDATALOAD DUP3 DUP2 AND DUP2 SUB PUSH2 0xD7C JUMPI SWAP2 PUSH1 0x24 CALLDATALOAD SWAP1 DUP2 AND DUP2 SUB PUSH2 0xD7C JUMPI SWAP1 PUSH1 0x44 CALLDATALOAD SWAP1 JUMP JUMPDEST CALLER PUSH1 0x0 SWAP1 DUP2 MSTORE PUSH32 0xC3BB05773FB95F6688E1E7D9C896674DCCD66884026CF30A3D5E3A9BFECD811 PUSH1 0x20 MSTORE PUSH1 0x40 SWAP1 KECCAK256 SLOAD PUSH32 0xA49807205CE4D355092EF5A8A18F56E8913CF4A201FBE287825B095693C21775 SWAP1 PUSH1 0xFF AND ISZERO PUSH2 0x4131 JUMPI POP JUMP JUMPDEST PUSH1 0x44 SWAP1 PUSH1 0x40 MLOAD SWAP1 PUSH4 0xE2517D3F PUSH1 0xE0 SHL DUP3 MSTORE CALLER PUSH1 0x4 DUP4 ADD MSTORE PUSH1 0x24 DUP3 ADD MSTORE REVERT JUMPDEST CALLER PUSH1 0x0 SWAP1 DUP2 MSTORE PUSH32 0xE09F975E15F8F53F24CBBC282B13C40B84DF485FCDB8D3997FA103DC5A4EF841 PUSH1 0x20 MSTORE PUSH1 0x40 SWAP1 KECCAK256 SLOAD PUSH32 0x65D7A28E3265B37A6474929F336521B332C1681B933F6CB9F3376673440D862A SWAP1 PUSH1 0xFF AND ISZERO PUSH2 0x4131 JUMPI POP JUMP JUMPDEST DUP1 PUSH1 0x0 MSTORE PUSH1 0x6 PUSH1 0x20 MSTORE PUSH1 0x40 PUSH1 0x0 KECCAK256 CALLER PUSH1 0x0 MSTORE PUSH1 0x20 MSTORE PUSH1 0xFF PUSH1 0x40 PUSH1 0x0 KECCAK256 SLOAD AND ISZERO PUSH2 0x4131 JUMPI POP JUMP JUMPDEST SWAP1 PUSH1 0x0 SWAP2 DUP1 DUP4 MSTORE PUSH1 0x6 PUSH1 0x20 MSTORE PUSH1 0x40 DUP4 KECCAK256 SWAP2 PUSH1 0x1 DUP1 PUSH1 0xA0 SHL SUB AND SWAP2 DUP3 DUP5 MSTORE PUSH1 0x20 MSTORE PUSH1 0xFF PUSH1 0x40 DUP5 KECCAK256 SLOAD AND ISZERO PUSH1 0x0 EQ PUSH2 0x424C JUMPI DUP1 DUP4 MSTORE PUSH1 0x6 PUSH1 0x20 MSTORE PUSH1 0x40 DUP4 KECCAK256 DUP3 DUP5 MSTORE PUSH1 0x20 MSTORE PUSH1 0x40 DUP4 KECCAK256 PUSH1 0x1 PUSH1 0xFF NOT DUP3 SLOAD AND OR SWAP1 SSTORE PUSH32 0x2F8788117E7EFF1D82E926EC794901D17C78024A50270940304540A733656F0D CALLER SWAP4 DUP1 LOG4 PUSH1 0x1 SWAP1 JUMP JUMPDEST POP POP SWAP1 JUMP JUMPDEST SWAP1 PUSH1 0x0 SWAP2 DUP1 DUP4 MSTORE PUSH1 0x6 PUSH1 0x20 MSTORE PUSH1 0x40 DUP4 KECCAK256 SWAP2 PUSH1 0x1 DUP1 PUSH1 0xA0 SHL SUB AND SWAP2 DUP3 DUP5 MSTORE PUSH1 0x20 MSTORE PUSH1 0xFF PUSH1 0x40 DUP5 KECCAK256 SLOAD AND PUSH1 0x0 EQ PUSH2 0x424C JUMPI DUP1 DUP4 MSTORE PUSH1 0x6 PUSH1 0x20 MSTORE PUSH1 0x40 DUP4 KECCAK256 DUP3 DUP5 MSTORE PUSH1 0x20 MSTORE PUSH1 0x40 DUP4 KECCAK256 PUSH1 0xFF NOT DUP2 SLOAD AND SWAP1 SSTORE PUSH32 0xF6391F5C32D9C69D2A47EA670B442974B53935D1EDC7FD64EB21E047A839171B CALLER SWAP4 DUP1 LOG4 PUSH1 0x1 SWAP1 JUMP JUMPDEST PUSH1 0x40 DUP2 ADD SWAP1 DUP2 LT PUSH8 0xFFFFFFFFFFFFFFFF DUP3 GT OR PUSH2 0x42E4 JUMPI PUSH1 0x40 MSTORE JUMP JUMPDEST PUSH4 0x4E487B71 PUSH1 0xE0 SHL PUSH1 0x0 MSTORE PUSH1 0x41 PUSH1 0x4 MSTORE PUSH1 0x24 PUSH1 0x0 REVERT JUMPDEST SWAP1 PUSH1 0x1F DUP1 NOT SWAP2 ADD AND DUP2 ADD SWAP1 DUP2 LT PUSH8 0xFFFFFFFFFFFFFFFF DUP3 GT OR PUSH2 0x42E4 JUMPI PUSH1 0x40 MSTORE JUMP JUMPDEST SWAP2 PUSH1 0x1 DUP1 PUSH1 0xA0 SHL SUB DUP1 SWAP4 AND SWAP2 PUSH1 0x0 SWAP4 DUP4 DUP6 MSTORE PUSH1 0x1 PUSH1 0x20 MSTORE PUSH1 0x40 SWAP4 DUP5 DUP7 KECCAK256 SWAP2 DUP4 AND SWAP2 DUP3 DUP8 MSTORE PUSH1 0x20 MSTORE DUP5 DUP7 KECCAK256 SLOAD SWAP3 PUSH1 0x0 NOT DUP5 LT PUSH2 0x435B JUMPI JUMPDEST POP POP POP POP POP POP POP JUMP JUMPDEST DUP5 DUP5 LT PUSH2 0x43BF JUMPI POP DUP1 ISZERO PUSH2 0x43A7 JUMPI DUP2 ISZERO PUSH2 0x438F JUMPI DUP6 MSTORE PUSH1 0x1 PUSH1 0x20 MSTORE DUP4 DUP6 KECCAK256 SWAP1 DUP6 MSTORE PUSH1 0x20 MSTORE SUB SWAP2 KECCAK256 SSTORE CODESIZE DUP1 DUP1 DUP1 DUP1 DUP1 DUP1 PUSH2 0x4352 JUMP JUMPDEST DUP5 MLOAD PUSH4 0x4A1406B1 PUSH1 0xE1 SHL DUP2 MSTORE PUSH1 0x4 DUP2 ADD DUP8 SWAP1 MSTORE PUSH1 0x24 SWAP1 REVERT JUMPDEST DUP5 MLOAD PUSH4 0xE602DF05 PUSH1 0xE0 SHL DUP2 MSTORE PUSH1 0x4 DUP2 ADD DUP8 SWAP1 MSTORE PUSH1 0x24 SWAP1 REVERT JUMPDEST DUP6 MLOAD PUSH4 0x7DC7A0D9 PUSH1 0xE1 SHL DUP2 MSTORE PUSH1 0x1 PUSH1 0x1 PUSH1 0xA0 SHL SUB SWAP2 SWAP1 SWAP2 AND PUSH1 0x4 DUP3 ADD MSTORE PUSH1 0x24 DUP2 ADD DUP5 SWAP1 MSTORE PUSH1 0x44 DUP2 ADD DUP6 SWAP1 MSTORE PUSH1 0x64 SWAP1 REVERT JUMPDEST DUP2 DUP2 MUL SWAP3 SWAP2 DUP2 ISZERO SWAP2 DUP5 DIV EQ OR ISZERO PUSH2 0x4402 JUMPI JUMP JUMPDEST PUSH4 0x4E487B71 PUSH1 0xE0 SHL PUSH1 0x0 MSTORE PUSH1 0x11 PUSH1 0x4 MSTORE PUSH1 0x24 PUSH1 0x0 REVERT JUMPDEST SWAP2 SWAP1 DUP3 SUB SWAP2 DUP3 GT PUSH2 0x4402 JUMPI JUMP JUMPDEST PUSH1 0x0 NOT DUP2 EQ PUSH2 0x4402 JUMPI PUSH1 0x1 ADD SWAP1 JUMP JUMPDEST SWAP2 SWAP1 DUP3 ADD DUP1 SWAP3 GT PUSH2 0x4402 JUMPI JUMP JUMPDEST SWAP2 PUSH2 0x445F PUSH1 0x40 MLOAD PUSH8 0x579D6A626AFC646F PUSH1 0x20 DUP3 ADD MSTORE PUSH1 0x20 DUP2 MSTORE PUSH2 0x42C8 JUMP JUMPDEST PUSH2 0x447C PUSH1 0x40 MLOAD PUSH8 0xAAF7E5C1E9647C0C PUSH1 0x20 DUP3 ADD MSTORE PUSH1 0x20 DUP2 MSTORE PUSH2 0x42C8 JUMP JUMPDEST PUSH2 0x4499 PUSH1 0x40 MLOAD PUSH8 0x9543B4FE232940E6 PUSH1 0x20 DUP3 ADD MSTORE PUSH1 0x20 DUP2 MSTORE PUSH2 0x42C8 JUMP JUMPDEST PUSH2 0x44B6 PUSH1 0x40 MLOAD PUSH8 0x3B3F8E68560B3649 PUSH1 0x20 DUP3 ADD MSTORE PUSH1 0x20 DUP2 MSTORE PUSH2 0x42C8 JUMP JUMPDEST PUSH1 0x1 PUSH1 0x1 PUSH1 0xA0 SHL SUB DUP3 AND ISZERO PUSH2 0x59DB JUMPI PUSH2 0x44E2 PUSH1 0x40 MLOAD PUSH8 0xC4A83DF4307D59FC PUSH1 0x20 DUP3 ADD MSTORE PUSH1 0x20 DUP2 MSTORE PUSH2 0x42C8 JUMP JUMPDEST PUSH2 0x44FF PUSH1 0x40 MLOAD PUSH8 0xCB5C61A20CDA9C7E PUSH1 0x20 DUP3 ADD MSTORE PUSH1 0x20 DUP2 MSTORE PUSH2 0x42C8 JUMP JUMPDEST PUSH2 0x451C PUSH1 0x40 MLOAD PUSH8 0x72BB4F6A78C4451E PUSH1 0x20 DUP3 ADD MSTORE PUSH1 0x20 DUP2 MSTORE PUSH2 0x42C8 JUMP JUMPDEST PUSH2 0x4539 PUSH1 0x40 MLOAD PUSH8 0xA3C9F4CBC4DE368F PUSH1 0x20 DUP3 ADD MSTORE PUSH1 0x20 DUP2 MSTORE PUSH2 0x42C8 JUMP JUMPDEST DUP1 ISZERO PUSH2 0x5984 JUMPI PUSH2 0x455C PUSH1 0x40 MLOAD PUSH8 0x1ED304A0E0FAC724 PUSH1 0x20 DUP3 ADD MSTORE PUSH1 0x20 DUP2 MSTORE PUSH2 0x42C8 JUMP JUMPDEST PUSH2 0x4579 PUSH1 0x40 MLOAD PUSH8 0xCB3EA6A4E0A86700 PUSH1 0x20 DUP3 ADD MSTORE PUSH1 0x20 DUP2 MSTORE PUSH2 0x42C8 JUMP JUMPDEST PUSH2 0x4596 PUSH1 0x40 MLOAD PUSH8 0xCD9DFF8743EEE2B3 PUSH1 0x20 DUP3 ADD MSTORE PUSH1 0x20 DUP2 MSTORE PUSH2 0x42C8 JUMP JUMPDEST PUSH1 0x1 PUSH1 0x1 PUSH1 0xA0 SHL SUB DUP4 AND PUSH1 0x0 SWAP1 DUP2 MSTORE PUSH1 0xC PUSH1 0x20 MSTORE PUSH1 0x40 SWAP1 KECCAK256 DUP1 SLOAD TIMESTAMP LT SWAP1 DUP2 PUSH2 0x5969 JUMPI JUMPDEST POP ISZERO PUSH2 0x4680 JUMPI PUSH2 0x45DC PUSH1 0x40 MLOAD PUSH8 0xBF27F1B29E7BCF6F PUSH1 0x20 DUP3 ADD MSTORE PUSH1 0x20 DUP2 MSTORE PUSH2 0x42C8 JUMP JUMPDEST PUSH2 0x45F9 PUSH1 0x40 MLOAD PUSH8 0xE4B0018EBF77B06F PUSH1 0x20 DUP3 ADD MSTORE PUSH1 0x20 DUP2 MSTORE PUSH2 0x42C8 JUMP JUMPDEST PUSH2 0x4616 PUSH1 0x40 MLOAD PUSH8 0xD2DD6CC958DEC243 PUSH1 0x20 DUP3 ADD MSTORE PUSH1 0x20 DUP2 MSTORE PUSH2 0x42C8 JUMP JUMPDEST PUSH1 0x84 PUSH1 0x40 MLOAD PUSH3 0x461BCD PUSH1 0xE5 SHL DUP2 MSTORE PUSH1 0x20 PUSH1 0x4 DUP3 ADD MSTORE PUSH1 0x40 PUSH1 0x24 DUP3 ADD MSTORE PUSH32 0x43616E6E6F74207472616E7366657220647572696E672048616C664C69666520 PUSH1 0x44 DUP3 ADD MSTORE PUSH32 0x706572696F6420657863657074206261636B20746F206F726967696E61746F72 PUSH1 0x64 DUP3 ADD MSTORE REVERT JUMPDEST PUSH2 0x469D PUSH1 0x40 MLOAD PUSH8 0x3AF87A8D18229C44 PUSH1 0x20 DUP3 ADD MSTORE PUSH1 0x20 DUP2 MSTORE PUSH2 0x42C8 JUMP JUMPDEST PUSH2 0x46BA PUSH1 0x40 MLOAD PUSH8 0xA0EC3376260C17AC PUSH1 0x20 DUP3 ADD MSTORE PUSH1 0x20 DUP2 MSTORE PUSH2 0x42C8 JUMP JUMPDEST PUSH2 0x46D7 PUSH1 0x40 MLOAD PUSH8 0x96CB02C9750660DD PUSH1 0x20 DUP3 ADD MSTORE PUSH1 0x20 DUP2 MSTORE PUSH2 0x42C8 JUMP JUMPDEST PUSH2 0x46E0 DUP2 PUSH2 0x5A3E JUMP JUMPDEST PUSH2 0x46FD PUSH1 0x40 MLOAD PUSH8 0x8B7BF52D533FA298 PUSH1 0x20 DUP3 ADD MSTORE PUSH1 0x20 DUP2 MSTORE PUSH2 0x42C8 JUMP JUMPDEST PUSH2 0x471A PUSH1 0x40 MLOAD PUSH8 0xA0E5CB6E013CDC1C PUSH1 0x20 DUP3 ADD MSTORE PUSH1 0x20 DUP2 MSTORE PUSH2 0x42C8 JUMP JUMPDEST PUSH2 0x4737 PUSH1 0x40 MLOAD PUSH8 0x3412AEA162DABE53 PUSH1 0x20 DUP3 ADD MSTORE PUSH1 0x20 DUP2 MSTORE PUSH2 0x42C8 JUMP JUMPDEST PUSH2 0x4754 PUSH1 0x40 MLOAD PUSH8 0x7A9BECA78E58693E PUSH1 0x20 DUP3 ADD MSTORE PUSH1 0x20 DUP2 MSTORE PUSH2 0x42C8 JUMP JUMPDEST PUSH2 0x4771 PUSH1 0x40 MLOAD PUSH8 0x9F41100959775AEB PUSH1 0x20 DUP3 ADD MSTORE PUSH1 0x20 DUP2 MSTORE PUSH2 0x42C8 JUMP JUMPDEST PUSH2 0x489B PUSH2 0x477D DUP6 PUSH2 0x6180 JUMP JUMPDEST PUSH2 0x479A PUSH1 0x40 MLOAD PUSH8 0xDBC75BBEB7BAF233 PUSH1 0x20 DUP3 ADD MSTORE PUSH1 0x20 DUP2 MSTORE PUSH2 0x42C8 JUMP JUMPDEST PUSH2 0x47B7 PUSH1 0x40 MLOAD PUSH8 0x72937C617501F32C PUSH1 0x20 DUP3 ADD MSTORE PUSH1 0x20 DUP2 MSTORE PUSH2 0x42C8 JUMP JUMPDEST PUSH2 0x47C0 DUP6 PUSH2 0x6180 JUMP JUMPDEST PUSH2 0x47DD PUSH1 0x40 MLOAD PUSH8 0x823DF8BB018BA305 PUSH1 0x20 DUP3 ADD MSTORE PUSH1 0x20 DUP2 MSTORE PUSH2 0x42C8 JUMP JUMPDEST PUSH2 0x47FA PUSH1 0x40 MLOAD PUSH8 0x9EE5AD823B89D2AA PUSH1 0x20 DUP3 ADD MSTORE PUSH1 0x20 DUP2 MSTORE PUSH2 0x42C8 JUMP JUMPDEST DUP1 DUP3 GT DUP1 ISZERO PUSH2 0x5941 JUMPI JUMPDEST DUP1 PUSH2 0x5919 JUMPI JUMPDEST ISZERO PUSH2 0x5911 JUMPI POP SWAP2 JUMPDEST PUSH2 0x482F PUSH1 0x40 MLOAD PUSH8 0xFD7E522419CA628A PUSH1 0x20 DUP3 ADD MSTORE PUSH1 0x20 DUP2 MSTORE PUSH2 0x42C8 JUMP JUMPDEST PUSH2 0x484C PUSH1 0x40 MLOAD PUSH8 0xF9B4CAB5590FF9C0 PUSH1 0x20 DUP3 ADD MSTORE PUSH1 0x20 DUP2 MSTORE PUSH2 0x42C8 JUMP JUMPDEST PUSH2 0x485A PUSH2 0x2710 SWAP4 DUP5 SWAP3 PUSH2 0x43EF JUMP JUMPDEST DIV PUSH2 0x4878 PUSH1 0x40 MLOAD PUSH8 0xBDA1D49C0F643997 PUSH1 0x20 DUP3 ADD MSTORE PUSH1 0x20 DUP2 MSTORE PUSH2 0x42C8 JUMP JUMPDEST PUSH2 0x4895 PUSH1 0x40 MLOAD PUSH8 0x79B5BCBF0C08E687 PUSH1 0x20 DUP3 ADD MSTORE PUSH1 0x20 DUP2 MSTORE PUSH2 0x42C8 JUMP JUMPDEST DUP6 PUSH2 0x6451 JUMP JUMPDEST SWAP1 PUSH2 0x48B9 PUSH1 0x40 MLOAD PUSH8 0xBDD4F25A88B9612 PUSH1 0x20 DUP3 ADD MSTORE PUSH1 0x20 DUP2 MSTORE PUSH2 0x42C8 JUMP JUMPDEST PUSH2 0x48D6 PUSH1 0x40 MLOAD PUSH8 0xADEBBAF6283618B7 PUSH1 0x20 DUP3 ADD MSTORE PUSH1 0x20 DUP2 MSTORE PUSH2 0x42C8 JUMP JUMPDEST DUP2 SWAP1 PUSH2 0x48F5 PUSH1 0x40 MLOAD PUSH8 0xCBB7EB4DE0C6CFF3 PUSH1 0x20 DUP3 ADD MSTORE PUSH1 0x20 DUP2 MSTORE PUSH2 0x42C8 JUMP JUMPDEST PUSH2 0x4912 PUSH1 0x40 MLOAD PUSH8 0xC93FD33F29ACCD41 PUSH1 0x20 DUP3 ADD MSTORE PUSH1 0x20 DUP2 MSTORE PUSH2 0x42C8 JUMP JUMPDEST PUSH2 0x1F4 DUP5 MUL PUSH2 0x1F3 NOT DUP6 DUP3 DIV ADD PUSH2 0x4402 JUMPI DIV DUP1 SWAP3 PUSH2 0x4943 PUSH1 0x40 MLOAD PUSH8 0xF9C503EF7052CD7A PUSH1 0x20 DUP3 ADD MSTORE PUSH1 0x20 DUP2 MSTORE PUSH2 0x42C8 JUMP JUMPDEST PUSH2 0x4960 PUSH1 0x40 MLOAD PUSH8 0xBAEF6D0D2422D8AE PUSH1 0x20 DUP3 ADD MSTORE PUSH1 0x20 DUP2 MSTORE PUSH2 0x42C8 JUMP JUMPDEST GT ISZERO PUSH2 0x58ED JUMPI POP PUSH2 0x4984 PUSH1 0x40 MLOAD PUSH8 0xC0B2451CB348006A PUSH1 0x20 DUP3 ADD MSTORE PUSH1 0x20 DUP2 MSTORE PUSH2 0x42C8 JUMP JUMPDEST PUSH2 0x49A1 PUSH1 0x40 MLOAD PUSH8 0x749B69AEE185F503 PUSH1 0x20 DUP3 ADD MSTORE PUSH1 0x20 DUP2 MSTORE PUSH2 0x42C8 JUMP JUMPDEST PUSH2 0x49BE PUSH1 0x40 MLOAD PUSH8 0xEAB672DE8E8C1616 PUSH1 0x20 DUP3 ADD MSTORE PUSH1 0x20 DUP2 MSTORE PUSH2 0x42C8 JUMP JUMPDEST PUSH2 0x49DB PUSH1 0x40 MLOAD PUSH8 0xCCDA08ABD4CC59F6 PUSH1 0x20 DUP3 ADD MSTORE PUSH1 0x20 DUP2 MSTORE PUSH2 0x42C8 JUMP JUMPDEST PUSH2 0x49F8 PUSH1 0x40 MLOAD PUSH8 0x9ED178346904D320 PUSH1 0x20 DUP3 ADD MSTORE PUSH1 0x20 DUP2 MSTORE PUSH2 0x42C8 JUMP JUMPDEST PUSH1 0x1 DUP2 LT DUP1 PUSH2 0x58E3 JUMPI JUMPDEST ISZERO PUSH2 0x58C1 JUMPI POP PUSH2 0x4A25 PUSH1 0x40 MLOAD PUSH8 0xBF78C79C711198DF PUSH1 0x20 DUP3 ADD MSTORE PUSH1 0x20 DUP2 MSTORE PUSH2 0x42C8 JUMP JUMPDEST PUSH1 0x1 JUMPDEST PUSH2 0x4A45 PUSH1 0x40 MLOAD PUSH8 0xD6474B54A918E6ED PUSH1 0x20 DUP3 ADD MSTORE PUSH1 0x20 DUP2 MSTORE PUSH2 0x42C8 JUMP JUMPDEST PUSH2 0x4A62 PUSH1 0x40 MLOAD PUSH8 0x9D4697DB80618693 PUSH1 0x20 DUP3 ADD MSTORE PUSH1 0x20 DUP2 MSTORE PUSH2 0x42C8 JUMP JUMPDEST DUP2 DUP2 GT ISZERO PUSH2 0x589E JUMPI POP PUSH2 0x4A88 PUSH1 0x40 MLOAD PUSH8 0x2BA3C243663BFBD2 PUSH1 0x20 DUP3 ADD MSTORE PUSH1 0x20 DUP2 MSTORE PUSH2 0x42C8 JUMP JUMPDEST DUP1 JUMPDEST PUSH2 0x4AA7 PUSH1 0x40 MLOAD PUSH8 0x1DC47D0AC46D0335 PUSH1 0x20 DUP3 ADD MSTORE PUSH1 0x20 DUP2 MSTORE PUSH2 0x42C8 JUMP JUMPDEST PUSH2 0x4AC4 PUSH1 0x40 MLOAD PUSH8 0xB6994B0B680EC0DD PUSH1 0x20 DUP3 ADD MSTORE PUSH1 0x20 DUP2 MSTORE PUSH2 0x42C8 JUMP JUMPDEST PUSH2 0x4ACE DUP3 DUP3 PUSH2 0x4418 JUMP JUMPDEST SWAP3 PUSH2 0x4AEC PUSH1 0x40 MLOAD PUSH8 0xC479F1D9CDE5106B PUSH1 0x20 DUP3 ADD MSTORE PUSH1 0x20 DUP2 MSTORE PUSH2 0x42C8 JUMP JUMPDEST PUSH2 0x4B09 PUSH1 0x40 MLOAD PUSH8 0x47E4C937FB02A18A PUSH1 0x20 DUP3 ADD MSTORE PUSH1 0x20 DUP2 MSTORE PUSH2 0x42C8 JUMP JUMPDEST PUSH2 0x4B11 PUSH2 0x5A20 JUMP JUMPDEST PUSH1 0x1 PUSH1 0x1 PUSH1 0xA0 SHL SUB DUP6 AND PUSH2 0x582F JUMPI PUSH2 0x4B2B DUP5 PUSH1 0x2 SLOAD PUSH2 0x4434 JUMP JUMPDEST PUSH1 0x2 SSTORE JUMPDEST PUSH1 0x1 PUSH1 0x1 PUSH1 0xA0 SHL SUB DUP2 DUP2 AND PUSH1 0x0 DUP2 DUP2 MSTORE PUSH1 0x20 DUP2 DUP2 MSTORE PUSH1 0x40 SWAP2 DUP3 SWAP1 KECCAK256 DUP1 SLOAD DUP10 ADD SWAP1 SSTORE SWAP1 MLOAD DUP8 DUP2 MSTORE SWAP2 SWAP3 DUP9 AND SWAP2 PUSH1 0x0 DUP1 MLOAD PUSH1 0x20 PUSH2 0x694E DUP4 CODECOPY DUP2 MLOAD SWAP2 MSTORE SWAP2 SWAP1 LOG3 PUSH2 0x4B89 PUSH1 0x40 MLOAD PUSH8 0x145F6E3F903A8D6C PUSH1 0x20 DUP3 ADD MSTORE PUSH1 0x20 DUP2 MSTORE PUSH2 0x42C8 JUMP JUMPDEST PUSH2 0x4BA6 PUSH1 0x40 MLOAD PUSH8 0x123B8D06AEAA16DB PUSH1 0x20 DUP3 ADD MSTORE PUSH1 0x20 DUP2 MSTORE PUSH2 0x42C8 JUMP JUMPDEST DUP3 ISZERO PUSH2 0x580D JUMPI PUSH2 0x4BC9 PUSH1 0x40 MLOAD PUSH8 0x236E5EDE190F443D PUSH1 0x20 DUP3 ADD MSTORE PUSH1 0x20 DUP2 MSTORE PUSH2 0x42C8 JUMP JUMPDEST PUSH2 0x4BE6 PUSH1 0x40 MLOAD PUSH8 0xF2EBC718EFFF9083 PUSH1 0x20 DUP3 ADD MSTORE PUSH1 0x20 DUP2 MSTORE PUSH2 0x42C8 JUMP JUMPDEST PUSH2 0x4C03 PUSH1 0x40 MLOAD PUSH8 0x863346CE4936D959 PUSH1 0x20 DUP3 ADD MSTORE PUSH1 0x20 DUP2 MSTORE PUSH2 0x42C8 JUMP JUMPDEST PUSH2 0x4C20 PUSH1 0x40 MLOAD PUSH8 0x544AD5232C1F1BA6 PUSH1 0x20 DUP3 ADD MSTORE PUSH1 0x20 DUP2 MSTORE PUSH2 0x42C8 JUMP JUMPDEST PUSH2 0x4C3D PUSH1 0x40 MLOAD PUSH8 0x11D4BCDDF71D5C9A PUSH1 0x20 DUP3 ADD MSTORE PUSH1 0x20 DUP2 MSTORE PUSH2 0x42C8 JUMP JUMPDEST PUSH2 0x4C5A PUSH1 0x40 MLOAD PUSH8 0x8D1A316BEDE48FD9 PUSH1 0x20 DUP3 ADD MSTORE PUSH1 0x20 DUP2 MSTORE PUSH2 0x42C8 JUMP JUMPDEST PUSH2 0x4DEC DUP4 PUSH1 0x1 SHR PUSH2 0x4C7E PUSH1 0x40 MLOAD PUSH8 0x61B239133EC954EE PUSH1 0x20 DUP3 ADD MSTORE PUSH1 0x20 DUP2 MSTORE PUSH2 0x42C8 JUMP JUMPDEST PUSH2 0x4C9B PUSH1 0x40 MLOAD PUSH8 0x482B9FEE438ED9CB PUSH1 0x20 DUP3 ADD MSTORE PUSH1 0x20 DUP2 MSTORE PUSH2 0x42C8 JUMP JUMPDEST DUP1 ISZERO PUSH2 0x57EB JUMPI PUSH2 0x4CBE PUSH1 0x40 MLOAD PUSH8 0x57A2B0F7F6656048 PUSH1 0x20 DUP3 ADD MSTORE PUSH1 0x20 DUP2 MSTORE PUSH2 0x42C8 JUMP JUMPDEST PUSH2 0x4CDB PUSH1 0x40 MLOAD PUSH8 0xFCEDB089CA49EB26 PUSH1 0x20 DUP3 ADD MSTORE PUSH1 0x20 DUP2 MSTORE PUSH2 0x42C8 JUMP JUMPDEST PUSH1 0xB SLOAD PUSH2 0x4CF2 SWAP1 DUP3 SWAP1 PUSH1 0x1 PUSH1 0x1 PUSH1 0xA0 SHL SUB AND PUSH2 0x66E2 JUMP JUMPDEST PUSH2 0x4D0F PUSH1 0x40 MLOAD PUSH8 0xA39303225F22FCF1 PUSH1 0x20 DUP3 ADD MSTORE PUSH1 0x20 DUP2 MSTORE PUSH2 0x42C8 JUMP JUMPDEST PUSH2 0x4D2C PUSH1 0x40 MLOAD PUSH8 0xA8C4E81D2E0DF164 PUSH1 0x20 DUP3 ADD MSTORE PUSH1 0x20 DUP2 MSTORE PUSH2 0x42C8 JUMP JUMPDEST PUSH2 0x32A9 DUP6 PUSH1 0x2 SHR SWAP2 PUSH2 0x4D51 PUSH1 0x40 MLOAD PUSH8 0xE739FF3F0295C8AE PUSH1 0x20 DUP3 ADD MSTORE PUSH1 0x20 DUP2 MSTORE PUSH2 0x42C8 JUMP JUMPDEST PUSH1 0x1 DUP1 PUSH1 0xA0 SHL SUB DUP10 AND PUSH1 0x0 MSTORE PUSH1 0x10 PUSH1 0x20 MSTORE PUSH1 0x40 PUSH1 0x0 KECCAK256 PUSH2 0x4D72 DUP5 DUP3 SLOAD PUSH2 0x4434 JUMP JUMPDEST SWAP1 SSTORE PUSH2 0x4D91 PUSH1 0x40 MLOAD PUSH8 0x7D5092E63FCB287F PUSH1 0x20 DUP3 ADD MSTORE PUSH1 0x20 DUP2 MSTORE PUSH2 0x42C8 JUMP JUMPDEST PUSH1 0x1 DUP1 PUSH1 0xA0 SHL SUB DUP10 AND PUSH1 0x0 MSTORE PUSH1 0x10 PUSH1 0x20 MSTORE TIMESTAMP PUSH1 0x1 PUSH1 0x40 PUSH1 0x0 KECCAK256 ADD SSTORE PUSH2 0x4DC9 PUSH1 0x40 MLOAD PUSH8 0x1A5552CD34F02736 PUSH1 0x20 DUP3 ADD MSTORE PUSH1 0x20 DUP2 MSTORE PUSH2 0x42C8 JUMP JUMPDEST PUSH2 0x4DE6 PUSH1 0x40 MLOAD PUSH8 0x42C16A190DA09839 PUSH1 0x20 DUP3 ADD MSTORE PUSH1 0x20 DUP2 MSTORE PUSH2 0x42C8 JUMP JUMPDEST DUP7 PUSH2 0x4418 JUMP JUMPDEST PUSH2 0x4E09 PUSH1 0x40 MLOAD PUSH8 0xBE9170D5967FE50E PUSH1 0x20 DUP3 ADD MSTORE PUSH1 0x20 DUP2 MSTORE PUSH2 0x42C8 JUMP JUMPDEST PUSH1 0x1 DUP1 PUSH1 0xA0 SHL SUB DUP3 AND PUSH1 0x0 MSTORE PUSH1 0x10 PUSH1 0x20 MSTORE PUSH2 0x4E2A PUSH1 0x40 PUSH1 0x0 KECCAK256 SWAP2 DUP3 SLOAD PUSH2 0x4434 JUMP JUMPDEST SWAP1 SSTORE PUSH2 0x4E49 PUSH1 0x40 MLOAD PUSH8 0x74BE09F95CB5AFC6 PUSH1 0x20 DUP3 ADD MSTORE PUSH1 0x20 DUP2 MSTORE PUSH2 0x42C8 JUMP JUMPDEST PUSH1 0x1 DUP1 PUSH1 0xA0 SHL SUB DUP2 AND PUSH1 0x0 MSTORE PUSH1 0x10 PUSH1 0x20 MSTORE TIMESTAMP PUSH1 0x1 PUSH1 0x40 PUSH1 0x0 KECCAK256 ADD SSTORE JUMPDEST PUSH2 0x4E82 PUSH1 0x40 MLOAD PUSH8 0x971AE187876A134C PUSH1 0x20 DUP3 ADD MSTORE PUSH1 0x20 DUP2 MSTORE PUSH2 0x42C8 JUMP JUMPDEST PUSH1 0x1 PUSH1 0x1 PUSH1 0xA0 SHL SUB DUP6 DUP2 AND PUSH1 0x0 SWAP1 DUP2 MSTORE PUSH1 0xE PUSH1 0x20 SWAP1 DUP2 MSTORE PUSH1 0x40 DUP1 DUP4 KECCAK256 SWAP4 DUP6 AND DUP4 MSTORE SWAP3 SWAP1 MSTORE KECCAK256 DUP1 SLOAD PUSH2 0x4EB2 SWAP1 PUSH2 0x4425 JUMP JUMPDEST SWAP1 SSTORE PUSH2 0x4ED1 PUSH1 0x40 MLOAD PUSH8 0x9DC850D02A28B612 PUSH1 0x20 DUP3 ADD MSTORE PUSH1 0x20 DUP2 MSTORE PUSH2 0x42C8 JUMP JUMPDEST PUSH2 0x4EEE PUSH1 0x40 MLOAD PUSH8 0x549B709BEF3DAAB5 PUSH1 0x20 DUP3 ADD MSTORE PUSH1 0x20 DUP2 MSTORE PUSH2 0x42C8 JUMP JUMPDEST PUSH2 0x4F0B PUSH1 0x40 MLOAD PUSH8 0xB19ED8C37F889D65 PUSH1 0x20 DUP3 ADD MSTORE PUSH1 0x20 DUP2 MSTORE PUSH2 0x42C8 JUMP JUMPDEST PUSH2 0x4F28 PUSH1 0x40 MLOAD PUSH8 0x4B24489668391BFF PUSH1 0x20 DUP3 ADD MSTORE PUSH1 0x20 DUP2 MSTORE PUSH2 0x42C8 JUMP JUMPDEST PUSH2 0x4F45 PUSH1 0x40 MLOAD PUSH8 0xB5201AFE1C71D659 PUSH1 0x20 DUP3 ADD MSTORE PUSH1 0x20 DUP2 MSTORE PUSH2 0x42C8 JUMP JUMPDEST PUSH1 0x7 SLOAD PUSH2 0x4F65 PUSH1 0x40 MLOAD PUSH8 0x58A42AF4AAC43EBF PUSH1 0x20 DUP3 ADD MSTORE PUSH1 0x20 DUP2 MSTORE PUSH2 0x42C8 JUMP JUMPDEST PUSH2 0x4F82 PUSH1 0x40 MLOAD PUSH8 0x3C2E5CD7DC3C2E17 PUSH1 0x20 DUP3 ADD MSTORE PUSH1 0x20 DUP2 MSTORE PUSH2 0x42C8 JUMP JUMPDEST PUSH1 0x1 DUP1 PUSH1 0xA0 SHL SUB DUP7 AND PUSH1 0x0 MSTORE PUSH1 0xE PUSH1 0x20 MSTORE PUSH1 0x40 PUSH1 0x0 KECCAK256 PUSH1 0x1 DUP1 PUSH1 0xA0 SHL SUB DUP4 AND PUSH1 0x0 MSTORE PUSH1 0x20 MSTORE PUSH1 0x40 PUSH1 0x0 KECCAK256 SLOAD PUSH2 0x4FCA PUSH1 0x40 MLOAD PUSH8 0x5BD7CB4F0F45CF15 PUSH1 0x20 DUP3 ADD MSTORE PUSH1 0x20 DUP2 MSTORE PUSH2 0x42C8 JUMP JUMPDEST PUSH2 0x4FE7 PUSH1 0x40 MLOAD PUSH8 0x1F3406B13E9A7134 PUSH1 0x20 DUP3 ADD MSTORE PUSH1 0x20 DUP2 MSTORE PUSH2 0x42C8 JUMP JUMPDEST DUP1 ISZERO DUP1 PUSH2 0x57C7 JUMPI PUSH2 0x500B PUSH1 0x40 MLOAD PUSH8 0xA55B05EA151C80A3 PUSH1 0x20 DUP3 ADD MSTORE PUSH1 0x20 DUP2 MSTORE PUSH2 0x42C8 JUMP JUMPDEST PUSH2 0x5028 PUSH1 0x40 MLOAD PUSH8 0x1E707F0609EF4EE2 PUSH1 0x20 DUP3 ADD MSTORE PUSH1 0x20 DUP2 MSTORE PUSH2 0x42C8 JUMP JUMPDEST PUSH2 0x5045 PUSH1 0x40 MLOAD PUSH8 0x83281294EF9C808C PUSH1 0x20 DUP3 ADD MSTORE PUSH1 0x20 DUP2 MSTORE PUSH2 0x42C8 JUMP JUMPDEST PUSH1 0xA DUP3 MUL SWAP2 DUP3 DIV PUSH1 0xA EQ OR ISZERO PUSH2 0x4402 JUMPI PUSH1 0x5A DUP2 GT DUP1 ISZERO PUSH2 0x579F JUMPI JUMPDEST DUP1 PUSH2 0x5777 JUMPI JUMPDEST ISZERO PUSH2 0x5772 JUMPI POP PUSH1 0x5A JUMPDEST PUSH2 0x508C PUSH1 0x40 MLOAD PUSH8 0x6E944265029F383A PUSH1 0x20 DUP3 ADD MSTORE PUSH1 0x20 DUP2 MSTORE PUSH2 0x42C8 JUMP JUMPDEST PUSH1 0x64 SUB SWAP1 PUSH1 0x64 DUP3 GT PUSH2 0x4402 JUMPI PUSH1 0x64 SWAP2 PUSH2 0x50A4 SWAP2 PUSH2 0x43EF JUMP JUMPDEST DIV JUMPDEST PUSH2 0x50C3 PUSH1 0x40 MLOAD PUSH8 0xE9DEC1C2850540CF PUSH1 0x20 DUP3 ADD MSTORE PUSH1 0x20 DUP2 MSTORE PUSH2 0x42C8 JUMP JUMPDEST PUSH2 0x50E0 PUSH1 0x40 MLOAD PUSH8 0xA2146DEA2604361C PUSH1 0x20 DUP3 ADD MSTORE PUSH1 0x20 DUP2 MSTORE PUSH2 0x42C8 JUMP JUMPDEST PUSH1 0x1 DUP1 PUSH1 0xA0 SHL SUB DUP7 AND PUSH1 0x0 MSTORE PUSH1 0xD PUSH1 0x20 MSTORE PUSH1 0x40 PUSH1 0x0 KECCAK256 PUSH2 0x5113 PUSH1 0x40 MLOAD PUSH8 0x460DF709D4DBF187 PUSH1 0x20 DUP3 ADD MSTORE PUSH1 0x20 DUP2 MSTORE PUSH2 0x42C8 JUMP JUMPDEST PUSH2 0x5130 PUSH1 0x40 MLOAD PUSH8 0x2B23B5FDF398D50 PUSH1 0x20 DUP3 ADD MSTORE PUSH1 0x20 DUP2 MSTORE PUSH2 0x42C8 JUMP JUMPDEST PUSH1 0x1 DUP2 ADD SLOAD SWAP1 DUP2 ISZERO SWAP1 DUP2 PUSH2 0x5752 JUMPI PUSH2 0x515B PUSH1 0x40 MLOAD PUSH8 0xC15641C67E22ECF6 PUSH1 0x20 DUP3 ADD MSTORE PUSH1 0x20 DUP2 MSTORE PUSH2 0x42C8 JUMP JUMPDEST PUSH2 0x5178 PUSH1 0x40 MLOAD PUSH8 0xA527B50ADF727C04 PUSH1 0x20 DUP3 ADD MSTORE PUSH1 0x20 DUP2 MSTORE PUSH2 0x42C8 JUMP JUMPDEST PUSH2 0x5195 PUSH1 0x40 MLOAD PUSH8 0xDAEA89A6324AD31C PUSH1 0x20 DUP3 ADD MSTORE PUSH1 0x20 DUP2 MSTORE PUSH2 0x42C8 JUMP JUMPDEST SLOAD SWAP1 DUP2 ISZERO PUSH2 0x5732 JUMPI PUSH2 0x51BA PUSH1 0x40 MLOAD PUSH8 0x7C21B085B3E4BCC0 PUSH1 0x20 DUP3 ADD MSTORE PUSH1 0x20 DUP2 MSTORE PUSH2 0x42C8 JUMP JUMPDEST PUSH2 0x51D7 PUSH1 0x40 MLOAD PUSH8 0xCAEC01B36D280508 PUSH1 0x20 DUP3 ADD MSTORE PUSH1 0x20 DUP2 MSTORE PUSH2 0x42C8 JUMP JUMPDEST PUSH2 0x51F4 PUSH1 0x40 MLOAD PUSH8 0xC467989EB0BD03E5 PUSH1 0x20 DUP3 ADD MSTORE PUSH1 0x20 DUP2 MSTORE PUSH2 0x42C8 JUMP JUMPDEST PUSH2 0x571C JUMPI DIV PUSH2 0x5216 PUSH1 0x40 MLOAD PUSH8 0x73C962773EB181F5 PUSH1 0x20 DUP3 ADD MSTORE PUSH1 0x20 DUP2 MSTORE PUSH2 0x42C8 JUMP JUMPDEST PUSH2 0x5233 PUSH1 0x40 MLOAD PUSH8 0xC63BFD15DE6467A2 PUSH1 0x20 DUP3 ADD MSTORE PUSH1 0x20 DUP2 MSTORE PUSH2 0x42C8 JUMP JUMPDEST PUSH1 0xA DUP2 MUL SWAP1 DUP1 DUP3 DIV PUSH1 0xA EQ SWAP1 ISZERO OR ISZERO PUSH2 0x4402 JUMPI DUP4 GT ISZERO PUSH2 0x56FA JUMPI PUSH2 0x526A PUSH1 0x40 MLOAD PUSH8 0x3DD04F0713116362 PUSH1 0x20 DUP3 ADD MSTORE PUSH1 0x20 DUP2 MSTORE PUSH2 0x42C8 JUMP JUMPDEST DUP1 PUSH1 0x1 SHL SWAP1 DUP1 DUP3 DIV PUSH1 0x2 EQ SWAP1 ISZERO OR ISZERO PUSH2 0x4402 JUMPI JUMPDEST PUSH2 0x529B PUSH1 0x40 MLOAD PUSH8 0x9EBE53FC414BB4C3 PUSH1 0x20 DUP3 ADD MSTORE PUSH1 0x20 DUP2 MSTORE PUSH2 0x42C8 JUMP JUMPDEST PUSH2 0x52B8 PUSH1 0x40 MLOAD PUSH8 0x6BC86DB466034ACE PUSH1 0x20 DUP3 ADD MSTORE PUSH1 0x20 DUP2 MSTORE PUSH2 0x42C8 JUMP JUMPDEST PUSH1 0x8 SLOAD SWAP1 DUP2 DUP2 LT ISZERO PUSH2 0x5669 JUMPI POP PUSH2 0x52E2 PUSH1 0x40 MLOAD PUSH8 0x3D4B0FCE3C4759AF PUSH1 0x20 DUP3 ADD MSTORE PUSH1 0x20 DUP2 MSTORE PUSH2 0x42C8 JUMP JUMPDEST SWAP3 JUMPDEST PUSH2 0x5301 PUSH1 0x40 MLOAD PUSH8 0x80AD2DC9039C4890 PUSH1 0x20 DUP3 ADD MSTORE PUSH1 0x20 DUP2 MSTORE PUSH2 0x42C8 JUMP JUMPDEST PUSH2 0x531E PUSH1 0x40 MLOAD PUSH8 0x129F9150746471B3 PUSH1 0x20 DUP3 ADD MSTORE PUSH1 0x20 DUP2 MSTORE PUSH2 0x42C8 JUMP JUMPDEST PUSH2 0x533B PUSH1 0x40 MLOAD PUSH8 0x3F0E5DA6A5B6C5C1 PUSH1 0x20 DUP3 ADD MSTORE PUSH1 0x20 DUP2 MSTORE PUSH2 0x42C8 JUMP JUMPDEST PUSH2 0x5345 DUP5 TIMESTAMP PUSH2 0x4434 JUMP JUMPDEST SWAP3 PUSH1 0x1 DUP1 PUSH1 0xA0 SHL SUB DUP4 AND PUSH1 0x0 MSTORE PUSH1 0xC PUSH1 0x20 MSTORE PUSH1 0x3 PUSH1 0x40 PUSH1 0x0 KECCAK256 ADD SLOAD SWAP5 PUSH1 0x1 DUP7 ADD DUP7 GT PUSH2 0x4402 JUMPI PUSH1 0x40 MLOAD SWAP5 PUSH1 0x20 DUP7 ADD SWAP6 PUSH1 0x1 PUSH1 0x1 PUSH1 0x60 SHL SUB NOT DUP1 DUP12 PUSH1 0x60 SHL AND DUP9 MSTORE DUP7 PUSH1 0x60 SHL AND PUSH1 0x34 DUP3 ADD MSTORE DUP4 PUSH1 0x48 DUP3 ADD MSTORE PUSH1 0x48 DUP2 MSTORE PUSH8 0xFFFFFFFFFFFFFFFF SWAP7 DUP2 PUSH1 0x80 DUP2 ADD LT DUP9 PUSH1 0x80 DUP5 ADD GT OR PUSH2 0x42E4 JUMPI PUSH1 0x80 DUP3 ADD PUSH1 0x40 MSTORE DUP2 MLOAD SWAP1 KECCAK256 SWAP7 PUSH1 0x80 DUP3 ADD PUSH2 0x160 DUP4 ADD LT SWAP1 PUSH2 0x160 DUP4 ADD GT OR PUSH2 0x42E4 JUMPI PUSH32 0x98BC3FE7D138931A49691B623C256B8812F2A3D7F9B25BA7098C82538977A5D0 SWAP8 PUSH1 0x40 SWAP8 PUSH1 0x6 SWAP4 PUSH2 0x160 DUP5 ADD DUP11 MSTORE PUSH1 0x80 DUP5 ADD MSTORE PUSH1 0xA0 DUP4 ADD SWAP5 DUP6 MSTORE PUSH1 0xC0 DUP4 ADD SWAP2 PUSH1 0x1 DUP1 PUSH1 0xA0 SHL SUB DUP14 AND DUP4 MSTORE PUSH1 0x1 PUSH1 0xE0 DUP6 ADD SWAP2 ADD DUP2 MSTORE PUSH2 0x100 DUP5 ADD SWAP2 DUP3 MSTORE PUSH2 0x120 DUP5 ADD SWAP3 DUP9 DUP5 MSTORE PUSH2 0x140 DUP6 ADD SWAP7 PUSH1 0x0 DUP9 MSTORE PUSH1 0x1 DUP1 PUSH1 0xA0 SHL SUB DUP12 AND PUSH1 0x0 MSTORE PUSH1 0xC PUSH1 0x20 MSTORE PUSH1 0x80 DUP13 PUSH1 0x0 KECCAK256 SWAP7 ADD MLOAD DUP7 SSTORE MLOAD PUSH1 0x1 DUP7 ADD SSTORE PUSH1 0x2 DUP6 ADD SWAP1 PUSH1 0x1 DUP1 PUSH1 0xA0 SHL SUB SWAP1 MLOAD AND PUSH1 0x1 PUSH1 0x1 PUSH1 0x60 SHL SUB PUSH1 0xA0 SHL DUP3 SLOAD AND OR SWAP1 SSTORE MLOAD PUSH1 0x3 DUP5 ADD SSTORE MLOAD PUSH1 0x4 DUP4 ADD SSTORE MLOAD PUSH1 0x5 DUP3 ADD SSTORE ADD SWAP1 MLOAD ISZERO ISZERO PUSH1 0xFF DUP1 NOT DUP4 SLOAD AND SWAP2 AND OR SWAP1 SSTORE PUSH2 0x54C7 DUP5 MLOAD PUSH8 0x51FC128D9E54F541 PUSH1 0x20 DUP3 ADD MSTORE PUSH1 0x20 DUP2 MSTORE PUSH2 0x42C8 JUMP JUMPDEST PUSH2 0x54E3 DUP5 MLOAD PUSH8 0xE46675F3DEFEE88E PUSH1 0x20 DUP3 ADD MSTORE PUSH1 0x20 DUP2 MSTORE PUSH2 0x42C8 JUMP JUMPDEST PUSH2 0x54FF DUP5 MLOAD PUSH8 0xC1A6135892BB8392 PUSH1 0x20 DUP3 ADD MSTORE PUSH1 0x20 DUP2 MSTORE PUSH2 0x42C8 JUMP JUMPDEST PUSH2 0x551B DUP5 MLOAD PUSH8 0xFDBD14692EDCF25 PUSH1 0x20 DUP3 ADD MSTORE PUSH1 0x20 DUP2 MSTORE PUSH2 0x42C8 JUMP JUMPDEST PUSH2 0x5537 DUP5 MLOAD PUSH8 0x9B7F32CD73564107 PUSH1 0x20 DUP3 ADD MSTORE PUSH1 0x20 DUP2 MSTORE PUSH2 0x42C8 JUMP JUMPDEST PUSH1 0x1 DUP1 PUSH1 0xA0 SHL SUB DUP4 AND PUSH1 0x0 MSTORE PUSH1 0xD PUSH1 0x20 MSTORE PUSH1 0x1 DUP5 PUSH1 0x0 KECCAK256 PUSH2 0x556A DUP7 MLOAD PUSH8 0x9C1AE8E140AA7E13 PUSH1 0x20 DUP3 ADD MSTORE PUSH1 0x20 DUP2 MSTORE PUSH2 0x42C8 JUMP JUMPDEST PUSH2 0x5586 DUP7 MLOAD PUSH8 0x291272A7F8A6C7B7 PUSH1 0x20 DUP3 ADD MSTORE PUSH1 0x20 DUP2 MSTORE PUSH2 0x42C8 JUMP JUMPDEST PUSH2 0x55CE PUSH1 0x2 DUP3 ADD SWAP4 DUP5 SLOAD DUP1 ISZERO ISZERO SWAP1 DUP2 PUSH2 0x5654 JUMPI JUMPDEST POP ISZERO PUSH2 0x5633 JUMPI PUSH2 0x55BC DUP9 MLOAD PUSH8 0xFE0BE66F11CDA923 PUSH1 0x20 DUP3 ADD MSTORE PUSH1 0x20 DUP2 MSTORE PUSH2 0x42C8 JUMP JUMPDEST PUSH1 0x0 DUP4 SSTORE PUSH1 0x0 DUP5 DUP5 ADD SSTORE JUMPDEST DUP3 SLOAD PUSH2 0x4434 JUMP JUMPDEST DUP2 SSTORE ADD PUSH2 0x55DB DUP2 SLOAD PUSH2 0x4425 JUMP JUMPDEST SWAP1 SSTORE TIMESTAMP SWAP1 SSTORE PUSH2 0x55FC DUP4 MLOAD PUSH8 0x717E6E7169C0BA94 PUSH1 0x20 DUP3 ADD MSTORE PUSH1 0x20 DUP2 MSTORE PUSH2 0x42C8 JUMP JUMPDEST PUSH2 0x5618 DUP4 MLOAD PUSH8 0x5F30B3A5700C853A PUSH1 0x20 DUP3 ADD MSTORE PUSH1 0x20 DUP2 MSTORE PUSH2 0x42C8 JUMP JUMPDEST DUP3 MLOAD SWAP5 DUP6 MSTORE PUSH1 0x20 DUP6 ADD MSTORE PUSH1 0x1 PUSH1 0x1 PUSH1 0xA0 SHL SUB SWAP1 DUP2 AND SWAP5 AND SWAP3 LOG3 JUMP JUMPDEST PUSH2 0x564F DUP9 MLOAD PUSH8 0x601550B4F5707333 PUSH1 0x20 DUP3 ADD MSTORE PUSH1 0x20 DUP2 MSTORE PUSH2 0x42C8 JUMP JUMPDEST PUSH2 0x55C7 JUMP JUMPDEST PUSH2 0x565F SWAP2 POP TIMESTAMP PUSH2 0x4418 JUMP JUMPDEST PUSH1 0xA SLOAD LT CODESIZE PUSH2 0x559A JUMP JUMPDEST SWAP1 POP PUSH2 0x5688 PUSH1 0x40 MLOAD PUSH8 0x41C01297B865C857 PUSH1 0x20 DUP3 ADD MSTORE PUSH1 0x20 DUP2 MSTORE PUSH2 0x42C8 JUMP JUMPDEST PUSH2 0x56A5 PUSH1 0x40 MLOAD PUSH8 0x319AF96DF9EB9980 PUSH1 0x20 DUP3 ADD MSTORE PUSH1 0x20 DUP2 MSTORE PUSH2 0x42C8 JUMP JUMPDEST PUSH1 0x9 SLOAD SWAP1 DUP2 DUP2 GT ISZERO PUSH2 0x56D5 JUMPI POP PUSH2 0x56CF PUSH1 0x40 MLOAD PUSH8 0xD0BC65E2352F4FE5 PUSH1 0x20 DUP3 ADD MSTORE PUSH1 0x20 DUP2 MSTORE PUSH2 0x42C8 JUMP JUMPDEST SWAP3 PUSH2 0x52E4 JUMP JUMPDEST SWAP4 SWAP1 POP PUSH2 0x56F5 PUSH1 0x40 MLOAD PUSH8 0x396B45856D467AEF PUSH1 0x20 DUP3 ADD MSTORE PUSH1 0x20 DUP2 MSTORE PUSH2 0x42C8 JUMP JUMPDEST PUSH2 0x52E4 JUMP JUMPDEST PUSH2 0x5717 PUSH1 0x40 MLOAD PUSH8 0x31171B87078AC22D PUSH1 0x20 DUP3 ADD MSTORE PUSH1 0x20 DUP2 MSTORE PUSH2 0x42C8 JUMP JUMPDEST PUSH2 0x527E JUMP JUMPDEST PUSH4 0x4E487B71 PUSH1 0xE0 SHL PUSH1 0x0 MSTORE PUSH1 0x12 PUSH1 0x4 MSTORE PUSH1 0x24 PUSH1 0x0 REVERT JUMPDEST POP POP POP PUSH2 0x5717 PUSH1 0x40 MLOAD PUSH8 0xAD5FEA6D9C273C52 PUSH1 0x20 DUP3 ADD MSTORE PUSH1 0x20 DUP2 MSTORE PUSH2 0x42C8 JUMP JUMPDEST POP POP POP PUSH2 0x5717 PUSH1 0x40 MLOAD PUSH8 0xF62DC0C483B7AD8F PUSH1 0x20 DUP3 ADD MSTORE PUSH1 0x20 DUP2 MSTORE PUSH2 0x42C8 JUMP JUMPDEST PUSH2 0x506F JUMP JUMPDEST POP PUSH2 0x5798 PUSH1 0x40 MLOAD PUSH8 0x312DAFAAB5CE3619 PUSH1 0xC2 SHL PUSH1 0x20 DUP3 ADD MSTORE PUSH1 0x20 DUP2 MSTORE PUSH2 0x42C8 JUMP JUMPDEST PUSH1 0x1 PUSH2 0x5066 JUMP JUMPDEST POP PUSH2 0x57C0 PUSH1 0x40 MLOAD PUSH8 0xE400E4957C589319 PUSH1 0xC0 SHL PUSH1 0x20 DUP3 ADD MSTORE PUSH1 0x20 DUP2 MSTORE PUSH2 0x42C8 JUMP JUMPDEST PUSH1 0x0 PUSH2 0x5060 JUMP JUMPDEST POP POP PUSH2 0x57E6 PUSH1 0x40 MLOAD PUSH8 0x40DEA02ACD3D6514 PUSH1 0x20 DUP3 ADD MSTORE PUSH1 0x20 DUP2 MSTORE PUSH2 0x42C8 JUMP JUMPDEST PUSH2 0x50A6 JUMP JUMPDEST PUSH2 0x5808 PUSH1 0x40 MLOAD PUSH8 0xB394E2AC30BCF974 PUSH1 0x20 DUP3 ADD MSTORE PUSH1 0x20 DUP2 MSTORE PUSH2 0x42C8 JUMP JUMPDEST PUSH2 0x4CF2 JUMP JUMPDEST PUSH2 0x582A PUSH1 0x40 MLOAD PUSH8 0xAA15AEB9A744A1CC PUSH1 0x20 DUP3 ADD MSTORE PUSH1 0x20 DUP2 MSTORE PUSH2 0x42C8 JUMP JUMPDEST PUSH2 0x4E65 JUMP JUMPDEST PUSH1 0x1 PUSH1 0x1 PUSH1 0xA0 SHL SUB DUP6 AND PUSH1 0x0 SWAP1 DUP2 MSTORE PUSH1 0x20 DUP2 SWAP1 MSTORE PUSH1 0x40 SWAP1 KECCAK256 SLOAD DUP5 DUP2 LT PUSH2 0x586E JUMPI DUP5 SWAP1 PUSH1 0x1 DUP1 PUSH1 0xA0 SHL SUB DUP8 AND PUSH1 0x0 MSTORE PUSH1 0x0 PUSH1 0x20 MSTORE SUB PUSH1 0x40 PUSH1 0x0 KECCAK256 SSTORE PUSH2 0x4B2F JUMP JUMPDEST PUSH1 0x40 MLOAD PUSH4 0x391434E3 PUSH1 0xE2 SHL DUP2 MSTORE PUSH1 0x1 PUSH1 0x1 PUSH1 0xA0 SHL SUB DUP8 AND PUSH1 0x4 DUP3 ADD MSTORE PUSH1 0x24 DUP2 ADD SWAP2 SWAP1 SWAP2 MSTORE PUSH1 0x44 DUP2 ADD DUP6 SWAP1 MSTORE PUSH1 0x64 SWAP1 REVERT JUMPDEST SWAP1 PUSH2 0x58BC PUSH1 0x40 MLOAD PUSH8 0xEBD16EF657B3F1D3 PUSH1 0x20 DUP3 ADD MSTORE PUSH1 0x20 DUP2 MSTORE PUSH2 0x42C8 JUMP JUMPDEST PUSH2 0x4A8A JUMP JUMPDEST PUSH2 0x58DE PUSH1 0x40 MLOAD PUSH8 0x948DF8D9B92216AC PUSH1 0x20 DUP3 ADD MSTORE PUSH1 0x20 DUP2 MSTORE PUSH2 0x42C8 JUMP JUMPDEST PUSH2 0x4A28 JUMP JUMPDEST POP PUSH1 0x1 DUP3 GT PUSH2 0x4A02 JUMP JUMPDEST SWAP1 POP PUSH2 0x590C PUSH1 0x40 MLOAD PUSH8 0xA2FEA3F252BAA376 PUSH1 0x20 DUP3 ADD MSTORE PUSH1 0x20 DUP2 MSTORE PUSH2 0x42C8 JUMP JUMPDEST PUSH2 0x4984 JUMP JUMPDEST SWAP1 POP SWAP2 PUSH2 0x4812 JUMP JUMPDEST POP PUSH2 0x593A PUSH1 0x40 MLOAD PUSH8 0x21F53F9F65959CE7 PUSH1 0xC2 SHL PUSH1 0x20 DUP3 ADD MSTORE PUSH1 0x20 DUP2 MSTORE PUSH2 0x42C8 JUMP JUMPDEST PUSH1 0x1 PUSH2 0x480A JUMP JUMPDEST POP PUSH2 0x5962 PUSH1 0x40 MLOAD PUSH8 0x349797A2D583F111 PUSH1 0xC2 SHL PUSH1 0x20 DUP3 ADD MSTORE PUSH1 0x20 DUP2 MSTORE PUSH2 0x42C8 JUMP JUMPDEST PUSH1 0x0 PUSH2 0x4804 JUMP JUMPDEST PUSH1 0x2 ADD SLOAD PUSH1 0x1 PUSH1 0x1 PUSH1 0xA0 SHL SUB DUP5 DUP2 AND SWAP2 AND EQ ISZERO SWAP1 POP CODESIZE PUSH2 0x45B9 JUMP JUMPDEST PUSH1 0x40 MLOAD PUSH3 0x461BCD PUSH1 0xE5 SHL DUP2 MSTORE PUSH1 0x20 PUSH1 0x4 DUP3 ADD MSTORE PUSH1 0x29 PUSH1 0x24 DUP3 ADD MSTORE PUSH32 0x5472616E7366657220616D6F756E74206D757374206265206772656174657220 PUSH1 0x44 DUP3 ADD MSTORE PUSH9 0x7468616E207A65726F PUSH1 0xB8 SHL PUSH1 0x64 DUP3 ADD MSTORE PUSH1 0x84 SWAP1 REVERT JUMPDEST PUSH1 0x40 MLOAD PUSH3 0x461BCD PUSH1 0xE5 SHL DUP2 MSTORE PUSH1 0x20 PUSH1 0x4 DUP3 ADD MSTORE PUSH1 0x18 PUSH1 0x24 DUP3 ADD MSTORE PUSH32 0x5472616E7366657220746F207A65726F20616464726573730000000000000000 PUSH1 0x44 DUP3 ADD MSTORE PUSH1 0x64 SWAP1 REVERT JUMPDEST PUSH1 0xFF PUSH1 0x5 SLOAD AND PUSH2 0x5A2C JUMPI JUMP JUMPDEST PUSH1 0x40 MLOAD PUSH4 0xD93C0665 PUSH1 0xE0 SHL DUP2 MSTORE PUSH1 0x4 SWAP1 REVERT JUMPDEST PUSH1 0x40 DUP1 MLOAD SWAP2 PUSH2 0x5A5E PUSH1 0x20 SWAP4 PUSH8 0x70A59A83E975B92A DUP6 DUP3 ADD MSTORE DUP5 DUP2 MSTORE PUSH2 0x42C8 JUMP JUMPDEST PUSH2 0x5A78 DUP3 MLOAD PUSH8 0x668F115C10BD6955 DUP6 DUP3 ADD MSTORE DUP5 DUP2 MSTORE PUSH2 0x42C8 JUMP JUMPDEST PUSH2 0x5A92 DUP3 MLOAD PUSH8 0x4E43078BFA115B05 DUP6 DUP3 ADD MSTORE DUP5 DUP2 MSTORE PUSH2 0x42C8 JUMP JUMPDEST DUP1 PUSH2 0x5AD2 JUMPI POP SWAP1 DUP2 PUSH2 0x5AB7 PUSH2 0x5ACD SWAP4 MLOAD PUSH8 0xA6FB9721FFD86033 DUP5 DUP3 ADD MSTORE DUP4 DUP2 MSTORE PUSH2 0x42C8 JUMP JUMPDEST MLOAD SWAP1 PUSH8 0x872E4B2B9AEA9869 DUP2 DUP4 ADD MSTORE DUP2 MSTORE PUSH2 0x42C8 JUMP JUMPDEST PUSH1 0x0 SWAP1 JUMP JUMPDEST PUSH2 0x5AEC DUP3 MLOAD PUSH8 0x7C4813665181DEDC DUP6 DUP3 ADD MSTORE DUP5 DUP2 MSTORE PUSH2 0x42C8 JUMP JUMPDEST PUSH2 0x5B06 DUP3 MLOAD PUSH8 0x1BFBB13A4B7E75B8 DUP6 DUP3 ADD MSTORE DUP5 DUP2 MSTORE PUSH2 0x42C8 JUMP JUMPDEST PUSH2 0x5B20 DUP3 MLOAD PUSH8 0x150A0C569ABCF7AE DUP6 DUP3 ADD MSTORE DUP5 DUP2 MSTORE PUSH2 0x42C8 JUMP JUMPDEST PUSH2 0x5B3A DUP3 MLOAD PUSH8 0x72370D8CA6BFD9F2 DUP6 DUP3 ADD MSTORE DUP5 DUP2 MSTORE PUSH2 0x42C8 JUMP JUMPDEST PUSH2 0x5B54 DUP3 MLOAD PUSH8 0xDB557D2E982521ED DUP6 DUP3 ADD MSTORE DUP5 DUP2 MSTORE PUSH2 0x42C8 JUMP JUMPDEST SWAP2 PUSH2 0x5B6F DUP3 MLOAD PUSH8 0x46E0894B1893E2F0 DUP4 DUP3 ADD MSTORE DUP3 DUP2 MSTORE PUSH2 0x42C8 JUMP JUMPDEST PUSH2 0x5B89 DUP3 MLOAD PUSH8 0x5A4B23A104783C66 DUP4 DUP3 ADD MSTORE DUP3 DUP2 MSTORE PUSH2 0x42C8 JUMP JUMPDEST PUSH1 0x0 SWAP2 PUSH2 0x5BA6 DUP2 MLOAD PUSH8 0x98F22D1E032FD0BB DUP5 DUP3 ADD MSTORE DUP4 DUP2 MSTORE PUSH2 0x42C8 JUMP JUMPDEST PUSH2 0x5BC0 DUP2 MLOAD PUSH8 0xE3B1812FAC83AF14 DUP5 DUP3 ADD MSTORE DUP4 DUP2 MSTORE PUSH2 0x42C8 JUMP JUMPDEST PUSH8 0xDE0B6B3A7640000 SWAP4 PUSH2 0x5BE4 DUP3 MLOAD PUSH8 0x3B53657DF17CA1CD DUP6 DUP3 ADD MSTORE DUP5 DUP2 MSTORE PUSH2 0x42C8 JUMP JUMPDEST PUSH2 0x5BFE DUP3 MLOAD PUSH8 0x908563EEAF119993 DUP6 DUP3 ADD MSTORE DUP5 DUP2 MSTORE PUSH2 0x42C8 JUMP JUMPDEST DUP4 SWAP1 PUSH2 0x5C1A DUP4 MLOAD PUSH8 0x3B98C14E84D27CE1 DUP7 DUP3 ADD MSTORE DUP6 DUP2 MSTORE PUSH2 0x42C8 JUMP JUMPDEST PUSH2 0x5C34 DUP4 MLOAD PUSH8 0xF267173894DD5B9E DUP7 DUP3 ADD MSTORE DUP6 DUP2 MSTORE PUSH2 0x42C8 JUMP JUMPDEST PUSH3 0x989680 SWAP2 PUSH2 0x5C53 DUP5 MLOAD PUSH8 0x11EA53BB7CF86BD9 DUP8 DUP3 ADD MSTORE DUP7 DUP2 MSTORE PUSH2 0x42C8 JUMP JUMPDEST DUP2 PUSH2 0x5C6E DUP6 MLOAD PUSH8 0x3D80FC69D1ED2B93 DUP9 DUP3 ADD MSTORE DUP8 DUP2 MSTORE PUSH2 0x42C8 JUMP JUMPDEST PUSH2 0x5CAF JUMPI JUMPDEST POP POP POP PUSH2 0x5CAC SWAP3 SWAP4 POP PUSH2 0x5C96 DUP2 MLOAD PUSH8 0x4120DAC8F69DA311 DUP5 DUP3 ADD MSTORE DUP4 DUP2 MSTORE PUSH2 0x42C8 JUMP JUMPDEST MLOAD SWAP1 PUSH8 0x1DEB614BA6D3B976 DUP2 DUP4 ADD MSTORE DUP2 MSTORE PUSH2 0x42C8 JUMP JUMPDEST SWAP1 JUMP JUMPDEST PUSH2 0x5CC9 DUP5 MLOAD PUSH8 0xC674FB8FDE945E8F DUP8 DUP3 ADD MSTORE DUP7 DUP2 MSTORE PUSH2 0x42C8 JUMP JUMPDEST PUSH2 0x5CE3 DUP5 MLOAD PUSH8 0xE6563B1B8EB40798 DUP8 DUP3 ADD MSTORE DUP7 DUP2 MSTORE PUSH2 0x42C8 JUMP JUMPDEST PUSH2 0x5CFD DUP5 MLOAD PUSH8 0x739E194FBF1CDE5 DUP8 DUP3 ADD MSTORE DUP7 DUP2 MSTORE PUSH2 0x42C8 JUMP JUMPDEST PUSH2 0x5D17 DUP5 MLOAD PUSH8 0x48D44B55A7FC063A DUP8 DUP3 ADD MSTORE DUP7 DUP2 MSTORE PUSH2 0x42C8 JUMP JUMPDEST PUSH2 0x5D21 DUP2 DUP9 PUSH2 0x4418 JUMP JUMPDEST SWAP1 PUSH2 0x5D3C DUP6 MLOAD PUSH8 0x487A193F1A384726 DUP9 DUP3 ADD MSTORE DUP8 DUP2 MSTORE PUSH2 0x42C8 JUMP JUMPDEST PUSH2 0x5D56 DUP6 MLOAD PUSH8 0xF7A10E6E03C6FEF8 DUP9 DUP3 ADD MSTORE DUP8 DUP2 MSTORE PUSH2 0x42C8 JUMP JUMPDEST DUP8 LT ISZERO PUSH2 0x5D89 JUMPI POP POP POP PUSH2 0x5CAC SWAP3 SWAP4 POP PUSH2 0x5D80 DUP2 MLOAD PUSH8 0x4EE3CE079208CDBD DUP5 DUP3 ADD MSTORE DUP4 DUP2 MSTORE PUSH2 0x42C8 JUMP JUMPDEST DUP4 SWAP3 CODESIZE DUP1 PUSH2 0x5C73 JUMP JUMPDEST PUSH2 0x5DA3 DUP5 MLOAD PUSH8 0xCF53E2B0B759F0BD DUP8 DUP3 ADD MSTORE DUP7 DUP2 MSTORE PUSH2 0x42C8 JUMP JUMPDEST PUSH2 0x5DBD DUP5 MLOAD PUSH8 0x11B1E88929CD88E6 DUP8 DUP3 ADD MSTORE DUP7 DUP2 MSTORE PUSH2 0x42C8 JUMP JUMPDEST PUSH2 0x5DD7 DUP5 MLOAD PUSH8 0xE05663502AD8E696 DUP8 DUP3 ADD MSTORE DUP7 DUP2 MSTORE PUSH2 0x42C8 JUMP JUMPDEST DUP1 PUSH2 0x5DFF JUMPI POP POP POP PUSH2 0x5CAC SWAP3 SWAP4 POP PUSH2 0x5D80 DUP2 MLOAD PUSH8 0x63CDDEF929273DF3 DUP5 DUP3 ADD MSTORE DUP4 DUP2 MSTORE PUSH2 0x42C8 JUMP JUMPDEST SWAP5 DUP4 SWAP6 PUSH2 0x5E1D DUP5 SWAP6 MLOAD PUSH8 0x689E3408CEB7A8FA DUP9 DUP3 ADD MSTORE DUP8 DUP2 MSTORE PUSH2 0x42C8 JUMP JUMPDEST PUSH2 0x5E37 DUP8 MLOAD PUSH8 0x6EB7380220E698F8 DUP9 DUP3 ADD MSTORE DUP8 DUP2 MSTORE PUSH2 0x42C8 JUMP JUMPDEST PUSH2 0x5E51 DUP8 MLOAD PUSH8 0x91C54E7E14B7A779 DUP9 DUP3 ADD MSTORE DUP8 DUP2 MSTORE PUSH2 0x42C8 JUMP JUMPDEST DUP1 DUP4 GT ISZERO PUSH2 0x6157 JUMPI SWAP1 PUSH2 0x5E82 PUSH2 0x5EE7 SWAP3 PUSH2 0x5E7B DUP10 MLOAD PUSH8 0x78509701F1C064B5 DUP11 DUP3 ADD MSTORE DUP10 DUP2 MSTORE PUSH2 0x42C8 JUMP JUMPDEST DUP1 SWAP5 PUSH2 0x4418 JUMP JUMPDEST SWAP3 JUMPDEST PUSH2 0x5E9E DUP9 MLOAD PUSH8 0x4907E1CE09E68554 DUP10 DUP3 ADD MSTORE DUP9 DUP2 MSTORE PUSH2 0x42C8 JUMP JUMPDEST PUSH2 0x5EB8 DUP9 MLOAD PUSH8 0xFFFAB400C4981555 DUP10 DUP3 ADD MSTORE DUP9 DUP2 MSTORE PUSH2 0x42C8 JUMP JUMPDEST PUSH2 0x5EC6 PUSH2 0x2710 SWAP7 DUP8 SWAP3 PUSH2 0x43EF JUMP JUMPDEST DIV SWAP1 PUSH2 0x5EE2 DUP9 MLOAD PUSH8 0xFF49A93F074DC41 DUP10 DUP3 ADD MSTORE DUP9 DUP2 MSTORE PUSH2 0x42C8 JUMP JUMPDEST PUSH2 0x4434 JUMP JUMPDEST SWAP6 PUSH2 0x5F02 DUP7 MLOAD PUSH8 0x63422C7C89687586 DUP8 DUP3 ADD MSTORE DUP7 DUP2 MSTORE PUSH2 0x42C8 JUMP JUMPDEST DUP1 PUSH2 0x5F1D DUP8 MLOAD PUSH8 0x67019452D609F939 DUP9 DUP3 ADD MSTORE DUP8 DUP2 MSTORE PUSH2 0x42C8 JUMP JUMPDEST PUSH2 0x5F37 DUP8 MLOAD PUSH8 0x51A19ADA6E49534D DUP9 DUP3 ADD MSTORE DUP8 DUP2 MSTORE PUSH2 0x42C8 JUMP JUMPDEST PUSH1 0xA SWAP1 DUP2 DUP2 MUL SWAP1 DUP1 ISZERO SWAP1 DUP1 DUP4 DIV DUP5 EQ DUP3 OR ISZERO PUSH2 0x4402 JUMPI PUSH2 0x5F67 DUP11 MLOAD PUSH8 0xF227D51FEC2BC37B DUP12 DUP3 ADD MSTORE DUP11 DUP2 MSTORE PUSH2 0x42C8 JUMP JUMPDEST PUSH2 0x5F81 DUP11 MLOAD PUSH8 0x86FEE8B2C264BC75 DUP12 DUP3 ADD MSTORE DUP11 DUP2 MSTORE PUSH2 0x42C8 JUMP JUMPDEST DUP4 DUP4 DIV EQ ISZERO SWAP1 DUP2 PUSH2 0x614E JUMPI JUMPDEST POP ISZERO PUSH2 0x607A JUMPI POP POP POP PUSH2 0x5FB0 DUP6 MLOAD PUSH8 0x175EFE265C24A456 DUP7 DUP3 ADD MSTORE DUP6 DUP2 MSTORE PUSH2 0x42C8 JUMP JUMPDEST PUSH2 0x5FCA DUP6 MLOAD PUSH8 0xBA31C821700DF486 DUP7 DUP3 ADD MSTORE DUP6 DUP2 MSTORE PUSH2 0x42C8 JUMP JUMPDEST PUSH2 0x5FE4 DUP6 MLOAD PUSH8 0xB733384594A80A34 DUP7 DUP3 ADD MSTORE DUP6 DUP2 MSTORE PUSH2 0x42C8 JUMP JUMPDEST DUP1 ISZERO PUSH2 0x6054 JUMPI SWAP2 PUSH2 0x6031 DUP6 SWAP7 SWAP3 PUSH2 0x6038 SWAP5 PUSH2 0x6012 PUSH2 0x5CAC SWAP9 MLOAD PUSH8 0x63E928CFDD29B8EE DUP10 DUP3 ADD MSTORE DUP9 DUP2 MSTORE PUSH2 0x42C8 JUMP JUMPDEST PUSH2 0x602C DUP10 MLOAD PUSH8 0x15B2AF2C3ACE5C50 DUP10 DUP3 ADD MSTORE DUP9 DUP2 MSTORE PUSH2 0x42C8 JUMP JUMPDEST PUSH2 0x43EF JUMP JUMPDEST DIV SWAP1 PUSH2 0x4434 JUMP JUMPDEST SWAP3 JUMPDEST PUSH2 0x5D80 DUP2 MLOAD PUSH8 0x538BC729853E805E DUP5 DUP3 ADD MSTORE DUP4 DUP2 MSTORE PUSH2 0x42C8 JUMP JUMPDEST POP POP POP DUP2 PUSH2 0x6075 PUSH2 0x5CAC SWAP4 MLOAD PUSH8 0x8AE8C5AFA115A750 DUP5 DUP3 ADD MSTORE DUP4 DUP2 MSTORE PUSH2 0x42C8 JUMP JUMPDEST PUSH2 0x603A JUMP JUMPDEST SWAP1 SWAP2 SWAP4 SWAP8 SWAP7 SWAP5 POP PUSH2 0x609B DUP6 MLOAD PUSH8 0xD52A8CC1E6A98117 DUP9 DUP3 ADD MSTORE DUP8 DUP2 MSTORE PUSH2 0x42C8 JUMP JUMPDEST PUSH2 0x60B5 DUP6 MLOAD PUSH8 0xEA1F8811902F4791 DUP9 DUP3 ADD MSTORE DUP8 DUP2 MSTORE PUSH2 0x42C8 JUMP JUMPDEST SWAP7 PUSH2 0x60D0 DUP6 MLOAD PUSH8 0x3C3770425BF481E7 DUP9 DUP3 ADD MSTORE DUP8 DUP2 MSTORE PUSH2 0x42C8 JUMP JUMPDEST DIV SWAP2 PUSH2 0x60EC DUP5 MLOAD PUSH8 0xE41ACF310B495469 DUP8 DUP3 ADD MSTORE DUP7 DUP2 MSTORE PUSH2 0x42C8 JUMP JUMPDEST PUSH2 0x6106 DUP5 MLOAD PUSH8 0x99B21578E33B93DE DUP8 DUP3 ADD MSTORE DUP7 DUP2 MSTORE PUSH2 0x42C8 JUMP JUMPDEST DUP3 PUSH2 0x612E JUMPI POP POP POP PUSH2 0x5CAC SWAP3 SWAP4 POP PUSH2 0x5D80 DUP2 MLOAD PUSH8 0xD51BE13B83B82B0B DUP5 DUP3 ADD MSTORE DUP4 DUP2 MSTORE PUSH2 0x42C8 JUMP JUMPDEST DUP2 PUSH2 0x6149 DUP6 MLOAD PUSH8 0x6F12C1384A67AEF2 DUP9 DUP3 ADD MSTORE DUP8 DUP2 MSTORE PUSH2 0x42C8 JUMP JUMPDEST PUSH2 0x5C6E JUMP JUMPDEST SWAP1 POP ISZERO CODESIZE PUSH2 0x5F8D JUMP JUMPDEST POP SWAP1 PUSH2 0x5EE7 SWAP1 PUSH2 0x6177 DUP8 MLOAD PUSH8 0xC899CD4FC3429CDC DUP9 DUP3 ADD MSTORE DUP8 DUP2 MSTORE PUSH2 0x42C8 JUMP JUMPDEST SWAP2 PUSH1 0x0 SWAP3 PUSH2 0x5E84 JUMP JUMPDEST PUSH1 0x40 SWAP1 DUP2 MLOAD SWAP1 PUSH2 0x61A1 PUSH1 0x20 SWAP3 PUSH8 0xEF8BA3719C1D4A52 DUP5 DUP3 ADD MSTORE DUP4 DUP2 MSTORE PUSH2 0x42C8 JUMP JUMPDEST PUSH2 0x61BB DUP4 MLOAD PUSH8 0xD94FFD960E5DAA88 DUP5 DUP3 ADD MSTORE DUP4 DUP2 MSTORE PUSH2 0x42C8 JUMP JUMPDEST PUSH2 0x61D5 DUP4 MLOAD PUSH8 0xFB3EE0B1331F5E7C DUP5 DUP3 ADD MSTORE DUP4 DUP2 MSTORE PUSH2 0x42C8 JUMP JUMPDEST PUSH1 0x1 PUSH1 0x1 PUSH1 0xA0 SHL SUB AND PUSH1 0x0 SWAP1 DUP2 MSTORE PUSH1 0xF DUP3 MSTORE DUP3 DUP2 KECCAK256 DUP4 MLOAD PUSH8 0xA5E346C84AC247C3 DUP2 DUP6 ADD MSTORE DUP4 DUP2 MSTORE PUSH2 0x6205 SWAP1 PUSH2 0x42C8 JUMP JUMPDEST PUSH2 0x621F DUP5 MLOAD PUSH8 0xA1A6C8A805E12D5F DUP6 DUP3 ADD MSTORE DUP5 DUP2 MSTORE PUSH2 0x42C8 JUMP JUMPDEST PUSH2 0x2710 PUSH2 0x623C DUP6 MLOAD PUSH8 0xCF6BE71863726296 DUP7 DUP3 ADD MSTORE DUP6 DUP2 MSTORE PUSH2 0x42C8 JUMP JUMPDEST PUSH2 0x6256 DUP6 MLOAD PUSH8 0xD487D121C726532 DUP7 DUP3 ADD MSTORE DUP6 DUP2 MSTORE PUSH2 0x42C8 JUMP JUMPDEST PUSH1 0x2 DUP3 ADD SLOAD DUP1 ISZERO ISZERO SWAP1 DUP2 PUSH2 0x643A JUMPI JUMPDEST POP ISZERO PUSH2 0x641B JUMPI POP PUSH2 0x6286 DUP5 MLOAD PUSH8 0x556DF496D88B322B DUP6 DUP3 ADD MSTORE DUP5 DUP2 MSTORE PUSH2 0x42C8 JUMP JUMPDEST PUSH2 0x3A98 JUMPDEST PUSH2 0x62A4 DUP6 MLOAD PUSH8 0xC28BC3B1D763A64C DUP7 DUP3 ADD MSTORE DUP6 DUP2 MSTORE PUSH2 0x42C8 JUMP JUMPDEST PUSH2 0x62BE DUP6 MLOAD PUSH8 0x389ACB82F04218DD DUP7 DUP3 ADD MSTORE DUP6 DUP2 MSTORE PUSH2 0x42C8 JUMP JUMPDEST PUSH1 0x1 DUP3 ADD SLOAD DUP1 ISZERO ISZERO SWAP1 DUP2 PUSH2 0x6404 JUMPI JUMPDEST POP ISZERO PUSH2 0x63E5 JUMPI PUSH2 0x62ED DUP6 MLOAD PUSH8 0xA64B6E6073897A1D DUP7 DUP3 ADD MSTORE DUP6 DUP2 MSTORE PUSH2 0x42C8 JUMP JUMPDEST PUSH2 0x2710 DUP2 ADD DUP1 SWAP2 GT PUSH2 0x63D1 JUMPI JUMPDEST PUSH2 0x6314 DUP6 MLOAD PUSH8 0xA921CF7E3FD0C5FD DUP7 DUP3 ADD MSTORE DUP6 DUP2 MSTORE PUSH2 0x42C8 JUMP JUMPDEST DUP2 SLOAD SWAP1 PUSH2 0x3E8 SWAP2 DUP3 DUP2 MUL SWAP3 DUP2 DUP5 DIV EQ SWAP1 ISZERO OR ISZERO PUSH2 0x63BD JUMPI PUSH1 0x3 SWAP2 PUSH2 0x6337 SWAP2 PUSH2 0x4434 JUMP JUMPDEST SWAP2 PUSH2 0x6352 DUP7 MLOAD PUSH8 0xE3D1BE3BE2D16547 DUP8 DUP3 ADD MSTORE DUP7 DUP2 MSTORE PUSH2 0x42C8 JUMP JUMPDEST ADD SLOAD SWAP2 PUSH2 0x1F4 SWAP3 DUP4 DUP2 MUL SWAP4 DUP2 DUP6 DIV EQ SWAP1 ISZERO OR ISZERO PUSH2 0x63A9 JUMPI POP PUSH2 0x5CAC SWAP3 SWAP2 PUSH2 0x6378 SWAP2 PUSH2 0x4434 JUMP JUMPDEST SWAP3 PUSH2 0x6393 DUP2 MLOAD PUSH8 0x5992E00687CA3E76 DUP5 DUP3 ADD MSTORE DUP4 DUP2 MSTORE PUSH2 0x42C8 JUMP JUMPDEST MLOAD SWAP1 PUSH8 0xCDB0EE10F4C9C15D DUP2 DUP4 ADD MSTORE DUP2 MSTORE PUSH2 0x42C8 JUMP JUMPDEST PUSH4 0x4E487B71 PUSH1 0xE0 SHL DUP2 MSTORE PUSH1 0x11 PUSH1 0x4 MSTORE PUSH1 0x24 SWAP1 REVERT JUMPDEST PUSH4 0x4E487B71 PUSH1 0xE0 SHL DUP5 MSTORE PUSH1 0x11 PUSH1 0x4 MSTORE PUSH1 0x24 DUP5 REVERT JUMPDEST PUSH4 0x4E487B71 PUSH1 0xE0 SHL DUP4 MSTORE PUSH1 0x11 PUSH1 0x4 MSTORE PUSH1 0x24 DUP4 REVERT JUMPDEST PUSH2 0x63FF DUP6 MLOAD PUSH8 0xDEEFD87FE362BD2 DUP7 DUP3 ADD MSTORE DUP6 DUP2 MSTORE PUSH2 0x42C8 JUMP JUMPDEST PUSH2 0x62FA JUMP JUMPDEST PUSH3 0x278D00 SWAP2 POP PUSH2 0x6414 SWAP1 TIMESTAMP PUSH2 0x4418 JUMP JUMPDEST LT CODESIZE PUSH2 0x62CD JUMP JUMPDEST PUSH2 0x6435 DUP6 MLOAD PUSH8 0x7D602C9934555E8 DUP7 DUP3 ADD MSTORE DUP6 DUP2 MSTORE PUSH2 0x42C8 JUMP JUMPDEST PUSH2 0x628A JUMP JUMPDEST PUSH3 0x93A80 SWAP2 POP PUSH2 0x644A SWAP1 TIMESTAMP PUSH2 0x4418 JUMP JUMPDEST LT CODESIZE PUSH2 0x6265 JUMP JUMPDEST PUSH1 0x40 DUP1 MLOAD SWAP2 PUSH2 0x6471 PUSH1 0x20 SWAP4 PUSH8 0x27348274F88C3005 DUP6 DUP3 ADD MSTORE DUP5 DUP2 MSTORE PUSH2 0x42C8 JUMP JUMPDEST PUSH2 0x648B DUP3 MLOAD PUSH8 0xB858556CCFE9BB19 DUP6 DUP3 ADD MSTORE DUP5 DUP2 MSTORE PUSH2 0x42C8 JUMP JUMPDEST PUSH2 0x64A5 DUP3 MLOAD PUSH8 0x8839B622453A12F0 DUP6 DUP3 ADD MSTORE DUP5 DUP2 MSTORE PUSH2 0x42C8 JUMP JUMPDEST PUSH1 0x1 PUSH1 0x1 PUSH1 0xA0 SHL SUB AND PUSH1 0x0 SWAP1 DUP2 MSTORE PUSH1 0x10 DUP4 MSTORE DUP2 SWAP1 KECCAK256 DUP2 MLOAD PUSH8 0xBDE9ED4428121F97 DUP2 DUP6 ADD MSTORE DUP4 DUP2 MSTORE PUSH2 0x64D5 SWAP1 PUSH2 0x42C8 JUMP JUMPDEST PUSH2 0x64EF DUP3 MLOAD PUSH8 0x7363A306D628AC0A DUP6 DUP3 ADD MSTORE DUP5 DUP2 MSTORE PUSH2 0x42C8 JUMP JUMPDEST DUP1 SLOAD DUP1 PUSH2 0x652D JUMPI POP POP SWAP1 DUP2 PUSH2 0x6517 PUSH2 0x5CAC SWAP4 MLOAD PUSH8 0x308A2EC9783D40B4 DUP5 DUP3 ADD MSTORE DUP4 DUP2 MSTORE PUSH2 0x42C8 JUMP JUMPDEST MLOAD SWAP1 PUSH8 0xBDC0314B1BF9CB68 DUP2 DUP4 ADD MSTORE DUP2 MSTORE PUSH2 0x42C8 JUMP JUMPDEST PUSH2 0x654A DUP4 SWAP6 SWAP3 SWAP6 MLOAD PUSH8 0x500244F8A871914B DUP7 DUP3 ADD MSTORE DUP6 DUP2 MSTORE PUSH2 0x42C8 JUMP JUMPDEST PUSH2 0x6564 DUP4 MLOAD PUSH8 0x396E7F587B2F920E DUP7 DUP3 ADD MSTORE DUP6 DUP2 MSTORE PUSH2 0x42C8 JUMP JUMPDEST PUSH2 0x657E DUP4 MLOAD PUSH8 0xAD0DE8EB650E0BD6 DUP7 DUP3 ADD MSTORE DUP6 DUP2 MSTORE PUSH2 0x42C8 JUMP JUMPDEST DUP2 DUP2 LT PUSH2 0x661B JUMPI POP SWAP3 PUSH2 0x65C9 PUSH2 0x5ACD SWAP5 PUSH2 0x65A8 DUP5 MLOAD PUSH8 0xBD3CB7F74470103 DUP8 DUP3 ADD MSTORE DUP7 DUP2 MSTORE PUSH2 0x42C8 JUMP JUMPDEST PUSH2 0x65C2 DUP5 MLOAD PUSH8 0x572FC01744F07603 DUP8 DUP3 ADD MSTORE DUP7 DUP2 MSTORE PUSH2 0x42C8 JUMP JUMPDEST DUP3 SLOAD PUSH2 0x4418 JUMP JUMPDEST DUP2 SSTORE PUSH2 0x65E5 DUP3 MLOAD PUSH8 0xC665E927B0C6882D DUP6 DUP3 ADD MSTORE DUP5 DUP2 MSTORE PUSH2 0x42C8 JUMP JUMPDEST PUSH1 0x1 TIMESTAMP SWAP2 ADD SSTORE PUSH2 0x6605 DUP2 MLOAD PUSH8 0x3202BD016E9D7D15 DUP5 DUP3 ADD MSTORE DUP4 DUP2 MSTORE PUSH2 0x42C8 JUMP JUMPDEST MLOAD SWAP1 PUSH8 0xE495120E371FA475 DUP2 DUP4 ADD MSTORE DUP2 MSTORE PUSH2 0x42C8 JUMP JUMPDEST PUSH2 0x6673 SWAP1 DUP4 SWAP3 PUSH2 0x663F PUSH2 0x5CAC SWAP7 SWAP6 MLOAD PUSH8 0x15B52406CE520C28 DUP8 DUP3 ADD MSTORE DUP7 DUP2 MSTORE PUSH2 0x42C8 JUMP JUMPDEST PUSH2 0x6659 DUP5 MLOAD PUSH8 0xACE441909B614728 DUP8 DUP3 ADD MSTORE DUP7 DUP2 MSTORE PUSH2 0x42C8 JUMP JUMPDEST PUSH2 0x32A9 DUP5 MLOAD PUSH8 0x419239A1CB6F5EB9 DUP8 DUP3 ADD MSTORE DUP7 DUP2 MSTORE PUSH2 0x42C8 JUMP JUMPDEST SWAP4 PUSH2 0x668E DUP3 MLOAD PUSH8 0x173476B9D81BD2CE DUP6 DUP3 ADD MSTORE DUP5 DUP2 MSTORE PUSH2 0x42C8 JUMP JUMPDEST PUSH1 0x0 DUP2 SSTORE PUSH2 0x66AC DUP3 MLOAD PUSH8 0x4A372CB91CFDE80 DUP6 DUP3 ADD MSTORE DUP5 DUP2 MSTORE PUSH2 0x42C8 JUMP JUMPDEST PUSH1 0x1 TIMESTAMP SWAP2 ADD SSTORE PUSH2 0x66CC DUP2 MLOAD PUSH8 0x8B2BE7130C5972A9 DUP5 DUP3 ADD MSTORE DUP4 DUP2 MSTORE PUSH2 0x42C8 JUMP JUMPDEST MLOAD SWAP1 PUSH8 0xE3E8E7A30EFC6103 DUP2 DUP4 ADD MSTORE DUP2 MSTORE PUSH2 0x42C8 JUMP JUMPDEST PUSH1 0x1 PUSH1 0x1 PUSH1 0xA0 SHL SUB AND SWAP1 DUP2 ISZERO PUSH2 0x6736 JUMPI PUSH1 0x0 DUP1 MLOAD PUSH1 0x20 PUSH2 0x694E DUP4 CODECOPY DUP2 MLOAD SWAP2 MSTORE PUSH1 0x20 PUSH1 0x0 SWAP3 PUSH2 0x670E PUSH2 0x5A20 JUMP JUMPDEST PUSH2 0x671A DUP2 PUSH1 0x2 SLOAD PUSH2 0x4434 JUMP JUMPDEST PUSH1 0x2 SSTORE DUP5 DUP5 MSTORE DUP4 DUP3 MSTORE PUSH1 0x40 DUP5 KECCAK256 DUP2 DUP2 SLOAD ADD SWAP1 SSTORE PUSH1 0x40 MLOAD SWAP1 DUP2 MSTORE LOG3 JUMP JUMPDEST PUSH1 0x40 MLOAD PUSH4 0xEC442F05 PUSH1 0xE0 SHL DUP2 MSTORE PUSH1 0x0 PUSH1 0x4 DUP3 ADD MSTORE PUSH1 0x24 SWAP1 REVERT JUMPDEST ISZERO PUSH2 0x6756 JUMPI JUMP JUMPDEST PUSH1 0x40 MLOAD PUSH3 0x461BCD PUSH1 0xE5 SHL DUP2 MSTORE PUSH1 0x20 PUSH1 0x4 DUP3 ADD MSTORE PUSH1 0x1C PUSH1 0x24 DUP3 ADD MSTORE PUSH32 0x4275726E20616D6F756E74206D75737420626520706F73697469766500000000 PUSH1 0x44 DUP3 ADD MSTORE PUSH1 0x64 SWAP1 REVERT JUMPDEST SWAP1 PUSH1 0x1 PUSH1 0x1 PUSH1 0xA0 SHL SUB DUP3 AND SWAP1 DUP2 ISZERO PUSH2 0x6830 JUMPI PUSH2 0x67B5 PUSH2 0x5A20 JUMP JUMPDEST PUSH1 0x0 SWAP3 DUP3 DUP5 MSTORE DUP4 PUSH1 0x20 MSTORE PUSH1 0x40 DUP5 KECCAK256 SLOAD SWAP1 DUP3 DUP3 LT PUSH2 0x67FE JUMPI POP DUP2 PUSH1 0x0 DUP1 MLOAD PUSH1 0x20 PUSH2 0x694E DUP4 CODECOPY DUP2 MLOAD SWAP2 MSTORE SWAP3 PUSH1 0x20 SWAP3 DUP6 DUP8 MSTORE DUP7 DUP5 MSTORE SUB PUSH1 0x40 DUP7 KECCAK256 SSTORE DUP1 PUSH1 0x2 SLOAD SUB PUSH1 0x2 SSTORE PUSH1 0x40 MLOAD SWAP1 DUP2 MSTORE LOG3 JUMP JUMPDEST PUSH1 0x40 MLOAD PUSH4 0x391434E3 PUSH1 0xE2 SHL DUP2 MSTORE PUSH1 0x1 PUSH1 0x1 PUSH1 0xA0 SHL SUB SWAP2 SWAP1 SWAP2 AND PUSH1 0x4 DUP3 ADD MSTORE PUSH1 0x24 DUP2 ADD SWAP2 SWAP1 SWAP2 MSTORE PUSH1 0x44 DUP2 ADD DUP3 SWAP1 MSTORE PUSH1 0x64 SWAP1 REVERT JUMPDEST PUSH1 0x40 MLOAD PUSH4 0x4B637E8F PUSH1 0xE1 SHL DUP2 MSTORE PUSH1 0x0 PUSH1 0x4 DUP3 ADD MSTORE PUSH1 0x24 SWAP1 REVERT JUMPDEST ISZERO PUSH2 0x6850 JUMPI JUMP JUMPDEST PUSH1 0x40 MLOAD PUSH3 0x461BCD PUSH1 0xE5 SHL DUP2 MSTORE PUSH1 0x20 PUSH1 0x4 DUP3 ADD MSTORE PUSH1 0x1D PUSH1 0x24 DUP3 ADD MSTORE PUSH32 0x446562746F722063616E6E6F74206265207A65726F2061646472657373000000 PUSH1 0x44 DUP3 ADD MSTORE PUSH1 0x64 SWAP1 REVERT JUMPDEST ISZERO PUSH2 0x689C JUMPI JUMP JUMPDEST PUSH1 0x40 MLOAD PUSH3 0x461BCD PUSH1 0xE5 SHL DUP2 MSTORE PUSH1 0x20 PUSH1 0x4 DUP3 ADD MSTORE PUSH1 0x1F PUSH1 0x24 DUP3 ADD MSTORE PUSH32 0x4372656469746F722063616E6E6F74206265207A65726F206164647265737300 PUSH1 0x44 DUP3 ADD MSTORE PUSH1 0x64 SWAP1 REVERT JUMPDEST ISZERO PUSH2 0x68E8 JUMPI JUMP JUMPDEST PUSH1 0x40 MLOAD PUSH3 0x461BCD PUSH1 0xE5 SHL DUP2 MSTORE PUSH1 0x20 PUSH1 0x4 DUP3 ADD MSTORE PUSH1 0x19 PUSH1 0x24 DUP3 ADD MSTORE PUSH32 0x446562746F722063616E6E6F74206265206372656469746F7200000000000000 PUSH1 0x44 DUP3 ADD MSTORE PUSH1 0x64 SWAP1 REVERT INVALID 0x4A 0xB2 0x2C ISZERO EQ 0x4E 0xE7 0xDD SWAP3 PREVRANDAO 0x22 0xED SWAP12 MLOAD 0xB2 PUSH9 0xD04702767F298FFB54 PUSH21 0x9F6BAF0E5DC5DDF252AD1BE2C89B69C2B068FC378D 0xAA SWAP6 0x2B 0xA7 CALL PUSH4 0xC4A11628 CREATE2 GAS 0x4D CREATE2 0x23 0xB3 0xEF LOG2 PUSH5 0x6970667358 0x22 SLT KECCAK256 SGT 0xD2 BLOCKHASH 0xEC 0xB2 0xD1 LOG3 SWAP13 0xDA 0xA9 GT DUP7 0xD4 SWAP16 DUP2 0xCB PUSH10 0xB59DCD9F7193FB4DE579 0xE CALLDATACOPY ADDMOD 0xC PC PUSH5 0x736F6C6343 STOP ADDMOD EQ STOP CALLER 0x2F DUP8 DUP9 GT PUSH31 0x7EFF1D82E926EC794901D17C78024A50270940304540A733656F0D00000000 "},"methodIdentifiers":{"ADMIN_ROLE()":"75b238fc","BURNER_ROLE()":"282c51f3","DEFAULT_ADMIN_ROLE()":"a217fddf","MINTER_ROLE()":"d5391393","PAUSER_ROLE()":"e63ab1e9","allowance(address,address)":"dd62ed3e","approve(address,uint256)":"095ea7b3","balanceOf(address)":"70a08231","burn(uint256)":"42966c68","burnFrom(address,uint256)":"79cc6790","calculateRiskFactor(address)":"6b6ef953","checkHalfLifeExpiry(address)":"508c0634","clearInterbankLiability(address,address,uint256)":"4d8183cc","decimals()":"313ce567","flagAbnormalTransaction(address)":"6e2fae47","getAvailableCredits(address)":"b065a8e5","getRoleAdmin(bytes32)":"248a9ca3","grantRole(bytes32,address)":"2f2ff15d","halfLifeDuration()":"4c915d18","hasRole(bytes32,address)":"91d14854","inactivityResetPeriod()":"03833501","incentiveCredits(address)":"0c27ab5a","interbankLiability(address,address)":"5ed61097","maxHalfLifeDuration()":"c750f203","minHalfLifeDuration()":"800753cf","mint(address,uint256)":"40c10f19","mintedByMinter(address)":"905b7fcb","name()":"06fdde03","pause()":"8456cb59","paused()":"5c975abb","recordInterbankLiability(address,address,uint256)":"dd7faab1","renounceRole(bytes32,address)":"36568abe","reverseTransfer(address,address,uint256)":"f0e6ea8d","revokeRole(bytes32,address)":"d547741f","rollingAverages(address)":"08d887d0","setHalfLifeDuration(uint256)":"0f3f0803","setInactivityResetPeriod(uint256)":"6cd9ca14","setMaxHalfLifeDuration(uint256)":"57fe51d2","setMinHalfLifeDuration(uint256)":"76223a27","setTreasuryAddress(address)":"6605bfda","supportsInterface(bytes4)":"01ffc9a7","symbol()":"95d89b41","totalSupply()":"18160ddd","transactionCountBetween(address,address)":"8ffa15d4","transfer(address,uint256)":"a9059cbb","transferData(address)":"62d3f814","transferFrom(address,address,uint256)":"23b872dd","treasuryAddress()":"c5f956af","unpause()":"3f4ba83a","walletRiskProfiles(address)":"3d8d1dce"}}}}}