{
  "_format": "hh-sol-artifact-1",
  "contractName": "T3Token",
  "sourceName": "contracts/T3Token.sol",
  "abi": [
    {
      "inputs": [
        {
          "internalType": "address",
          "name": "initialOwner",
          "type": "address"
        },
        {
          "internalType": "address",
          "name": "_treasuryAddress",
          "type": "address"
        }
      ],
      "stateMutability": "nonpayable",
      "type": "constructor"
    },
    {
      "inputs": [
        {
          "internalType": "address",
          "name": "spender",
          "type": "address"
        },
        {
          "internalType": "uint256",
          "name": "allowance",
          "type": "uint256"
        },
        {
          "internalType": "uint256",
          "name": "needed",
          "type": "uint256"
        }
      ],
      "name": "ERC20InsufficientAllowance",
      "type": "error"
    },
    {
      "inputs": [
        {
          "internalType": "address",
          "name": "sender",
          "type": "address"
        },
        {
          "internalType": "uint256",
          "name": "balance",
          "type": "uint256"
        },
        {
          "internalType": "uint256",
          "name": "needed",
          "type": "uint256"
        }
      ],
      "name": "ERC20InsufficientBalance",
      "type": "error"
    },
    {
      "inputs": [
        {
          "internalType": "address",
          "name": "approver",
          "type": "address"
        }
      ],
      "name": "ERC20InvalidApprover",
      "type": "error"
    },
    {
      "inputs": [
        {
          "internalType": "address",
          "name": "receiver",
          "type": "address"
        }
      ],
      "name": "ERC20InvalidReceiver",
      "type": "error"
    },
    {
      "inputs": [
        {
          "internalType": "address",
          "name": "sender",
          "type": "address"
        }
      ],
      "name": "ERC20InvalidSender",
      "type": "error"
    },
    {
      "inputs": [
        {
          "internalType": "address",
          "name": "spender",
          "type": "address"
        }
      ],
      "name": "ERC20InvalidSpender",
      "type": "error"
    },
    {
      "inputs": [
        {
          "internalType": "address",
          "name": "owner",
          "type": "address"
        }
      ],
      "name": "OwnableInvalidOwner",
      "type": "error"
    },
    {
      "inputs": [
        {
          "internalType": "address",
          "name": "account",
          "type": "address"
        }
      ],
      "name": "OwnableUnauthorizedAccount",
      "type": "error"
    },
    {
      "anonymous": false,
      "inputs": [
        {
          "indexed": true,
          "internalType": "address",
          "name": "owner",
          "type": "address"
        },
        {
          "indexed": true,
          "internalType": "address",
          "name": "spender",
          "type": "address"
        },
        {
          "indexed": false,
          "internalType": "uint256",
          "name": "value",
          "type": "uint256"
        }
      ],
      "name": "Approval",
      "type": "event"
    },
    {
      "anonymous": false,
      "inputs": [
        {
          "indexed": true,
          "internalType": "address",
          "name": "wallet",
          "type": "address"
        },
        {
          "indexed": false,
          "internalType": "uint256",
          "name": "timestamp",
          "type": "uint256"
        }
      ],
      "name": "HalfLifeExpired",
      "type": "event"
    },
    {
      "anonymous": false,
      "inputs": [
        {
          "indexed": true,
          "internalType": "address",
          "name": "wallet",
          "type": "address"
        },
        {
          "indexed": false,
          "internalType": "uint256",
          "name": "amount",
          "type": "uint256"
        }
      ],
      "name": "LoyaltyRefundProcessed",
      "type": "event"
    },
    {
      "anonymous": false,
      "inputs": [
        {
          "indexed": true,
          "internalType": "address",
          "name": "previousOwner",
          "type": "address"
        },
        {
          "indexed": true,
          "internalType": "address",
          "name": "newOwner",
          "type": "address"
        }
      ],
      "name": "OwnershipTransferred",
      "type": "event"
    },
    {
      "anonymous": false,
      "inputs": [
        {
          "indexed": true,
          "internalType": "address",
          "name": "wallet",
          "type": "address"
        },
        {
          "indexed": false,
          "internalType": "uint256",
          "name": "newRiskFactor",
          "type": "uint256"
        }
      ],
      "name": "RiskFactorUpdated",
      "type": "event"
    },
    {
      "anonymous": false,
      "inputs": [
        {
          "indexed": true,
          "internalType": "address",
          "name": "from",
          "type": "address"
        },
        {
          "indexed": true,
          "internalType": "address",
          "name": "to",
          "type": "address"
        },
        {
          "indexed": false,
          "internalType": "uint256",
          "name": "value",
          "type": "uint256"
        }
      ],
      "name": "Transfer",
      "type": "event"
    },
    {
      "anonymous": false,
      "inputs": [
        {
          "indexed": true,
          "internalType": "address",
          "name": "from",
          "type": "address"
        },
        {
          "indexed": true,
          "internalType": "address",
          "name": "to",
          "type": "address"
        },
        {
          "indexed": false,
          "internalType": "uint256",
          "name": "amount",
          "type": "uint256"
        }
      ],
      "name": "TransferReversed",
      "type": "event"
    },
    {
      "anonymous": false,
      "inputs": [
        {
          "indexed": true,
          "internalType": "address",
          "name": "from",
          "type": "address"
        },
        {
          "indexed": true,
          "internalType": "address",
          "name": "to",
          "type": "address"
        },
        {
          "indexed": false,
          "internalType": "uint256",
          "name": "amount",
          "type": "uint256"
        },
        {
          "indexed": false,
          "internalType": "uint256",
          "name": "fee",
          "type": "uint256"
        }
      ],
      "name": "TransferWithFee",
      "type": "event"
    },
    {
      "inputs": [
        {
          "internalType": "address",
          "name": "owner",
          "type": "address"
        },
        {
          "internalType": "address",
          "name": "spender",
          "type": "address"
        }
      ],
      "name": "allowance",
      "outputs": [
        {
          "internalType": "uint256",
          "name": "",
          "type": "uint256"
        }
      ],
      "stateMutability": "view",
      "type": "function"
    },
    {
      "inputs": [
        {
          "internalType": "address",
          "name": "wallet",
          "type": "address"
        },
        {
          "internalType": "uint256",
          "name": "fee",
          "type": "uint256"
        }
      ],
      "name": "applyCredits",
      "outputs": [
        {
          "internalType": "uint256",
          "name": "",
          "type": "uint256"
        }
      ],
      "stateMutability": "nonpayable",
      "type": "function"
    },
    {
      "inputs": [
        {
          "internalType": "uint256",
          "name": "baseFee",
          "type": "uint256"
        },
        {
          "internalType": "address",
          "name": "sender",
          "type": "address"
        },
        {
          "internalType": "address",
          "name": "recipient",
          "type": "address"
        }
      ],
      "name": "applyRiskAdjustments",
      "outputs": [
        {
          "internalType": "uint256",
          "name": "",
          "type": "uint256"
        }
      ],
      "stateMutability": "view",
      "type": "function"
    },
    {
      "inputs": [
        {
          "internalType": "address",
          "name": "spender",
          "type": "address"
        },
        {
          "internalType": "uint256",
          "name": "value",
          "type": "uint256"
        }
      ],
      "name": "approve",
      "outputs": [
        {
          "internalType": "bool",
          "name": "",
          "type": "bool"
        }
      ],
      "stateMutability": "nonpayable",
      "type": "function"
    },
    {
      "inputs": [
        {
          "internalType": "address",
          "name": "account",
          "type": "address"
        }
      ],
      "name": "balanceOf",
      "outputs": [
        {
          "internalType": "uint256",
          "name": "",
          "type": "uint256"
        }
      ],
      "stateMutability": "view",
      "type": "function"
    },
    {
      "inputs": [
        {
          "internalType": "address",
          "name": "wallet",
          "type": "address"
        }
      ],
      "name": "calculateRiskFactor",
      "outputs": [
        {
          "internalType": "uint256",
          "name": "",
          "type": "uint256"
        }
      ],
      "stateMutability": "view",
      "type": "function"
    },
    {
      "inputs": [
        {
          "internalType": "uint256",
          "name": "amount",
          "type": "uint256"
        }
      ],
      "name": "calculateTieredFee",
      "outputs": [
        {
          "internalType": "uint256",
          "name": "",
          "type": "uint256"
        }
      ],
      "stateMutability": "view",
      "type": "function"
    },
    {
      "inputs": [
        {
          "internalType": "address",
          "name": "wallet",
          "type": "address"
        }
      ],
      "name": "checkHalfLifeExpiry",
      "outputs": [],
      "stateMutability": "nonpayable",
      "type": "function"
    },
    {
      "inputs": [],
      "name": "decimals",
      "outputs": [
        {
          "internalType": "uint8",
          "name": "",
          "type": "uint8"
        }
      ],
      "stateMutability": "view",
      "type": "function"
    },
    {
      "inputs": [
        {
          "internalType": "address",
          "name": "wallet",
          "type": "address"
        }
      ],
      "name": "flagAbnormalTransaction",
      "outputs": [],
      "stateMutability": "nonpayable",
      "type": "function"
    },
    {
      "inputs": [
        {
          "internalType": "address",
          "name": "wallet",
          "type": "address"
        }
      ],
      "name": "getAvailableCredits",
      "outputs": [
        {
          "internalType": "uint256",
          "name": "",
          "type": "uint256"
        }
      ],
      "stateMutability": "view",
      "type": "function"
    },
    {
      "inputs": [],
      "name": "halfLifeDuration",
      "outputs": [
        {
          "internalType": "uint256",
          "name": "",
          "type": "uint256"
        }
      ],
      "stateMutability": "view",
      "type": "function"
    },
    {
      "inputs": [],
      "name": "inactivityResetPeriod",
      "outputs": [
        {
          "internalType": "uint256",
          "name": "",
          "type": "uint256"
        }
      ],
      "stateMutability": "view",
      "type": "function"
    },
    {
      "inputs": [
        {
          "internalType": "address",
          "name": "",
          "type": "address"
        }
      ],
      "name": "incentiveCredits",
      "outputs": [
        {
          "internalType": "uint256",
          "name": "amount",
          "type": "uint256"
        },
        {
          "internalType": "uint256",
          "name": "lastUpdated",
          "type": "uint256"
        }
      ],
      "stateMutability": "view",
      "type": "function"
    },
    {
      "inputs": [],
      "name": "maxHalfLifeDuration",
      "outputs": [
        {
          "internalType": "uint256",
          "name": "",
          "type": "uint256"
        }
      ],
      "stateMutability": "view",
      "type": "function"
    },
    {
      "inputs": [],
      "name": "minHalfLifeDuration",
      "outputs": [
        {
          "internalType": "uint256",
          "name": "",
          "type": "uint256"
        }
      ],
      "stateMutability": "view",
      "type": "function"
    },
    {
      "inputs": [],
      "name": "name",
      "outputs": [
        {
          "internalType": "string",
          "name": "",
          "type": "string"
        }
      ],
      "stateMutability": "view",
      "type": "function"
    },
    {
      "inputs": [],
      "name": "owner",
      "outputs": [
        {
          "internalType": "address",
          "name": "",
          "type": "address"
        }
      ],
      "stateMutability": "view",
      "type": "function"
    },
    {
      "inputs": [],
      "name": "renounceOwnership",
      "outputs": [],
      "stateMutability": "nonpayable",
      "type": "function"
    },
    {
      "inputs": [
        {
          "internalType": "address",
          "name": "from",
          "type": "address"
        },
        {
          "internalType": "address",
          "name": "to",
          "type": "address"
        },
        {
          "internalType": "uint256",
          "name": "amount",
          "type": "uint256"
        }
      ],
      "name": "reverseTransfer",
      "outputs": [],
      "stateMutability": "nonpayable",
      "type": "function"
    },
    {
      "inputs": [
        {
          "internalType": "address",
          "name": "",
          "type": "address"
        }
      ],
      "name": "rollingAverages",
      "outputs": [
        {
          "internalType": "uint256",
          "name": "totalAmount",
          "type": "uint256"
        },
        {
          "internalType": "uint256",
          "name": "count",
          "type": "uint256"
        },
        {
          "internalType": "uint256",
          "name": "lastUpdated",
          "type": "uint256"
        }
      ],
      "stateMutability": "view",
      "type": "function"
    },
    {
      "inputs": [
        {
          "internalType": "uint256",
          "name": "_halfLifeDuration",
          "type": "uint256"
        }
      ],
      "name": "setHalfLifeDuration",
      "outputs": [],
      "stateMutability": "nonpayable",
      "type": "function"
    },
    {
      "inputs": [
        {
          "internalType": "uint256",
          "name": "_inactivityResetPeriod",
          "type": "uint256"
        }
      ],
      "name": "setInactivityResetPeriod",
      "outputs": [],
      "stateMutability": "nonpayable",
      "type": "function"
    },
    {
      "inputs": [
        {
          "internalType": "uint256",
          "name": "_maxHalfLifeDuration",
          "type": "uint256"
        }
      ],
      "name": "setMaxHalfLifeDuration",
      "outputs": [],
      "stateMutability": "nonpayable",
      "type": "function"
    },
    {
      "inputs": [
        {
          "internalType": "uint256",
          "name": "_minHalfLifeDuration",
          "type": "uint256"
        }
      ],
      "name": "setMinHalfLifeDuration",
      "outputs": [],
      "stateMutability": "nonpayable",
      "type": "function"
    },
    {
      "inputs": [
        {
          "internalType": "address",
          "name": "_treasuryAddress",
          "type": "address"
        }
      ],
      "name": "setTreasuryAddress",
      "outputs": [],
      "stateMutability": "nonpayable",
      "type": "function"
    },
    {
      "inputs": [],
      "name": "symbol",
      "outputs": [
        {
          "internalType": "string",
          "name": "",
          "type": "string"
        }
      ],
      "stateMutability": "view",
      "type": "function"
    },
    {
      "inputs": [],
      "name": "totalSupply",
      "outputs": [
        {
          "internalType": "uint256",
          "name": "",
          "type": "uint256"
        }
      ],
      "stateMutability": "view",
      "type": "function"
    },
    {
      "inputs": [
        {
          "internalType": "address",
          "name": "",
          "type": "address"
        },
        {
          "internalType": "address",
          "name": "",
          "type": "address"
        }
      ],
      "name": "transactionCountBetween",
      "outputs": [
        {
          "internalType": "uint256",
          "name": "",
          "type": "uint256"
        }
      ],
      "stateMutability": "view",
      "type": "function"
    },
    {
      "inputs": [
        {
          "internalType": "address",
          "name": "recipient",
          "type": "address"
        },
        {
          "internalType": "uint256",
          "name": "amount",
          "type": "uint256"
        }
      ],
      "name": "transfer",
      "outputs": [
        {
          "internalType": "bool",
          "name": "",
          "type": "bool"
        }
      ],
      "stateMutability": "nonpayable",
      "type": "function"
    },
    {
      "inputs": [
        {
          "internalType": "address",
          "name": "",
          "type": "address"
        }
      ],
      "name": "transferData",
      "outputs": [
        {
          "internalType": "uint256",
          "name": "commitWindowEnd",
          "type": "uint256"
        },
        {
          "internalType": "uint256",
          "name": "halfLifeDuration",
          "type": "uint256"
        },
        {
          "internalType": "address",
          "name": "originator",
          "type": "address"
        },
        {
          "internalType": "uint256",
          "name": "transferCount",
          "type": "uint256"
        },
        {
          "internalType": "bytes32",
          "name": "reversalHash",
          "type": "bytes32"
        },
        {
          "internalType": "uint256",
          "name": "feeAmount",
          "type": "uint256"
        },
        {
          "internalType": "bool",
          "name": "isReversed",
          "type": "bool"
        }
      ],
      "stateMutability": "view",
      "type": "function"
    },
    {
      "inputs": [
        {
          "internalType": "address",
          "name": "from",
          "type": "address"
        },
        {
          "internalType": "address",
          "name": "to",
          "type": "address"
        },
        {
          "internalType": "uint256",
          "name": "value",
          "type": "uint256"
        }
      ],
      "name": "transferFrom",
      "outputs": [
        {
          "internalType": "bool",
          "name": "",
          "type": "bool"
        }
      ],
      "stateMutability": "nonpayable",
      "type": "function"
    },
    {
      "inputs": [
        {
          "internalType": "address",
          "name": "newOwner",
          "type": "address"
        }
      ],
      "name": "transferOwnership",
      "outputs": [],
      "stateMutability": "nonpayable",
      "type": "function"
    },
    {
      "inputs": [],
      "name": "treasuryAddress",
      "outputs": [
        {
          "internalType": "address",
          "name": "",
          "type": "address"
        }
      ],
      "stateMutability": "view",
      "type": "function"
    },
    {
      "inputs": [
        {
          "internalType": "address",
          "name": "",
          "type": "address"
        }
      ],
      "name": "walletRiskProfiles",
      "outputs": [
        {
          "internalType": "uint256",
          "name": "reversalCount",
          "type": "uint256"
        },
        {
          "internalType": "uint256",
          "name": "lastReversal",
          "type": "uint256"
        },
        {
          "internalType": "uint256",
          "name": "creationTime",
          "type": "uint256"
        },
        {
          "internalType": "uint256",
          "name": "abnormalTxCount",
          "type": "uint256"
        }
      ],
      "stateMutability": "view",
      "type": "function"
    }
  ],
  "bytecode": "0x6080346200049d576001600160401b0390620023bc90601f19601f388490038181018316840190868211858310176200039f57808591604097889485528339810103126200049d576200005283620004c2565b91620000626020809501620004c2565b906200006d620004a2565b96600d88526c2a199029ba30b13632b1b7b4b760991b8689015262000091620004a2565b976002895261543360f01b878a01528051908282116200039f5760039182546001928382811c9216801562000492575b8b8310146200047c57818984931162000426575b508a90898311600114620003c157600092620003b5575b505060001982851b1c191690821b1782555b89519283116200039f576004998a548281811c9116801562000394575b8a8210146200037f5787811162000334575b508890878511600114620002cb5784955090849291600095620002bf575b50501b92600019911b1c19161786555b6001600160a01b03928316928315620002a8576005549060018060a01b03199285848416176005558582895194167f8be0079c531659141344cd1fd0a4f28419497f9722a3daafe3b4186f6b6457e0600080a3610e106006556102586007556201518060085562278d006009551692831562000268575050600a541617600a5560025469d3c21bcecceda10000009485820180921162000253575060007fddf252ad1be2c89b69c2b068fc378daa952ba7f163c4a11628f55a4df523b3ef84600e969785946002558484528382528884208181540190558851908152a36000525242600282600020015551611ee49081620004d88239f35b601190634e487b7160e01b6000525260246000fd5b62461bcd60e51b825281880186905260248201527f547265617375727920616464726573732063616e6e6f74206265207a65726f00604482015260649150fd5b8551631e4fbdf760e01b8152600081890152602490fd5b0151935038806200014b565b9291948416928b600052848a6000209460005b8c898383106200031c575050501062000301575b50505050811b0186556200015b565b01519060f884600019921b161c1916905538808080620002f2565b868601518955909701969485019488935001620002de565b8b600052896000208880870160051c8201928c881062000375575b0160051c019083905b828110620003685750506200012d565b6000815501839062000358565b925081926200034f565b60228c634e487b7160e01b6000525260246000fd5b90607f16906200011b565b634e487b7160e01b600052604160045260246000fd5b015190503880620000ec565b908785941691866000528c600020928d6000905b8282106200040e5750508411620003f5575b505050811b018255620000fe565b015160001983871b60f8161c19169055388080620003e7565b83850151865588979095019493840193018e620003d5565b909150846000528a6000208980850160051c8201928d861062000472575b918691869594930160051c01915b82811062000462575050620000d5565b6000815585945086910162000452565b9250819262000444565b634e487b7160e01b600052602260045260246000fd5b91607f1691620000c1565b600080fd5b60408051919082016001600160401b038111838210176200039f57604052565b51906001600160a01b03821682036200049d5756fe608080604052600436101561001357600080fd5b60003560e01c90816303833501146119d75750806306fdde031461191957806308d887d0146118c8578063095ea7b3146118425780630c27ab5a146117ff5780630f3f08031461176257806318160ddd1461174457806323b872dd1461165d578063313ce567146116415780633cbf9342146116055780633d8d1dce146115a95780634c915d181461158b578063508c0634146112dc57806357fe51d21461127957806362d3f814146111f65780636605bfda146111695780636b6ef953146111465780636be14a331461111f5780636cd9ca14146110b35780636e2fae471461102657806370a0823114610fec578063715018a614610f8f57806376223a2714610ee8578063800753cf14610eca5780638da5cb5b14610ea15780638ffa15d414610e5057806395d89b4114610d4b578063a9059cbb14610616578063b065a8e5146105dc578063c5f956af146105b3578063c750f20314610595578063dd62ed3e14610544578063e06a7a101461051e578063f0e6ea8d1461022e5763f2fde38b146101a057600080fd5b34610229576020366003190112610229576101b9611a3b565b6101c1611a9c565b6001600160a01b0390811690811561021057600554826001600160601b0360a01b821617600555167f8be0079c531659141344cd1fd0a4f28419497f9722a3daafe3b4186f6b6457e0600080a3005b604051631e4fbdf760e01b815260006004820152602490fd5b600080fd5b346102295761023c36611a67565b90916001600160a01b03918282169190338390036104cd5782600052602091600b8352604060002080544210156104955760028101548787169616860361044457846000526000845282604060002054106103ff57600601805460ff81166103ba579661036592849260017f55608e3380952b490f6dc0b1b0bcf7a16177fe10590cf1599b7a84f430b70e3798999a60ff191617905587600052600e86526040600020600281018054156103b1575b506102f68154611bdc565b815560014291015588868961030a84611d22565b604051908152600080516020611e8f833981519152928391a281600052600e88526040600020600281018054156103a8575b506103478154611bdc565b81556001429101558761035985611d22565b604051908152a2611aea565b83600052600b825261039f604060002060066000918281558260018201558260028201558260038201558260048201558260058201550155565b604051908152a3005b4290558c61033c565b4290558a6102eb565b60405162461bcd60e51b815260048101869052601960248201527f5472616e7366657220616c7265616479207265766572736564000000000000006044820152606490fd5b60405162461bcd60e51b815260048101859052601f60248201527f496e73756666696369656e742062616c616e636520746f2072657665727365006044820152606490fd5b60405162461bcd60e51b815260048101859052602360248201527f526576657273616c206d75737420676f206261636b20746f206f726967696e616044820152623a37b960e91b6064820152608490fd5b60405162461bcd60e51b815260048101859052601060248201526f12185b19931a599948195e1c1a5c995960821b6044820152606490fd5b60405162461bcd60e51b815260206004820152602360248201527f4f6e6c792072656365697665722063616e20696e6974696174652072657665726044820152621cd85b60ea1b6064820152608490fd5b3461022957602036600319011261022957602061053c600435611beb565b604051908152f35b346102295760403660031901126102295761055d611a3b565b610565611a51565b9060018060a01b038091166000526001602052604060002091166000526020526020604060002054604051908152f35b34610229576000366003190112610229576020600854604051908152f35b3461022957600036600319011261022957600a546040516001600160a01b039091168152602090f35b34610229576020366003190112610229576001600160a01b036105fd611a3b565b16600052600f6020526020604060002054604051908152f35b346102295760403660031901126102295761062f611a3b565b6001600160a01b03811615610d065760243515610caf5733600052600e6020526002604060002001805415610ca6575b5061066933611d22565b604051908152600080516020611e8f833981519152908160203392a26001600160a01b0382166000908152600e60205260409020600201805415610c9d575b506106b282611d22565b6040519081526001600160a01b0383169190602090a233600052600b6020526040600020805442109081610c82575b50610c18576107046106fe82336106f9602435611beb565b611cee565b33611e33565b906101f48060243502906024358204036109f7576127109004808311610c10575b506001821080610c04575b610bfb575b6024358211610bf1575b61074b82602435611bcf565b91610757838333611aea565b80610ad9575b33600052600d602052604060002060018060a01b03831660005260205260406000206107898154611bdc565b905560065433600052600d602052604060002060018060a01b03841660005260205260406000205480158015610a97575b505033600052600c60205260406000206001810154908115908115610a28575b50505060075490818110600014610a0d57505b6107f78142611baf565b6001600160a01b0384166000908152600b60205260409020600301546001810181116109f75760405190602082013360601b81526001600160601b03198760601b16603484015260243560488401526048835282608081011067ffffffffffffffff6080850111176109e15760808301604052825190206080830161016084011067ffffffffffffffff610160850111176109e1576006936101608401604052608084015260a0830194855260c0830191338352600160e085019101815261010084019182526101208401928784526101408501966000885260018060a01b038a16600052600b602052608060406000209601518655516001860155600285019060018060a01b039051166001600160601b0360a01b825416179055516003840155516004830155516005820155019051151560ff80198354169116179055600c602052604060002060016002820191825480151590816109cc575b506109bd575b6109666024358254611baf565b8155016109738154611bdc565b9055429055604051928352602083015260018060a01b0316907f98bc3fe7d138931a49691b623c256b8812f2a3d7f9b25ba7098c82538977a5d060403392a3602060405160018152f35b60008155600082820155610959565b6109d7915042611bcf565b6009541087610953565b634e487b7160e01b600052604160045260246000fd5b634e487b7160e01b600052601160045260246000fd5b9050600854808211610a20575b506107ed565b905084610a1a565b549081156107da57610a815704600a810290808204600a14901517156109f75760243511610a59575b8480806107da565b8060011b90808204600214901517610a5157634e487b7160e01b600052601160045260246000fd5b634e487b7160e01b600052601260045260246000fd5b600a8202918204600a1417156109f757605a811115610ad45750605a5b60640390606482116109f757606491610acc91611bbc565b0484806107ba565b610ab4565b8060011c80610b6b575b610b2890610b238360021c9133600052600f6020526040600020610b08848254611baf565b905533600052600f6020524260016040600020015584611bcf565b611bcf565b60018060a01b038316600052600f602052610b496040600020918254611baf565b905560018060a01b038216600052600f6020524260016040600020015561075d565b600a546001600160a01b0316908115610bd857610b2891610b8e82600254611baf565b600255806000526000602052604060002082815401905560007fddf252ad1be2c89b69c2b068fc378daa952ba7f163c4a11628f55a4df523b3ef6020604051858152a39050610ae3565b60405163ec442f0560e01b815260006004820152602490fd5b602435915061073f565b60019150610735565b50600160243511610730565b915082610725565b608460405162461bcd60e51b815260206004820152604060248201527f43616e6e6f74207472616e7366657220647572696e672048616c664c6966652060448201527f706572696f6420657863657074206261636b20746f206f726967696e61746f726064820152fd5b600201546001600160a01b03838116911614159050826106e1565b429055826106a8565b4290558161065f565b60405162461bcd60e51b815260206004820152602960248201527f5472616e7366657220616d6f756e74206d7573742062652067726561746572206044820152687468616e207a65726f60b81b6064820152608490fd5b60405162461bcd60e51b815260206004820152601860248201527f5472616e7366657220746f207a65726f206164647265737300000000000000006044820152606490fd5b3461022957600036600319011261022957604051600090600454600181811c90808316928315610e46575b6020938484108114610e3057838652908115610e105750600114610db5575b610db184610da581880382611ac8565b604051918291826119f2565b0390f35b600460009081529294507f8a35acfbc15ff81a39ae7d344fd709f28e8600b4aa8c65c6b64bfe7fe36bd19b5b828410610dfd5750505081610db193610da59282010193610d95565b8054858501870152928501928101610de1565b60ff1916858501525050151560051b8201019150610da581610db1610d95565b634e487b7160e01b600052602260045260246000fd5b91607f1691610d76565b3461022957604036600319011261022957610e69611a3b565b610e71611a51565b9060018060a01b03809116600052600d602052604060002091166000526020526020604060002054604051908152f35b34610229576000366003190112610229576005546040516001600160a01b039091168152602090f35b34610229576000366003190112610229576020600754604051908152f35b3461022957602036600319011261022957600435610f04611a9c565b8015610f53576006548111610f1857600755005b60405162461bcd60e51b8152602060048201526013602482015272135a5b88195e18d959591cc8191959985d5b1d606a1b6044820152606490fd5b60405162461bcd60e51b81526020600482015260146024820152734d696e206d75737420626520706f73697469766560601b6044820152606490fd5b3461022957600036600319011261022957610fa8611a9c565b600580546001600160a01b031981169091556000906001600160a01b03167f8be0079c531659141344cd1fd0a4f28419497f9722a3daafe3b4186f6b6457e08280a3005b34610229576020366003190112610229576001600160a01b0361100d611a3b565b1660005260006020526020604060002054604051908152f35b3461022957602036600319011261022957611085611042611a3b565b61104a611a9c565b600080516020611e8f833981519152602060018060a01b03831693849384600052600e835260026040600020018054156110aa575b50611d22565b604051908152a2600052600e60205260036040600020016110a68154611bdc565b9055005b4290558661107f565b34610229576020366003190112610229576004356110cf611a9c565b80156110da57600955005b60405162461bcd60e51b815260206004820152601760248201527f506572696f64206d75737420626520706f7369746976650000000000000000006044820152606490fd5b3461022957604036600319011261022957602061053c61113d611a3b565b60243590611e33565b3461022957602036600319011261022957602061053c611164611a3b565b611d22565b3461022957602036600319011261022957611182611a3b565b61118a611a9c565b6001600160a01b031680156111b1576001600160601b0360a01b600a541617600a55600080f35b60405162461bcd60e51b815260206004820152601f60248201527f547265617375727920616464726573732063616e6e6f74206265207a65726f006044820152606490fd5b346102295760203660031901126102295760e06001600160a01b038061121a611a3b565b16600052600b602052604060002090815491600181015491600282015416600382015460048301549160ff600660058601549501541694604051968752602087015260408601526060850152608084015260a0830152151560c0820152f35b3461022957602036600319011261022957600435611295611a9c565b60065481106112a357600855005b60405162461bcd60e51b815260206004820152601160248201527013585e0818995b1bddc8191959985d5b1d607a1b6044820152606490fd5b3461022957602080600319360112610229576112f6611a3b565b6001600160a01b038082166000818152600b8552604090208054919493909180156115465742106115015760ff6006830154166114c45791600282866113838796828860057f23bd7f8191a147e373def338d5a76dce96b4d2f7d15a43eca83e3ee6e75061439b9901548061141f575b5050600052600e8752846040600020018054156114165750611d22565b604051908152600080516020611e8f833981519152958691a20154169081600052600e8352600260406000200180541561140d575b50826113c383611d22565b604051908152a282600052600b8152611404604060002060066000918281558260018201558260028201558260038201558260048201558260058201550155565b604051428152a2005b429055856113b8565b4290558a61107f565b60031c80156113665781908989890181815416600052600f84526040600020611449848254611baf565b905581815416600052600f845242600160406000200155856000526040600020611474848254611baf565b905585600052600f84524260016040600020015554166040518281527ffdfa38dc30c58b0662200654ef296c1527abbf34b03b2f908af130d2a35db878948591a2604051908152a282878c611366565b60405162461bcd60e51b8152600481018590526015602482015274151c985b9cd9995c881dd85cc81c995d995c9cd959605a1b6044820152606490fd5b60405162461bcd60e51b815260048101859052601860248201527f48616c664c696665206e6f7420657870697265642079657400000000000000006044820152606490fd5b60405162461bcd60e51b815260048101869052601760248201527f4e6f20616374697665207472616e7366657220646174610000000000000000006044820152606490fd5b34610229576000366003190112610229576020600654604051908152f35b34610229576020366003190112610229576001600160a01b036115ca611a3b565b16600052600e602052608060406000208054906001810154906003600282015491015491604051938452602084015260408301526060820152f35b346102295760603660031901126102295761161e611a51565b604435906001600160a01b03821682036102295760209161053c91600435611cee565b3461022957600036600319011261022957602060405160128152f35b346102295761166b36611a67565b9060018060a01b038316928360005260016020526040600020336000526020526040600020549360001985106116b2575b506116a79350611aea565b602060405160018152f35b83851061171e5780156117055733156116ec576116a79484916000526001602052604060002033600052602052036040600020558461169c565b604051634a1406b160e11b815260006004820152602490fd5b60405163e602df0560e01b815260006004820152602490fd5b604051637dc7a0d960e11b81523360048201526024810186905260448101859052606490fd5b34610229576000366003190112610229576020600254604051908152f35b346102295760203660031901126102295760043561177e611a9c565b60075481106117ca57600854811161179557600655005b60405162461bcd60e51b815260206004820152600d60248201526c41626f7665206d6178696d756d60981b6044820152606490fd5b60405162461bcd60e51b815260206004820152600d60248201526c42656c6f77206d696e696d756d60981b6044820152606490fd5b34610229576020366003190112610229576001600160a01b03611820611a3b565b16600052600f6020526040806000206001815491015482519182526020820152f35b346102295760403660031901126102295761185b611a3b565b602435903315611705576001600160a01b03169081156116ec57336000526001602052604060002082600052602052806040600020556040519081527f8c5be1e5ebec7d5bd14f71427d1e84f3dd0314c0f7b2291e5b200ac8c7c3b92560203392a3602060405160018152f35b34610229576020366003190112610229576001600160a01b036118e9611a3b565b16600052600c60205260606040600020805490600260018201549101549060405192835260208301526040820152f35b3461022957600036600319011261022957604051600090600354600181811c908083169283156119cd575b6020938484108114610e3057838652908115610e10575060011461197257610db184610da581880382611ac8565b600360009081529294507fc2575a0e9e593c00f959f8c92f12db2869c3395a3b0502d05e2516446f71f85b5b8284106119ba5750505081610db193610da59282010193610d95565b805485850187015292850192810161199e565b91607f1691611944565b34610229576000366003190112610229576020906009548152f35b6020808252825181830181905290939260005b828110611a2757505060409293506000838284010152601f8019910116010190565b818101860151848201604001528501611a05565b600435906001600160a01b038216820361022957565b602435906001600160a01b038216820361022957565b6060906003190112610229576001600160a01b0390600435828116810361022957916024359081168103610229579060443590565b6005546001600160a01b03163303611ab057565b60405163118cdaa760e01b8152336004820152602490fd5b90601f8019910116810190811067ffffffffffffffff8211176109e157604052565b916001600160a01b03808416928315611b965716928315610bd85760009083825281602052604082205490838210611b64575091604082827fddf252ad1be2c89b69c2b068fc378daa952ba7f163c4a11628f55a4df523b3ef958760209652828652038282205586815220818154019055604051908152a3565b60405163391434e360e21b81526001600160a01b03919091166004820152602481019190915260448101839052606490fd5b604051634b637e8f60e11b815260006004820152602490fd5b919082018092116109f757565b818102929181159184041417156109f757565b919082039182116109f757565b60001981146109f75760010190565b8015611ce857600090670de0b6b3a7640000818362989680935b611c11575b5050505090565b6000949192939450611c238185611bcf565b908410611ce0578015611ce05784919080841115611cd25790611c4a82611c619395611bcf565b935b611c5a612710978892611bbc565b0490611baf565b93600a908185029085158680840485148217156109f75784840414159081611cc9575b50611ca057509104928315611c9b57829192611c05565b611c0a565b9392959450505080611cb4575b8293611c0a565b611cc193611c5a91611bbc565b803880611cad565b90501538611c84565b50600092611c619190611c4c565b819450611c0a565b50600090565b61271092611d07611d01611d1694611d22565b91611d22565b80821115611d1a575090611bbc565b0490565b905090611bbc565b6001600160a01b03166000908152600e602052604081206002810154919291612710908015159081611e1c575b50611e13575b60018201548015159081611dfc575b50611ddb575b8154906103e891828102928184041490151715611dc757600391611d8d91611baf565b910154906101f491828102928184041490151715611db357611db0929350611baf565b90565b634e487b7160e01b84526011600452602484fd5b634e487b7160e01b85526011600452602485fd5b612710810180911115611d6a57634e487b7160e01b84526011600452602484fd5b62278d009150611e0c9042611bcf565b1038611d64565b50613a98611d55565b62093a809150611e2c9042611bcf565b1038611d4f565b60018060a01b0316600052600f60205260406000209081548015611e8857818110611e715750611e64908254611bcf565b8155600142910155600090565b611e7a91611bcf565b906000815560014291015590565b5090509056fe4ab22c15144ee7dd924422ed9b51b268d04702767f298ffb54749f6baf0e5dc5a26469706673582212205c44b9aaef64d7f86f4770fe3c7b2d6b12e70adcfdb2f3558d8f445c792d423e64736f6c63430008140033",
  "linkReferences": {},
  "deployedLinkReferences": {}
}