{
  "_format": "hh-sol-artifact-1",
  "contractName": "T3Token",
  "sourceName": "contracts/T3Token.sol",
  "abi": [
    {
      "inputs": [
        {
          "internalType": "address",
          "name": "initialOwner",
          "type": "address"
        }
      ],
      "stateMutability": "nonpayable",
      "type": "constructor"
    },
    {
      "inputs": [
        {
          "internalType": "address",
          "name": "spender",
          "type": "address"
        },
        {
          "internalType": "uint256",
          "name": "allowance",
          "type": "uint256"
        },
        {
          "internalType": "uint256",
          "name": "needed",
          "type": "uint256"
        }
      ],
      "name": "ERC20InsufficientAllowance",
      "type": "error"
    },
    {
      "inputs": [
        {
          "internalType": "address",
          "name": "sender",
          "type": "address"
        },
        {
          "internalType": "uint256",
          "name": "balance",
          "type": "uint256"
        },
        {
          "internalType": "uint256",
          "name": "needed",
          "type": "uint256"
        }
      ],
      "name": "ERC20InsufficientBalance",
      "type": "error"
    },
    {
      "inputs": [
        {
          "internalType": "address",
          "name": "approver",
          "type": "address"
        }
      ],
      "name": "ERC20InvalidApprover",
      "type": "error"
    },
    {
      "inputs": [
        {
          "internalType": "address",
          "name": "receiver",
          "type": "address"
        }
      ],
      "name": "ERC20InvalidReceiver",
      "type": "error"
    },
    {
      "inputs": [
        {
          "internalType": "address",
          "name": "sender",
          "type": "address"
        }
      ],
      "name": "ERC20InvalidSender",
      "type": "error"
    },
    {
      "inputs": [
        {
          "internalType": "address",
          "name": "spender",
          "type": "address"
        }
      ],
      "name": "ERC20InvalidSpender",
      "type": "error"
    },
    {
      "inputs": [
        {
          "internalType": "address",
          "name": "owner",
          "type": "address"
        }
      ],
      "name": "OwnableInvalidOwner",
      "type": "error"
    },
    {
      "inputs": [
        {
          "internalType": "address",
          "name": "account",
          "type": "address"
        }
      ],
      "name": "OwnableUnauthorizedAccount",
      "type": "error"
    },
    {
      "anonymous": false,
      "inputs": [
        {
          "indexed": true,
          "internalType": "address",
          "name": "owner",
          "type": "address"
        },
        {
          "indexed": true,
          "internalType": "address",
          "name": "spender",
          "type": "address"
        },
        {
          "indexed": false,
          "internalType": "uint256",
          "name": "value",
          "type": "uint256"
        }
      ],
      "name": "Approval",
      "type": "event"
    },
    {
      "anonymous": false,
      "inputs": [
        {
          "indexed": true,
          "internalType": "address",
          "name": "previousOwner",
          "type": "address"
        },
        {
          "indexed": true,
          "internalType": "address",
          "name": "newOwner",
          "type": "address"
        }
      ],
      "name": "OwnershipTransferred",
      "type": "event"
    },
    {
      "anonymous": false,
      "inputs": [
        {
          "indexed": true,
          "internalType": "address",
          "name": "from",
          "type": "address"
        },
        {
          "indexed": true,
          "internalType": "address",
          "name": "to",
          "type": "address"
        },
        {
          "indexed": false,
          "internalType": "uint256",
          "name": "value",
          "type": "uint256"
        }
      ],
      "name": "Transfer",
      "type": "event"
    },
    {
      "inputs": [
        {
          "internalType": "address",
          "name": "owner",
          "type": "address"
        },
        {
          "internalType": "address",
          "name": "spender",
          "type": "address"
        }
      ],
      "name": "allowance",
      "outputs": [
        {
          "internalType": "uint256",
          "name": "",
          "type": "uint256"
        }
      ],
      "stateMutability": "view",
      "type": "function"
    },
    {
      "inputs": [
        {
          "internalType": "address",
          "name": "spender",
          "type": "address"
        },
        {
          "internalType": "uint256",
          "name": "value",
          "type": "uint256"
        }
      ],
      "name": "approve",
      "outputs": [
        {
          "internalType": "bool",
          "name": "",
          "type": "bool"
        }
      ],
      "stateMutability": "nonpayable",
      "type": "function"
    },
    {
      "inputs": [
        {
          "internalType": "address",
          "name": "account",
          "type": "address"
        }
      ],
      "name": "balanceOf",
      "outputs": [
        {
          "internalType": "uint256",
          "name": "",
          "type": "uint256"
        }
      ],
      "stateMutability": "view",
      "type": "function"
    },
    {
      "inputs": [],
      "name": "decimals",
      "outputs": [
        {
          "internalType": "uint8",
          "name": "",
          "type": "uint8"
        }
      ],
      "stateMutability": "view",
      "type": "function"
    },
    {
      "inputs": [],
      "name": "halfLifeDuration",
      "outputs": [
        {
          "internalType": "uint256",
          "name": "",
          "type": "uint256"
        }
      ],
      "stateMutability": "view",
      "type": "function"
    },
    {
      "inputs": [],
      "name": "name",
      "outputs": [
        {
          "internalType": "string",
          "name": "",
          "type": "string"
        }
      ],
      "stateMutability": "view",
      "type": "function"
    },
    {
      "inputs": [],
      "name": "owner",
      "outputs": [
        {
          "internalType": "address",
          "name": "",
          "type": "address"
        }
      ],
      "stateMutability": "view",
      "type": "function"
    },
    {
      "inputs": [],
      "name": "renounceOwnership",
      "outputs": [],
      "stateMutability": "nonpayable",
      "type": "function"
    },
    {
      "inputs": [
        {
          "internalType": "address",
          "name": "from",
          "type": "address"
        },
        {
          "internalType": "address",
          "name": "to",
          "type": "address"
        },
        {
          "internalType": "uint256",
          "name": "amount",
          "type": "uint256"
        }
      ],
      "name": "reverseTransfer",
      "outputs": [],
      "stateMutability": "nonpayable",
      "type": "function"
    },
    {
      "inputs": [],
      "name": "symbol",
      "outputs": [
        {
          "internalType": "string",
          "name": "",
          "type": "string"
        }
      ],
      "stateMutability": "view",
      "type": "function"
    },
    {
      "inputs": [],
      "name": "totalSupply",
      "outputs": [
        {
          "internalType": "uint256",
          "name": "",
          "type": "uint256"
        }
      ],
      "stateMutability": "view",
      "type": "function"
    },
    {
      "inputs": [
        {
          "internalType": "address",
          "name": "recipient",
          "type": "address"
        },
        {
          "internalType": "uint256",
          "name": "amount",
          "type": "uint256"
        }
      ],
      "name": "transfer",
      "outputs": [
        {
          "internalType": "bool",
          "name": "",
          "type": "bool"
        }
      ],
      "stateMutability": "nonpayable",
      "type": "function"
    },
    {
      "inputs": [
        {
          "internalType": "address",
          "name": "",
          "type": "address"
        }
      ],
      "name": "transferData",
      "outputs": [
        {
          "internalType": "uint256",
          "name": "commitWindowEnd",
          "type": "uint256"
        },
        {
          "internalType": "uint256",
          "name": "halfLifeDuration",
          "type": "uint256"
        },
        {
          "internalType": "address",
          "name": "originator",
          "type": "address"
        },
        {
          "internalType": "uint256",
          "name": "transferCount",
          "type": "uint256"
        },
        {
          "internalType": "bytes32",
          "name": "reversalHash",
          "type": "bytes32"
        }
      ],
      "stateMutability": "view",
      "type": "function"
    },
    {
      "inputs": [
        {
          "internalType": "address",
          "name": "from",
          "type": "address"
        },
        {
          "internalType": "address",
          "name": "to",
          "type": "address"
        },
        {
          "internalType": "uint256",
          "name": "value",
          "type": "uint256"
        }
      ],
      "name": "transferFrom",
      "outputs": [
        {
          "internalType": "bool",
          "name": "",
          "type": "bool"
        }
      ],
      "stateMutability": "nonpayable",
      "type": "function"
    },
    {
      "inputs": [
        {
          "internalType": "address",
          "name": "newOwner",
          "type": "address"
        }
      ],
      "name": "transferOwnership",
      "outputs": [],
      "stateMutability": "nonpayable",
      "type": "function"
    }
  ],
  "bytecode": "0x6080604052610e106007553480156200001757600080fd5b50604051620024573803806200245783398181016040528101906200003d919062000593565b806040518060400160405280600d81526020017f543320537461626c65636f696e000000000000000000000000000000000000008152506040518060400160405280600281526020017f54330000000000000000000000000000000000000000000000000000000000008152508160039081620000bb91906200083f565b508060049081620000cd91906200083f565b505050600073ffffffffffffffffffffffffffffffffffffffff168173ffffffffffffffffffffffffffffffffffffffff1603620001455760006040517f1e4fbdf70000000000000000000000000000000000000000000000000000000081526004016200013c919062000937565b60405180910390fd5b62000156816200019d60201b60201c565b5062000196816200016c6200026360201b60201c565b600a6200017a919062000ae4565b620f42406200018a919062000b35565b6200026c60201b60201c565b5062000c26565b6000600560009054906101000a900473ffffffffffffffffffffffffffffffffffffffff16905081600560006101000a81548173ffffffffffffffffffffffffffffffffffffffff021916908373ffffffffffffffffffffffffffffffffffffffff1602179055508173ffffffffffffffffffffffffffffffffffffffff168173ffffffffffffffffffffffffffffffffffffffff167f8be0079c531659141344cd1fd0a4f28419497f9722a3daafe3b4186f6b6457e060405160405180910390a35050565b60006012905090565b600073ffffffffffffffffffffffffffffffffffffffff168273ffffffffffffffffffffffffffffffffffffffff1603620002e15760006040517fec442f05000000000000000000000000000000000000000000000000000000008152600401620002d8919062000937565b60405180910390fd5b620002f560008383620002f960201b60201c565b5050565b600073ffffffffffffffffffffffffffffffffffffffff168373ffffffffffffffffffffffffffffffffffffffff16036200034f57806002600082825462000342919062000b80565b9250508190555062000425565b60008060008573ffffffffffffffffffffffffffffffffffffffff1673ffffffffffffffffffffffffffffffffffffffff16815260200190815260200160002054905081811015620003de578381836040517fe450d38c000000000000000000000000000000000000000000000000000000008152600401620003d59392919062000bcc565b60405180910390fd5b8181036000808673ffffffffffffffffffffffffffffffffffffffff1673ffffffffffffffffffffffffffffffffffffffff16815260200190815260200160002081905550505b600073ffffffffffffffffffffffffffffffffffffffff168273ffffffffffffffffffffffffffffffffffffffff1603620004705780600260008282540392505081905550620004bd565b806000808473ffffffffffffffffffffffffffffffffffffffff1673ffffffffffffffffffffffffffffffffffffffff168152602001908152602001600020600082825401925050819055505b8173ffffffffffffffffffffffffffffffffffffffff168373ffffffffffffffffffffffffffffffffffffffff167fddf252ad1be2c89b69c2b068fc378daa952ba7f163c4a11628f55a4df523b3ef836040516200051c919062000c09565b60405180910390a3505050565b600080fd5b600073ffffffffffffffffffffffffffffffffffffffff82169050919050565b60006200055b826200052e565b9050919050565b6200056d816200054e565b81146200057957600080fd5b50565b6000815190506200058d8162000562565b92915050565b600060208284031215620005ac57620005ab62000529565b5b6000620005bc848285016200057c565b91505092915050565b600081519050919050565b7f4e487b7100000000000000000000000000000000000000000000000000000000600052604160045260246000fd5b7f4e487b7100000000000000000000000000000000000000000000000000000000600052602260045260246000fd5b600060028204905060018216806200064757607f821691505b6020821081036200065d576200065c620005ff565b5b50919050565b60008190508160005260206000209050919050565b60006020601f8301049050919050565b600082821b905092915050565b600060088302620006c77fffffffffffffffffffffffffffffffffffffffffffffffffffffffffffffffff8262000688565b620006d3868362000688565b95508019841693508086168417925050509392505050565b6000819050919050565b6000819050919050565b6000620007206200071a6200071484620006eb565b620006f5565b620006eb565b9050919050565b6000819050919050565b6200073c83620006ff565b620007546200074b8262000727565b84845462000695565b825550505050565b600090565b6200076b6200075c565b6200077881848462000731565b505050565b5b81811015620007a0576200079460008262000761565b6001810190506200077e565b5050565b601f821115620007ef57620007b98162000663565b620007c48462000678565b81016020851015620007d4578190505b620007ec620007e38562000678565b8301826200077d565b50505b505050565b600082821c905092915050565b60006200081460001984600802620007f4565b1980831691505092915050565b60006200082f838362000801565b9150826002028217905092915050565b6200084a82620005c5565b67ffffffffffffffff811115620008665762000865620005d0565b5b6200087282546200062e565b6200087f828285620007a4565b600060209050601f831160018114620008b75760008415620008a2578287015190505b620008ae858262000821565b8655506200091e565b601f198416620008c78662000663565b60005b82811015620008f157848901518255600182019150602085019450602081019050620008ca565b868310156200091157848901516200090d601f89168262000801565b8355505b6001600288020188555050505b505050505050565b62000931816200054e565b82525050565b60006020820190506200094e600083018462000926565b92915050565b7f4e487b7100000000000000000000000000000000000000000000000000000000600052601160045260246000fd5b60008160011c9050919050565b6000808291508390505b6001851115620009e257808604811115620009ba57620009b962000954565b5b6001851615620009ca5780820291505b8081029050620009da8562000983565b94506200099a565b94509492505050565b600082620009fd576001905062000ad0565b8162000a0d576000905062000ad0565b816001811462000a26576002811462000a315762000a67565b600191505062000ad0565b60ff84111562000a465762000a4562000954565b5b8360020a91508482111562000a605762000a5f62000954565b5b5062000ad0565b5060208310610133831016604e8410600b841016171562000aa15782820a90508381111562000a9b5762000a9a62000954565b5b62000ad0565b62000ab0848484600162000990565b9250905081840481111562000aca5762000ac962000954565b5b81810290505b9392505050565b600060ff82169050919050565b600062000af182620006eb565b915062000afe8362000ad7565b925062000b2d7fffffffffffffffffffffffffffffffffffffffffffffffffffffffffffffffff8484620009eb565b905092915050565b600062000b4282620006eb565b915062000b4f83620006eb565b925082820262000b5f81620006eb565b9150828204841483151762000b795762000b7862000954565b5b5092915050565b600062000b8d82620006eb565b915062000b9a83620006eb565b925082820190508082111562000bb55762000bb462000954565b5b92915050565b62000bc681620006eb565b82525050565b600060608201905062000be3600083018662000926565b62000bf2602083018562000bbb565b62000c01604083018462000bbb565b949350505050565b600060208201905062000c20600083018462000bbb565b92915050565b6118218062000c366000396000f3fe608060405234801561001057600080fd5b50600436106100f55760003560e01c806370a0823111610097578063a9059cbb11610066578063a9059cbb1461027c578063dd62ed3e146102ac578063f0e6ea8d146102dc578063f2fde38b146102f8576100f5565b806370a0823114610206578063715018a6146102365780638da5cb5b1461024057806395d89b411461025e576100f5565b806323b872dd116100d357806323b872dd14610166578063313ce567146101965780634c915d18146101b457806362d3f814146101d2576100f5565b806306fdde03146100fa578063095ea7b31461011857806318160ddd14610148575b600080fd5b610102610314565b60405161010f91906111f9565b60405180910390f35b610132600480360381019061012d91906112b4565b6103a6565b60405161013f919061130f565b60405180910390f35b6101506103c9565b60405161015d9190611339565b60405180910390f35b610180600480360381019061017b9190611354565b6103d3565b60405161018d919061130f565b60405180910390f35b61019e610402565b6040516101ab91906113c3565b60405180910390f35b6101bc61040b565b6040516101c99190611339565b60405180910390f35b6101ec60048036038101906101e791906113de565b610411565b6040516101fd959493929190611433565b60405180910390f35b610220600480360381019061021b91906113de565b610467565b60405161022d9190611339565b60405180910390f35b61023e6104af565b005b6102486104c3565b6040516102559190611486565b60405180910390f35b6102666104ed565b60405161027391906111f9565b60405180910390f35b610296600480360381019061029191906112b4565b61057f565b6040516102a3919061130f565b60405180910390f35b6102c660048036038101906102c191906114a1565b610720565b6040516102d39190611339565b60405180910390f35b6102f660048036038101906102f19190611354565b6107a7565b005b610312600480360381019061030d91906113de565b6109f7565b005b60606003805461032390611510565b80601f016020809104026020016040519081016040528092919081815260200182805461034f90611510565b801561039c5780601f106103715761010080835404028352916020019161039c565b820191906000526020600020905b81548152906001019060200180831161037f57829003601f168201915b5050505050905090565b6000806103b1610a7d565b90506103be818585610a85565b600191505092915050565b6000600254905090565b6000806103de610a7d565b90506103eb858285610a97565b6103f6858585610b2c565b60019150509392505050565b60006012905090565b60075481565b60066020528060005260406000206000915090508060000154908060010154908060020160009054906101000a900473ffffffffffffffffffffffffffffffffffffffff16908060030154908060040154905085565b60008060008373ffffffffffffffffffffffffffffffffffffffff1673ffffffffffffffffffffffffffffffffffffffff168152602001908152602001600020549050919050565b6104b7610c20565b6104c16000610ca7565b565b6000600560009054906101000a900473ffffffffffffffffffffffffffffffffffffffff16905090565b6060600480546104fc90611510565b80601f016020809104026020016040519081016040528092919081815260200182805461052890611510565b80156105755780601f1061054a57610100808354040283529160200191610575565b820191906000526020600020905b81548152906001019060200180831161055857829003601f168201915b5050505050905090565b600061059361058c610a7d565b8484610b2c565b6040518060a00160405280600754426105ac9190611570565b815260200160075481526020016105c1610a7d565b73ffffffffffffffffffffffffffffffffffffffff1681526020016001600660008773ffffffffffffffffffffffffffffffffffffffff1673ffffffffffffffffffffffffffffffffffffffff1681526020019081526020016000206003015461062b9190611570565b8152602001610638610a7d565b858560405160200161064c9392919061160d565b60405160208183030381529060405280519060200120815250600660008573ffffffffffffffffffffffffffffffffffffffff1673ffffffffffffffffffffffffffffffffffffffff168152602001908152602001600020600082015181600001556020820151816001015560408201518160020160006101000a81548173ffffffffffffffffffffffffffffffffffffffff021916908373ffffffffffffffffffffffffffffffffffffffff16021790555060608201518160030155608082015181600401559050506001905092915050565b6000600160008473ffffffffffffffffffffffffffffffffffffffff1673ffffffffffffffffffffffffffffffffffffffff16815260200190815260200160002060008373ffffffffffffffffffffffffffffffffffffffff1673ffffffffffffffffffffffffffffffffffffffff16815260200190815260200160002054905092915050565b6000600660008573ffffffffffffffffffffffffffffffffffffffff1673ffffffffffffffffffffffffffffffffffffffff1681526020019081526020016000206040518060a001604052908160008201548152602001600182015481526020016002820160009054906101000a900473ffffffffffffffffffffffffffffffffffffffff1673ffffffffffffffffffffffffffffffffffffffff1673ffffffffffffffffffffffffffffffffffffffff168152602001600382015481526020016004820154815250509050806040015173ffffffffffffffffffffffffffffffffffffffff16610896610a7d565b73ffffffffffffffffffffffffffffffffffffffff1614806108ea57508373ffffffffffffffffffffffffffffffffffffffff166108d2610a7d565b73ffffffffffffffffffffffffffffffffffffffff16145b610929576040517f08c379a0000000000000000000000000000000000000000000000000000000008152600401610920906116bc565b60405180910390fd5b8060000151421115610970576040517f08c379a000000000000000000000000000000000000000000000000000000000815260040161096790611728565b60405180910390fd5b60008385846040516020016109879392919061160d565b604051602081830303815290604052805190602001209050816080015181146109e5576040517f08c379a00000000000000000000000000000000000000000000000000000000081526004016109dc90611794565b60405180910390fd5b6109f0858585610b2c565b5050505050565b6109ff610c20565b600073ffffffffffffffffffffffffffffffffffffffff168173ffffffffffffffffffffffffffffffffffffffff1603610a715760006040517f1e4fbdf7000000000000000000000000000000000000000000000000000000008152600401610a689190611486565b60405180910390fd5b610a7a81610ca7565b50565b600033905090565b610a928383836001610d6d565b505050565b6000610aa38484610720565b90507fffffffffffffffffffffffffffffffffffffffffffffffffffffffffffffffff811015610b265781811015610b16578281836040517ffb8f41b2000000000000000000000000000000000000000000000000000000008152600401610b0d939291906117b4565b60405180910390fd5b610b2584848484036000610d6d565b5b50505050565b600073ffffffffffffffffffffffffffffffffffffffff168373ffffffffffffffffffffffffffffffffffffffff1603610b9e5760006040517f96c6fd1e000000000000000000000000000000000000000000000000000000008152600401610b959190611486565b60405180910390fd5b600073ffffffffffffffffffffffffffffffffffffffff168273ffffffffffffffffffffffffffffffffffffffff1603610c105760006040517fec442f05000000000000000000000000000000000000000000000000000000008152600401610c079190611486565b60405180910390fd5b610c1b838383610f44565b505050565b610c28610a7d565b73ffffffffffffffffffffffffffffffffffffffff16610c466104c3565b73ffffffffffffffffffffffffffffffffffffffff1614610ca557610c69610a7d565b6040517f118cdaa7000000000000000000000000000000000000000000000000000000008152600401610c9c9190611486565b60405180910390fd5b565b6000600560009054906101000a900473ffffffffffffffffffffffffffffffffffffffff16905081600560006101000a81548173ffffffffffffffffffffffffffffffffffffffff021916908373ffffffffffffffffffffffffffffffffffffffff1602179055508173ffffffffffffffffffffffffffffffffffffffff168173ffffffffffffffffffffffffffffffffffffffff167f8be0079c531659141344cd1fd0a4f28419497f9722a3daafe3b4186f6b6457e060405160405180910390a35050565b600073ffffffffffffffffffffffffffffffffffffffff168473ffffffffffffffffffffffffffffffffffffffff1603610ddf5760006040517fe602df05000000000000000000000000000000000000000000000000000000008152600401610dd69190611486565b60405180910390fd5b600073ffffffffffffffffffffffffffffffffffffffff168373ffffffffffffffffffffffffffffffffffffffff1603610e515760006040517f94280d62000000000000000000000000000000000000000000000000000000008152600401610e489190611486565b60405180910390fd5b81600160008673ffffffffffffffffffffffffffffffffffffffff1673ffffffffffffffffffffffffffffffffffffffff16815260200190815260200160002060008573ffffffffffffffffffffffffffffffffffffffff1673ffffffffffffffffffffffffffffffffffffffff168152602001908152602001600020819055508015610f3e578273ffffffffffffffffffffffffffffffffffffffff168473ffffffffffffffffffffffffffffffffffffffff167f8c5be1e5ebec7d5bd14f71427d1e84f3dd0314c0f7b2291e5b200ac8c7c3b92584604051610f359190611339565b60405180910390a35b50505050565b600073ffffffffffffffffffffffffffffffffffffffff168373ffffffffffffffffffffffffffffffffffffffff1603610f96578060026000828254610f8a9190611570565b92505081905550611069565b60008060008573ffffffffffffffffffffffffffffffffffffffff1673ffffffffffffffffffffffffffffffffffffffff16815260200190815260200160002054905081811015611022578381836040517fe450d38c000000000000000000000000000000000000000000000000000000008152600401611019939291906117b4565b60405180910390fd5b8181036000808673ffffffffffffffffffffffffffffffffffffffff1673ffffffffffffffffffffffffffffffffffffffff16815260200190815260200160002081905550505b600073ffffffffffffffffffffffffffffffffffffffff168273ffffffffffffffffffffffffffffffffffffffff16036110b257806002600082825403925050819055506110ff565b806000808473ffffffffffffffffffffffffffffffffffffffff1673ffffffffffffffffffffffffffffffffffffffff168152602001908152602001600020600082825401925050819055505b8173ffffffffffffffffffffffffffffffffffffffff168373ffffffffffffffffffffffffffffffffffffffff167fddf252ad1be2c89b69c2b068fc378daa952ba7f163c4a11628f55a4df523b3ef8360405161115c9190611339565b60405180910390a3505050565b600081519050919050565b600082825260208201905092915050565b60005b838110156111a3578082015181840152602081019050611188565b60008484015250505050565b6000601f19601f8301169050919050565b60006111cb82611169565b6111d58185611174565b93506111e5818560208601611185565b6111ee816111af565b840191505092915050565b6000602082019050818103600083015261121381846111c0565b905092915050565b600080fd5b600073ffffffffffffffffffffffffffffffffffffffff82169050919050565b600061124b82611220565b9050919050565b61125b81611240565b811461126657600080fd5b50565b60008135905061127881611252565b92915050565b6000819050919050565b6112918161127e565b811461129c57600080fd5b50565b6000813590506112ae81611288565b92915050565b600080604083850312156112cb576112ca61121b565b5b60006112d985828601611269565b92505060206112ea8582860161129f565b9150509250929050565b60008115159050919050565b611309816112f4565b82525050565b60006020820190506113246000830184611300565b92915050565b6113338161127e565b82525050565b600060208201905061134e600083018461132a565b92915050565b60008060006060848603121561136d5761136c61121b565b5b600061137b86828701611269565b935050602061138c86828701611269565b925050604061139d8682870161129f565b9150509250925092565b600060ff82169050919050565b6113bd816113a7565b82525050565b60006020820190506113d860008301846113b4565b92915050565b6000602082840312156113f4576113f361121b565b5b600061140284828501611269565b91505092915050565b61141481611240565b82525050565b6000819050919050565b61142d8161141a565b82525050565b600060a082019050611448600083018861132a565b611455602083018761132a565b611462604083018661140b565b61146f606083018561132a565b61147c6080830184611424565b9695505050505050565b600060208201905061149b600083018461140b565b92915050565b600080604083850312156114b8576114b761121b565b5b60006114c685828601611269565b92505060206114d785828601611269565b9150509250929050565b7f4e487b7100000000000000000000000000000000000000000000000000000000600052602260045260246000fd5b6000600282049050600182168061152857607f821691505b60208210810361153b5761153a6114e1565b5b50919050565b7f4e487b7100000000000000000000000000000000000000000000000000000000600052601160045260246000fd5b600061157b8261127e565b91506115868361127e565b925082820190508082111561159e5761159d611541565b5b92915050565b60008160601b9050919050565b60006115bc826115a4565b9050919050565b60006115ce826115b1565b9050919050565b6115e66115e182611240565b6115c3565b82525050565b6000819050919050565b6116076116028261127e565b6115ec565b82525050565b600061161982866115d5565b60148201915061162982856115d5565b60148201915061163982846115f6565b602082019150819050949350505050565b7f54333a204f6e6c792073656e646572206f7220726563697069656e742063616e60008201527f2072657665727365000000000000000000000000000000000000000000000000602082015250565b60006116a6602883611174565b91506116b18261164a565b604082019050919050565b600060208201905081810360008301526116d581611699565b9050919050565b7f54333a20526576657273616c2077696e646f7720657870697265640000000000600082015250565b6000611712601b83611174565b915061171d826116dc565b602082019050919050565b6000602082019050818103600083015261174181611705565b9050919050565b7f54333a2048617368206d69736d61746368000000000000000000000000000000600082015250565b600061177e601183611174565b915061178982611748565b602082019050919050565b600060208201905081810360008301526117ad81611771565b9050919050565b60006060820190506117c9600083018661140b565b6117d6602083018561132a565b6117e3604083018461132a565b94935050505056fea2646970667358221220799ea413243fc422fd88cb72af14a5eb39045c66be5a4f4822ccfae16e8c00fd64736f6c63430008140033",
  "linkReferences": {},
  "deployedLinkReferences": {}
}